{
  "contracts/BasedWhale.sol": {
    "BasedWhale": {
      "abi": [
        {
          "inputs": [
            {
              "internalType": "uint256",
              "name": "cap_",
              "type": "uint256"
            },
            {
              "internalType": "address",
              "name": "_owner",
              "type": "address"
            },
            {
              "internalType": "address",
              "name": "_marketingMultiSig",
              "type": "address"
            },
            {
              "internalType": "address",
              "name": "_exchangeMultiSig1",
              "type": "address"
            },
            {
              "internalType": "address",
              "name": "_exchangeMultiSig2",
              "type": "address"
            }
          ],
          "stateMutability": "nonpayable",
          "type": "constructor"
        },
        {
          "inputs": [
            {
              "internalType": "uint256",
              "name": "increasedSupply",
              "type": "uint256"
            },
            {
              "internalType": "uint256",
              "name": "cap",
              "type": "uint256"
            }
          ],
          "name": "ERC20ExceededCap",
          "type": "error"
        },
        {
          "inputs": [
            {
              "internalType": "address",
              "name": "spender",
              "type": "address"
            },
            {
              "internalType": "uint256",
              "name": "allowance",
              "type": "uint256"
            },
            {
              "internalType": "uint256",
              "name": "needed",
              "type": "uint256"
            }
          ],
          "name": "ERC20InsufficientAllowance",
          "type": "error"
        },
        {
          "inputs": [
            {
              "internalType": "address",
              "name": "sender",
              "type": "address"
            },
            {
              "internalType": "uint256",
              "name": "balance",
              "type": "uint256"
            },
            {
              "internalType": "uint256",
              "name": "needed",
              "type": "uint256"
            }
          ],
          "name": "ERC20InsufficientBalance",
          "type": "error"
        },
        {
          "inputs": [
            {
              "internalType": "address",
              "name": "approver",
              "type": "address"
            }
          ],
          "name": "ERC20InvalidApprover",
          "type": "error"
        },
        {
          "inputs": [
            {
              "internalType": "uint256",
              "name": "cap",
              "type": "uint256"
            }
          ],
          "name": "ERC20InvalidCap",
          "type": "error"
        },
        {
          "inputs": [
            {
              "internalType": "address",
              "name": "receiver",
              "type": "address"
            }
          ],
          "name": "ERC20InvalidReceiver",
          "type": "error"
        },
        {
          "inputs": [
            {
              "internalType": "address",
              "name": "sender",
              "type": "address"
            }
          ],
          "name": "ERC20InvalidSender",
          "type": "error"
        },
        {
          "inputs": [
            {
              "internalType": "address",
              "name": "spender",
              "type": "address"
            }
          ],
          "name": "ERC20InvalidSpender",
          "type": "error"
        },
        {
          "inputs": [
            {
              "internalType": "address",
              "name": "owner",
              "type": "address"
            }
          ],
          "name": "OwnableInvalidOwner",
          "type": "error"
        },
        {
          "inputs": [
            {
              "internalType": "address",
              "name": "account",
              "type": "address"
            }
          ],
          "name": "OwnableUnauthorizedAccount",
          "type": "error"
        },
        {
          "anonymous": false,
          "inputs": [
            {
              "indexed": true,
              "internalType": "address",
              "name": "owner",
              "type": "address"
            },
            {
              "indexed": true,
              "internalType": "address",
              "name": "spender",
              "type": "address"
            },
            {
              "indexed": false,
              "internalType": "uint256",
              "name": "value",
              "type": "uint256"
            }
          ],
          "name": "Approval",
          "type": "event"
        },
        {
          "anonymous": false,
          "inputs": [
            {
              "indexed": false,
              "internalType": "address",
              "name": "buyerAddress",
              "type": "address"
            },
            {
              "indexed": false,
              "internalType": "uint256",
              "name": "amountOfTokens",
              "type": "uint256"
            },
            {
              "indexed": false,
              "internalType": "uint256",
              "name": "taxAmount",
              "type": "uint256"
            },
            {
              "indexed": false,
              "internalType": "uint256",
              "name": "timestamp",
              "type": "uint256"
            }
          ],
          "name": "BuyTaxed",
          "type": "event"
        },
        {
          "anonymous": false,
          "inputs": [
            {
              "indexed": false,
              "internalType": "address",
              "name": "launcherAddress",
              "type": "address"
            },
            {
              "indexed": false,
              "internalType": "uint256",
              "name": "timestamp",
              "type": "uint256"
            }
          ],
          "name": "Launched",
          "type": "event"
        },
        {
          "anonymous": false,
          "inputs": [
            {
              "indexed": false,
              "internalType": "address",
              "name": "liquidityPairAddress",
              "type": "address"
            },
            {
              "indexed": false,
              "internalType": "uint256",
              "name": "amountOfTokens",
              "type": "uint256"
            },
            {
              "indexed": false,
              "internalType": "uint256",
              "name": "amountOfETH",
              "type": "uint256"
            },
            {
              "indexed": false,
              "internalType": "uint256",
              "name": "amountOfLiquidityTokensBurned",
              "type": "uint256"
            },
            {
              "indexed": false,
              "internalType": "uint256",
              "name": "timestamp",
              "type": "uint256"
            }
          ],
          "name": "LiquidityLocked",
          "type": "event"
        },
        {
          "anonymous": false,
          "inputs": [
            {
              "indexed": false,
              "internalType": "address",
              "name": "renouncerAddress",
              "type": "address"
            },
            {
              "indexed": false,
              "internalType": "address",
              "name": "nullAddressOwner",
              "type": "address"
            },
            {
              "indexed": false,
              "internalType": "uint256",
              "name": "timestamp",
              "type": "uint256"
            }
          ],
          "name": "OwnershipRenounced",
          "type": "event"
        },
        {
          "anonymous": false,
          "inputs": [
            {
              "indexed": true,
              "internalType": "address",
              "name": "previousOwner",
              "type": "address"
            },
            {
              "indexed": true,
              "internalType": "address",
              "name": "newOwner",
              "type": "address"
            }
          ],
          "name": "OwnershipTransferred",
          "type": "event"
        },
        {
          "anonymous": false,
          "inputs": [
            {
              "indexed": false,
              "internalType": "address",
              "name": "sellerAddress",
              "type": "address"
            },
            {
              "indexed": false,
              "internalType": "uint256",
              "name": "amountOfTokens",
              "type": "uint256"
            },
            {
              "indexed": false,
              "internalType": "uint256",
              "name": "taxAmount",
              "type": "uint256"
            },
            {
              "indexed": false,
              "internalType": "uint256",
              "name": "timestamp",
              "type": "uint256"
            }
          ],
          "name": "SellTaxed",
          "type": "event"
        },
        {
          "anonymous": false,
          "inputs": [
            {
              "indexed": false,
              "internalType": "uint256",
              "name": "zeroedBuyTaxRate",
              "type": "uint256"
            },
            {
              "indexed": false,
              "internalType": "uint256",
              "name": "zeroedSellTaxRate",
              "type": "uint256"
            },
            {
              "indexed": false,
              "internalType": "uint256",
              "name": "timestamp",
              "type": "uint256"
            }
          ],
          "name": "TaxRatesSetToZero",
          "type": "event"
        },
        {
          "anonymous": false,
          "inputs": [
            {
              "indexed": true,
              "internalType": "address",
              "name": "from",
              "type": "address"
            },
            {
              "indexed": true,
              "internalType": "address",
              "name": "to",
              "type": "address"
            },
            {
              "indexed": false,
              "internalType": "uint256",
              "name": "value",
              "type": "uint256"
            }
          ],
          "name": "Transfer",
          "type": "event"
        },
        {
          "inputs": [],
          "name": "BURN_ADDRESS",
          "outputs": [
            {
              "internalType": "address",
              "name": "",
              "type": "address"
            }
          ],
          "stateMutability": "view",
          "type": "function"
        },
        {
          "inputs": [],
          "name": "TOKEN_NAME",
          "outputs": [
            {
              "internalType": "string",
              "name": "",
              "type": "string"
            }
          ],
          "stateMutability": "view",
          "type": "function"
        },
        {
          "inputs": [],
          "name": "TOKEN_TICKER_SYMBOL",
          "outputs": [
            {
              "internalType": "string",
              "name": "",
              "type": "string"
            }
          ],
          "stateMutability": "view",
          "type": "function"
        },
        {
          "inputs": [
            {
              "internalType": "address",
              "name": "owner",
              "type": "address"
            },
            {
              "internalType": "address",
              "name": "spender",
              "type": "address"
            }
          ],
          "name": "allowance",
          "outputs": [
            {
              "internalType": "uint256",
              "name": "",
              "type": "uint256"
            }
          ],
          "stateMutability": "view",
          "type": "function"
        },
        {
          "inputs": [
            {
              "internalType": "address",
              "name": "spender",
              "type": "address"
            },
            {
              "internalType": "uint256",
              "name": "value",
              "type": "uint256"
            }
          ],
          "name": "approve",
          "outputs": [
            {
              "internalType": "bool",
              "name": "",
              "type": "bool"
            }
          ],
          "stateMutability": "nonpayable",
          "type": "function"
        },
        {
          "inputs": [
            {
              "internalType": "address",
              "name": "account",
              "type": "address"
            }
          ],
          "name": "balanceOf",
          "outputs": [
            {
              "internalType": "uint256",
              "name": "",
              "type": "uint256"
            }
          ],
          "stateMutability": "view",
          "type": "function"
        },
        {
          "inputs": [],
          "name": "buyTaxRate",
          "outputs": [
            {
              "internalType": "uint256",
              "name": "",
              "type": "uint256"
            }
          ],
          "stateMutability": "view",
          "type": "function"
        },
        {
          "inputs": [],
          "name": "cap",
          "outputs": [
            {
              "internalType": "uint256",
              "name": "",
              "type": "uint256"
            }
          ],
          "stateMutability": "view",
          "type": "function"
        },
        {
          "inputs": [],
          "name": "decimals",
          "outputs": [
            {
              "internalType": "uint8",
              "name": "",
              "type": "uint8"
            }
          ],
          "stateMutability": "view",
          "type": "function"
        },
        {
          "inputs": [],
          "name": "exchangeMultiSig1",
          "outputs": [
            {
              "internalType": "address",
              "name": "",
              "type": "address"
            }
          ],
          "stateMutability": "view",
          "type": "function"
        },
        {
          "inputs": [],
          "name": "exchangeMultiSig2",
          "outputs": [
            {
              "internalType": "address",
              "name": "",
              "type": "address"
            }
          ],
          "stateMutability": "view",
          "type": "function"
        },
        {
          "inputs": [
            {
              "internalType": "address",
              "name": "_uniswapV2Router",
              "type": "address"
            }
          ],
          "name": "initializeUniswapLiquidity",
          "outputs": [],
          "stateMutability": "payable",
          "type": "function"
        },
        {
          "inputs": [],
          "name": "marketingMultiSig",
          "outputs": [
            {
              "internalType": "address",
              "name": "",
              "type": "address"
            }
          ],
          "stateMutability": "view",
          "type": "function"
        },
        {
          "inputs": [],
          "name": "mintRemainingSupplyForManualLiquidityProvisioning",
          "outputs": [],
          "stateMutability": "nonpayable",
          "type": "function"
        },
        {
          "inputs": [],
          "name": "moveStateToLiquidityLocked",
          "outputs": [],
          "stateMutability": "nonpayable",
          "type": "function"
        },
        {
          "inputs": [],
          "name": "name",
          "outputs": [
            {
              "internalType": "string",
              "name": "",
              "type": "string"
            }
          ],
          "stateMutability": "view",
          "type": "function"
        },
        {
          "inputs": [],
          "name": "owner",
          "outputs": [
            {
              "internalType": "address",
              "name": "",
              "type": "address"
            }
          ],
          "stateMutability": "view",
          "type": "function"
        },
        {
          "inputs": [],
          "name": "renounceOwnership",
          "outputs": [],
          "stateMutability": "nonpayable",
          "type": "function"
        },
        {
          "inputs": [],
          "name": "sellTaxRate",
          "outputs": [
            {
              "internalType": "uint256",
              "name": "",
              "type": "uint256"
            }
          ],
          "stateMutability": "view",
          "type": "function"
        },
        {
          "inputs": [],
          "name": "setTaxRatesToZero",
          "outputs": [],
          "stateMutability": "nonpayable",
          "type": "function"
        },
        {
          "inputs": [],
          "name": "symbol",
          "outputs": [
            {
              "internalType": "string",
              "name": "",
              "type": "string"
            }
          ],
          "stateMutability": "view",
          "type": "function"
        },
        {
          "inputs": [],
          "name": "tokenState",
          "outputs": [
            {
              "internalType": "enum BasedWhale.TokenState",
              "name": "",
              "type": "uint8"
            }
          ],
          "stateMutability": "view",
          "type": "function"
        },
        {
          "inputs": [],
          "name": "totalSupply",
          "outputs": [
            {
              "internalType": "uint256",
              "name": "",
              "type": "uint256"
            }
          ],
          "stateMutability": "view",
          "type": "function"
        },
        {
          "inputs": [
            {
              "internalType": "address",
              "name": "to",
              "type": "address"
            },
            {
              "internalType": "uint256",
              "name": "value",
              "type": "uint256"
            }
          ],
          "name": "transfer",
          "outputs": [
            {
              "internalType": "bool",
              "name": "",
              "type": "bool"
            }
          ],
          "stateMutability": "nonpayable",
          "type": "function"
        },
        {
          "inputs": [
            {
              "internalType": "address",
              "name": "from",
              "type": "address"
            },
            {
              "internalType": "address",
              "name": "to",
              "type": "address"
            },
            {
              "internalType": "uint256",
              "name": "value",
              "type": "uint256"
            }
          ],
          "name": "transferFrom",
          "outputs": [
            {
              "internalType": "bool",
              "name": "",
              "type": "bool"
            }
          ],
          "stateMutability": "nonpayable",
          "type": "function"
        },
        {
          "inputs": [
            {
              "internalType": "address",
              "name": "newOwner",
              "type": "address"
            }
          ],
          "name": "transferOwnership",
          "outputs": [],
          "stateMutability": "nonpayable",
          "type": "function"
        },
        {
          "inputs": [],
          "name": "uniswapV2PairAddress",
          "outputs": [
            {
              "internalType": "address",
              "name": "",
              "type": "address"
            }
          ],
          "stateMutability": "view",
          "type": "function"
        },
        {
          "inputs": [],
          "name": "uniswapV2Router",
          "outputs": [
            {
              "internalType": "contract IUniswapV2Router02",
              "name": "",
              "type": "address"
            }
          ],
          "stateMutability": "view",
          "type": "function"
        },
        {
          "stateMutability": "payable",
          "type": "receive"
        }
      ],
      "evm": {
        "bytecode": {
          "linkReferences": {},
          "object": "60a0604052606460095561012c600a553480156200001c57600080fd5b5060405162003b9538038062003b95833981810160405281019062000042919062000bb9565b83620000536200043060201b60201c565b60ff16600a62000064919062000dc4565b8662000071919062000e15565b6040518060400160405280600b81526020017f4261736564205768616c650000000000000000000000000000000000000000008152506040518060400160405280600581526020017f5748414c450000000000000000000000000000000000000000000000000000008152508160039081620000ee9190620010d0565b508060049081620001009190620010d0565b505050600081036200014c5760006040517f392e1e27000000000000000000000000000000000000000000000000000000008152600401620001439190620011fa565b60405180910390fd5b806080818152505050600073ffffffffffffffffffffffffffffffffffffffff168173ffffffffffffffffffffffffffffffffffffffff1603620001ca5760006040517f1e4fbdf7000000000000000000000000000000000000000000000000000000008152600401620001c1919062001228565b60405180910390fd5b620001db816200043960201b60201c565b5082600660006101000a81548173ffffffffffffffffffffffffffffffffffffffff021916908373ffffffffffffffffffffffffffffffffffffffff16021790555081600760006101000a81548173ffffffffffffffffffffffffffffffffffffffff021916908373ffffffffffffffffffffffffffffffffffffffff16021790555080600860006101000a81548173ffffffffffffffffffffffffffffffffffffffff021916908373ffffffffffffffffffffffffffffffffffffffff160217905550620002fe600660009054906101000a900473ffffffffffffffffffffffffffffffffffffffff1660646005620002da620004ff60201b60201c565b620002e6919062000e15565b620002f2919062001274565b6200050960201b60201c565b6200035d600760009054906101000a900473ffffffffffffffffffffffffffffffffffffffff166064600562000339620004ff60201b60201c565b62000345919062000e15565b62000351919062001274565b6200050960201b60201c565b620003bc600860009054906101000a900473ffffffffffffffffffffffffffffffffffffffff166064600562000398620004ff60201b60201c565b620003a4919062000e15565b620003b0919062001274565b6200050960201b60201c565b7f8ad1ba2dbd33c6313fa50cd4016351a36437d7dcd0e0800a3a0b191d22095d933342604051620003ef929190620012bd565b60405180910390a16001600560146101000a81548160ff0219169083600481111562000420576200041f620012ea565b5b0217905550505050505062001463565b60006012905090565b6000600560009054906101000a900473ffffffffffffffffffffffffffffffffffffffff16905081600560006101000a81548173ffffffffffffffffffffffffffffffffffffffff021916908373ffffffffffffffffffffffffffffffffffffffff1602179055508173ffffffffffffffffffffffffffffffffffffffff168173ffffffffffffffffffffffffffffffffffffffff167f8be0079c531659141344cd1fd0a4f28419497f9722a3daafe3b4186f6b6457e060405160405180910390a35050565b6000608051905090565b600073ffffffffffffffffffffffffffffffffffffffff168273ffffffffffffffffffffffffffffffffffffffff16036200057e5760006040517fec442f0500000000000000000000000000000000000000000000000000000000815260040162000575919062001228565b60405180910390fd5b62000592600083836200059660201b60201c565b5050565b60026004811115620005ad57620005ac620012ea565b5b600560149054906101000a900460ff166004811115620005d257620005d1620012ea565b5b14158062000619575060036004811115620005f257620005f1620012ea565b5b600560149054906101000a900460ff166004811115620006175762000616620012ea565b5b145b156200063857620006328383836200081860201b60201c565b62000813565b6000600b60009054906101000a900473ffffffffffffffffffffffffffffffffffffffff1673ffffffffffffffffffffffffffffffffffffffff168373ffffffffffffffffffffffffffffffffffffffff1603620006f6576103e8600a5483620006a3919062000e15565b620006af919062001274565b90507f4021301da943ce70706f02c0638c48f65e27cd0642ffd0550536995af05e70cc84838342604051620006e8949392919062001319565b60405180910390a1620007ae565b600b60009054906101000a900473ffffffffffffffffffffffffffffffffffffffff1673ffffffffffffffffffffffffffffffffffffffff168473ffffffffffffffffffffffffffffffffffffffff1603620007ad576103e8600954836200075f919062000e15565b6200076b919062001274565b90507f4cb653ef0afb6a8ec8b4b9286771cadc8e586225744651cd05b4b475ab88127283838342604051620007a4949392919062001319565b60405180910390a15b5b6000811115620007fe57620007ed84600660009054906101000a900473ffffffffffffffffffffffffffffffffffffffff16836200081860201b60201c565b8082620007fb919062001366565b91505b620008118484846200081860201b60201c565b505b505050565b6200082b838383620008da60201b60201c565b600073ffffffffffffffffffffffffffffffffffffffff168373ffffffffffffffffffffffffffffffffffffffff1603620008d557600062000872620004ff60201b60201c565b905060006200088662000b0a60201b60201c565b905081811115620008d25780826040517f9e79f854000000000000000000000000000000000000000000000000000000008152600401620008c9929190620013a1565b60405180910390fd5b50505b505050565b600073ffffffffffffffffffffffffffffffffffffffff168373ffffffffffffffffffffffffffffffffffffffff160362000930578060026000828254620009239190620013ce565b9250508190555062000a06565b60008060008573ffffffffffffffffffffffffffffffffffffffff1673ffffffffffffffffffffffffffffffffffffffff16815260200190815260200160002054905081811015620009bf578381836040517fe450d38c000000000000000000000000000000000000000000000000000000008152600401620009b69392919062001409565b60405180910390fd5b8181036000808673ffffffffffffffffffffffffffffffffffffffff1673ffffffffffffffffffffffffffffffffffffffff16815260200190815260200160002081905550505b600073ffffffffffffffffffffffffffffffffffffffff168273ffffffffffffffffffffffffffffffffffffffff160362000a51578060026000828254039250508190555062000a9e565b806000808473ffffffffffffffffffffffffffffffffffffffff1673ffffffffffffffffffffffffffffffffffffffff168152602001908152602001600020600082825401925050819055505b8173ffffffffffffffffffffffffffffffffffffffff168373ffffffffffffffffffffffffffffffffffffffff167fddf252ad1be2c89b69c2b068fc378daa952ba7f163c4a11628f55a4df523b3ef8360405162000afd919062001446565b60405180910390a3505050565b6000600254905090565b600080fd5b6000819050919050565b62000b2e8162000b19565b811462000b3a57600080fd5b50565b60008151905062000b4e8162000b23565b92915050565b600073ffffffffffffffffffffffffffffffffffffffff82169050919050565b600062000b818262000b54565b9050919050565b62000b938162000b74565b811462000b9f57600080fd5b50565b60008151905062000bb38162000b88565b92915050565b600080600080600060a0868803121562000bd85762000bd762000b14565b5b600062000be88882890162000b3d565b955050602062000bfb8882890162000ba2565b945050604062000c0e8882890162000ba2565b935050606062000c218882890162000ba2565b925050608062000c348882890162000ba2565b9150509295509295909350565b7f4e487b7100000000000000000000000000000000000000000000000000000000600052601160045260246000fd5b60008160011c9050919050565b6000808291508390505b600185111562000ccf5780860481111562000ca75762000ca662000c41565b5b600185161562000cb75780820291505b808102905062000cc78562000c70565b945062000c87565b94509492505050565b60008262000cea576001905062000dbd565b8162000cfa576000905062000dbd565b816001811462000d13576002811462000d1e5762000d54565b600191505062000dbd565b60ff84111562000d335762000d3262000c41565b5b8360020a91508482111562000d4d5762000d4c62000c41565b5b5062000dbd565b5060208310610133831016604e8410600b841016171562000d8e5782820a90508381111562000d885762000d8762000c41565b5b62000dbd565b62000d9d848484600162000c7d565b9250905081840481111562000db75762000db662000c41565b5b81810290505b9392505050565b600062000dd18262000b19565b915062000dde8362000b19565b925062000e0d7fffffffffffffffffffffffffffffffffffffffffffffffffffffffffffffffff848462000cd8565b905092915050565b600062000e228262000b19565b915062000e2f8362000b19565b925082820262000e3f8162000b19565b9150828204841483151762000e595762000e5862000c41565b5b5092915050565b600081519050919050565b7f4e487b7100000000000000000000000000000000000000000000000000000000600052604160045260246000fd5b7f4e487b7100000000000000000000000000000000000000000000000000000000600052602260045260246000fd5b6000600282049050600182168062000ee257607f821691505b60208210810362000ef85762000ef762000e9a565b5b50919050565b60008190508160005260206000209050919050565b60006020601f8301049050919050565b600082821b905092915050565b60006008830262000f627fffffffffffffffffffffffffffffffffffffffffffffffffffffffffffffffff8262000f23565b62000f6e868362000f23565b95508019841693508086168417925050509392505050565b6000819050919050565b600062000fb162000fab62000fa58462000b19565b62000f86565b62000b19565b9050919050565b6000819050919050565b62000fcd8362000f90565b62000fe562000fdc8262000fb8565b84845462000f30565b825550505050565b600090565b62000ffc62000fed565b6200100981848462000fc2565b505050565b5b8181101562001031576200102560008262000ff2565b6001810190506200100f565b5050565b601f82111562001080576200104a8162000efe565b620010558462000f13565b8101602085101562001065578190505b6200107d620010748562000f13565b8301826200100e565b50505b505050565b600082821c905092915050565b6000620010a56000198460080262001085565b1980831691505092915050565b6000620010c0838362001092565b9150826002028217905092915050565b620010db8262000e60565b67ffffffffffffffff811115620010f757620010f662000e6b565b5b62001103825462000ec9565b6200111082828562001035565b600060209050601f83116001811462001148576000841562001133578287015190505b6200113f8582620010b2565b865550620011af565b601f198416620011588662000efe565b60005b8281101562001182578489015182556001820191506020850194506020810190506200115b565b86831015620011a257848901516200119e601f89168262001092565b8355505b6001600288020188555050505b505050505050565b6000819050919050565b6000620011e2620011dc620011d684620011b7565b62000f86565b62000b19565b9050919050565b620011f481620011c1565b82525050565b6000602082019050620012116000830184620011e9565b92915050565b620012228162000b74565b82525050565b60006020820190506200123f600083018462001217565b92915050565b7f4e487b7100000000000000000000000000000000000000000000000000000000600052601260045260246000fd5b6000620012818262000b19565b91506200128e8362000b19565b925082620012a157620012a062001245565b5b828204905092915050565b620012b78162000b19565b82525050565b6000604082019050620012d4600083018562001217565b620012e36020830184620012ac565b9392505050565b7f4e487b7100000000000000000000000000000000000000000000000000000000600052602160045260246000fd5b600060808201905062001330600083018762001217565b6200133f6020830186620012ac565b6200134e6040830185620012ac565b6200135d6060830184620012ac565b95945050505050565b6000620013738262000b19565b9150620013808362000b19565b92508282039050818111156200139b576200139a62000c41565b5b92915050565b6000604082019050620013b86000830185620012ac565b620013c76020830184620012ac565b9392505050565b6000620013db8262000b19565b9150620013e88362000b19565b925082820190508082111562001403576200140262000c41565b5b92915050565b600060608201905062001420600083018662001217565b6200142f6020830185620012ac565b6200143e6040830184620012ac565b949350505050565b60006020820190506200145d6000830184620012ac565b92915050565b6080516127166200147f60003960006107fa01526127166000f3fe6080604052600436106101bb5760003560e01c8063691f224f116100ec578063c56a4c381161008a578063e90dd9e211610064578063e90dd9e2146105de578063eaff1cbc14610609578063f2fde38b14610620578063fccc281314610649576101c2565b8063c56a4c3814610573578063d962eccc1461058a578063dd62ed3e146105a1576101c2565b806385df1d1c116100c657806385df1d1c146104b55780638da5cb5b146104e057806395d89b411461050b578063a9059cbb14610536576101c2565b8063691f224f1461043657806370a0823114610461578063715018a61461049e576101c2565b80632b653d44116101595780635265ee55116101335780635265ee551461039957806352cd2388146103c45780635ecf7a67146103ef57806363cae94f1461040b576101c2565b80632b653d4414610318578063313ce56714610343578063355274ea1461036e576101c2565b806318160ddd1161019557806318160ddd1461025a578063188214001461028557806323b872dd146102b057806324024efd146102ed576101c2565b806306fdde03146101c7578063095ea7b3146101f25780631694505e1461022f576101c2565b366101c257005b600080fd5b3480156101d357600080fd5b506101dc610674565b6040516101e99190611e2b565b60405180910390f35b3480156101fe57600080fd5b5061021960048036038101906102149190611ee6565b610706565b6040516102269190611f41565b60405180910390f35b34801561023b57600080fd5b50610244610729565b6040516102519190611fbb565b60405180910390f35b34801561026657600080fd5b5061026f61074f565b60405161027c9190611fe5565b60405180910390f35b34801561029157600080fd5b5061029a610759565b6040516102a79190611e2b565b60405180910390f35b3480156102bc57600080fd5b506102d760048036038101906102d29190612000565b610792565b6040516102e49190611f41565b60405180910390f35b3480156102f957600080fd5b506103026107c1565b60405161030f9190611fe5565b60405180910390f35b34801561032457600080fd5b5061032d6107c7565b60405161033a9190612062565b60405180910390f35b34801561034f57600080fd5b506103586107ed565b6040516103659190612099565b60405180910390f35b34801561037a57600080fd5b506103836107f6565b6040516103909190611fe5565b60405180910390f35b3480156103a557600080fd5b506103ae61081e565b6040516103bb9190611e2b565b60405180910390f35b3480156103d057600080fd5b506103d9610857565b6040516103e69190612062565b60405180910390f35b610409600480360381019061040491906120b4565b61087d565b005b34801561041757600080fd5b50610420610d42565b60405161042d9190612062565b60405180910390f35b34801561044257600080fd5b5061044b610d68565b6040516104589190611fe5565b60405180910390f35b34801561046d57600080fd5b50610488600480360381019061048391906120b4565b610d6e565b6040516104959190611fe5565b60405180910390f35b3480156104aa57600080fd5b506104b3610db6565b005b3480156104c157600080fd5b506104ca610ead565b6040516104d79190612062565b60405180910390f35b3480156104ec57600080fd5b506104f5610ed3565b6040516105029190612062565b60405180910390f35b34801561051757600080fd5b50610520610efd565b60405161052d9190611e2b565b60405180910390f35b34801561054257600080fd5b5061055d60048036038101906105589190611ee6565b610f8f565b60405161056a9190611f41565b60405180910390f35b34801561057f57600080fd5b50610588610fb2565b005b34801561059657600080fd5b5061059f61105f565b005b3480156105ad57600080fd5b506105c860048036038101906105c391906120e1565b61110a565b6040516105d59190611fe5565b60405180910390f35b3480156105ea57600080fd5b506105f3611191565b6040516106009190612198565b60405180910390f35b34801561061557600080fd5b5061061e6111a4565b005b34801561062c57600080fd5b50610647600480360381019061064291906120b4565b6112a0565b005b34801561065557600080fd5b5061065e611326565b60405161066b9190612062565b60405180910390f35b606060038054610683906121e2565b80601f01602080910402602001604051908101604052809291908181526020018280546106af906121e2565b80156106fc5780601f106106d1576101008083540402835291602001916106fc565b820191906000526020600020905b8154815290600101906020018083116106df57829003601f168201915b5050505050905090565b60008061071161132b565b905061071e818585611333565b600191505092915050565b600c60009054906101000a900473ffffffffffffffffffffffffffffffffffffffff1681565b6000600254905090565b6040518060400160405280600b81526020017f4261736564205768616c6500000000000000000000000000000000000000000081525081565b60008061079d61132b565b90506107aa858285611345565b6107b58585856113d9565b60019150509392505050565b600a5481565b600b60009054906101000a900473ffffffffffffffffffffffffffffffffffffffff1681565b60006012905090565b60007f0000000000000000000000000000000000000000000000000000000000000000905090565b6040518060400160405280600581526020017f5748414c4500000000000000000000000000000000000000000000000000000081525081565b600860009054906101000a900473ffffffffffffffffffffffffffffffffffffffff1681565b6108856114cd565b600180600481111561089a57610899612121565b5b600560149054906101000a900460ff1660048111156108bc576108bb612121565b5b146108fc576040517f08c379a00000000000000000000000000000000000000000000000000000000081526004016108f390612285565b60405180910390fd5b81600c60006101000a81548173ffffffffffffffffffffffffffffffffffffffff021916908373ffffffffffffffffffffffffffffffffffffffff160217905550600c60009054906101000a900473ffffffffffffffffffffffffffffffffffffffff1673ffffffffffffffffffffffffffffffffffffffff1663c45a01556040518163ffffffff1660e01b8152600401602060405180830381865afa1580156109aa573d6000803e3d6000fd5b505050506040513d601f19601f820116820180604052508101906109ce91906122ba565b73ffffffffffffffffffffffffffffffffffffffff1663c9c6539630600c60009054906101000a900473ffffffffffffffffffffffffffffffffffffffff1673ffffffffffffffffffffffffffffffffffffffff1663ad5c46486040518163ffffffff1660e01b8152600401602060405180830381865afa158015610a57573d6000803e3d6000fd5b505050506040513d601f19601f82011682018060405250810190610a7b91906122ba565b6040518363ffffffff1660e01b8152600401610a989291906122e7565b6020604051808303816000875af1158015610ab7573d6000803e3d6000fd5b505050506040513d601f19601f82011682018060405250810190610adb91906122ba565b600b60006101000a81548173ffffffffffffffffffffffffffffffffffffffff021916908373ffffffffffffffffffffffffffffffffffffffff160217905550600060646055610b296107f6565b610b33919061233f565b610b3d91906123b0565b9050610b493082611554565b610b54308483611333565b6000429050600080600c60009054906101000a900473ffffffffffffffffffffffffffffffffffffffff1673ffffffffffffffffffffffffffffffffffffffff1663f305d71934308760008060008a6040518863ffffffff1660e01b8152600401610bc49695949392919061241c565b60606040518083038185885af1158015610be2573d6000803e3d6000fd5b50505050506040513d601f19601f82011682018060405250810190610c079190612492565b50915091506000600b60009054906101000a900473ffffffffffffffffffffffffffffffffffffffff1690507ff07f8699eb5a7d3c6903aba7ffc0b932e8e123129924f6aa4e3e95b04ba25179600b60009054906101000a900473ffffffffffffffffffffffffffffffffffffffff1684848473ffffffffffffffffffffffffffffffffffffffff166370a0823160006040518263ffffffff1660e01b8152600401610cb39190612062565b602060405180830381865afa158015610cd0573d6000803e3d6000fd5b505050506040513d601f19601f82011682018060405250810190610cf491906124e5565b88604051610d06959493929190612512565b60405180910390a16002600560146101000a81548160ff02191690836004811115610d3457610d33612121565b5b021790555050505050505050565b600660009054906101000a900473ffffffffffffffffffffffffffffffffffffffff1681565b60095481565b60008060008373ffffffffffffffffffffffffffffffffffffffff1673ffffffffffffffffffffffffffffffffffffffff168152602001908152602001600020549050919050565b610dbe6114cd565b6003806004811115610dd357610dd2612121565b5b600560149054906101000a900460ff166004811115610df557610df4612121565b5b14610e35576040517f08c379a0000000000000000000000000000000000000000000000000000000008152600401610e2c90612285565b60405180910390fd5b7fbc3fa950185893c8ddfff1dafec540ffc8d7e576295fea983a515e9a8e03acd733610e5f610ed3565b42604051610e6f93929190612565565b60405180910390a16004600560146101000a81548160ff02191690836004811115610e9d57610e9c612121565b5b0217905550610eaa6115d6565b50565b600760009054906101000a900473ffffffffffffffffffffffffffffffffffffffff1681565b6000600560009054906101000a900473ffffffffffffffffffffffffffffffffffffffff16905090565b606060048054610f0c906121e2565b80601f0160208091040260200160405190810160405280929190818152602001828054610f38906121e2565b8015610f855780601f10610f5a57610100808354040283529160200191610f85565b820191906000526020600020905b815481529060010190602001808311610f6857829003601f168201915b5050505050905090565b600080610f9a61132b565b9050610fa78185856113d9565b600191505092915050565b610fba6114cd565b6001806004811115610fcf57610fce612121565b5b600560149054906101000a900460ff166004811115610ff157610ff0612121565b5b14611031576040517f08c379a000000000000000000000000000000000000000000000000000000000815260040161102890612285565b60405180910390fd5b6002600560146101000a81548160ff0219169083600481111561105757611056612121565b5b021790555050565b6110676114cd565b600180600481111561107c5761107b612121565b5b600560149054906101000a900460ff16600481111561109e5761109d612121565b5b146110de576040517f08c379a00000000000000000000000000000000000000000000000000000000081526004016110d590612285565b60405180910390fd5b60006110e861074f565b6110f06107f6565b6110fa919061259c565b90506111063382611554565b5050565b6000600160008473ffffffffffffffffffffffffffffffffffffffff1673ffffffffffffffffffffffffffffffffffffffff16815260200190815260200160002060008373ffffffffffffffffffffffffffffffffffffffff1673ffffffffffffffffffffffffffffffffffffffff16815260200190815260200160002054905092915050565b600560149054906101000a900460ff1681565b6111ac6114cd565b60028060048111156111c1576111c0612121565b5b600560149054906101000a900460ff1660048111156111e3576111e2612121565b5b14611223576040517f08c379a000000000000000000000000000000000000000000000000000000000815260040161121a90612285565b60405180910390fd5b60006009819055506000600a819055507fc4c7c69f1eeef4dcf5449fcee968e149b2646d141f0d9bb3d1de12de99d77f7e600954600a544260405161126a939291906125d0565b60405180910390a16003600560146101000a81548160ff0219169083600481111561129857611297612121565b5b021790555050565b6112a86114cd565b600073ffffffffffffffffffffffffffffffffffffffff168173ffffffffffffffffffffffffffffffffffffffff160361131a5760006040517f1e4fbdf70000000000000000000000000000000000000000000000000000000081526004016113119190612062565b60405180910390fd5b611323816115ea565b50565b600081565b600033905090565b61134083838360016116b0565b505050565b6000611351848461110a565b90507fffffffffffffffffffffffffffffffffffffffffffffffffffffffffffffffff81146113d357818110156113c3578281836040517ffb8f41b20000000000000000000000000000000000000000000000000000000081526004016113ba93929190612607565b60405180910390fd5b6113d2848484840360006116b0565b5b50505050565b600073ffffffffffffffffffffffffffffffffffffffff168373ffffffffffffffffffffffffffffffffffffffff160361144b5760006040517f96c6fd1e0000000000000000000000000000000000000000000000000000000081526004016114429190612062565b60405180910390fd5b600073ffffffffffffffffffffffffffffffffffffffff168273ffffffffffffffffffffffffffffffffffffffff16036114bd5760006040517fec442f050000000000000000000000000000000000000000000000000000000081526004016114b49190612062565b60405180910390fd5b6114c8838383611887565b505050565b6114d561132b565b73ffffffffffffffffffffffffffffffffffffffff166114f3610ed3565b73ffffffffffffffffffffffffffffffffffffffff16146115525761151661132b565b6040517f118cdaa70000000000000000000000000000000000000000000000000000000081526004016115499190612062565b60405180910390fd5b565b600073ffffffffffffffffffffffffffffffffffffffff168273ffffffffffffffffffffffffffffffffffffffff16036115c65760006040517fec442f050000000000000000000000000000000000000000000000000000000081526004016115bd9190612062565b60405180910390fd5b6115d260008383611887565b5050565b6115de6114cd565b6115e860006115ea565b565b6000600560009054906101000a900473ffffffffffffffffffffffffffffffffffffffff16905081600560006101000a81548173ffffffffffffffffffffffffffffffffffffffff021916908373ffffffffffffffffffffffffffffffffffffffff1602179055508173ffffffffffffffffffffffffffffffffffffffff168173ffffffffffffffffffffffffffffffffffffffff167f8be0079c531659141344cd1fd0a4f28419497f9722a3daafe3b4186f6b6457e060405160405180910390a35050565b600073ffffffffffffffffffffffffffffffffffffffff168473ffffffffffffffffffffffffffffffffffffffff16036117225760006040517fe602df050000000000000000000000000000000000000000000000000000000081526004016117199190612062565b60405180910390fd5b600073ffffffffffffffffffffffffffffffffffffffff168373ffffffffffffffffffffffffffffffffffffffff16036117945760006040517f94280d6200000000000000000000000000000000000000000000000000000000815260040161178b9190612062565b60405180910390fd5b81600160008673ffffffffffffffffffffffffffffffffffffffff1673ffffffffffffffffffffffffffffffffffffffff16815260200190815260200160002060008573ffffffffffffffffffffffffffffffffffffffff1673ffffffffffffffffffffffffffffffffffffffff168152602001908152602001600020819055508015611881578273ffffffffffffffffffffffffffffffffffffffff168473ffffffffffffffffffffffffffffffffffffffff167f8c5be1e5ebec7d5bd14f71427d1e84f3dd0314c0f7b2291e5b200ac8c7c3b925846040516118789190611fe5565b60405180910390a35b50505050565b6002600481111561189b5761189a612121565b5b600560149054906101000a900460ff1660048111156118bd576118bc612121565b5b1415806118fd5750600360048111156118d9576118d8612121565b5b600560149054906101000a900460ff1660048111156118fb576118fa612121565b5b145b156119125761190d838383611ad0565b611acb565b6000600b60009054906101000a900473ffffffffffffffffffffffffffffffffffffffff1673ffffffffffffffffffffffffffffffffffffffff168373ffffffffffffffffffffffffffffffffffffffff16036119c8576103e8600a548361197a919061233f565b61198491906123b0565b90507f4021301da943ce70706f02c0638c48f65e27cd0642ffd0550536995af05e70cc848383426040516119bb949392919061263e565b60405180910390a1611a79565b600b60009054906101000a900473ffffffffffffffffffffffffffffffffffffffff1673ffffffffffffffffffffffffffffffffffffffff168473ffffffffffffffffffffffffffffffffffffffff1603611a78576103e860095483611a2e919061233f565b611a3891906123b0565b90507f4cb653ef0afb6a8ec8b4b9286771cadc8e586225744651cd05b4b475ab88127283838342604051611a6f949392919061263e565b60405180910390a15b5b6000811115611abe57611aaf84600660009054906101000a900473ffffffffffffffffffffffffffffffffffffffff1683611ad0565b8082611abb919061259c565b91505b611ac9848484611ad0565b505b505050565b611adb838383611b76565b600073ffffffffffffffffffffffffffffffffffffffff168373ffffffffffffffffffffffffffffffffffffffff1603611b71576000611b196107f6565b90506000611b2561074f565b905081811115611b6e5780826040517f9e79f854000000000000000000000000000000000000000000000000000000008152600401611b65929190612683565b60405180910390fd5b50505b505050565b600073ffffffffffffffffffffffffffffffffffffffff168373ffffffffffffffffffffffffffffffffffffffff1603611bc8578060026000828254611bbc91906126ac565b92505081905550611c9b565b60008060008573ffffffffffffffffffffffffffffffffffffffff1673ffffffffffffffffffffffffffffffffffffffff16815260200190815260200160002054905081811015611c54578381836040517fe450d38c000000000000000000000000000000000000000000000000000000008152600401611c4b93929190612607565b60405180910390fd5b8181036000808673ffffffffffffffffffffffffffffffffffffffff1673ffffffffffffffffffffffffffffffffffffffff16815260200190815260200160002081905550505b600073ffffffffffffffffffffffffffffffffffffffff168273ffffffffffffffffffffffffffffffffffffffff1603611ce45780600260008282540392505081905550611d31565b806000808473ffffffffffffffffffffffffffffffffffffffff1673ffffffffffffffffffffffffffffffffffffffff168152602001908152602001600020600082825401925050819055505b8173ffffffffffffffffffffffffffffffffffffffff168373ffffffffffffffffffffffffffffffffffffffff167fddf252ad1be2c89b69c2b068fc378daa952ba7f163c4a11628f55a4df523b3ef83604051611d8e9190611fe5565b60405180910390a3505050565b600081519050919050565b600082825260208201905092915050565b60005b83811015611dd5578082015181840152602081019050611dba565b60008484015250505050565b6000601f19601f8301169050919050565b6000611dfd82611d9b565b611e078185611da6565b9350611e17818560208601611db7565b611e2081611de1565b840191505092915050565b60006020820190508181036000830152611e458184611df2565b905092915050565b600080fd5b600073ffffffffffffffffffffffffffffffffffffffff82169050919050565b6000611e7d82611e52565b9050919050565b611e8d81611e72565b8114611e9857600080fd5b50565b600081359050611eaa81611e84565b92915050565b6000819050919050565b611ec381611eb0565b8114611ece57600080fd5b50565b600081359050611ee081611eba565b92915050565b60008060408385031215611efd57611efc611e4d565b5b6000611f0b85828601611e9b565b9250506020611f1c85828601611ed1565b9150509250929050565b60008115159050919050565b611f3b81611f26565b82525050565b6000602082019050611f566000830184611f32565b92915050565b6000819050919050565b6000611f81611f7c611f7784611e52565b611f5c565b611e52565b9050919050565b6000611f9382611f66565b9050919050565b6000611fa582611f88565b9050919050565b611fb581611f9a565b82525050565b6000602082019050611fd06000830184611fac565b92915050565b611fdf81611eb0565b82525050565b6000602082019050611ffa6000830184611fd6565b92915050565b60008060006060848603121561201957612018611e4d565b5b600061202786828701611e9b565b935050602061203886828701611e9b565b925050604061204986828701611ed1565b9150509250925092565b61205c81611e72565b82525050565b60006020820190506120776000830184612053565b92915050565b600060ff82169050919050565b6120938161207d565b82525050565b60006020820190506120ae600083018461208a565b92915050565b6000602082840312156120ca576120c9611e4d565b5b60006120d884828501611e9b565b91505092915050565b600080604083850312156120f8576120f7611e4d565b5b600061210685828601611e9b565b925050602061211785828601611e9b565b9150509250929050565b7f4e487b7100000000000000000000000000000000000000000000000000000000600052602160045260246000fd5b6005811061216157612160612121565b5b50565b600081905061217282612150565b919050565b600061218282612164565b9050919050565b61219281612177565b82525050565b60006020820190506121ad6000830184612189565b92915050565b7f4e487b7100000000000000000000000000000000000000000000000000000000600052602260045260246000fd5b600060028204905060018216806121fa57607f821691505b60208210810361220d5761220c6121b3565b5b50919050565b7f46756e6374696f6e2063616e6e6f742062652063616c6c656420696e2074686960008201527f7320737461746500000000000000000000000000000000000000000000000000602082015250565b600061226f602783611da6565b915061227a82612213565b604082019050919050565b6000602082019050818103600083015261229e81612262565b9050919050565b6000815190506122b481611e84565b92915050565b6000602082840312156122d0576122cf611e4d565b5b60006122de848285016122a5565b91505092915050565b60006040820190506122fc6000830185612053565b6123096020830184612053565b9392505050565b7f4e487b7100000000000000000000000000000000000000000000000000000000600052601160045260246000fd5b600061234a82611eb0565b915061235583611eb0565b925082820261236381611eb0565b9150828204841483151761237a57612379612310565b5b5092915050565b7f4e487b7100000000000000000000000000000000000000000000000000000000600052601260045260246000fd5b60006123bb82611eb0565b91506123c683611eb0565b9250826123d6576123d5612381565b5b828204905092915050565b6000819050919050565b60006124066124016123fc846123e1565b611f5c565b611eb0565b9050919050565b612416816123eb565b82525050565b600060c0820190506124316000830189612053565b61243e6020830188611fd6565b61244b604083018761240d565b612458606083018661240d565b6124656080830185612053565b61247260a0830184611fd6565b979650505050505050565b60008151905061248c81611eba565b92915050565b6000806000606084860312156124ab576124aa611e4d565b5b60006124b98682870161247d565b93505060206124ca8682870161247d565b92505060406124db8682870161247d565b9150509250925092565b6000602082840312156124fb576124fa611e4d565b5b60006125098482850161247d565b91505092915050565b600060a0820190506125276000830188612053565b6125346020830187611fd6565b6125416040830186611fd6565b61254e6060830185611fd6565b61255b6080830184611fd6565b9695505050505050565b600060608201905061257a6000830186612053565b6125876020830185612053565b6125946040830184611fd6565b949350505050565b60006125a782611eb0565b91506125b283611eb0565b92508282039050818111156125ca576125c9612310565b5b92915050565b60006060820190506125e56000830186611fd6565b6125f26020830185611fd6565b6125ff6040830184611fd6565b949350505050565b600060608201905061261c6000830186612053565b6126296020830185611fd6565b6126366040830184611fd6565b949350505050565b60006080820190506126536000830187612053565b6126606020830186611fd6565b61266d6040830185611fd6565b61267a6060830184611fd6565b95945050505050565b60006040820190506126986000830185611fd6565b6126a56020830184611fd6565b9392505050565b60006126b782611eb0565b91506126c283611eb0565b92508282019050808211156126da576126d9612310565b5b9291505056fea264697066735822122007fd621e50abe5af290598c23221d8d88157a94c62388d0ece8f6586a87db3a064736f6c63430008180033",
          "opcodes": "PUSH1 0xA0 PUSH1 0x40 MSTORE PUSH1 0x64 PUSH1 0x9 SSTORE PUSH2 0x12C PUSH1 0xA SSTORE CALLVALUE DUP1 ISZERO PUSH3 0x1C JUMPI PUSH1 0x0 DUP1 REVERT JUMPDEST POP PUSH1 0x40 MLOAD PUSH3 0x3B95 CODESIZE SUB DUP1 PUSH3 0x3B95 DUP4 CODECOPY DUP2 DUP2 ADD PUSH1 0x40 MSTORE DUP2 ADD SWAP1 PUSH3 0x42 SWAP2 SWAP1 PUSH3 0xBB9 JUMP JUMPDEST DUP4 PUSH3 0x53 PUSH3 0x430 PUSH1 0x20 SHL PUSH1 0x20 SHR JUMP JUMPDEST PUSH1 0xFF AND PUSH1 0xA PUSH3 0x64 SWAP2 SWAP1 PUSH3 0xDC4 JUMP JUMPDEST DUP7 PUSH3 0x71 SWAP2 SWAP1 PUSH3 0xE15 JUMP JUMPDEST PUSH1 0x40 MLOAD DUP1 PUSH1 0x40 ADD PUSH1 0x40 MSTORE DUP1 PUSH1 0xB DUP2 MSTORE PUSH1 0x20 ADD PUSH32 0x4261736564205768616C65000000000000000000000000000000000000000000 DUP2 MSTORE POP PUSH1 0x40 MLOAD DUP1 PUSH1 0x40 ADD PUSH1 0x40 MSTORE DUP1 PUSH1 0x5 DUP2 MSTORE PUSH1 0x20 ADD PUSH32 0x5748414C45000000000000000000000000000000000000000000000000000000 DUP2 MSTORE POP DUP2 PUSH1 0x3 SWAP1 DUP2 PUSH3 0xEE SWAP2 SWAP1 PUSH3 0x10D0 JUMP JUMPDEST POP DUP1 PUSH1 0x4 SWAP1 DUP2 PUSH3 0x100 SWAP2 SWAP1 PUSH3 0x10D0 JUMP JUMPDEST POP POP POP PUSH1 0x0 DUP2 SUB PUSH3 0x14C JUMPI PUSH1 0x0 PUSH1 0x40 MLOAD PUSH32 0x392E1E2700000000000000000000000000000000000000000000000000000000 DUP2 MSTORE PUSH1 0x4 ADD PUSH3 0x143 SWAP2 SWAP1 PUSH3 0x11FA JUMP JUMPDEST PUSH1 0x40 MLOAD DUP1 SWAP2 SUB SWAP1 REVERT JUMPDEST DUP1 PUSH1 0x80 DUP2 DUP2 MSTORE POP POP POP PUSH1 0x0 PUSH20 0xFFFFFFFFFFFFFFFFFFFFFFFFFFFFFFFFFFFFFFFF AND DUP2 PUSH20 0xFFFFFFFFFFFFFFFFFFFFFFFFFFFFFFFFFFFFFFFF AND SUB PUSH3 0x1CA JUMPI PUSH1 0x0 PUSH1 0x40 MLOAD PUSH32 0x1E4FBDF700000000000000000000000000000000000000000000000000000000 DUP2 MSTORE PUSH1 0x4 ADD PUSH3 0x1C1 SWAP2 SWAP1 PUSH3 0x1228 JUMP JUMPDEST PUSH1 0x40 MLOAD DUP1 SWAP2 SUB SWAP1 REVERT JUMPDEST PUSH3 0x1DB DUP2 PUSH3 0x439 PUSH1 0x20 SHL PUSH1 0x20 SHR JUMP JUMPDEST POP DUP3 PUSH1 0x6 PUSH1 0x0 PUSH2 0x100 EXP DUP2 SLOAD DUP2 PUSH20 0xFFFFFFFFFFFFFFFFFFFFFFFFFFFFFFFFFFFFFFFF MUL NOT AND SWAP1 DUP4 PUSH20 0xFFFFFFFFFFFFFFFFFFFFFFFFFFFFFFFFFFFFFFFF AND MUL OR SWAP1 SSTORE POP DUP2 PUSH1 0x7 PUSH1 0x0 PUSH2 0x100 EXP DUP2 SLOAD DUP2 PUSH20 0xFFFFFFFFFFFFFFFFFFFFFFFFFFFFFFFFFFFFFFFF MUL NOT AND SWAP1 DUP4 PUSH20 0xFFFFFFFFFFFFFFFFFFFFFFFFFFFFFFFFFFFFFFFF AND MUL OR SWAP1 SSTORE POP DUP1 PUSH1 0x8 PUSH1 0x0 PUSH2 0x100 EXP DUP2 SLOAD DUP2 PUSH20 0xFFFFFFFFFFFFFFFFFFFFFFFFFFFFFFFFFFFFFFFF MUL NOT AND SWAP1 DUP4 PUSH20 0xFFFFFFFFFFFFFFFFFFFFFFFFFFFFFFFFFFFFFFFF AND MUL OR SWAP1 SSTORE POP PUSH3 0x2FE PUSH1 0x6 PUSH1 0x0 SWAP1 SLOAD SWAP1 PUSH2 0x100 EXP SWAP1 DIV PUSH20 0xFFFFFFFFFFFFFFFFFFFFFFFFFFFFFFFFFFFFFFFF AND PUSH1 0x64 PUSH1 0x5 PUSH3 0x2DA PUSH3 0x4FF PUSH1 0x20 SHL PUSH1 0x20 SHR JUMP JUMPDEST PUSH3 0x2E6 SWAP2 SWAP1 PUSH3 0xE15 JUMP JUMPDEST PUSH3 0x2F2 SWAP2 SWAP1 PUSH3 0x1274 JUMP JUMPDEST PUSH3 0x509 PUSH1 0x20 SHL PUSH1 0x20 SHR JUMP JUMPDEST PUSH3 0x35D PUSH1 0x7 PUSH1 0x0 SWAP1 SLOAD SWAP1 PUSH2 0x100 EXP SWAP1 DIV PUSH20 0xFFFFFFFFFFFFFFFFFFFFFFFFFFFFFFFFFFFFFFFF AND PUSH1 0x64 PUSH1 0x5 PUSH3 0x339 PUSH3 0x4FF PUSH1 0x20 SHL PUSH1 0x20 SHR JUMP JUMPDEST PUSH3 0x345 SWAP2 SWAP1 PUSH3 0xE15 JUMP JUMPDEST PUSH3 0x351 SWAP2 SWAP1 PUSH3 0x1274 JUMP JUMPDEST PUSH3 0x509 PUSH1 0x20 SHL PUSH1 0x20 SHR JUMP JUMPDEST PUSH3 0x3BC PUSH1 0x8 PUSH1 0x0 SWAP1 SLOAD SWAP1 PUSH2 0x100 EXP SWAP1 DIV PUSH20 0xFFFFFFFFFFFFFFFFFFFFFFFFFFFFFFFFFFFFFFFF AND PUSH1 0x64 PUSH1 0x5 PUSH3 0x398 PUSH3 0x4FF PUSH1 0x20 SHL PUSH1 0x20 SHR JUMP JUMPDEST PUSH3 0x3A4 SWAP2 SWAP1 PUSH3 0xE15 JUMP JUMPDEST PUSH3 0x3B0 SWAP2 SWAP1 PUSH3 0x1274 JUMP JUMPDEST PUSH3 0x509 PUSH1 0x20 SHL PUSH1 0x20 SHR JUMP JUMPDEST PUSH32 0x8AD1BA2DBD33C6313FA50CD4016351A36437D7DCD0E0800A3A0B191D22095D93 CALLER TIMESTAMP PUSH1 0x40 MLOAD PUSH3 0x3EF SWAP3 SWAP2 SWAP1 PUSH3 0x12BD JUMP JUMPDEST PUSH1 0x40 MLOAD DUP1 SWAP2 SUB SWAP1 LOG1 PUSH1 0x1 PUSH1 0x5 PUSH1 0x14 PUSH2 0x100 EXP DUP2 SLOAD DUP2 PUSH1 0xFF MUL NOT AND SWAP1 DUP4 PUSH1 0x4 DUP2 GT ISZERO PUSH3 0x420 JUMPI PUSH3 0x41F PUSH3 0x12EA JUMP JUMPDEST JUMPDEST MUL OR SWAP1 SSTORE POP POP POP POP POP POP PUSH3 0x1463 JUMP JUMPDEST PUSH1 0x0 PUSH1 0x12 SWAP1 POP SWAP1 JUMP JUMPDEST PUSH1 0x0 PUSH1 0x5 PUSH1 0x0 SWAP1 SLOAD SWAP1 PUSH2 0x100 EXP SWAP1 DIV PUSH20 0xFFFFFFFFFFFFFFFFFFFFFFFFFFFFFFFFFFFFFFFF AND SWAP1 POP DUP2 PUSH1 0x5 PUSH1 0x0 PUSH2 0x100 EXP DUP2 SLOAD DUP2 PUSH20 0xFFFFFFFFFFFFFFFFFFFFFFFFFFFFFFFFFFFFFFFF MUL NOT AND SWAP1 DUP4 PUSH20 0xFFFFFFFFFFFFFFFFFFFFFFFFFFFFFFFFFFFFFFFF AND MUL OR SWAP1 SSTORE POP DUP2 PUSH20 0xFFFFFFFFFFFFFFFFFFFFFFFFFFFFFFFFFFFFFFFF AND DUP2 PUSH20 0xFFFFFFFFFFFFFFFFFFFFFFFFFFFFFFFFFFFFFFFF AND PUSH32 0x8BE0079C531659141344CD1FD0A4F28419497F9722A3DAAFE3B4186F6B6457E0 PUSH1 0x40 MLOAD PUSH1 0x40 MLOAD DUP1 SWAP2 SUB SWAP1 LOG3 POP POP JUMP JUMPDEST PUSH1 0x0 PUSH1 0x80 MLOAD SWAP1 POP SWAP1 JUMP JUMPDEST PUSH1 0x0 PUSH20 0xFFFFFFFFFFFFFFFFFFFFFFFFFFFFFFFFFFFFFFFF AND DUP3 PUSH20 0xFFFFFFFFFFFFFFFFFFFFFFFFFFFFFFFFFFFFFFFF AND SUB PUSH3 0x57E JUMPI PUSH1 0x0 PUSH1 0x40 MLOAD PUSH32 0xEC442F0500000000000000000000000000000000000000000000000000000000 DUP2 MSTORE PUSH1 0x4 ADD PUSH3 0x575 SWAP2 SWAP1 PUSH3 0x1228 JUMP JUMPDEST PUSH1 0x40 MLOAD DUP1 SWAP2 SUB SWAP1 REVERT JUMPDEST PUSH3 0x592 PUSH1 0x0 DUP4 DUP4 PUSH3 0x596 PUSH1 0x20 SHL PUSH1 0x20 SHR JUMP JUMPDEST POP POP JUMP JUMPDEST PUSH1 0x2 PUSH1 0x4 DUP2 GT ISZERO PUSH3 0x5AD JUMPI PUSH3 0x5AC PUSH3 0x12EA JUMP JUMPDEST JUMPDEST PUSH1 0x5 PUSH1 0x14 SWAP1 SLOAD SWAP1 PUSH2 0x100 EXP SWAP1 DIV PUSH1 0xFF AND PUSH1 0x4 DUP2 GT ISZERO PUSH3 0x5D2 JUMPI PUSH3 0x5D1 PUSH3 0x12EA JUMP JUMPDEST JUMPDEST EQ ISZERO DUP1 PUSH3 0x619 JUMPI POP PUSH1 0x3 PUSH1 0x4 DUP2 GT ISZERO PUSH3 0x5F2 JUMPI PUSH3 0x5F1 PUSH3 0x12EA JUMP JUMPDEST JUMPDEST PUSH1 0x5 PUSH1 0x14 SWAP1 SLOAD SWAP1 PUSH2 0x100 EXP SWAP1 DIV PUSH1 0xFF AND PUSH1 0x4 DUP2 GT ISZERO PUSH3 0x617 JUMPI PUSH3 0x616 PUSH3 0x12EA JUMP JUMPDEST JUMPDEST EQ JUMPDEST ISZERO PUSH3 0x638 JUMPI PUSH3 0x632 DUP4 DUP4 DUP4 PUSH3 0x818 PUSH1 0x20 SHL PUSH1 0x20 SHR JUMP JUMPDEST PUSH3 0x813 JUMP JUMPDEST PUSH1 0x0 PUSH1 0xB PUSH1 0x0 SWAP1 SLOAD SWAP1 PUSH2 0x100 EXP SWAP1 DIV PUSH20 0xFFFFFFFFFFFFFFFFFFFFFFFFFFFFFFFFFFFFFFFF AND PUSH20 0xFFFFFFFFFFFFFFFFFFFFFFFFFFFFFFFFFFFFFFFF AND DUP4 PUSH20 0xFFFFFFFFFFFFFFFFFFFFFFFFFFFFFFFFFFFFFFFF AND SUB PUSH3 0x6F6 JUMPI PUSH2 0x3E8 PUSH1 0xA SLOAD DUP4 PUSH3 0x6A3 SWAP2 SWAP1 PUSH3 0xE15 JUMP JUMPDEST PUSH3 0x6AF SWAP2 SWAP1 PUSH3 0x1274 JUMP JUMPDEST SWAP1 POP PUSH32 0x4021301DA943CE70706F02C0638C48F65E27CD0642FFD0550536995AF05E70CC DUP5 DUP4 DUP4 TIMESTAMP PUSH1 0x40 MLOAD PUSH3 0x6E8 SWAP5 SWAP4 SWAP3 SWAP2 SWAP1 PUSH3 0x1319 JUMP JUMPDEST PUSH1 0x40 MLOAD DUP1 SWAP2 SUB SWAP1 LOG1 PUSH3 0x7AE JUMP JUMPDEST PUSH1 0xB PUSH1 0x0 SWAP1 SLOAD SWAP1 PUSH2 0x100 EXP SWAP1 DIV PUSH20 0xFFFFFFFFFFFFFFFFFFFFFFFFFFFFFFFFFFFFFFFF AND PUSH20 0xFFFFFFFFFFFFFFFFFFFFFFFFFFFFFFFFFFFFFFFF AND DUP5 PUSH20 0xFFFFFFFFFFFFFFFFFFFFFFFFFFFFFFFFFFFFFFFF AND SUB PUSH3 0x7AD JUMPI PUSH2 0x3E8 PUSH1 0x9 SLOAD DUP4 PUSH3 0x75F SWAP2 SWAP1 PUSH3 0xE15 JUMP JUMPDEST PUSH3 0x76B SWAP2 SWAP1 PUSH3 0x1274 JUMP JUMPDEST SWAP1 POP PUSH32 0x4CB653EF0AFB6A8EC8B4B9286771CADC8E586225744651CD05B4B475AB881272 DUP4 DUP4 DUP4 TIMESTAMP PUSH1 0x40 MLOAD PUSH3 0x7A4 SWAP5 SWAP4 SWAP3 SWAP2 SWAP1 PUSH3 0x1319 JUMP JUMPDEST PUSH1 0x40 MLOAD DUP1 SWAP2 SUB SWAP1 LOG1 JUMPDEST JUMPDEST PUSH1 0x0 DUP2 GT ISZERO PUSH3 0x7FE JUMPI PUSH3 0x7ED DUP5 PUSH1 0x6 PUSH1 0x0 SWAP1 SLOAD SWAP1 PUSH2 0x100 EXP SWAP1 DIV PUSH20 0xFFFFFFFFFFFFFFFFFFFFFFFFFFFFFFFFFFFFFFFF AND DUP4 PUSH3 0x818 PUSH1 0x20 SHL PUSH1 0x20 SHR JUMP JUMPDEST DUP1 DUP3 PUSH3 0x7FB SWAP2 SWAP1 PUSH3 0x1366 JUMP JUMPDEST SWAP2 POP JUMPDEST PUSH3 0x811 DUP5 DUP5 DUP5 PUSH3 0x818 PUSH1 0x20 SHL PUSH1 0x20 SHR JUMP JUMPDEST POP JUMPDEST POP POP POP JUMP JUMPDEST PUSH3 0x82B DUP4 DUP4 DUP4 PUSH3 0x8DA PUSH1 0x20 SHL PUSH1 0x20 SHR JUMP JUMPDEST PUSH1 0x0 PUSH20 0xFFFFFFFFFFFFFFFFFFFFFFFFFFFFFFFFFFFFFFFF AND DUP4 PUSH20 0xFFFFFFFFFFFFFFFFFFFFFFFFFFFFFFFFFFFFFFFF AND SUB PUSH3 0x8D5 JUMPI PUSH1 0x0 PUSH3 0x872 PUSH3 0x4FF PUSH1 0x20 SHL PUSH1 0x20 SHR JUMP JUMPDEST SWAP1 POP PUSH1 0x0 PUSH3 0x886 PUSH3 0xB0A PUSH1 0x20 SHL PUSH1 0x20 SHR JUMP JUMPDEST SWAP1 POP DUP2 DUP2 GT ISZERO PUSH3 0x8D2 JUMPI DUP1 DUP3 PUSH1 0x40 MLOAD PUSH32 0x9E79F85400000000000000000000000000000000000000000000000000000000 DUP2 MSTORE PUSH1 0x4 ADD PUSH3 0x8C9 SWAP3 SWAP2 SWAP1 PUSH3 0x13A1 JUMP JUMPDEST PUSH1 0x40 MLOAD DUP1 SWAP2 SUB SWAP1 REVERT JUMPDEST POP POP JUMPDEST POP POP POP JUMP JUMPDEST PUSH1 0x0 PUSH20 0xFFFFFFFFFFFFFFFFFFFFFFFFFFFFFFFFFFFFFFFF AND DUP4 PUSH20 0xFFFFFFFFFFFFFFFFFFFFFFFFFFFFFFFFFFFFFFFF AND SUB PUSH3 0x930 JUMPI DUP1 PUSH1 0x2 PUSH1 0x0 DUP3 DUP3 SLOAD PUSH3 0x923 SWAP2 SWAP1 PUSH3 0x13CE JUMP JUMPDEST SWAP3 POP POP DUP2 SWAP1 SSTORE POP PUSH3 0xA06 JUMP JUMPDEST PUSH1 0x0 DUP1 PUSH1 0x0 DUP6 PUSH20 0xFFFFFFFFFFFFFFFFFFFFFFFFFFFFFFFFFFFFFFFF AND PUSH20 0xFFFFFFFFFFFFFFFFFFFFFFFFFFFFFFFFFFFFFFFF AND DUP2 MSTORE PUSH1 0x20 ADD SWAP1 DUP2 MSTORE PUSH1 0x20 ADD PUSH1 0x0 KECCAK256 SLOAD SWAP1 POP DUP2 DUP2 LT ISZERO PUSH3 0x9BF JUMPI DUP4 DUP2 DUP4 PUSH1 0x40 MLOAD PUSH32 0xE450D38C00000000000000000000000000000000000000000000000000000000 DUP2 MSTORE PUSH1 0x4 ADD PUSH3 0x9B6 SWAP4 SWAP3 SWAP2 SWAP1 PUSH3 0x1409 JUMP JUMPDEST PUSH1 0x40 MLOAD DUP1 SWAP2 SUB SWAP1 REVERT JUMPDEST DUP2 DUP2 SUB PUSH1 0x0 DUP1 DUP7 PUSH20 0xFFFFFFFFFFFFFFFFFFFFFFFFFFFFFFFFFFFFFFFF AND PUSH20 0xFFFFFFFFFFFFFFFFFFFFFFFFFFFFFFFFFFFFFFFF AND DUP2 MSTORE PUSH1 0x20 ADD SWAP1 DUP2 MSTORE PUSH1 0x20 ADD PUSH1 0x0 KECCAK256 DUP2 SWAP1 SSTORE POP POP JUMPDEST PUSH1 0x0 PUSH20 0xFFFFFFFFFFFFFFFFFFFFFFFFFFFFFFFFFFFFFFFF AND DUP3 PUSH20 0xFFFFFFFFFFFFFFFFFFFFFFFFFFFFFFFFFFFFFFFF AND SUB PUSH3 0xA51 JUMPI DUP1 PUSH1 0x2 PUSH1 0x0 DUP3 DUP3 SLOAD SUB SWAP3 POP POP DUP2 SWAP1 SSTORE POP PUSH3 0xA9E JUMP JUMPDEST DUP1 PUSH1 0x0 DUP1 DUP5 PUSH20 0xFFFFFFFFFFFFFFFFFFFFFFFFFFFFFFFFFFFFFFFF AND PUSH20 0xFFFFFFFFFFFFFFFFFFFFFFFFFFFFFFFFFFFFFFFF AND DUP2 MSTORE PUSH1 0x20 ADD SWAP1 DUP2 MSTORE PUSH1 0x20 ADD PUSH1 0x0 KECCAK256 PUSH1 0x0 DUP3 DUP3 SLOAD ADD SWAP3 POP POP DUP2 SWAP1 SSTORE POP JUMPDEST DUP2 PUSH20 0xFFFFFFFFFFFFFFFFFFFFFFFFFFFFFFFFFFFFFFFF AND DUP4 PUSH20 0xFFFFFFFFFFFFFFFFFFFFFFFFFFFFFFFFFFFFFFFF AND PUSH32 0xDDF252AD1BE2C89B69C2B068FC378DAA952BA7F163C4A11628F55A4DF523B3EF DUP4 PUSH1 0x40 MLOAD PUSH3 0xAFD SWAP2 SWAP1 PUSH3 0x1446 JUMP JUMPDEST PUSH1 0x40 MLOAD DUP1 SWAP2 SUB SWAP1 LOG3 POP POP POP JUMP JUMPDEST PUSH1 0x0 PUSH1 0x2 SLOAD SWAP1 POP SWAP1 JUMP JUMPDEST PUSH1 0x0 DUP1 REVERT JUMPDEST PUSH1 0x0 DUP2 SWAP1 POP SWAP2 SWAP1 POP JUMP JUMPDEST PUSH3 0xB2E DUP2 PUSH3 0xB19 JUMP JUMPDEST DUP2 EQ PUSH3 0xB3A JUMPI PUSH1 0x0 DUP1 REVERT JUMPDEST POP JUMP JUMPDEST PUSH1 0x0 DUP2 MLOAD SWAP1 POP PUSH3 0xB4E DUP2 PUSH3 0xB23 JUMP JUMPDEST SWAP3 SWAP2 POP POP JUMP JUMPDEST PUSH1 0x0 PUSH20 0xFFFFFFFFFFFFFFFFFFFFFFFFFFFFFFFFFFFFFFFF DUP3 AND SWAP1 POP SWAP2 SWAP1 POP JUMP JUMPDEST PUSH1 0x0 PUSH3 0xB81 DUP3 PUSH3 0xB54 JUMP JUMPDEST SWAP1 POP SWAP2 SWAP1 POP JUMP JUMPDEST PUSH3 0xB93 DUP2 PUSH3 0xB74 JUMP JUMPDEST DUP2 EQ PUSH3 0xB9F JUMPI PUSH1 0x0 DUP1 REVERT JUMPDEST POP JUMP JUMPDEST PUSH1 0x0 DUP2 MLOAD SWAP1 POP PUSH3 0xBB3 DUP2 PUSH3 0xB88 JUMP JUMPDEST SWAP3 SWAP2 POP POP JUMP JUMPDEST PUSH1 0x0 DUP1 PUSH1 0x0 DUP1 PUSH1 0x0 PUSH1 0xA0 DUP7 DUP9 SUB SLT ISZERO PUSH3 0xBD8 JUMPI PUSH3 0xBD7 PUSH3 0xB14 JUMP JUMPDEST JUMPDEST PUSH1 0x0 PUSH3 0xBE8 DUP9 DUP3 DUP10 ADD PUSH3 0xB3D JUMP JUMPDEST SWAP6 POP POP PUSH1 0x20 PUSH3 0xBFB DUP9 DUP3 DUP10 ADD PUSH3 0xBA2 JUMP JUMPDEST SWAP5 POP POP PUSH1 0x40 PUSH3 0xC0E DUP9 DUP3 DUP10 ADD PUSH3 0xBA2 JUMP JUMPDEST SWAP4 POP POP PUSH1 0x60 PUSH3 0xC21 DUP9 DUP3 DUP10 ADD PUSH3 0xBA2 JUMP JUMPDEST SWAP3 POP POP PUSH1 0x80 PUSH3 0xC34 DUP9 DUP3 DUP10 ADD PUSH3 0xBA2 JUMP JUMPDEST SWAP2 POP POP SWAP3 SWAP6 POP SWAP3 SWAP6 SWAP1 SWAP4 POP JUMP JUMPDEST PUSH32 0x4E487B7100000000000000000000000000000000000000000000000000000000 PUSH1 0x0 MSTORE PUSH1 0x11 PUSH1 0x4 MSTORE PUSH1 0x24 PUSH1 0x0 REVERT JUMPDEST PUSH1 0x0 DUP2 PUSH1 0x1 SHR SWAP1 POP SWAP2 SWAP1 POP JUMP JUMPDEST PUSH1 0x0 DUP1 DUP3 SWAP2 POP DUP4 SWAP1 POP JUMPDEST PUSH1 0x1 DUP6 GT ISZERO PUSH3 0xCCF JUMPI DUP1 DUP7 DIV DUP2 GT ISZERO PUSH3 0xCA7 JUMPI PUSH3 0xCA6 PUSH3 0xC41 JUMP JUMPDEST JUMPDEST PUSH1 0x1 DUP6 AND ISZERO PUSH3 0xCB7 JUMPI DUP1 DUP3 MUL SWAP2 POP JUMPDEST DUP1 DUP2 MUL SWAP1 POP PUSH3 0xCC7 DUP6 PUSH3 0xC70 JUMP JUMPDEST SWAP5 POP PUSH3 0xC87 JUMP JUMPDEST SWAP5 POP SWAP5 SWAP3 POP POP POP JUMP JUMPDEST PUSH1 0x0 DUP3 PUSH3 0xCEA JUMPI PUSH1 0x1 SWAP1 POP PUSH3 0xDBD JUMP JUMPDEST DUP2 PUSH3 0xCFA JUMPI PUSH1 0x0 SWAP1 POP PUSH3 0xDBD JUMP JUMPDEST DUP2 PUSH1 0x1 DUP2 EQ PUSH3 0xD13 JUMPI PUSH1 0x2 DUP2 EQ PUSH3 0xD1E JUMPI PUSH3 0xD54 JUMP JUMPDEST PUSH1 0x1 SWAP2 POP POP PUSH3 0xDBD JUMP JUMPDEST PUSH1 0xFF DUP5 GT ISZERO PUSH3 0xD33 JUMPI PUSH3 0xD32 PUSH3 0xC41 JUMP JUMPDEST JUMPDEST DUP4 PUSH1 0x2 EXP SWAP2 POP DUP5 DUP3 GT ISZERO PUSH3 0xD4D JUMPI PUSH3 0xD4C PUSH3 0xC41 JUMP JUMPDEST JUMPDEST POP PUSH3 0xDBD JUMP JUMPDEST POP PUSH1 0x20 DUP4 LT PUSH2 0x133 DUP4 LT AND PUSH1 0x4E DUP5 LT PUSH1 0xB DUP5 LT AND OR ISZERO PUSH3 0xD8E JUMPI DUP3 DUP3 EXP SWAP1 POP DUP4 DUP2 GT ISZERO PUSH3 0xD88 JUMPI PUSH3 0xD87 PUSH3 0xC41 JUMP JUMPDEST JUMPDEST PUSH3 0xDBD JUMP JUMPDEST PUSH3 0xD9D DUP5 DUP5 DUP5 PUSH1 0x1 PUSH3 0xC7D JUMP JUMPDEST SWAP3 POP SWAP1 POP DUP2 DUP5 DIV DUP2 GT ISZERO PUSH3 0xDB7 JUMPI PUSH3 0xDB6 PUSH3 0xC41 JUMP JUMPDEST JUMPDEST DUP2 DUP2 MUL SWAP1 POP JUMPDEST SWAP4 SWAP3 POP POP POP JUMP JUMPDEST PUSH1 0x0 PUSH3 0xDD1 DUP3 PUSH3 0xB19 JUMP JUMPDEST SWAP2 POP PUSH3 0xDDE DUP4 PUSH3 0xB19 JUMP JUMPDEST SWAP3 POP PUSH3 0xE0D PUSH32 0xFFFFFFFFFFFFFFFFFFFFFFFFFFFFFFFFFFFFFFFFFFFFFFFFFFFFFFFFFFFFFFFF DUP5 DUP5 PUSH3 0xCD8 JUMP JUMPDEST SWAP1 POP SWAP3 SWAP2 POP POP JUMP JUMPDEST PUSH1 0x0 PUSH3 0xE22 DUP3 PUSH3 0xB19 JUMP JUMPDEST SWAP2 POP PUSH3 0xE2F DUP4 PUSH3 0xB19 JUMP JUMPDEST SWAP3 POP DUP3 DUP3 MUL PUSH3 0xE3F DUP2 PUSH3 0xB19 JUMP JUMPDEST SWAP2 POP DUP3 DUP3 DIV DUP5 EQ DUP4 ISZERO OR PUSH3 0xE59 JUMPI PUSH3 0xE58 PUSH3 0xC41 JUMP JUMPDEST JUMPDEST POP SWAP3 SWAP2 POP POP JUMP JUMPDEST PUSH1 0x0 DUP2 MLOAD SWAP1 POP SWAP2 SWAP1 POP JUMP JUMPDEST PUSH32 0x4E487B7100000000000000000000000000000000000000000000000000000000 PUSH1 0x0 MSTORE PUSH1 0x41 PUSH1 0x4 MSTORE PUSH1 0x24 PUSH1 0x0 REVERT JUMPDEST PUSH32 0x4E487B7100000000000000000000000000000000000000000000000000000000 PUSH1 0x0 MSTORE PUSH1 0x22 PUSH1 0x4 MSTORE PUSH1 0x24 PUSH1 0x0 REVERT JUMPDEST PUSH1 0x0 PUSH1 0x2 DUP3 DIV SWAP1 POP PUSH1 0x1 DUP3 AND DUP1 PUSH3 0xEE2 JUMPI PUSH1 0x7F DUP3 AND SWAP2 POP JUMPDEST PUSH1 0x20 DUP3 LT DUP2 SUB PUSH3 0xEF8 JUMPI PUSH3 0xEF7 PUSH3 0xE9A JUMP JUMPDEST JUMPDEST POP SWAP2 SWAP1 POP JUMP JUMPDEST PUSH1 0x0 DUP2 SWAP1 POP DUP2 PUSH1 0x0 MSTORE PUSH1 0x20 PUSH1 0x0 KECCAK256 SWAP1 POP SWAP2 SWAP1 POP JUMP JUMPDEST PUSH1 0x0 PUSH1 0x20 PUSH1 0x1F DUP4 ADD DIV SWAP1 POP SWAP2 SWAP1 POP JUMP JUMPDEST PUSH1 0x0 DUP3 DUP3 SHL SWAP1 POP SWAP3 SWAP2 POP POP JUMP JUMPDEST PUSH1 0x0 PUSH1 0x8 DUP4 MUL PUSH3 0xF62 PUSH32 0xFFFFFFFFFFFFFFFFFFFFFFFFFFFFFFFFFFFFFFFFFFFFFFFFFFFFFFFFFFFFFFFF DUP3 PUSH3 0xF23 JUMP JUMPDEST PUSH3 0xF6E DUP7 DUP4 PUSH3 0xF23 JUMP JUMPDEST SWAP6 POP DUP1 NOT DUP5 AND SWAP4 POP DUP1 DUP7 AND DUP5 OR SWAP3 POP POP POP SWAP4 SWAP3 POP POP POP JUMP JUMPDEST PUSH1 0x0 DUP2 SWAP1 POP SWAP2 SWAP1 POP JUMP JUMPDEST PUSH1 0x0 PUSH3 0xFB1 PUSH3 0xFAB PUSH3 0xFA5 DUP5 PUSH3 0xB19 JUMP JUMPDEST PUSH3 0xF86 JUMP JUMPDEST PUSH3 0xB19 JUMP JUMPDEST SWAP1 POP SWAP2 SWAP1 POP JUMP JUMPDEST PUSH1 0x0 DUP2 SWAP1 POP SWAP2 SWAP1 POP JUMP JUMPDEST PUSH3 0xFCD DUP4 PUSH3 0xF90 JUMP JUMPDEST PUSH3 0xFE5 PUSH3 0xFDC DUP3 PUSH3 0xFB8 JUMP JUMPDEST DUP5 DUP5 SLOAD PUSH3 0xF30 JUMP JUMPDEST DUP3 SSTORE POP POP POP POP JUMP JUMPDEST PUSH1 0x0 SWAP1 JUMP JUMPDEST PUSH3 0xFFC PUSH3 0xFED JUMP JUMPDEST PUSH3 0x1009 DUP2 DUP5 DUP5 PUSH3 0xFC2 JUMP JUMPDEST POP POP POP JUMP JUMPDEST JUMPDEST DUP2 DUP2 LT ISZERO PUSH3 0x1031 JUMPI PUSH3 0x1025 PUSH1 0x0 DUP3 PUSH3 0xFF2 JUMP JUMPDEST PUSH1 0x1 DUP2 ADD SWAP1 POP PUSH3 0x100F JUMP JUMPDEST POP POP JUMP JUMPDEST PUSH1 0x1F DUP3 GT ISZERO PUSH3 0x1080 JUMPI PUSH3 0x104A DUP2 PUSH3 0xEFE JUMP JUMPDEST PUSH3 0x1055 DUP5 PUSH3 0xF13 JUMP JUMPDEST DUP2 ADD PUSH1 0x20 DUP6 LT ISZERO PUSH3 0x1065 JUMPI DUP2 SWAP1 POP JUMPDEST PUSH3 0x107D PUSH3 0x1074 DUP6 PUSH3 0xF13 JUMP JUMPDEST DUP4 ADD DUP3 PUSH3 0x100E JUMP JUMPDEST POP POP JUMPDEST POP POP POP JUMP JUMPDEST PUSH1 0x0 DUP3 DUP3 SHR SWAP1 POP SWAP3 SWAP2 POP POP JUMP JUMPDEST PUSH1 0x0 PUSH3 0x10A5 PUSH1 0x0 NOT DUP5 PUSH1 0x8 MUL PUSH3 0x1085 JUMP JUMPDEST NOT DUP1 DUP4 AND SWAP2 POP POP SWAP3 SWAP2 POP POP JUMP JUMPDEST PUSH1 0x0 PUSH3 0x10C0 DUP4 DUP4 PUSH3 0x1092 JUMP JUMPDEST SWAP2 POP DUP3 PUSH1 0x2 MUL DUP3 OR SWAP1 POP SWAP3 SWAP2 POP POP JUMP JUMPDEST PUSH3 0x10DB DUP3 PUSH3 0xE60 JUMP JUMPDEST PUSH8 0xFFFFFFFFFFFFFFFF DUP2 GT ISZERO PUSH3 0x10F7 JUMPI PUSH3 0x10F6 PUSH3 0xE6B JUMP JUMPDEST JUMPDEST PUSH3 0x1103 DUP3 SLOAD PUSH3 0xEC9 JUMP JUMPDEST PUSH3 0x1110 DUP3 DUP3 DUP6 PUSH3 0x1035 JUMP JUMPDEST PUSH1 0x0 PUSH1 0x20 SWAP1 POP PUSH1 0x1F DUP4 GT PUSH1 0x1 DUP2 EQ PUSH3 0x1148 JUMPI PUSH1 0x0 DUP5 ISZERO PUSH3 0x1133 JUMPI DUP3 DUP8 ADD MLOAD SWAP1 POP JUMPDEST PUSH3 0x113F DUP6 DUP3 PUSH3 0x10B2 JUMP JUMPDEST DUP7 SSTORE POP PUSH3 0x11AF JUMP JUMPDEST PUSH1 0x1F NOT DUP5 AND PUSH3 0x1158 DUP7 PUSH3 0xEFE JUMP JUMPDEST PUSH1 0x0 JUMPDEST DUP3 DUP2 LT ISZERO PUSH3 0x1182 JUMPI DUP5 DUP10 ADD MLOAD DUP3 SSTORE PUSH1 0x1 DUP3 ADD SWAP2 POP PUSH1 0x20 DUP6 ADD SWAP5 POP PUSH1 0x20 DUP2 ADD SWAP1 POP PUSH3 0x115B JUMP JUMPDEST DUP7 DUP4 LT ISZERO PUSH3 0x11A2 JUMPI DUP5 DUP10 ADD MLOAD PUSH3 0x119E PUSH1 0x1F DUP10 AND DUP3 PUSH3 0x1092 JUMP JUMPDEST DUP4 SSTORE POP JUMPDEST PUSH1 0x1 PUSH1 0x2 DUP9 MUL ADD DUP9 SSTORE POP POP POP JUMPDEST POP POP POP POP POP POP JUMP JUMPDEST PUSH1 0x0 DUP2 SWAP1 POP SWAP2 SWAP1 POP JUMP JUMPDEST PUSH1 0x0 PUSH3 0x11E2 PUSH3 0x11DC PUSH3 0x11D6 DUP5 PUSH3 0x11B7 JUMP JUMPDEST PUSH3 0xF86 JUMP JUMPDEST PUSH3 0xB19 JUMP JUMPDEST SWAP1 POP SWAP2 SWAP1 POP JUMP JUMPDEST PUSH3 0x11F4 DUP2 PUSH3 0x11C1 JUMP JUMPDEST DUP3 MSTORE POP POP JUMP JUMPDEST PUSH1 0x0 PUSH1 0x20 DUP3 ADD SWAP1 POP PUSH3 0x1211 PUSH1 0x0 DUP4 ADD DUP5 PUSH3 0x11E9 JUMP JUMPDEST SWAP3 SWAP2 POP POP JUMP JUMPDEST PUSH3 0x1222 DUP2 PUSH3 0xB74 JUMP JUMPDEST DUP3 MSTORE POP POP JUMP JUMPDEST PUSH1 0x0 PUSH1 0x20 DUP3 ADD SWAP1 POP PUSH3 0x123F PUSH1 0x0 DUP4 ADD DUP5 PUSH3 0x1217 JUMP JUMPDEST SWAP3 SWAP2 POP POP JUMP JUMPDEST PUSH32 0x4E487B7100000000000000000000000000000000000000000000000000000000 PUSH1 0x0 MSTORE PUSH1 0x12 PUSH1 0x4 MSTORE PUSH1 0x24 PUSH1 0x0 REVERT JUMPDEST PUSH1 0x0 PUSH3 0x1281 DUP3 PUSH3 0xB19 JUMP JUMPDEST SWAP2 POP PUSH3 0x128E DUP4 PUSH3 0xB19 JUMP JUMPDEST SWAP3 POP DUP3 PUSH3 0x12A1 JUMPI PUSH3 0x12A0 PUSH3 0x1245 JUMP JUMPDEST JUMPDEST DUP3 DUP3 DIV SWAP1 POP SWAP3 SWAP2 POP POP JUMP JUMPDEST PUSH3 0x12B7 DUP2 PUSH3 0xB19 JUMP JUMPDEST DUP3 MSTORE POP POP JUMP JUMPDEST PUSH1 0x0 PUSH1 0x40 DUP3 ADD SWAP1 POP PUSH3 0x12D4 PUSH1 0x0 DUP4 ADD DUP6 PUSH3 0x1217 JUMP JUMPDEST PUSH3 0x12E3 PUSH1 0x20 DUP4 ADD DUP5 PUSH3 0x12AC JUMP JUMPDEST SWAP4 SWAP3 POP POP POP JUMP JUMPDEST PUSH32 0x4E487B7100000000000000000000000000000000000000000000000000000000 PUSH1 0x0 MSTORE PUSH1 0x21 PUSH1 0x4 MSTORE PUSH1 0x24 PUSH1 0x0 REVERT JUMPDEST PUSH1 0x0 PUSH1 0x80 DUP3 ADD SWAP1 POP PUSH3 0x1330 PUSH1 0x0 DUP4 ADD DUP8 PUSH3 0x1217 JUMP JUMPDEST PUSH3 0x133F PUSH1 0x20 DUP4 ADD DUP7 PUSH3 0x12AC JUMP JUMPDEST PUSH3 0x134E PUSH1 0x40 DUP4 ADD DUP6 PUSH3 0x12AC JUMP JUMPDEST PUSH3 0x135D PUSH1 0x60 DUP4 ADD DUP5 PUSH3 0x12AC JUMP JUMPDEST SWAP6 SWAP5 POP POP POP POP POP JUMP JUMPDEST PUSH1 0x0 PUSH3 0x1373 DUP3 PUSH3 0xB19 JUMP JUMPDEST SWAP2 POP PUSH3 0x1380 DUP4 PUSH3 0xB19 JUMP JUMPDEST SWAP3 POP DUP3 DUP3 SUB SWAP1 POP DUP2 DUP2 GT ISZERO PUSH3 0x139B JUMPI PUSH3 0x139A PUSH3 0xC41 JUMP JUMPDEST JUMPDEST SWAP3 SWAP2 POP POP JUMP JUMPDEST PUSH1 0x0 PUSH1 0x40 DUP3 ADD SWAP1 POP PUSH3 0x13B8 PUSH1 0x0 DUP4 ADD DUP6 PUSH3 0x12AC JUMP JUMPDEST PUSH3 0x13C7 PUSH1 0x20 DUP4 ADD DUP5 PUSH3 0x12AC JUMP JUMPDEST SWAP4 SWAP3 POP POP POP JUMP JUMPDEST PUSH1 0x0 PUSH3 0x13DB DUP3 PUSH3 0xB19 JUMP JUMPDEST SWAP2 POP PUSH3 0x13E8 DUP4 PUSH3 0xB19 JUMP JUMPDEST SWAP3 POP DUP3 DUP3 ADD SWAP1 POP DUP1 DUP3 GT ISZERO PUSH3 0x1403 JUMPI PUSH3 0x1402 PUSH3 0xC41 JUMP JUMPDEST JUMPDEST SWAP3 SWAP2 POP POP JUMP JUMPDEST PUSH1 0x0 PUSH1 0x60 DUP3 ADD SWAP1 POP PUSH3 0x1420 PUSH1 0x0 DUP4 ADD DUP7 PUSH3 0x1217 JUMP JUMPDEST PUSH3 0x142F PUSH1 0x20 DUP4 ADD DUP6 PUSH3 0x12AC JUMP JUMPDEST PUSH3 0x143E PUSH1 0x40 DUP4 ADD DUP5 PUSH3 0x12AC JUMP JUMPDEST SWAP5 SWAP4 POP POP POP POP JUMP JUMPDEST PUSH1 0x0 PUSH1 0x20 DUP3 ADD SWAP1 POP PUSH3 0x145D PUSH1 0x0 DUP4 ADD DUP5 PUSH3 0x12AC JUMP JUMPDEST SWAP3 SWAP2 POP POP JUMP JUMPDEST PUSH1 0x80 MLOAD PUSH2 0x2716 PUSH3 0x147F PUSH1 0x0 CODECOPY PUSH1 0x0 PUSH2 0x7FA ADD MSTORE PUSH2 0x2716 PUSH1 0x0 RETURN INVALID PUSH1 0x80 PUSH1 0x40 MSTORE PUSH1 0x4 CALLDATASIZE LT PUSH2 0x1BB JUMPI PUSH1 0x0 CALLDATALOAD PUSH1 0xE0 SHR DUP1 PUSH4 0x691F224F GT PUSH2 0xEC JUMPI DUP1 PUSH4 0xC56A4C38 GT PUSH2 0x8A JUMPI DUP1 PUSH4 0xE90DD9E2 GT PUSH2 0x64 JUMPI DUP1 PUSH4 0xE90DD9E2 EQ PUSH2 0x5DE JUMPI DUP1 PUSH4 0xEAFF1CBC EQ PUSH2 0x609 JUMPI DUP1 PUSH4 0xF2FDE38B EQ PUSH2 0x620 JUMPI DUP1 PUSH4 0xFCCC2813 EQ PUSH2 0x649 JUMPI PUSH2 0x1C2 JUMP JUMPDEST DUP1 PUSH4 0xC56A4C38 EQ PUSH2 0x573 JUMPI DUP1 PUSH4 0xD962ECCC EQ PUSH2 0x58A JUMPI DUP1 PUSH4 0xDD62ED3E EQ PUSH2 0x5A1 JUMPI PUSH2 0x1C2 JUMP JUMPDEST DUP1 PUSH4 0x85DF1D1C GT PUSH2 0xC6 JUMPI DUP1 PUSH4 0x85DF1D1C EQ PUSH2 0x4B5 JUMPI DUP1 PUSH4 0x8DA5CB5B EQ PUSH2 0x4E0 JUMPI DUP1 PUSH4 0x95D89B41 EQ PUSH2 0x50B JUMPI DUP1 PUSH4 0xA9059CBB EQ PUSH2 0x536 JUMPI PUSH2 0x1C2 JUMP JUMPDEST DUP1 PUSH4 0x691F224F EQ PUSH2 0x436 JUMPI DUP1 PUSH4 0x70A08231 EQ PUSH2 0x461 JUMPI DUP1 PUSH4 0x715018A6 EQ PUSH2 0x49E JUMPI PUSH2 0x1C2 JUMP JUMPDEST DUP1 PUSH4 0x2B653D44 GT PUSH2 0x159 JUMPI DUP1 PUSH4 0x5265EE55 GT PUSH2 0x133 JUMPI DUP1 PUSH4 0x5265EE55 EQ PUSH2 0x399 JUMPI DUP1 PUSH4 0x52CD2388 EQ PUSH2 0x3C4 JUMPI DUP1 PUSH4 0x5ECF7A67 EQ PUSH2 0x3EF JUMPI DUP1 PUSH4 0x63CAE94F EQ PUSH2 0x40B JUMPI PUSH2 0x1C2 JUMP JUMPDEST DUP1 PUSH4 0x2B653D44 EQ PUSH2 0x318 JUMPI DUP1 PUSH4 0x313CE567 EQ PUSH2 0x343 JUMPI DUP1 PUSH4 0x355274EA EQ PUSH2 0x36E JUMPI PUSH2 0x1C2 JUMP JUMPDEST DUP1 PUSH4 0x18160DDD GT PUSH2 0x195 JUMPI DUP1 PUSH4 0x18160DDD EQ PUSH2 0x25A JUMPI DUP1 PUSH4 0x18821400 EQ PUSH2 0x285 JUMPI DUP1 PUSH4 0x23B872DD EQ PUSH2 0x2B0 JUMPI DUP1 PUSH4 0x24024EFD EQ PUSH2 0x2ED JUMPI PUSH2 0x1C2 JUMP JUMPDEST DUP1 PUSH4 0x6FDDE03 EQ PUSH2 0x1C7 JUMPI DUP1 PUSH4 0x95EA7B3 EQ PUSH2 0x1F2 JUMPI DUP1 PUSH4 0x1694505E EQ PUSH2 0x22F JUMPI PUSH2 0x1C2 JUMP JUMPDEST CALLDATASIZE PUSH2 0x1C2 JUMPI STOP JUMPDEST PUSH1 0x0 DUP1 REVERT JUMPDEST CALLVALUE DUP1 ISZERO PUSH2 0x1D3 JUMPI PUSH1 0x0 DUP1 REVERT JUMPDEST POP PUSH2 0x1DC PUSH2 0x674 JUMP JUMPDEST PUSH1 0x40 MLOAD PUSH2 0x1E9 SWAP2 SWAP1 PUSH2 0x1E2B JUMP JUMPDEST PUSH1 0x40 MLOAD DUP1 SWAP2 SUB SWAP1 RETURN JUMPDEST CALLVALUE DUP1 ISZERO PUSH2 0x1FE JUMPI PUSH1 0x0 DUP1 REVERT JUMPDEST POP PUSH2 0x219 PUSH1 0x4 DUP1 CALLDATASIZE SUB DUP2 ADD SWAP1 PUSH2 0x214 SWAP2 SWAP1 PUSH2 0x1EE6 JUMP JUMPDEST PUSH2 0x706 JUMP JUMPDEST PUSH1 0x40 MLOAD PUSH2 0x226 SWAP2 SWAP1 PUSH2 0x1F41 JUMP JUMPDEST PUSH1 0x40 MLOAD DUP1 SWAP2 SUB SWAP1 RETURN JUMPDEST CALLVALUE DUP1 ISZERO PUSH2 0x23B JUMPI PUSH1 0x0 DUP1 REVERT JUMPDEST POP PUSH2 0x244 PUSH2 0x729 JUMP JUMPDEST PUSH1 0x40 MLOAD PUSH2 0x251 SWAP2 SWAP1 PUSH2 0x1FBB JUMP JUMPDEST PUSH1 0x40 MLOAD DUP1 SWAP2 SUB SWAP1 RETURN JUMPDEST CALLVALUE DUP1 ISZERO PUSH2 0x266 JUMPI PUSH1 0x0 DUP1 REVERT JUMPDEST POP PUSH2 0x26F PUSH2 0x74F JUMP JUMPDEST PUSH1 0x40 MLOAD PUSH2 0x27C SWAP2 SWAP1 PUSH2 0x1FE5 JUMP JUMPDEST PUSH1 0x40 MLOAD DUP1 SWAP2 SUB SWAP1 RETURN JUMPDEST CALLVALUE DUP1 ISZERO PUSH2 0x291 JUMPI PUSH1 0x0 DUP1 REVERT JUMPDEST POP PUSH2 0x29A PUSH2 0x759 JUMP JUMPDEST PUSH1 0x40 MLOAD PUSH2 0x2A7 SWAP2 SWAP1 PUSH2 0x1E2B JUMP JUMPDEST PUSH1 0x40 MLOAD DUP1 SWAP2 SUB SWAP1 RETURN JUMPDEST CALLVALUE DUP1 ISZERO PUSH2 0x2BC JUMPI PUSH1 0x0 DUP1 REVERT JUMPDEST POP PUSH2 0x2D7 PUSH1 0x4 DUP1 CALLDATASIZE SUB DUP2 ADD SWAP1 PUSH2 0x2D2 SWAP2 SWAP1 PUSH2 0x2000 JUMP JUMPDEST PUSH2 0x792 JUMP JUMPDEST PUSH1 0x40 MLOAD PUSH2 0x2E4 SWAP2 SWAP1 PUSH2 0x1F41 JUMP JUMPDEST PUSH1 0x40 MLOAD DUP1 SWAP2 SUB SWAP1 RETURN JUMPDEST CALLVALUE DUP1 ISZERO PUSH2 0x2F9 JUMPI PUSH1 0x0 DUP1 REVERT JUMPDEST POP PUSH2 0x302 PUSH2 0x7C1 JUMP JUMPDEST PUSH1 0x40 MLOAD PUSH2 0x30F SWAP2 SWAP1 PUSH2 0x1FE5 JUMP JUMPDEST PUSH1 0x40 MLOAD DUP1 SWAP2 SUB SWAP1 RETURN JUMPDEST CALLVALUE DUP1 ISZERO PUSH2 0x324 JUMPI PUSH1 0x0 DUP1 REVERT JUMPDEST POP PUSH2 0x32D PUSH2 0x7C7 JUMP JUMPDEST PUSH1 0x40 MLOAD PUSH2 0x33A SWAP2 SWAP1 PUSH2 0x2062 JUMP JUMPDEST PUSH1 0x40 MLOAD DUP1 SWAP2 SUB SWAP1 RETURN JUMPDEST CALLVALUE DUP1 ISZERO PUSH2 0x34F JUMPI PUSH1 0x0 DUP1 REVERT JUMPDEST POP PUSH2 0x358 PUSH2 0x7ED JUMP JUMPDEST PUSH1 0x40 MLOAD PUSH2 0x365 SWAP2 SWAP1 PUSH2 0x2099 JUMP JUMPDEST PUSH1 0x40 MLOAD DUP1 SWAP2 SUB SWAP1 RETURN JUMPDEST CALLVALUE DUP1 ISZERO PUSH2 0x37A JUMPI PUSH1 0x0 DUP1 REVERT JUMPDEST POP PUSH2 0x383 PUSH2 0x7F6 JUMP JUMPDEST PUSH1 0x40 MLOAD PUSH2 0x390 SWAP2 SWAP1 PUSH2 0x1FE5 JUMP JUMPDEST PUSH1 0x40 MLOAD DUP1 SWAP2 SUB SWAP1 RETURN JUMPDEST CALLVALUE DUP1 ISZERO PUSH2 0x3A5 JUMPI PUSH1 0x0 DUP1 REVERT JUMPDEST POP PUSH2 0x3AE PUSH2 0x81E JUMP JUMPDEST PUSH1 0x40 MLOAD PUSH2 0x3BB SWAP2 SWAP1 PUSH2 0x1E2B JUMP JUMPDEST PUSH1 0x40 MLOAD DUP1 SWAP2 SUB SWAP1 RETURN JUMPDEST CALLVALUE DUP1 ISZERO PUSH2 0x3D0 JUMPI PUSH1 0x0 DUP1 REVERT JUMPDEST POP PUSH2 0x3D9 PUSH2 0x857 JUMP JUMPDEST PUSH1 0x40 MLOAD PUSH2 0x3E6 SWAP2 SWAP1 PUSH2 0x2062 JUMP JUMPDEST PUSH1 0x40 MLOAD DUP1 SWAP2 SUB SWAP1 RETURN JUMPDEST PUSH2 0x409 PUSH1 0x4 DUP1 CALLDATASIZE SUB DUP2 ADD SWAP1 PUSH2 0x404 SWAP2 SWAP1 PUSH2 0x20B4 JUMP JUMPDEST PUSH2 0x87D JUMP JUMPDEST STOP JUMPDEST CALLVALUE DUP1 ISZERO PUSH2 0x417 JUMPI PUSH1 0x0 DUP1 REVERT JUMPDEST POP PUSH2 0x420 PUSH2 0xD42 JUMP JUMPDEST PUSH1 0x40 MLOAD PUSH2 0x42D SWAP2 SWAP1 PUSH2 0x2062 JUMP JUMPDEST PUSH1 0x40 MLOAD DUP1 SWAP2 SUB SWAP1 RETURN JUMPDEST CALLVALUE DUP1 ISZERO PUSH2 0x442 JUMPI PUSH1 0x0 DUP1 REVERT JUMPDEST POP PUSH2 0x44B PUSH2 0xD68 JUMP JUMPDEST PUSH1 0x40 MLOAD PUSH2 0x458 SWAP2 SWAP1 PUSH2 0x1FE5 JUMP JUMPDEST PUSH1 0x40 MLOAD DUP1 SWAP2 SUB SWAP1 RETURN JUMPDEST CALLVALUE DUP1 ISZERO PUSH2 0x46D JUMPI PUSH1 0x0 DUP1 REVERT JUMPDEST POP PUSH2 0x488 PUSH1 0x4 DUP1 CALLDATASIZE SUB DUP2 ADD SWAP1 PUSH2 0x483 SWAP2 SWAP1 PUSH2 0x20B4 JUMP JUMPDEST PUSH2 0xD6E JUMP JUMPDEST PUSH1 0x40 MLOAD PUSH2 0x495 SWAP2 SWAP1 PUSH2 0x1FE5 JUMP JUMPDEST PUSH1 0x40 MLOAD DUP1 SWAP2 SUB SWAP1 RETURN JUMPDEST CALLVALUE DUP1 ISZERO PUSH2 0x4AA JUMPI PUSH1 0x0 DUP1 REVERT JUMPDEST POP PUSH2 0x4B3 PUSH2 0xDB6 JUMP JUMPDEST STOP JUMPDEST CALLVALUE DUP1 ISZERO PUSH2 0x4C1 JUMPI PUSH1 0x0 DUP1 REVERT JUMPDEST POP PUSH2 0x4CA PUSH2 0xEAD JUMP JUMPDEST PUSH1 0x40 MLOAD PUSH2 0x4D7 SWAP2 SWAP1 PUSH2 0x2062 JUMP JUMPDEST PUSH1 0x40 MLOAD DUP1 SWAP2 SUB SWAP1 RETURN JUMPDEST CALLVALUE DUP1 ISZERO PUSH2 0x4EC JUMPI PUSH1 0x0 DUP1 REVERT JUMPDEST POP PUSH2 0x4F5 PUSH2 0xED3 JUMP JUMPDEST PUSH1 0x40 MLOAD PUSH2 0x502 SWAP2 SWAP1 PUSH2 0x2062 JUMP JUMPDEST PUSH1 0x40 MLOAD DUP1 SWAP2 SUB SWAP1 RETURN JUMPDEST CALLVALUE DUP1 ISZERO PUSH2 0x517 JUMPI PUSH1 0x0 DUP1 REVERT JUMPDEST POP PUSH2 0x520 PUSH2 0xEFD JUMP JUMPDEST PUSH1 0x40 MLOAD PUSH2 0x52D SWAP2 SWAP1 PUSH2 0x1E2B JUMP JUMPDEST PUSH1 0x40 MLOAD DUP1 SWAP2 SUB SWAP1 RETURN JUMPDEST CALLVALUE DUP1 ISZERO PUSH2 0x542 JUMPI PUSH1 0x0 DUP1 REVERT JUMPDEST POP PUSH2 0x55D PUSH1 0x4 DUP1 CALLDATASIZE SUB DUP2 ADD SWAP1 PUSH2 0x558 SWAP2 SWAP1 PUSH2 0x1EE6 JUMP JUMPDEST PUSH2 0xF8F JUMP JUMPDEST PUSH1 0x40 MLOAD PUSH2 0x56A SWAP2 SWAP1 PUSH2 0x1F41 JUMP JUMPDEST PUSH1 0x40 MLOAD DUP1 SWAP2 SUB SWAP1 RETURN JUMPDEST CALLVALUE DUP1 ISZERO PUSH2 0x57F JUMPI PUSH1 0x0 DUP1 REVERT JUMPDEST POP PUSH2 0x588 PUSH2 0xFB2 JUMP JUMPDEST STOP JUMPDEST CALLVALUE DUP1 ISZERO PUSH2 0x596 JUMPI PUSH1 0x0 DUP1 REVERT JUMPDEST POP PUSH2 0x59F PUSH2 0x105F JUMP JUMPDEST STOP JUMPDEST CALLVALUE DUP1 ISZERO PUSH2 0x5AD JUMPI PUSH1 0x0 DUP1 REVERT JUMPDEST POP PUSH2 0x5C8 PUSH1 0x4 DUP1 CALLDATASIZE SUB DUP2 ADD SWAP1 PUSH2 0x5C3 SWAP2 SWAP1 PUSH2 0x20E1 JUMP JUMPDEST PUSH2 0x110A JUMP JUMPDEST PUSH1 0x40 MLOAD PUSH2 0x5D5 SWAP2 SWAP1 PUSH2 0x1FE5 JUMP JUMPDEST PUSH1 0x40 MLOAD DUP1 SWAP2 SUB SWAP1 RETURN JUMPDEST CALLVALUE DUP1 ISZERO PUSH2 0x5EA JUMPI PUSH1 0x0 DUP1 REVERT JUMPDEST POP PUSH2 0x5F3 PUSH2 0x1191 JUMP JUMPDEST PUSH1 0x40 MLOAD PUSH2 0x600 SWAP2 SWAP1 PUSH2 0x2198 JUMP JUMPDEST PUSH1 0x40 MLOAD DUP1 SWAP2 SUB SWAP1 RETURN JUMPDEST CALLVALUE DUP1 ISZERO PUSH2 0x615 JUMPI PUSH1 0x0 DUP1 REVERT JUMPDEST POP PUSH2 0x61E PUSH2 0x11A4 JUMP JUMPDEST STOP JUMPDEST CALLVALUE DUP1 ISZERO PUSH2 0x62C JUMPI PUSH1 0x0 DUP1 REVERT JUMPDEST POP PUSH2 0x647 PUSH1 0x4 DUP1 CALLDATASIZE SUB DUP2 ADD SWAP1 PUSH2 0x642 SWAP2 SWAP1 PUSH2 0x20B4 JUMP JUMPDEST PUSH2 0x12A0 JUMP JUMPDEST STOP JUMPDEST CALLVALUE DUP1 ISZERO PUSH2 0x655 JUMPI PUSH1 0x0 DUP1 REVERT JUMPDEST POP PUSH2 0x65E PUSH2 0x1326 JUMP JUMPDEST PUSH1 0x40 MLOAD PUSH2 0x66B SWAP2 SWAP1 PUSH2 0x2062 JUMP JUMPDEST PUSH1 0x40 MLOAD DUP1 SWAP2 SUB SWAP1 RETURN JUMPDEST PUSH1 0x60 PUSH1 0x3 DUP1 SLOAD PUSH2 0x683 SWAP1 PUSH2 0x21E2 JUMP JUMPDEST DUP1 PUSH1 0x1F ADD PUSH1 0x20 DUP1 SWAP2 DIV MUL PUSH1 0x20 ADD PUSH1 0x40 MLOAD SWAP1 DUP2 ADD PUSH1 0x40 MSTORE DUP1 SWAP3 SWAP2 SWAP1 DUP2 DUP2 MSTORE PUSH1 0x20 ADD DUP3 DUP1 SLOAD PUSH2 0x6AF SWAP1 PUSH2 0x21E2 JUMP JUMPDEST DUP1 ISZERO PUSH2 0x6FC JUMPI DUP1 PUSH1 0x1F LT PUSH2 0x6D1 JUMPI PUSH2 0x100 DUP1 DUP4 SLOAD DIV MUL DUP4 MSTORE SWAP2 PUSH1 0x20 ADD SWAP2 PUSH2 0x6FC JUMP JUMPDEST DUP3 ADD SWAP2 SWAP1 PUSH1 0x0 MSTORE PUSH1 0x20 PUSH1 0x0 KECCAK256 SWAP1 JUMPDEST DUP2 SLOAD DUP2 MSTORE SWAP1 PUSH1 0x1 ADD SWAP1 PUSH1 0x20 ADD DUP1 DUP4 GT PUSH2 0x6DF JUMPI DUP3 SWAP1 SUB PUSH1 0x1F AND DUP3 ADD SWAP2 JUMPDEST POP POP POP POP POP SWAP1 POP SWAP1 JUMP JUMPDEST PUSH1 0x0 DUP1 PUSH2 0x711 PUSH2 0x132B JUMP JUMPDEST SWAP1 POP PUSH2 0x71E DUP2 DUP6 DUP6 PUSH2 0x1333 JUMP JUMPDEST PUSH1 0x1 SWAP2 POP POP SWAP3 SWAP2 POP POP JUMP JUMPDEST PUSH1 0xC PUSH1 0x0 SWAP1 SLOAD SWAP1 PUSH2 0x100 EXP SWAP1 DIV PUSH20 0xFFFFFFFFFFFFFFFFFFFFFFFFFFFFFFFFFFFFFFFF AND DUP2 JUMP JUMPDEST PUSH1 0x0 PUSH1 0x2 SLOAD SWAP1 POP SWAP1 JUMP JUMPDEST PUSH1 0x40 MLOAD DUP1 PUSH1 0x40 ADD PUSH1 0x40 MSTORE DUP1 PUSH1 0xB DUP2 MSTORE PUSH1 0x20 ADD PUSH32 0x4261736564205768616C65000000000000000000000000000000000000000000 DUP2 MSTORE POP DUP2 JUMP JUMPDEST PUSH1 0x0 DUP1 PUSH2 0x79D PUSH2 0x132B JUMP JUMPDEST SWAP1 POP PUSH2 0x7AA DUP6 DUP3 DUP6 PUSH2 0x1345 JUMP JUMPDEST PUSH2 0x7B5 DUP6 DUP6 DUP6 PUSH2 0x13D9 JUMP JUMPDEST PUSH1 0x1 SWAP2 POP POP SWAP4 SWAP3 POP POP POP JUMP JUMPDEST PUSH1 0xA SLOAD DUP2 JUMP JUMPDEST PUSH1 0xB PUSH1 0x0 SWAP1 SLOAD SWAP1 PUSH2 0x100 EXP SWAP1 DIV PUSH20 0xFFFFFFFFFFFFFFFFFFFFFFFFFFFFFFFFFFFFFFFF AND DUP2 JUMP JUMPDEST PUSH1 0x0 PUSH1 0x12 SWAP1 POP SWAP1 JUMP JUMPDEST PUSH1 0x0 PUSH32 0x0 SWAP1 POP SWAP1 JUMP JUMPDEST PUSH1 0x40 MLOAD DUP1 PUSH1 0x40 ADD PUSH1 0x40 MSTORE DUP1 PUSH1 0x5 DUP2 MSTORE PUSH1 0x20 ADD PUSH32 0x5748414C45000000000000000000000000000000000000000000000000000000 DUP2 MSTORE POP DUP2 JUMP JUMPDEST PUSH1 0x8 PUSH1 0x0 SWAP1 SLOAD SWAP1 PUSH2 0x100 EXP SWAP1 DIV PUSH20 0xFFFFFFFFFFFFFFFFFFFFFFFFFFFFFFFFFFFFFFFF AND DUP2 JUMP JUMPDEST PUSH2 0x885 PUSH2 0x14CD JUMP JUMPDEST PUSH1 0x1 DUP1 PUSH1 0x4 DUP2 GT ISZERO PUSH2 0x89A JUMPI PUSH2 0x899 PUSH2 0x2121 JUMP JUMPDEST JUMPDEST PUSH1 0x5 PUSH1 0x14 SWAP1 SLOAD SWAP1 PUSH2 0x100 EXP SWAP1 DIV PUSH1 0xFF AND PUSH1 0x4 DUP2 GT ISZERO PUSH2 0x8BC JUMPI PUSH2 0x8BB PUSH2 0x2121 JUMP JUMPDEST JUMPDEST EQ PUSH2 0x8FC JUMPI PUSH1 0x40 MLOAD PUSH32 0x8C379A000000000000000000000000000000000000000000000000000000000 DUP2 MSTORE PUSH1 0x4 ADD PUSH2 0x8F3 SWAP1 PUSH2 0x2285 JUMP JUMPDEST PUSH1 0x40 MLOAD DUP1 SWAP2 SUB SWAP1 REVERT JUMPDEST DUP2 PUSH1 0xC PUSH1 0x0 PUSH2 0x100 EXP DUP2 SLOAD DUP2 PUSH20 0xFFFFFFFFFFFFFFFFFFFFFFFFFFFFFFFFFFFFFFFF MUL NOT AND SWAP1 DUP4 PUSH20 0xFFFFFFFFFFFFFFFFFFFFFFFFFFFFFFFFFFFFFFFF AND MUL OR SWAP1 SSTORE POP PUSH1 0xC PUSH1 0x0 SWAP1 SLOAD SWAP1 PUSH2 0x100 EXP SWAP1 DIV PUSH20 0xFFFFFFFFFFFFFFFFFFFFFFFFFFFFFFFFFFFFFFFF AND PUSH20 0xFFFFFFFFFFFFFFFFFFFFFFFFFFFFFFFFFFFFFFFF AND PUSH4 0xC45A0155 PUSH1 0x40 MLOAD DUP2 PUSH4 0xFFFFFFFF AND PUSH1 0xE0 SHL DUP2 MSTORE PUSH1 0x4 ADD PUSH1 0x20 PUSH1 0x40 MLOAD DUP1 DUP4 SUB DUP2 DUP7 GAS STATICCALL ISZERO DUP1 ISZERO PUSH2 0x9AA JUMPI RETURNDATASIZE PUSH1 0x0 DUP1 RETURNDATACOPY RETURNDATASIZE PUSH1 0x0 REVERT JUMPDEST POP POP POP POP PUSH1 0x40 MLOAD RETURNDATASIZE PUSH1 0x1F NOT PUSH1 0x1F DUP3 ADD AND DUP3 ADD DUP1 PUSH1 0x40 MSTORE POP DUP2 ADD SWAP1 PUSH2 0x9CE SWAP2 SWAP1 PUSH2 0x22BA JUMP JUMPDEST PUSH20 0xFFFFFFFFFFFFFFFFFFFFFFFFFFFFFFFFFFFFFFFF AND PUSH4 0xC9C65396 ADDRESS PUSH1 0xC PUSH1 0x0 SWAP1 SLOAD SWAP1 PUSH2 0x100 EXP SWAP1 DIV PUSH20 0xFFFFFFFFFFFFFFFFFFFFFFFFFFFFFFFFFFFFFFFF AND PUSH20 0xFFFFFFFFFFFFFFFFFFFFFFFFFFFFFFFFFFFFFFFF AND PUSH4 0xAD5C4648 PUSH1 0x40 MLOAD DUP2 PUSH4 0xFFFFFFFF AND PUSH1 0xE0 SHL DUP2 MSTORE PUSH1 0x4 ADD PUSH1 0x20 PUSH1 0x40 MLOAD DUP1 DUP4 SUB DUP2 DUP7 GAS STATICCALL ISZERO DUP1 ISZERO PUSH2 0xA57 JUMPI RETURNDATASIZE PUSH1 0x0 DUP1 RETURNDATACOPY RETURNDATASIZE PUSH1 0x0 REVERT JUMPDEST POP POP POP POP PUSH1 0x40 MLOAD RETURNDATASIZE PUSH1 0x1F NOT PUSH1 0x1F DUP3 ADD AND DUP3 ADD DUP1 PUSH1 0x40 MSTORE POP DUP2 ADD SWAP1 PUSH2 0xA7B SWAP2 SWAP1 PUSH2 0x22BA JUMP JUMPDEST PUSH1 0x40 MLOAD DUP4 PUSH4 0xFFFFFFFF AND PUSH1 0xE0 SHL DUP2 MSTORE PUSH1 0x4 ADD PUSH2 0xA98 SWAP3 SWAP2 SWAP1 PUSH2 0x22E7 JUMP JUMPDEST PUSH1 0x20 PUSH1 0x40 MLOAD DUP1 DUP4 SUB DUP2 PUSH1 0x0 DUP8 GAS CALL ISZERO DUP1 ISZERO PUSH2 0xAB7 JUMPI RETURNDATASIZE PUSH1 0x0 DUP1 RETURNDATACOPY RETURNDATASIZE PUSH1 0x0 REVERT JUMPDEST POP POP POP POP PUSH1 0x40 MLOAD RETURNDATASIZE PUSH1 0x1F NOT PUSH1 0x1F DUP3 ADD AND DUP3 ADD DUP1 PUSH1 0x40 MSTORE POP DUP2 ADD SWAP1 PUSH2 0xADB SWAP2 SWAP1 PUSH2 0x22BA JUMP JUMPDEST PUSH1 0xB PUSH1 0x0 PUSH2 0x100 EXP DUP2 SLOAD DUP2 PUSH20 0xFFFFFFFFFFFFFFFFFFFFFFFFFFFFFFFFFFFFFFFF MUL NOT AND SWAP1 DUP4 PUSH20 0xFFFFFFFFFFFFFFFFFFFFFFFFFFFFFFFFFFFFFFFF AND MUL OR SWAP1 SSTORE POP PUSH1 0x0 PUSH1 0x64 PUSH1 0x55 PUSH2 0xB29 PUSH2 0x7F6 JUMP JUMPDEST PUSH2 0xB33 SWAP2 SWAP1 PUSH2 0x233F JUMP JUMPDEST PUSH2 0xB3D SWAP2 SWAP1 PUSH2 0x23B0 JUMP JUMPDEST SWAP1 POP PUSH2 0xB49 ADDRESS DUP3 PUSH2 0x1554 JUMP JUMPDEST PUSH2 0xB54 ADDRESS DUP5 DUP4 PUSH2 0x1333 JUMP JUMPDEST PUSH1 0x0 TIMESTAMP SWAP1 POP PUSH1 0x0 DUP1 PUSH1 0xC PUSH1 0x0 SWAP1 SLOAD SWAP1 PUSH2 0x100 EXP SWAP1 DIV PUSH20 0xFFFFFFFFFFFFFFFFFFFFFFFFFFFFFFFFFFFFFFFF AND PUSH20 0xFFFFFFFFFFFFFFFFFFFFFFFFFFFFFFFFFFFFFFFF AND PUSH4 0xF305D719 CALLVALUE ADDRESS DUP8 PUSH1 0x0 DUP1 PUSH1 0x0 DUP11 PUSH1 0x40 MLOAD DUP9 PUSH4 0xFFFFFFFF AND PUSH1 0xE0 SHL DUP2 MSTORE PUSH1 0x4 ADD PUSH2 0xBC4 SWAP7 SWAP6 SWAP5 SWAP4 SWAP3 SWAP2 SWAP1 PUSH2 0x241C JUMP JUMPDEST PUSH1 0x60 PUSH1 0x40 MLOAD DUP1 DUP4 SUB DUP2 DUP6 DUP9 GAS CALL ISZERO DUP1 ISZERO PUSH2 0xBE2 JUMPI RETURNDATASIZE PUSH1 0x0 DUP1 RETURNDATACOPY RETURNDATASIZE PUSH1 0x0 REVERT JUMPDEST POP POP POP POP POP PUSH1 0x40 MLOAD RETURNDATASIZE PUSH1 0x1F NOT PUSH1 0x1F DUP3 ADD AND DUP3 ADD DUP1 PUSH1 0x40 MSTORE POP DUP2 ADD SWAP1 PUSH2 0xC07 SWAP2 SWAP1 PUSH2 0x2492 JUMP JUMPDEST POP SWAP2 POP SWAP2 POP PUSH1 0x0 PUSH1 0xB PUSH1 0x0 SWAP1 SLOAD SWAP1 PUSH2 0x100 EXP SWAP1 DIV PUSH20 0xFFFFFFFFFFFFFFFFFFFFFFFFFFFFFFFFFFFFFFFF AND SWAP1 POP PUSH32 0xF07F8699EB5A7D3C6903ABA7FFC0B932E8E123129924F6AA4E3E95B04BA25179 PUSH1 0xB PUSH1 0x0 SWAP1 SLOAD SWAP1 PUSH2 0x100 EXP SWAP1 DIV PUSH20 0xFFFFFFFFFFFFFFFFFFFFFFFFFFFFFFFFFFFFFFFF AND DUP5 DUP5 DUP5 PUSH20 0xFFFFFFFFFFFFFFFFFFFFFFFFFFFFFFFFFFFFFFFF AND PUSH4 0x70A08231 PUSH1 0x0 PUSH1 0x40 MLOAD DUP3 PUSH4 0xFFFFFFFF AND PUSH1 0xE0 SHL DUP2 MSTORE PUSH1 0x4 ADD PUSH2 0xCB3 SWAP2 SWAP1 PUSH2 0x2062 JUMP JUMPDEST PUSH1 0x20 PUSH1 0x40 MLOAD DUP1 DUP4 SUB DUP2 DUP7 GAS STATICCALL ISZERO DUP1 ISZERO PUSH2 0xCD0 JUMPI RETURNDATASIZE PUSH1 0x0 DUP1 RETURNDATACOPY RETURNDATASIZE PUSH1 0x0 REVERT JUMPDEST POP POP POP POP PUSH1 0x40 MLOAD RETURNDATASIZE PUSH1 0x1F NOT PUSH1 0x1F DUP3 ADD AND DUP3 ADD DUP1 PUSH1 0x40 MSTORE POP DUP2 ADD SWAP1 PUSH2 0xCF4 SWAP2 SWAP1 PUSH2 0x24E5 JUMP JUMPDEST DUP9 PUSH1 0x40 MLOAD PUSH2 0xD06 SWAP6 SWAP5 SWAP4 SWAP3 SWAP2 SWAP1 PUSH2 0x2512 JUMP JUMPDEST PUSH1 0x40 MLOAD DUP1 SWAP2 SUB SWAP1 LOG1 PUSH1 0x2 PUSH1 0x5 PUSH1 0x14 PUSH2 0x100 EXP DUP2 SLOAD DUP2 PUSH1 0xFF MUL NOT AND SWAP1 DUP4 PUSH1 0x4 DUP2 GT ISZERO PUSH2 0xD34 JUMPI PUSH2 0xD33 PUSH2 0x2121 JUMP JUMPDEST JUMPDEST MUL OR SWAP1 SSTORE POP POP POP POP POP POP POP POP JUMP JUMPDEST PUSH1 0x6 PUSH1 0x0 SWAP1 SLOAD SWAP1 PUSH2 0x100 EXP SWAP1 DIV PUSH20 0xFFFFFFFFFFFFFFFFFFFFFFFFFFFFFFFFFFFFFFFF AND DUP2 JUMP JUMPDEST PUSH1 0x9 SLOAD DUP2 JUMP JUMPDEST PUSH1 0x0 DUP1 PUSH1 0x0 DUP4 PUSH20 0xFFFFFFFFFFFFFFFFFFFFFFFFFFFFFFFFFFFFFFFF AND PUSH20 0xFFFFFFFFFFFFFFFFFFFFFFFFFFFFFFFFFFFFFFFF AND DUP2 MSTORE PUSH1 0x20 ADD SWAP1 DUP2 MSTORE PUSH1 0x20 ADD PUSH1 0x0 KECCAK256 SLOAD SWAP1 POP SWAP2 SWAP1 POP JUMP JUMPDEST PUSH2 0xDBE PUSH2 0x14CD JUMP JUMPDEST PUSH1 0x3 DUP1 PUSH1 0x4 DUP2 GT ISZERO PUSH2 0xDD3 JUMPI PUSH2 0xDD2 PUSH2 0x2121 JUMP JUMPDEST JUMPDEST PUSH1 0x5 PUSH1 0x14 SWAP1 SLOAD SWAP1 PUSH2 0x100 EXP SWAP1 DIV PUSH1 0xFF AND PUSH1 0x4 DUP2 GT ISZERO PUSH2 0xDF5 JUMPI PUSH2 0xDF4 PUSH2 0x2121 JUMP JUMPDEST JUMPDEST EQ PUSH2 0xE35 JUMPI PUSH1 0x40 MLOAD PUSH32 0x8C379A000000000000000000000000000000000000000000000000000000000 DUP2 MSTORE PUSH1 0x4 ADD PUSH2 0xE2C SWAP1 PUSH2 0x2285 JUMP JUMPDEST PUSH1 0x40 MLOAD DUP1 SWAP2 SUB SWAP1 REVERT JUMPDEST PUSH32 0xBC3FA950185893C8DDFFF1DAFEC540FFC8D7E576295FEA983A515E9A8E03ACD7 CALLER PUSH2 0xE5F PUSH2 0xED3 JUMP JUMPDEST TIMESTAMP PUSH1 0x40 MLOAD PUSH2 0xE6F SWAP4 SWAP3 SWAP2 SWAP1 PUSH2 0x2565 JUMP JUMPDEST PUSH1 0x40 MLOAD DUP1 SWAP2 SUB SWAP1 LOG1 PUSH1 0x4 PUSH1 0x5 PUSH1 0x14 PUSH2 0x100 EXP DUP2 SLOAD DUP2 PUSH1 0xFF MUL NOT AND SWAP1 DUP4 PUSH1 0x4 DUP2 GT ISZERO PUSH2 0xE9D JUMPI PUSH2 0xE9C PUSH2 0x2121 JUMP JUMPDEST JUMPDEST MUL OR SWAP1 SSTORE POP PUSH2 0xEAA PUSH2 0x15D6 JUMP JUMPDEST POP JUMP JUMPDEST PUSH1 0x7 PUSH1 0x0 SWAP1 SLOAD SWAP1 PUSH2 0x100 EXP SWAP1 DIV PUSH20 0xFFFFFFFFFFFFFFFFFFFFFFFFFFFFFFFFFFFFFFFF AND DUP2 JUMP JUMPDEST PUSH1 0x0 PUSH1 0x5 PUSH1 0x0 SWAP1 SLOAD SWAP1 PUSH2 0x100 EXP SWAP1 DIV PUSH20 0xFFFFFFFFFFFFFFFFFFFFFFFFFFFFFFFFFFFFFFFF AND SWAP1 POP SWAP1 JUMP JUMPDEST PUSH1 0x60 PUSH1 0x4 DUP1 SLOAD PUSH2 0xF0C SWAP1 PUSH2 0x21E2 JUMP JUMPDEST DUP1 PUSH1 0x1F ADD PUSH1 0x20 DUP1 SWAP2 DIV MUL PUSH1 0x20 ADD PUSH1 0x40 MLOAD SWAP1 DUP2 ADD PUSH1 0x40 MSTORE DUP1 SWAP3 SWAP2 SWAP1 DUP2 DUP2 MSTORE PUSH1 0x20 ADD DUP3 DUP1 SLOAD PUSH2 0xF38 SWAP1 PUSH2 0x21E2 JUMP JUMPDEST DUP1 ISZERO PUSH2 0xF85 JUMPI DUP1 PUSH1 0x1F LT PUSH2 0xF5A JUMPI PUSH2 0x100 DUP1 DUP4 SLOAD DIV MUL DUP4 MSTORE SWAP2 PUSH1 0x20 ADD SWAP2 PUSH2 0xF85 JUMP JUMPDEST DUP3 ADD SWAP2 SWAP1 PUSH1 0x0 MSTORE PUSH1 0x20 PUSH1 0x0 KECCAK256 SWAP1 JUMPDEST DUP2 SLOAD DUP2 MSTORE SWAP1 PUSH1 0x1 ADD SWAP1 PUSH1 0x20 ADD DUP1 DUP4 GT PUSH2 0xF68 JUMPI DUP3 SWAP1 SUB PUSH1 0x1F AND DUP3 ADD SWAP2 JUMPDEST POP POP POP POP POP SWAP1 POP SWAP1 JUMP JUMPDEST PUSH1 0x0 DUP1 PUSH2 0xF9A PUSH2 0x132B JUMP JUMPDEST SWAP1 POP PUSH2 0xFA7 DUP2 DUP6 DUP6 PUSH2 0x13D9 JUMP JUMPDEST PUSH1 0x1 SWAP2 POP POP SWAP3 SWAP2 POP POP JUMP JUMPDEST PUSH2 0xFBA PUSH2 0x14CD JUMP JUMPDEST PUSH1 0x1 DUP1 PUSH1 0x4 DUP2 GT ISZERO PUSH2 0xFCF JUMPI PUSH2 0xFCE PUSH2 0x2121 JUMP JUMPDEST JUMPDEST PUSH1 0x5 PUSH1 0x14 SWAP1 SLOAD SWAP1 PUSH2 0x100 EXP SWAP1 DIV PUSH1 0xFF AND PUSH1 0x4 DUP2 GT ISZERO PUSH2 0xFF1 JUMPI PUSH2 0xFF0 PUSH2 0x2121 JUMP JUMPDEST JUMPDEST EQ PUSH2 0x1031 JUMPI PUSH1 0x40 MLOAD PUSH32 0x8C379A000000000000000000000000000000000000000000000000000000000 DUP2 MSTORE PUSH1 0x4 ADD PUSH2 0x1028 SWAP1 PUSH2 0x2285 JUMP JUMPDEST PUSH1 0x40 MLOAD DUP1 SWAP2 SUB SWAP1 REVERT JUMPDEST PUSH1 0x2 PUSH1 0x5 PUSH1 0x14 PUSH2 0x100 EXP DUP2 SLOAD DUP2 PUSH1 0xFF MUL NOT AND SWAP1 DUP4 PUSH1 0x4 DUP2 GT ISZERO PUSH2 0x1057 JUMPI PUSH2 0x1056 PUSH2 0x2121 JUMP JUMPDEST JUMPDEST MUL OR SWAP1 SSTORE POP POP JUMP JUMPDEST PUSH2 0x1067 PUSH2 0x14CD JUMP JUMPDEST PUSH1 0x1 DUP1 PUSH1 0x4 DUP2 GT ISZERO PUSH2 0x107C JUMPI PUSH2 0x107B PUSH2 0x2121 JUMP JUMPDEST JUMPDEST PUSH1 0x5 PUSH1 0x14 SWAP1 SLOAD SWAP1 PUSH2 0x100 EXP SWAP1 DIV PUSH1 0xFF AND PUSH1 0x4 DUP2 GT ISZERO PUSH2 0x109E JUMPI PUSH2 0x109D PUSH2 0x2121 JUMP JUMPDEST JUMPDEST EQ PUSH2 0x10DE JUMPI PUSH1 0x40 MLOAD PUSH32 0x8C379A000000000000000000000000000000000000000000000000000000000 DUP2 MSTORE PUSH1 0x4 ADD PUSH2 0x10D5 SWAP1 PUSH2 0x2285 JUMP JUMPDEST PUSH1 0x40 MLOAD DUP1 SWAP2 SUB SWAP1 REVERT JUMPDEST PUSH1 0x0 PUSH2 0x10E8 PUSH2 0x74F JUMP JUMPDEST PUSH2 0x10F0 PUSH2 0x7F6 JUMP JUMPDEST PUSH2 0x10FA SWAP2 SWAP1 PUSH2 0x259C JUMP JUMPDEST SWAP1 POP PUSH2 0x1106 CALLER DUP3 PUSH2 0x1554 JUMP JUMPDEST POP POP JUMP JUMPDEST PUSH1 0x0 PUSH1 0x1 PUSH1 0x0 DUP5 PUSH20 0xFFFFFFFFFFFFFFFFFFFFFFFFFFFFFFFFFFFFFFFF AND PUSH20 0xFFFFFFFFFFFFFFFFFFFFFFFFFFFFFFFFFFFFFFFF AND DUP2 MSTORE PUSH1 0x20 ADD SWAP1 DUP2 MSTORE PUSH1 0x20 ADD PUSH1 0x0 KECCAK256 PUSH1 0x0 DUP4 PUSH20 0xFFFFFFFFFFFFFFFFFFFFFFFFFFFFFFFFFFFFFFFF AND PUSH20 0xFFFFFFFFFFFFFFFFFFFFFFFFFFFFFFFFFFFFFFFF AND DUP2 MSTORE PUSH1 0x20 ADD SWAP1 DUP2 MSTORE PUSH1 0x20 ADD PUSH1 0x0 KECCAK256 SLOAD SWAP1 POP SWAP3 SWAP2 POP POP JUMP JUMPDEST PUSH1 0x5 PUSH1 0x14 SWAP1 SLOAD SWAP1 PUSH2 0x100 EXP SWAP1 DIV PUSH1 0xFF AND DUP2 JUMP JUMPDEST PUSH2 0x11AC PUSH2 0x14CD JUMP JUMPDEST PUSH1 0x2 DUP1 PUSH1 0x4 DUP2 GT ISZERO PUSH2 0x11C1 JUMPI PUSH2 0x11C0 PUSH2 0x2121 JUMP JUMPDEST JUMPDEST PUSH1 0x5 PUSH1 0x14 SWAP1 SLOAD SWAP1 PUSH2 0x100 EXP SWAP1 DIV PUSH1 0xFF AND PUSH1 0x4 DUP2 GT ISZERO PUSH2 0x11E3 JUMPI PUSH2 0x11E2 PUSH2 0x2121 JUMP JUMPDEST JUMPDEST EQ PUSH2 0x1223 JUMPI PUSH1 0x40 MLOAD PUSH32 0x8C379A000000000000000000000000000000000000000000000000000000000 DUP2 MSTORE PUSH1 0x4 ADD PUSH2 0x121A SWAP1 PUSH2 0x2285 JUMP JUMPDEST PUSH1 0x40 MLOAD DUP1 SWAP2 SUB SWAP1 REVERT JUMPDEST PUSH1 0x0 PUSH1 0x9 DUP2 SWAP1 SSTORE POP PUSH1 0x0 PUSH1 0xA DUP2 SWAP1 SSTORE POP PUSH32 0xC4C7C69F1EEEF4DCF5449FCEE968E149B2646D141F0D9BB3D1DE12DE99D77F7E PUSH1 0x9 SLOAD PUSH1 0xA SLOAD TIMESTAMP PUSH1 0x40 MLOAD PUSH2 0x126A SWAP4 SWAP3 SWAP2 SWAP1 PUSH2 0x25D0 JUMP JUMPDEST PUSH1 0x40 MLOAD DUP1 SWAP2 SUB SWAP1 LOG1 PUSH1 0x3 PUSH1 0x5 PUSH1 0x14 PUSH2 0x100 EXP DUP2 SLOAD DUP2 PUSH1 0xFF MUL NOT AND SWAP1 DUP4 PUSH1 0x4 DUP2 GT ISZERO PUSH2 0x1298 JUMPI PUSH2 0x1297 PUSH2 0x2121 JUMP JUMPDEST JUMPDEST MUL OR SWAP1 SSTORE POP POP JUMP JUMPDEST PUSH2 0x12A8 PUSH2 0x14CD JUMP JUMPDEST PUSH1 0x0 PUSH20 0xFFFFFFFFFFFFFFFFFFFFFFFFFFFFFFFFFFFFFFFF AND DUP2 PUSH20 0xFFFFFFFFFFFFFFFFFFFFFFFFFFFFFFFFFFFFFFFF AND SUB PUSH2 0x131A JUMPI PUSH1 0x0 PUSH1 0x40 MLOAD PUSH32 0x1E4FBDF700000000000000000000000000000000000000000000000000000000 DUP2 MSTORE PUSH1 0x4 ADD PUSH2 0x1311 SWAP2 SWAP1 PUSH2 0x2062 JUMP JUMPDEST PUSH1 0x40 MLOAD DUP1 SWAP2 SUB SWAP1 REVERT JUMPDEST PUSH2 0x1323 DUP2 PUSH2 0x15EA JUMP JUMPDEST POP JUMP JUMPDEST PUSH1 0x0 DUP2 JUMP JUMPDEST PUSH1 0x0 CALLER SWAP1 POP SWAP1 JUMP JUMPDEST PUSH2 0x1340 DUP4 DUP4 DUP4 PUSH1 0x1 PUSH2 0x16B0 JUMP JUMPDEST POP POP POP JUMP JUMPDEST PUSH1 0x0 PUSH2 0x1351 DUP5 DUP5 PUSH2 0x110A JUMP JUMPDEST SWAP1 POP PUSH32 0xFFFFFFFFFFFFFFFFFFFFFFFFFFFFFFFFFFFFFFFFFFFFFFFFFFFFFFFFFFFFFFFF DUP2 EQ PUSH2 0x13D3 JUMPI DUP2 DUP2 LT ISZERO PUSH2 0x13C3 JUMPI DUP3 DUP2 DUP4 PUSH1 0x40 MLOAD PUSH32 0xFB8F41B200000000000000000000000000000000000000000000000000000000 DUP2 MSTORE PUSH1 0x4 ADD PUSH2 0x13BA SWAP4 SWAP3 SWAP2 SWAP1 PUSH2 0x2607 JUMP JUMPDEST PUSH1 0x40 MLOAD DUP1 SWAP2 SUB SWAP1 REVERT JUMPDEST PUSH2 0x13D2 DUP5 DUP5 DUP5 DUP5 SUB PUSH1 0x0 PUSH2 0x16B0 JUMP JUMPDEST JUMPDEST POP POP POP POP JUMP JUMPDEST PUSH1 0x0 PUSH20 0xFFFFFFFFFFFFFFFFFFFFFFFFFFFFFFFFFFFFFFFF AND DUP4 PUSH20 0xFFFFFFFFFFFFFFFFFFFFFFFFFFFFFFFFFFFFFFFF AND SUB PUSH2 0x144B JUMPI PUSH1 0x0 PUSH1 0x40 MLOAD PUSH32 0x96C6FD1E00000000000000000000000000000000000000000000000000000000 DUP2 MSTORE PUSH1 0x4 ADD PUSH2 0x1442 SWAP2 SWAP1 PUSH2 0x2062 JUMP JUMPDEST PUSH1 0x40 MLOAD DUP1 SWAP2 SUB SWAP1 REVERT JUMPDEST PUSH1 0x0 PUSH20 0xFFFFFFFFFFFFFFFFFFFFFFFFFFFFFFFFFFFFFFFF AND DUP3 PUSH20 0xFFFFFFFFFFFFFFFFFFFFFFFFFFFFFFFFFFFFFFFF AND SUB PUSH2 0x14BD JUMPI PUSH1 0x0 PUSH1 0x40 MLOAD PUSH32 0xEC442F0500000000000000000000000000000000000000000000000000000000 DUP2 MSTORE PUSH1 0x4 ADD PUSH2 0x14B4 SWAP2 SWAP1 PUSH2 0x2062 JUMP JUMPDEST PUSH1 0x40 MLOAD DUP1 SWAP2 SUB SWAP1 REVERT JUMPDEST PUSH2 0x14C8 DUP4 DUP4 DUP4 PUSH2 0x1887 JUMP JUMPDEST POP POP POP JUMP JUMPDEST PUSH2 0x14D5 PUSH2 0x132B JUMP JUMPDEST PUSH20 0xFFFFFFFFFFFFFFFFFFFFFFFFFFFFFFFFFFFFFFFF AND PUSH2 0x14F3 PUSH2 0xED3 JUMP JUMPDEST PUSH20 0xFFFFFFFFFFFFFFFFFFFFFFFFFFFFFFFFFFFFFFFF AND EQ PUSH2 0x1552 JUMPI PUSH2 0x1516 PUSH2 0x132B JUMP JUMPDEST PUSH1 0x40 MLOAD PUSH32 0x118CDAA700000000000000000000000000000000000000000000000000000000 DUP2 MSTORE PUSH1 0x4 ADD PUSH2 0x1549 SWAP2 SWAP1 PUSH2 0x2062 JUMP JUMPDEST PUSH1 0x40 MLOAD DUP1 SWAP2 SUB SWAP1 REVERT JUMPDEST JUMP JUMPDEST PUSH1 0x0 PUSH20 0xFFFFFFFFFFFFFFFFFFFFFFFFFFFFFFFFFFFFFFFF AND DUP3 PUSH20 0xFFFFFFFFFFFFFFFFFFFFFFFFFFFFFFFFFFFFFFFF AND SUB PUSH2 0x15C6 JUMPI PUSH1 0x0 PUSH1 0x40 MLOAD PUSH32 0xEC442F0500000000000000000000000000000000000000000000000000000000 DUP2 MSTORE PUSH1 0x4 ADD PUSH2 0x15BD SWAP2 SWAP1 PUSH2 0x2062 JUMP JUMPDEST PUSH1 0x40 MLOAD DUP1 SWAP2 SUB SWAP1 REVERT JUMPDEST PUSH2 0x15D2 PUSH1 0x0 DUP4 DUP4 PUSH2 0x1887 JUMP JUMPDEST POP POP JUMP JUMPDEST PUSH2 0x15DE PUSH2 0x14CD JUMP JUMPDEST PUSH2 0x15E8 PUSH1 0x0 PUSH2 0x15EA JUMP JUMPDEST JUMP JUMPDEST PUSH1 0x0 PUSH1 0x5 PUSH1 0x0 SWAP1 SLOAD SWAP1 PUSH2 0x100 EXP SWAP1 DIV PUSH20 0xFFFFFFFFFFFFFFFFFFFFFFFFFFFFFFFFFFFFFFFF AND SWAP1 POP DUP2 PUSH1 0x5 PUSH1 0x0 PUSH2 0x100 EXP DUP2 SLOAD DUP2 PUSH20 0xFFFFFFFFFFFFFFFFFFFFFFFFFFFFFFFFFFFFFFFF MUL NOT AND SWAP1 DUP4 PUSH20 0xFFFFFFFFFFFFFFFFFFFFFFFFFFFFFFFFFFFFFFFF AND MUL OR SWAP1 SSTORE POP DUP2 PUSH20 0xFFFFFFFFFFFFFFFFFFFFFFFFFFFFFFFFFFFFFFFF AND DUP2 PUSH20 0xFFFFFFFFFFFFFFFFFFFFFFFFFFFFFFFFFFFFFFFF AND PUSH32 0x8BE0079C531659141344CD1FD0A4F28419497F9722A3DAAFE3B4186F6B6457E0 PUSH1 0x40 MLOAD PUSH1 0x40 MLOAD DUP1 SWAP2 SUB SWAP1 LOG3 POP POP JUMP JUMPDEST PUSH1 0x0 PUSH20 0xFFFFFFFFFFFFFFFFFFFFFFFFFFFFFFFFFFFFFFFF AND DUP5 PUSH20 0xFFFFFFFFFFFFFFFFFFFFFFFFFFFFFFFFFFFFFFFF AND SUB PUSH2 0x1722 JUMPI PUSH1 0x0 PUSH1 0x40 MLOAD PUSH32 0xE602DF0500000000000000000000000000000000000000000000000000000000 DUP2 MSTORE PUSH1 0x4 ADD PUSH2 0x1719 SWAP2 SWAP1 PUSH2 0x2062 JUMP JUMPDEST PUSH1 0x40 MLOAD DUP1 SWAP2 SUB SWAP1 REVERT JUMPDEST PUSH1 0x0 PUSH20 0xFFFFFFFFFFFFFFFFFFFFFFFFFFFFFFFFFFFFFFFF AND DUP4 PUSH20 0xFFFFFFFFFFFFFFFFFFFFFFFFFFFFFFFFFFFFFFFF AND SUB PUSH2 0x1794 JUMPI PUSH1 0x0 PUSH1 0x40 MLOAD PUSH32 0x94280D6200000000000000000000000000000000000000000000000000000000 DUP2 MSTORE PUSH1 0x4 ADD PUSH2 0x178B SWAP2 SWAP1 PUSH2 0x2062 JUMP JUMPDEST PUSH1 0x40 MLOAD DUP1 SWAP2 SUB SWAP1 REVERT JUMPDEST DUP2 PUSH1 0x1 PUSH1 0x0 DUP7 PUSH20 0xFFFFFFFFFFFFFFFFFFFFFFFFFFFFFFFFFFFFFFFF AND PUSH20 0xFFFFFFFFFFFFFFFFFFFFFFFFFFFFFFFFFFFFFFFF AND DUP2 MSTORE PUSH1 0x20 ADD SWAP1 DUP2 MSTORE PUSH1 0x20 ADD PUSH1 0x0 KECCAK256 PUSH1 0x0 DUP6 PUSH20 0xFFFFFFFFFFFFFFFFFFFFFFFFFFFFFFFFFFFFFFFF AND PUSH20 0xFFFFFFFFFFFFFFFFFFFFFFFFFFFFFFFFFFFFFFFF AND DUP2 MSTORE PUSH1 0x20 ADD SWAP1 DUP2 MSTORE PUSH1 0x20 ADD PUSH1 0x0 KECCAK256 DUP2 SWAP1 SSTORE POP DUP1 ISZERO PUSH2 0x1881 JUMPI DUP3 PUSH20 0xFFFFFFFFFFFFFFFFFFFFFFFFFFFFFFFFFFFFFFFF AND DUP5 PUSH20 0xFFFFFFFFFFFFFFFFFFFFFFFFFFFFFFFFFFFFFFFF AND PUSH32 0x8C5BE1E5EBEC7D5BD14F71427D1E84F3DD0314C0F7B2291E5B200AC8C7C3B925 DUP5 PUSH1 0x40 MLOAD PUSH2 0x1878 SWAP2 SWAP1 PUSH2 0x1FE5 JUMP JUMPDEST PUSH1 0x40 MLOAD DUP1 SWAP2 SUB SWAP1 LOG3 JUMPDEST POP POP POP POP JUMP JUMPDEST PUSH1 0x2 PUSH1 0x4 DUP2 GT ISZERO PUSH2 0x189B JUMPI PUSH2 0x189A PUSH2 0x2121 JUMP JUMPDEST JUMPDEST PUSH1 0x5 PUSH1 0x14 SWAP1 SLOAD SWAP1 PUSH2 0x100 EXP SWAP1 DIV PUSH1 0xFF AND PUSH1 0x4 DUP2 GT ISZERO PUSH2 0x18BD JUMPI PUSH2 0x18BC PUSH2 0x2121 JUMP JUMPDEST JUMPDEST EQ ISZERO DUP1 PUSH2 0x18FD JUMPI POP PUSH1 0x3 PUSH1 0x4 DUP2 GT ISZERO PUSH2 0x18D9 JUMPI PUSH2 0x18D8 PUSH2 0x2121 JUMP JUMPDEST JUMPDEST PUSH1 0x5 PUSH1 0x14 SWAP1 SLOAD SWAP1 PUSH2 0x100 EXP SWAP1 DIV PUSH1 0xFF AND PUSH1 0x4 DUP2 GT ISZERO PUSH2 0x18FB JUMPI PUSH2 0x18FA PUSH2 0x2121 JUMP JUMPDEST JUMPDEST EQ JUMPDEST ISZERO PUSH2 0x1912 JUMPI PUSH2 0x190D DUP4 DUP4 DUP4 PUSH2 0x1AD0 JUMP JUMPDEST PUSH2 0x1ACB JUMP JUMPDEST PUSH1 0x0 PUSH1 0xB PUSH1 0x0 SWAP1 SLOAD SWAP1 PUSH2 0x100 EXP SWAP1 DIV PUSH20 0xFFFFFFFFFFFFFFFFFFFFFFFFFFFFFFFFFFFFFFFF AND PUSH20 0xFFFFFFFFFFFFFFFFFFFFFFFFFFFFFFFFFFFFFFFF AND DUP4 PUSH20 0xFFFFFFFFFFFFFFFFFFFFFFFFFFFFFFFFFFFFFFFF AND SUB PUSH2 0x19C8 JUMPI PUSH2 0x3E8 PUSH1 0xA SLOAD DUP4 PUSH2 0x197A SWAP2 SWAP1 PUSH2 0x233F JUMP JUMPDEST PUSH2 0x1984 SWAP2 SWAP1 PUSH2 0x23B0 JUMP JUMPDEST SWAP1 POP PUSH32 0x4021301DA943CE70706F02C0638C48F65E27CD0642FFD0550536995AF05E70CC DUP5 DUP4 DUP4 TIMESTAMP PUSH1 0x40 MLOAD PUSH2 0x19BB SWAP5 SWAP4 SWAP3 SWAP2 SWAP1 PUSH2 0x263E JUMP JUMPDEST PUSH1 0x40 MLOAD DUP1 SWAP2 SUB SWAP1 LOG1 PUSH2 0x1A79 JUMP JUMPDEST PUSH1 0xB PUSH1 0x0 SWAP1 SLOAD SWAP1 PUSH2 0x100 EXP SWAP1 DIV PUSH20 0xFFFFFFFFFFFFFFFFFFFFFFFFFFFFFFFFFFFFFFFF AND PUSH20 0xFFFFFFFFFFFFFFFFFFFFFFFFFFFFFFFFFFFFFFFF AND DUP5 PUSH20 0xFFFFFFFFFFFFFFFFFFFFFFFFFFFFFFFFFFFFFFFF AND SUB PUSH2 0x1A78 JUMPI PUSH2 0x3E8 PUSH1 0x9 SLOAD DUP4 PUSH2 0x1A2E SWAP2 SWAP1 PUSH2 0x233F JUMP JUMPDEST PUSH2 0x1A38 SWAP2 SWAP1 PUSH2 0x23B0 JUMP JUMPDEST SWAP1 POP PUSH32 0x4CB653EF0AFB6A8EC8B4B9286771CADC8E586225744651CD05B4B475AB881272 DUP4 DUP4 DUP4 TIMESTAMP PUSH1 0x40 MLOAD PUSH2 0x1A6F SWAP5 SWAP4 SWAP3 SWAP2 SWAP1 PUSH2 0x263E JUMP JUMPDEST PUSH1 0x40 MLOAD DUP1 SWAP2 SUB SWAP1 LOG1 JUMPDEST JUMPDEST PUSH1 0x0 DUP2 GT ISZERO PUSH2 0x1ABE JUMPI PUSH2 0x1AAF DUP5 PUSH1 0x6 PUSH1 0x0 SWAP1 SLOAD SWAP1 PUSH2 0x100 EXP SWAP1 DIV PUSH20 0xFFFFFFFFFFFFFFFFFFFFFFFFFFFFFFFFFFFFFFFF AND DUP4 PUSH2 0x1AD0 JUMP JUMPDEST DUP1 DUP3 PUSH2 0x1ABB SWAP2 SWAP1 PUSH2 0x259C JUMP JUMPDEST SWAP2 POP JUMPDEST PUSH2 0x1AC9 DUP5 DUP5 DUP5 PUSH2 0x1AD0 JUMP JUMPDEST POP JUMPDEST POP POP POP JUMP JUMPDEST PUSH2 0x1ADB DUP4 DUP4 DUP4 PUSH2 0x1B76 JUMP JUMPDEST PUSH1 0x0 PUSH20 0xFFFFFFFFFFFFFFFFFFFFFFFFFFFFFFFFFFFFFFFF AND DUP4 PUSH20 0xFFFFFFFFFFFFFFFFFFFFFFFFFFFFFFFFFFFFFFFF AND SUB PUSH2 0x1B71 JUMPI PUSH1 0x0 PUSH2 0x1B19 PUSH2 0x7F6 JUMP JUMPDEST SWAP1 POP PUSH1 0x0 PUSH2 0x1B25 PUSH2 0x74F JUMP JUMPDEST SWAP1 POP DUP2 DUP2 GT ISZERO PUSH2 0x1B6E JUMPI DUP1 DUP3 PUSH1 0x40 MLOAD PUSH32 0x9E79F85400000000000000000000000000000000000000000000000000000000 DUP2 MSTORE PUSH1 0x4 ADD PUSH2 0x1B65 SWAP3 SWAP2 SWAP1 PUSH2 0x2683 JUMP JUMPDEST PUSH1 0x40 MLOAD DUP1 SWAP2 SUB SWAP1 REVERT JUMPDEST POP POP JUMPDEST POP POP POP JUMP JUMPDEST PUSH1 0x0 PUSH20 0xFFFFFFFFFFFFFFFFFFFFFFFFFFFFFFFFFFFFFFFF AND DUP4 PUSH20 0xFFFFFFFFFFFFFFFFFFFFFFFFFFFFFFFFFFFFFFFF AND SUB PUSH2 0x1BC8 JUMPI DUP1 PUSH1 0x2 PUSH1 0x0 DUP3 DUP3 SLOAD PUSH2 0x1BBC SWAP2 SWAP1 PUSH2 0x26AC JUMP JUMPDEST SWAP3 POP POP DUP2 SWAP1 SSTORE POP PUSH2 0x1C9B JUMP JUMPDEST PUSH1 0x0 DUP1 PUSH1 0x0 DUP6 PUSH20 0xFFFFFFFFFFFFFFFFFFFFFFFFFFFFFFFFFFFFFFFF AND PUSH20 0xFFFFFFFFFFFFFFFFFFFFFFFFFFFFFFFFFFFFFFFF AND DUP2 MSTORE PUSH1 0x20 ADD SWAP1 DUP2 MSTORE PUSH1 0x20 ADD PUSH1 0x0 KECCAK256 SLOAD SWAP1 POP DUP2 DUP2 LT ISZERO PUSH2 0x1C54 JUMPI DUP4 DUP2 DUP4 PUSH1 0x40 MLOAD PUSH32 0xE450D38C00000000000000000000000000000000000000000000000000000000 DUP2 MSTORE PUSH1 0x4 ADD PUSH2 0x1C4B SWAP4 SWAP3 SWAP2 SWAP1 PUSH2 0x2607 JUMP JUMPDEST PUSH1 0x40 MLOAD DUP1 SWAP2 SUB SWAP1 REVERT JUMPDEST DUP2 DUP2 SUB PUSH1 0x0 DUP1 DUP7 PUSH20 0xFFFFFFFFFFFFFFFFFFFFFFFFFFFFFFFFFFFFFFFF AND PUSH20 0xFFFFFFFFFFFFFFFFFFFFFFFFFFFFFFFFFFFFFFFF AND DUP2 MSTORE PUSH1 0x20 ADD SWAP1 DUP2 MSTORE PUSH1 0x20 ADD PUSH1 0x0 KECCAK256 DUP2 SWAP1 SSTORE POP POP JUMPDEST PUSH1 0x0 PUSH20 0xFFFFFFFFFFFFFFFFFFFFFFFFFFFFFFFFFFFFFFFF AND DUP3 PUSH20 0xFFFFFFFFFFFFFFFFFFFFFFFFFFFFFFFFFFFFFFFF AND SUB PUSH2 0x1CE4 JUMPI DUP1 PUSH1 0x2 PUSH1 0x0 DUP3 DUP3 SLOAD SUB SWAP3 POP POP DUP2 SWAP1 SSTORE POP PUSH2 0x1D31 JUMP JUMPDEST DUP1 PUSH1 0x0 DUP1 DUP5 PUSH20 0xFFFFFFFFFFFFFFFFFFFFFFFFFFFFFFFFFFFFFFFF AND PUSH20 0xFFFFFFFFFFFFFFFFFFFFFFFFFFFFFFFFFFFFFFFF AND DUP2 MSTORE PUSH1 0x20 ADD SWAP1 DUP2 MSTORE PUSH1 0x20 ADD PUSH1 0x0 KECCAK256 PUSH1 0x0 DUP3 DUP3 SLOAD ADD SWAP3 POP POP DUP2 SWAP1 SSTORE POP JUMPDEST DUP2 PUSH20 0xFFFFFFFFFFFFFFFFFFFFFFFFFFFFFFFFFFFFFFFF AND DUP4 PUSH20 0xFFFFFFFFFFFFFFFFFFFFFFFFFFFFFFFFFFFFFFFF AND PUSH32 0xDDF252AD1BE2C89B69C2B068FC378DAA952BA7F163C4A11628F55A4DF523B3EF DUP4 PUSH1 0x40 MLOAD PUSH2 0x1D8E SWAP2 SWAP1 PUSH2 0x1FE5 JUMP JUMPDEST PUSH1 0x40 MLOAD DUP1 SWAP2 SUB SWAP1 LOG3 POP POP POP JUMP JUMPDEST PUSH1 0x0 DUP2 MLOAD SWAP1 POP SWAP2 SWAP1 POP JUMP JUMPDEST PUSH1 0x0 DUP3 DUP3 MSTORE PUSH1 0x20 DUP3 ADD SWAP1 POP SWAP3 SWAP2 POP POP JUMP JUMPDEST PUSH1 0x0 JUMPDEST DUP4 DUP2 LT ISZERO PUSH2 0x1DD5 JUMPI DUP1 DUP3 ADD MLOAD DUP2 DUP5 ADD MSTORE PUSH1 0x20 DUP2 ADD SWAP1 POP PUSH2 0x1DBA JUMP JUMPDEST PUSH1 0x0 DUP5 DUP5 ADD MSTORE POP POP POP POP JUMP JUMPDEST PUSH1 0x0 PUSH1 0x1F NOT PUSH1 0x1F DUP4 ADD AND SWAP1 POP SWAP2 SWAP1 POP JUMP JUMPDEST PUSH1 0x0 PUSH2 0x1DFD DUP3 PUSH2 0x1D9B JUMP JUMPDEST PUSH2 0x1E07 DUP2 DUP6 PUSH2 0x1DA6 JUMP JUMPDEST SWAP4 POP PUSH2 0x1E17 DUP2 DUP6 PUSH1 0x20 DUP7 ADD PUSH2 0x1DB7 JUMP JUMPDEST PUSH2 0x1E20 DUP2 PUSH2 0x1DE1 JUMP JUMPDEST DUP5 ADD SWAP2 POP POP SWAP3 SWAP2 POP POP JUMP JUMPDEST PUSH1 0x0 PUSH1 0x20 DUP3 ADD SWAP1 POP DUP2 DUP2 SUB PUSH1 0x0 DUP4 ADD MSTORE PUSH2 0x1E45 DUP2 DUP5 PUSH2 0x1DF2 JUMP JUMPDEST SWAP1 POP SWAP3 SWAP2 POP POP JUMP JUMPDEST PUSH1 0x0 DUP1 REVERT JUMPDEST PUSH1 0x0 PUSH20 0xFFFFFFFFFFFFFFFFFFFFFFFFFFFFFFFFFFFFFFFF DUP3 AND SWAP1 POP SWAP2 SWAP1 POP JUMP JUMPDEST PUSH1 0x0 PUSH2 0x1E7D DUP3 PUSH2 0x1E52 JUMP JUMPDEST SWAP1 POP SWAP2 SWAP1 POP JUMP JUMPDEST PUSH2 0x1E8D DUP2 PUSH2 0x1E72 JUMP JUMPDEST DUP2 EQ PUSH2 0x1E98 JUMPI PUSH1 0x0 DUP1 REVERT JUMPDEST POP JUMP JUMPDEST PUSH1 0x0 DUP2 CALLDATALOAD SWAP1 POP PUSH2 0x1EAA DUP2 PUSH2 0x1E84 JUMP JUMPDEST SWAP3 SWAP2 POP POP JUMP JUMPDEST PUSH1 0x0 DUP2 SWAP1 POP SWAP2 SWAP1 POP JUMP JUMPDEST PUSH2 0x1EC3 DUP2 PUSH2 0x1EB0 JUMP JUMPDEST DUP2 EQ PUSH2 0x1ECE JUMPI PUSH1 0x0 DUP1 REVERT JUMPDEST POP JUMP JUMPDEST PUSH1 0x0 DUP2 CALLDATALOAD SWAP1 POP PUSH2 0x1EE0 DUP2 PUSH2 0x1EBA JUMP JUMPDEST SWAP3 SWAP2 POP POP JUMP JUMPDEST PUSH1 0x0 DUP1 PUSH1 0x40 DUP4 DUP6 SUB SLT ISZERO PUSH2 0x1EFD JUMPI PUSH2 0x1EFC PUSH2 0x1E4D JUMP JUMPDEST JUMPDEST PUSH1 0x0 PUSH2 0x1F0B DUP6 DUP3 DUP7 ADD PUSH2 0x1E9B JUMP JUMPDEST SWAP3 POP POP PUSH1 0x20 PUSH2 0x1F1C DUP6 DUP3 DUP7 ADD PUSH2 0x1ED1 JUMP JUMPDEST SWAP2 POP POP SWAP3 POP SWAP3 SWAP1 POP JUMP JUMPDEST PUSH1 0x0 DUP2 ISZERO ISZERO SWAP1 POP SWAP2 SWAP1 POP JUMP JUMPDEST PUSH2 0x1F3B DUP2 PUSH2 0x1F26 JUMP JUMPDEST DUP3 MSTORE POP POP JUMP JUMPDEST PUSH1 0x0 PUSH1 0x20 DUP3 ADD SWAP1 POP PUSH2 0x1F56 PUSH1 0x0 DUP4 ADD DUP5 PUSH2 0x1F32 JUMP JUMPDEST SWAP3 SWAP2 POP POP JUMP JUMPDEST PUSH1 0x0 DUP2 SWAP1 POP SWAP2 SWAP1 POP JUMP JUMPDEST PUSH1 0x0 PUSH2 0x1F81 PUSH2 0x1F7C PUSH2 0x1F77 DUP5 PUSH2 0x1E52 JUMP JUMPDEST PUSH2 0x1F5C JUMP JUMPDEST PUSH2 0x1E52 JUMP JUMPDEST SWAP1 POP SWAP2 SWAP1 POP JUMP JUMPDEST PUSH1 0x0 PUSH2 0x1F93 DUP3 PUSH2 0x1F66 JUMP JUMPDEST SWAP1 POP SWAP2 SWAP1 POP JUMP JUMPDEST PUSH1 0x0 PUSH2 0x1FA5 DUP3 PUSH2 0x1F88 JUMP JUMPDEST SWAP1 POP SWAP2 SWAP1 POP JUMP JUMPDEST PUSH2 0x1FB5 DUP2 PUSH2 0x1F9A JUMP JUMPDEST DUP3 MSTORE POP POP JUMP JUMPDEST PUSH1 0x0 PUSH1 0x20 DUP3 ADD SWAP1 POP PUSH2 0x1FD0 PUSH1 0x0 DUP4 ADD DUP5 PUSH2 0x1FAC JUMP JUMPDEST SWAP3 SWAP2 POP POP JUMP JUMPDEST PUSH2 0x1FDF DUP2 PUSH2 0x1EB0 JUMP JUMPDEST DUP3 MSTORE POP POP JUMP JUMPDEST PUSH1 0x0 PUSH1 0x20 DUP3 ADD SWAP1 POP PUSH2 0x1FFA PUSH1 0x0 DUP4 ADD DUP5 PUSH2 0x1FD6 JUMP JUMPDEST SWAP3 SWAP2 POP POP JUMP JUMPDEST PUSH1 0x0 DUP1 PUSH1 0x0 PUSH1 0x60 DUP5 DUP7 SUB SLT ISZERO PUSH2 0x2019 JUMPI PUSH2 0x2018 PUSH2 0x1E4D JUMP JUMPDEST JUMPDEST PUSH1 0x0 PUSH2 0x2027 DUP7 DUP3 DUP8 ADD PUSH2 0x1E9B JUMP JUMPDEST SWAP4 POP POP PUSH1 0x20 PUSH2 0x2038 DUP7 DUP3 DUP8 ADD PUSH2 0x1E9B JUMP JUMPDEST SWAP3 POP POP PUSH1 0x40 PUSH2 0x2049 DUP7 DUP3 DUP8 ADD PUSH2 0x1ED1 JUMP JUMPDEST SWAP2 POP POP SWAP3 POP SWAP3 POP SWAP3 JUMP JUMPDEST PUSH2 0x205C DUP2 PUSH2 0x1E72 JUMP JUMPDEST DUP3 MSTORE POP POP JUMP JUMPDEST PUSH1 0x0 PUSH1 0x20 DUP3 ADD SWAP1 POP PUSH2 0x2077 PUSH1 0x0 DUP4 ADD DUP5 PUSH2 0x2053 JUMP JUMPDEST SWAP3 SWAP2 POP POP JUMP JUMPDEST PUSH1 0x0 PUSH1 0xFF DUP3 AND SWAP1 POP SWAP2 SWAP1 POP JUMP JUMPDEST PUSH2 0x2093 DUP2 PUSH2 0x207D JUMP JUMPDEST DUP3 MSTORE POP POP JUMP JUMPDEST PUSH1 0x0 PUSH1 0x20 DUP3 ADD SWAP1 POP PUSH2 0x20AE PUSH1 0x0 DUP4 ADD DUP5 PUSH2 0x208A JUMP JUMPDEST SWAP3 SWAP2 POP POP JUMP JUMPDEST PUSH1 0x0 PUSH1 0x20 DUP3 DUP5 SUB SLT ISZERO PUSH2 0x20CA JUMPI PUSH2 0x20C9 PUSH2 0x1E4D JUMP JUMPDEST JUMPDEST PUSH1 0x0 PUSH2 0x20D8 DUP5 DUP3 DUP6 ADD PUSH2 0x1E9B JUMP JUMPDEST SWAP2 POP POP SWAP3 SWAP2 POP POP JUMP JUMPDEST PUSH1 0x0 DUP1 PUSH1 0x40 DUP4 DUP6 SUB SLT ISZERO PUSH2 0x20F8 JUMPI PUSH2 0x20F7 PUSH2 0x1E4D JUMP JUMPDEST JUMPDEST PUSH1 0x0 PUSH2 0x2106 DUP6 DUP3 DUP7 ADD PUSH2 0x1E9B JUMP JUMPDEST SWAP3 POP POP PUSH1 0x20 PUSH2 0x2117 DUP6 DUP3 DUP7 ADD PUSH2 0x1E9B JUMP JUMPDEST SWAP2 POP POP SWAP3 POP SWAP3 SWAP1 POP JUMP JUMPDEST PUSH32 0x4E487B7100000000000000000000000000000000000000000000000000000000 PUSH1 0x0 MSTORE PUSH1 0x21 PUSH1 0x4 MSTORE PUSH1 0x24 PUSH1 0x0 REVERT JUMPDEST PUSH1 0x5 DUP2 LT PUSH2 0x2161 JUMPI PUSH2 0x2160 PUSH2 0x2121 JUMP JUMPDEST JUMPDEST POP JUMP JUMPDEST PUSH1 0x0 DUP2 SWAP1 POP PUSH2 0x2172 DUP3 PUSH2 0x2150 JUMP JUMPDEST SWAP2 SWAP1 POP JUMP JUMPDEST PUSH1 0x0 PUSH2 0x2182 DUP3 PUSH2 0x2164 JUMP JUMPDEST SWAP1 POP SWAP2 SWAP1 POP JUMP JUMPDEST PUSH2 0x2192 DUP2 PUSH2 0x2177 JUMP JUMPDEST DUP3 MSTORE POP POP JUMP JUMPDEST PUSH1 0x0 PUSH1 0x20 DUP3 ADD SWAP1 POP PUSH2 0x21AD PUSH1 0x0 DUP4 ADD DUP5 PUSH2 0x2189 JUMP JUMPDEST SWAP3 SWAP2 POP POP JUMP JUMPDEST PUSH32 0x4E487B7100000000000000000000000000000000000000000000000000000000 PUSH1 0x0 MSTORE PUSH1 0x22 PUSH1 0x4 MSTORE PUSH1 0x24 PUSH1 0x0 REVERT JUMPDEST PUSH1 0x0 PUSH1 0x2 DUP3 DIV SWAP1 POP PUSH1 0x1 DUP3 AND DUP1 PUSH2 0x21FA JUMPI PUSH1 0x7F DUP3 AND SWAP2 POP JUMPDEST PUSH1 0x20 DUP3 LT DUP2 SUB PUSH2 0x220D JUMPI PUSH2 0x220C PUSH2 0x21B3 JUMP JUMPDEST JUMPDEST POP SWAP2 SWAP1 POP JUMP JUMPDEST PUSH32 0x46756E6374696F6E2063616E6E6F742062652063616C6C656420696E20746869 PUSH1 0x0 DUP3 ADD MSTORE PUSH32 0x7320737461746500000000000000000000000000000000000000000000000000 PUSH1 0x20 DUP3 ADD MSTORE POP JUMP JUMPDEST PUSH1 0x0 PUSH2 0x226F PUSH1 0x27 DUP4 PUSH2 0x1DA6 JUMP JUMPDEST SWAP2 POP PUSH2 0x227A DUP3 PUSH2 0x2213 JUMP JUMPDEST PUSH1 0x40 DUP3 ADD SWAP1 POP SWAP2 SWAP1 POP JUMP JUMPDEST PUSH1 0x0 PUSH1 0x20 DUP3 ADD SWAP1 POP DUP2 DUP2 SUB PUSH1 0x0 DUP4 ADD MSTORE PUSH2 0x229E DUP2 PUSH2 0x2262 JUMP JUMPDEST SWAP1 POP SWAP2 SWAP1 POP JUMP JUMPDEST PUSH1 0x0 DUP2 MLOAD SWAP1 POP PUSH2 0x22B4 DUP2 PUSH2 0x1E84 JUMP JUMPDEST SWAP3 SWAP2 POP POP JUMP JUMPDEST PUSH1 0x0 PUSH1 0x20 DUP3 DUP5 SUB SLT ISZERO PUSH2 0x22D0 JUMPI PUSH2 0x22CF PUSH2 0x1E4D JUMP JUMPDEST JUMPDEST PUSH1 0x0 PUSH2 0x22DE DUP5 DUP3 DUP6 ADD PUSH2 0x22A5 JUMP JUMPDEST SWAP2 POP POP SWAP3 SWAP2 POP POP JUMP JUMPDEST PUSH1 0x0 PUSH1 0x40 DUP3 ADD SWAP1 POP PUSH2 0x22FC PUSH1 0x0 DUP4 ADD DUP6 PUSH2 0x2053 JUMP JUMPDEST PUSH2 0x2309 PUSH1 0x20 DUP4 ADD DUP5 PUSH2 0x2053 JUMP JUMPDEST SWAP4 SWAP3 POP POP POP JUMP JUMPDEST PUSH32 0x4E487B7100000000000000000000000000000000000000000000000000000000 PUSH1 0x0 MSTORE PUSH1 0x11 PUSH1 0x4 MSTORE PUSH1 0x24 PUSH1 0x0 REVERT JUMPDEST PUSH1 0x0 PUSH2 0x234A DUP3 PUSH2 0x1EB0 JUMP JUMPDEST SWAP2 POP PUSH2 0x2355 DUP4 PUSH2 0x1EB0 JUMP JUMPDEST SWAP3 POP DUP3 DUP3 MUL PUSH2 0x2363 DUP2 PUSH2 0x1EB0 JUMP JUMPDEST SWAP2 POP DUP3 DUP3 DIV DUP5 EQ DUP4 ISZERO OR PUSH2 0x237A JUMPI PUSH2 0x2379 PUSH2 0x2310 JUMP JUMPDEST JUMPDEST POP SWAP3 SWAP2 POP POP JUMP JUMPDEST PUSH32 0x4E487B7100000000000000000000000000000000000000000000000000000000 PUSH1 0x0 MSTORE PUSH1 0x12 PUSH1 0x4 MSTORE PUSH1 0x24 PUSH1 0x0 REVERT JUMPDEST PUSH1 0x0 PUSH2 0x23BB DUP3 PUSH2 0x1EB0 JUMP JUMPDEST SWAP2 POP PUSH2 0x23C6 DUP4 PUSH2 0x1EB0 JUMP JUMPDEST SWAP3 POP DUP3 PUSH2 0x23D6 JUMPI PUSH2 0x23D5 PUSH2 0x2381 JUMP JUMPDEST JUMPDEST DUP3 DUP3 DIV SWAP1 POP SWAP3 SWAP2 POP POP JUMP JUMPDEST PUSH1 0x0 DUP2 SWAP1 POP SWAP2 SWAP1 POP JUMP JUMPDEST PUSH1 0x0 PUSH2 0x2406 PUSH2 0x2401 PUSH2 0x23FC DUP5 PUSH2 0x23E1 JUMP JUMPDEST PUSH2 0x1F5C JUMP JUMPDEST PUSH2 0x1EB0 JUMP JUMPDEST SWAP1 POP SWAP2 SWAP1 POP JUMP JUMPDEST PUSH2 0x2416 DUP2 PUSH2 0x23EB JUMP JUMPDEST DUP3 MSTORE POP POP JUMP JUMPDEST PUSH1 0x0 PUSH1 0xC0 DUP3 ADD SWAP1 POP PUSH2 0x2431 PUSH1 0x0 DUP4 ADD DUP10 PUSH2 0x2053 JUMP JUMPDEST PUSH2 0x243E PUSH1 0x20 DUP4 ADD DUP9 PUSH2 0x1FD6 JUMP JUMPDEST PUSH2 0x244B PUSH1 0x40 DUP4 ADD DUP8 PUSH2 0x240D JUMP JUMPDEST PUSH2 0x2458 PUSH1 0x60 DUP4 ADD DUP7 PUSH2 0x240D JUMP JUMPDEST PUSH2 0x2465 PUSH1 0x80 DUP4 ADD DUP6 PUSH2 0x2053 JUMP JUMPDEST PUSH2 0x2472 PUSH1 0xA0 DUP4 ADD DUP5 PUSH2 0x1FD6 JUMP JUMPDEST SWAP8 SWAP7 POP POP POP POP POP POP POP JUMP JUMPDEST PUSH1 0x0 DUP2 MLOAD SWAP1 POP PUSH2 0x248C DUP2 PUSH2 0x1EBA JUMP JUMPDEST SWAP3 SWAP2 POP POP JUMP JUMPDEST PUSH1 0x0 DUP1 PUSH1 0x0 PUSH1 0x60 DUP5 DUP7 SUB SLT ISZERO PUSH2 0x24AB JUMPI PUSH2 0x24AA PUSH2 0x1E4D JUMP JUMPDEST JUMPDEST PUSH1 0x0 PUSH2 0x24B9 DUP7 DUP3 DUP8 ADD PUSH2 0x247D JUMP JUMPDEST SWAP4 POP POP PUSH1 0x20 PUSH2 0x24CA DUP7 DUP3 DUP8 ADD PUSH2 0x247D JUMP JUMPDEST SWAP3 POP POP PUSH1 0x40 PUSH2 0x24DB DUP7 DUP3 DUP8 ADD PUSH2 0x247D JUMP JUMPDEST SWAP2 POP POP SWAP3 POP SWAP3 POP SWAP3 JUMP JUMPDEST PUSH1 0x0 PUSH1 0x20 DUP3 DUP5 SUB SLT ISZERO PUSH2 0x24FB JUMPI PUSH2 0x24FA PUSH2 0x1E4D JUMP JUMPDEST JUMPDEST PUSH1 0x0 PUSH2 0x2509 DUP5 DUP3 DUP6 ADD PUSH2 0x247D JUMP JUMPDEST SWAP2 POP POP SWAP3 SWAP2 POP POP JUMP JUMPDEST PUSH1 0x0 PUSH1 0xA0 DUP3 ADD SWAP1 POP PUSH2 0x2527 PUSH1 0x0 DUP4 ADD DUP9 PUSH2 0x2053 JUMP JUMPDEST PUSH2 0x2534 PUSH1 0x20 DUP4 ADD DUP8 PUSH2 0x1FD6 JUMP JUMPDEST PUSH2 0x2541 PUSH1 0x40 DUP4 ADD DUP7 PUSH2 0x1FD6 JUMP JUMPDEST PUSH2 0x254E PUSH1 0x60 DUP4 ADD DUP6 PUSH2 0x1FD6 JUMP JUMPDEST PUSH2 0x255B PUSH1 0x80 DUP4 ADD DUP5 PUSH2 0x1FD6 JUMP JUMPDEST SWAP7 SWAP6 POP POP POP POP POP POP JUMP JUMPDEST PUSH1 0x0 PUSH1 0x60 DUP3 ADD SWAP1 POP PUSH2 0x257A PUSH1 0x0 DUP4 ADD DUP7 PUSH2 0x2053 JUMP JUMPDEST PUSH2 0x2587 PUSH1 0x20 DUP4 ADD DUP6 PUSH2 0x2053 JUMP JUMPDEST PUSH2 0x2594 PUSH1 0x40 DUP4 ADD DUP5 PUSH2 0x1FD6 JUMP JUMPDEST SWAP5 SWAP4 POP POP POP POP JUMP JUMPDEST PUSH1 0x0 PUSH2 0x25A7 DUP3 PUSH2 0x1EB0 JUMP JUMPDEST SWAP2 POP PUSH2 0x25B2 DUP4 PUSH2 0x1EB0 JUMP JUMPDEST SWAP3 POP DUP3 DUP3 SUB SWAP1 POP DUP2 DUP2 GT ISZERO PUSH2 0x25CA JUMPI PUSH2 0x25C9 PUSH2 0x2310 JUMP JUMPDEST JUMPDEST SWAP3 SWAP2 POP POP JUMP JUMPDEST PUSH1 0x0 PUSH1 0x60 DUP3 ADD SWAP1 POP PUSH2 0x25E5 PUSH1 0x0 DUP4 ADD DUP7 PUSH2 0x1FD6 JUMP JUMPDEST PUSH2 0x25F2 PUSH1 0x20 DUP4 ADD DUP6 PUSH2 0x1FD6 JUMP JUMPDEST PUSH2 0x25FF PUSH1 0x40 DUP4 ADD DUP5 PUSH2 0x1FD6 JUMP JUMPDEST SWAP5 SWAP4 POP POP POP POP JUMP JUMPDEST PUSH1 0x0 PUSH1 0x60 DUP3 ADD SWAP1 POP PUSH2 0x261C PUSH1 0x0 DUP4 ADD DUP7 PUSH2 0x2053 JUMP JUMPDEST PUSH2 0x2629 PUSH1 0x20 DUP4 ADD DUP6 PUSH2 0x1FD6 JUMP JUMPDEST PUSH2 0x2636 PUSH1 0x40 DUP4 ADD DUP5 PUSH2 0x1FD6 JUMP JUMPDEST SWAP5 SWAP4 POP POP POP POP JUMP JUMPDEST PUSH1 0x0 PUSH1 0x80 DUP3 ADD SWAP1 POP PUSH2 0x2653 PUSH1 0x0 DUP4 ADD DUP8 PUSH2 0x2053 JUMP JUMPDEST PUSH2 0x2660 PUSH1 0x20 DUP4 ADD DUP7 PUSH2 0x1FD6 JUMP JUMPDEST PUSH2 0x266D PUSH1 0x40 DUP4 ADD DUP6 PUSH2 0x1FD6 JUMP JUMPDEST PUSH2 0x267A PUSH1 0x60 DUP4 ADD DUP5 PUSH2 0x1FD6 JUMP JUMPDEST SWAP6 SWAP5 POP POP POP POP POP JUMP JUMPDEST PUSH1 0x0 PUSH1 0x40 DUP3 ADD SWAP1 POP PUSH2 0x2698 PUSH1 0x0 DUP4 ADD DUP6 PUSH2 0x1FD6 JUMP JUMPDEST PUSH2 0x26A5 PUSH1 0x20 DUP4 ADD DUP5 PUSH2 0x1FD6 JUMP JUMPDEST SWAP4 SWAP3 POP POP POP JUMP JUMPDEST PUSH1 0x0 PUSH2 0x26B7 DUP3 PUSH2 0x1EB0 JUMP JUMPDEST SWAP2 POP PUSH2 0x26C2 DUP4 PUSH2 0x1EB0 JUMP JUMPDEST SWAP3 POP DUP3 DUP3 ADD SWAP1 POP DUP1 DUP3 GT ISZERO PUSH2 0x26DA JUMPI PUSH2 0x26D9 PUSH2 0x2310 JUMP JUMPDEST JUMPDEST SWAP3 SWAP2 POP POP JUMP INVALID LOG2 PUSH5 0x6970667358 0x22 SLT KECCAK256 SMOD REVERT PUSH3 0x1E50AB 0xE5 0xAF 0x29 SDIV SWAP9 0xC2 ORIGIN 0x21 0xD8 0xD8 DUP2 JUMPI 0xA9 0x4C PUSH3 0x388D0E 0xCE DUP16 PUSH6 0x86A87DB3A064 PUSH20 0x6F6C634300081800330000000000000000000000 "
        },
        "methodIdentifiers": {
          "BURN_ADDRESS()": "fccc2813",
          "TOKEN_NAME()": "18821400",
          "TOKEN_TICKER_SYMBOL()": "5265ee55",
          "allowance(address,address)": "dd62ed3e",
          "approve(address,uint256)": "095ea7b3",
          "balanceOf(address)": "70a08231",
          "buyTaxRate()": "691f224f",
          "cap()": "355274ea",
          "decimals()": "313ce567",
          "exchangeMultiSig1()": "85df1d1c",
          "exchangeMultiSig2()": "52cd2388",
          "initializeUniswapLiquidity(address)": "5ecf7a67",
          "marketingMultiSig()": "63cae94f",
          "mintRemainingSupplyForManualLiquidityProvisioning()": "d962eccc",
          "moveStateToLiquidityLocked()": "c56a4c38",
          "name()": "06fdde03",
          "owner()": "8da5cb5b",
          "renounceOwnership()": "715018a6",
          "sellTaxRate()": "24024efd",
          "setTaxRatesToZero()": "eaff1cbc",
          "symbol()": "95d89b41",
          "tokenState()": "e90dd9e2",
          "totalSupply()": "18160ddd",
          "transfer(address,uint256)": "a9059cbb",
          "transferFrom(address,address,uint256)": "23b872dd",
          "transferOwnership(address)": "f2fde38b",
          "uniswapV2PairAddress()": "2b653d44",
          "uniswapV2Router()": "1694505e"
        }
      }
    }
  }
}