{
  "_format": "hh-sol-artifact-1",
  "contractName": "BasedWhale",
  "sourceName": "contracts/BasedWhale.sol",
  "abi": [
    {
      "inputs": [
        {
          "internalType": "uint256",
          "name": "cap_",
          "type": "uint256"
        },
        {
          "internalType": "address",
          "name": "_owner",
          "type": "address"
        },
        {
          "internalType": "address",
          "name": "_marketingMultiSig",
          "type": "address"
        },
        {
          "internalType": "address",
          "name": "_exchangeMultiSig1",
          "type": "address"
        },
        {
          "internalType": "address",
          "name": "_exchangeMultiSig2",
          "type": "address"
        }
      ],
      "stateMutability": "nonpayable",
      "type": "constructor"
    },
    {
      "inputs": [
        {
          "internalType": "uint256",
          "name": "increasedSupply",
          "type": "uint256"
        },
        {
          "internalType": "uint256",
          "name": "cap",
          "type": "uint256"
        }
      ],
      "name": "ERC20ExceededCap",
      "type": "error"
    },
    {
      "inputs": [
        {
          "internalType": "address",
          "name": "spender",
          "type": "address"
        },
        {
          "internalType": "uint256",
          "name": "allowance",
          "type": "uint256"
        },
        {
          "internalType": "uint256",
          "name": "needed",
          "type": "uint256"
        }
      ],
      "name": "ERC20InsufficientAllowance",
      "type": "error"
    },
    {
      "inputs": [
        {
          "internalType": "address",
          "name": "sender",
          "type": "address"
        },
        {
          "internalType": "uint256",
          "name": "balance",
          "type": "uint256"
        },
        {
          "internalType": "uint256",
          "name": "needed",
          "type": "uint256"
        }
      ],
      "name": "ERC20InsufficientBalance",
      "type": "error"
    },
    {
      "inputs": [
        {
          "internalType": "address",
          "name": "approver",
          "type": "address"
        }
      ],
      "name": "ERC20InvalidApprover",
      "type": "error"
    },
    {
      "inputs": [
        {
          "internalType": "uint256",
          "name": "cap",
          "type": "uint256"
        }
      ],
      "name": "ERC20InvalidCap",
      "type": "error"
    },
    {
      "inputs": [
        {
          "internalType": "address",
          "name": "receiver",
          "type": "address"
        }
      ],
      "name": "ERC20InvalidReceiver",
      "type": "error"
    },
    {
      "inputs": [
        {
          "internalType": "address",
          "name": "sender",
          "type": "address"
        }
      ],
      "name": "ERC20InvalidSender",
      "type": "error"
    },
    {
      "inputs": [
        {
          "internalType": "address",
          "name": "spender",
          "type": "address"
        }
      ],
      "name": "ERC20InvalidSpender",
      "type": "error"
    },
    {
      "inputs": [
        {
          "internalType": "address",
          "name": "owner",
          "type": "address"
        }
      ],
      "name": "OwnableInvalidOwner",
      "type": "error"
    },
    {
      "inputs": [
        {
          "internalType": "address",
          "name": "account",
          "type": "address"
        }
      ],
      "name": "OwnableUnauthorizedAccount",
      "type": "error"
    },
    {
      "anonymous": false,
      "inputs": [
        {
          "indexed": true,
          "internalType": "address",
          "name": "owner",
          "type": "address"
        },
        {
          "indexed": true,
          "internalType": "address",
          "name": "spender",
          "type": "address"
        },
        {
          "indexed": false,
          "internalType": "uint256",
          "name": "value",
          "type": "uint256"
        }
      ],
      "name": "Approval",
      "type": "event"
    },
    {
      "anonymous": false,
      "inputs": [
        {
          "indexed": false,
          "internalType": "address",
          "name": "buyerAddress",
          "type": "address"
        },
        {
          "indexed": false,
          "internalType": "uint256",
          "name": "amountOfTokens",
          "type": "uint256"
        },
        {
          "indexed": false,
          "internalType": "uint256",
          "name": "taxAmount",
          "type": "uint256"
        },
        {
          "indexed": false,
          "internalType": "uint256",
          "name": "timestamp",
          "type": "uint256"
        }
      ],
      "name": "BuyTaxed",
      "type": "event"
    },
    {
      "anonymous": false,
      "inputs": [
        {
          "indexed": false,
          "internalType": "address",
          "name": "launcherAddress",
          "type": "address"
        },
        {
          "indexed": false,
          "internalType": "uint256",
          "name": "timestamp",
          "type": "uint256"
        }
      ],
      "name": "Launched",
      "type": "event"
    },
    {
      "anonymous": false,
      "inputs": [
        {
          "indexed": false,
          "internalType": "address",
          "name": "liquidityPairAddress",
          "type": "address"
        },
        {
          "indexed": false,
          "internalType": "uint256",
          "name": "amountOfTokens",
          "type": "uint256"
        },
        {
          "indexed": false,
          "internalType": "uint256",
          "name": "amountOfETH",
          "type": "uint256"
        },
        {
          "indexed": false,
          "internalType": "uint256",
          "name": "amountOfLiquidityTokensBurned",
          "type": "uint256"
        },
        {
          "indexed": false,
          "internalType": "uint256",
          "name": "timestamp",
          "type": "uint256"
        }
      ],
      "name": "LiquidityLocked",
      "type": "event"
    },
    {
      "anonymous": false,
      "inputs": [
        {
          "indexed": false,
          "internalType": "address",
          "name": "renouncerAddress",
          "type": "address"
        },
        {
          "indexed": false,
          "internalType": "address",
          "name": "nullAddressOwner",
          "type": "address"
        },
        {
          "indexed": false,
          "internalType": "uint256",
          "name": "timestamp",
          "type": "uint256"
        }
      ],
      "name": "OwnershipRenounced",
      "type": "event"
    },
    {
      "anonymous": false,
      "inputs": [
        {
          "indexed": true,
          "internalType": "address",
          "name": "previousOwner",
          "type": "address"
        },
        {
          "indexed": true,
          "internalType": "address",
          "name": "newOwner",
          "type": "address"
        }
      ],
      "name": "OwnershipTransferred",
      "type": "event"
    },
    {
      "anonymous": false,
      "inputs": [
        {
          "indexed": false,
          "internalType": "address",
          "name": "sellerAddress",
          "type": "address"
        },
        {
          "indexed": false,
          "internalType": "uint256",
          "name": "amountOfTokens",
          "type": "uint256"
        },
        {
          "indexed": false,
          "internalType": "uint256",
          "name": "taxAmount",
          "type": "uint256"
        },
        {
          "indexed": false,
          "internalType": "uint256",
          "name": "timestamp",
          "type": "uint256"
        }
      ],
      "name": "SellTaxed",
      "type": "event"
    },
    {
      "anonymous": false,
      "inputs": [
        {
          "indexed": false,
          "internalType": "uint256",
          "name": "zeroedBuyTaxRate",
          "type": "uint256"
        },
        {
          "indexed": false,
          "internalType": "uint256",
          "name": "zeroedSellTaxRate",
          "type": "uint256"
        },
        {
          "indexed": false,
          "internalType": "uint256",
          "name": "timestamp",
          "type": "uint256"
        }
      ],
      "name": "TaxRatesSetToZero",
      "type": "event"
    },
    {
      "anonymous": false,
      "inputs": [
        {
          "indexed": true,
          "internalType": "address",
          "name": "from",
          "type": "address"
        },
        {
          "indexed": true,
          "internalType": "address",
          "name": "to",
          "type": "address"
        },
        {
          "indexed": false,
          "internalType": "uint256",
          "name": "value",
          "type": "uint256"
        }
      ],
      "name": "Transfer",
      "type": "event"
    },
    {
      "inputs": [],
      "name": "BURN_ADDRESS",
      "outputs": [
        {
          "internalType": "address",
          "name": "",
          "type": "address"
        }
      ],
      "stateMutability": "view",
      "type": "function"
    },
    {
      "inputs": [],
      "name": "TOKEN_NAME",
      "outputs": [
        {
          "internalType": "string",
          "name": "",
          "type": "string"
        }
      ],
      "stateMutability": "view",
      "type": "function"
    },
    {
      "inputs": [],
      "name": "TOKEN_TICKER_SYMBOL",
      "outputs": [
        {
          "internalType": "string",
          "name": "",
          "type": "string"
        }
      ],
      "stateMutability": "view",
      "type": "function"
    },
    {
      "inputs": [
        {
          "internalType": "address",
          "name": "owner",
          "type": "address"
        },
        {
          "internalType": "address",
          "name": "spender",
          "type": "address"
        }
      ],
      "name": "allowance",
      "outputs": [
        {
          "internalType": "uint256",
          "name": "",
          "type": "uint256"
        }
      ],
      "stateMutability": "view",
      "type": "function"
    },
    {
      "inputs": [
        {
          "internalType": "address",
          "name": "spender",
          "type": "address"
        },
        {
          "internalType": "uint256",
          "name": "value",
          "type": "uint256"
        }
      ],
      "name": "approve",
      "outputs": [
        {
          "internalType": "bool",
          "name": "",
          "type": "bool"
        }
      ],
      "stateMutability": "nonpayable",
      "type": "function"
    },
    {
      "inputs": [
        {
          "internalType": "address",
          "name": "account",
          "type": "address"
        }
      ],
      "name": "balanceOf",
      "outputs": [
        {
          "internalType": "uint256",
          "name": "",
          "type": "uint256"
        }
      ],
      "stateMutability": "view",
      "type": "function"
    },
    {
      "inputs": [],
      "name": "buyTaxRate",
      "outputs": [
        {
          "internalType": "uint256",
          "name": "",
          "type": "uint256"
        }
      ],
      "stateMutability": "view",
      "type": "function"
    },
    {
      "inputs": [],
      "name": "cap",
      "outputs": [
        {
          "internalType": "uint256",
          "name": "",
          "type": "uint256"
        }
      ],
      "stateMutability": "view",
      "type": "function"
    },
    {
      "inputs": [],
      "name": "decimals",
      "outputs": [
        {
          "internalType": "uint8",
          "name": "",
          "type": "uint8"
        }
      ],
      "stateMutability": "view",
      "type": "function"
    },
    {
      "inputs": [],
      "name": "exchangeMultiSig1",
      "outputs": [
        {
          "internalType": "address",
          "name": "",
          "type": "address"
        }
      ],
      "stateMutability": "view",
      "type": "function"
    },
    {
      "inputs": [],
      "name": "exchangeMultiSig2",
      "outputs": [
        {
          "internalType": "address",
          "name": "",
          "type": "address"
        }
      ],
      "stateMutability": "view",
      "type": "function"
    },
    {
      "inputs": [
        {
          "internalType": "address",
          "name": "_uniswapV2Router",
          "type": "address"
        }
      ],
      "name": "initializeUniswapLiquidity",
      "outputs": [],
      "stateMutability": "payable",
      "type": "function"
    },
    {
      "inputs": [],
      "name": "marketingMultiSig",
      "outputs": [
        {
          "internalType": "address",
          "name": "",
          "type": "address"
        }
      ],
      "stateMutability": "view",
      "type": "function"
    },
    {
      "inputs": [],
      "name": "mintRemainingSupplyForManualLiquidityProvisioning",
      "outputs": [],
      "stateMutability": "nonpayable",
      "type": "function"
    },
    {
      "inputs": [
        {
          "internalType": "address",
          "name": "_uniswapV2PairAddress",
          "type": "address"
        }
      ],
      "name": "moveStateToLiquidityLocked",
      "outputs": [],
      "stateMutability": "nonpayable",
      "type": "function"
    },
    {
      "inputs": [],
      "name": "name",
      "outputs": [
        {
          "internalType": "string",
          "name": "",
          "type": "string"
        }
      ],
      "stateMutability": "view",
      "type": "function"
    },
    {
      "inputs": [],
      "name": "owner",
      "outputs": [
        {
          "internalType": "address",
          "name": "",
          "type": "address"
        }
      ],
      "stateMutability": "view",
      "type": "function"
    },
    {
      "inputs": [],
      "name": "renounceOwnership",
      "outputs": [],
      "stateMutability": "nonpayable",
      "type": "function"
    },
    {
      "inputs": [],
      "name": "sellTaxRate",
      "outputs": [
        {
          "internalType": "uint256",
          "name": "",
          "type": "uint256"
        }
      ],
      "stateMutability": "view",
      "type": "function"
    },
    {
      "inputs": [],
      "name": "setTaxRatesToZero",
      "outputs": [],
      "stateMutability": "nonpayable",
      "type": "function"
    },
    {
      "inputs": [],
      "name": "symbol",
      "outputs": [
        {
          "internalType": "string",
          "name": "",
          "type": "string"
        }
      ],
      "stateMutability": "view",
      "type": "function"
    },
    {
      "inputs": [],
      "name": "tokenState",
      "outputs": [
        {
          "internalType": "enum BasedWhale.TokenState",
          "name": "",
          "type": "uint8"
        }
      ],
      "stateMutability": "view",
      "type": "function"
    },
    {
      "inputs": [],
      "name": "totalSupply",
      "outputs": [
        {
          "internalType": "uint256",
          "name": "",
          "type": "uint256"
        }
      ],
      "stateMutability": "view",
      "type": "function"
    },
    {
      "inputs": [
        {
          "internalType": "address",
          "name": "to",
          "type": "address"
        },
        {
          "internalType": "uint256",
          "name": "value",
          "type": "uint256"
        }
      ],
      "name": "transfer",
      "outputs": [
        {
          "internalType": "bool",
          "name": "",
          "type": "bool"
        }
      ],
      "stateMutability": "nonpayable",
      "type": "function"
    },
    {
      "inputs": [
        {
          "internalType": "address",
          "name": "from",
          "type": "address"
        },
        {
          "internalType": "address",
          "name": "to",
          "type": "address"
        },
        {
          "internalType": "uint256",
          "name": "value",
          "type": "uint256"
        }
      ],
      "name": "transferFrom",
      "outputs": [
        {
          "internalType": "bool",
          "name": "",
          "type": "bool"
        }
      ],
      "stateMutability": "nonpayable",
      "type": "function"
    },
    {
      "inputs": [
        {
          "internalType": "address",
          "name": "newOwner",
          "type": "address"
        }
      ],
      "name": "transferOwnership",
      "outputs": [],
      "stateMutability": "nonpayable",
      "type": "function"
    },
    {
      "inputs": [],
      "name": "uniswapV2PairAddress",
      "outputs": [
        {
          "internalType": "address",
          "name": "",
          "type": "address"
        }
      ],
      "stateMutability": "view",
      "type": "function"
    },
    {
      "inputs": [],
      "name": "uniswapV2Router",
      "outputs": [
        {
          "internalType": "contract IUniswapV2Router02",
          "name": "",
          "type": "address"
        }
      ],
      "stateMutability": "view",
      "type": "function"
    },
    {
      "stateMutability": "payable",
      "type": "receive"
    }
  ],
  "bytecode": "0x60a0604052606460095561012c600a553480156200001c57600080fd5b5060405162003be838038062003be8833981810160405281019062000042919062000bb9565b83620000536200043060201b60201c565b60ff16600a62000064919062000dc4565b8662000071919062000e15565b6040518060400160405280600b81526020017f4261736564205768616c650000000000000000000000000000000000000000008152506040518060400160405280600581526020017f5748414c450000000000000000000000000000000000000000000000000000008152508160039081620000ee9190620010d0565b508060049081620001009190620010d0565b505050600081036200014c5760006040517f392e1e27000000000000000000000000000000000000000000000000000000008152600401620001439190620011fa565b60405180910390fd5b806080818152505050600073ffffffffffffffffffffffffffffffffffffffff168173ffffffffffffffffffffffffffffffffffffffff1603620001ca5760006040517f1e4fbdf7000000000000000000000000000000000000000000000000000000008152600401620001c1919062001228565b60405180910390fd5b620001db816200043960201b60201c565b5082600660006101000a81548173ffffffffffffffffffffffffffffffffffffffff021916908373ffffffffffffffffffffffffffffffffffffffff16021790555081600760006101000a81548173ffffffffffffffffffffffffffffffffffffffff021916908373ffffffffffffffffffffffffffffffffffffffff16021790555080600860006101000a81548173ffffffffffffffffffffffffffffffffffffffff021916908373ffffffffffffffffffffffffffffffffffffffff160217905550620002fe600660009054906101000a900473ffffffffffffffffffffffffffffffffffffffff1660646005620002da620004ff60201b60201c565b620002e6919062000e15565b620002f2919062001274565b6200050960201b60201c565b6200035d600760009054906101000a900473ffffffffffffffffffffffffffffffffffffffff166064600562000339620004ff60201b60201c565b62000345919062000e15565b62000351919062001274565b6200050960201b60201c565b620003bc600860009054906101000a900473ffffffffffffffffffffffffffffffffffffffff166064600562000398620004ff60201b60201c565b620003a4919062000e15565b620003b0919062001274565b6200050960201b60201c565b7f8ad1ba2dbd33c6313fa50cd4016351a36437d7dcd0e0800a3a0b191d22095d933342604051620003ef929190620012bd565b60405180910390a16001600560146101000a81548160ff0219169083600481111562000420576200041f620012ea565b5b0217905550505050505062001463565b60006012905090565b6000600560009054906101000a900473ffffffffffffffffffffffffffffffffffffffff16905081600560006101000a81548173ffffffffffffffffffffffffffffffffffffffff021916908373ffffffffffffffffffffffffffffffffffffffff1602179055508173ffffffffffffffffffffffffffffffffffffffff168173ffffffffffffffffffffffffffffffffffffffff167f8be0079c531659141344cd1fd0a4f28419497f9722a3daafe3b4186f6b6457e060405160405180910390a35050565b6000608051905090565b600073ffffffffffffffffffffffffffffffffffffffff168273ffffffffffffffffffffffffffffffffffffffff16036200057e5760006040517fec442f0500000000000000000000000000000000000000000000000000000000815260040162000575919062001228565b60405180910390fd5b62000592600083836200059660201b60201c565b5050565b60026004811115620005ad57620005ac620012ea565b5b600560149054906101000a900460ff166004811115620005d257620005d1620012ea565b5b14158062000619575060036004811115620005f257620005f1620012ea565b5b600560149054906101000a900460ff166004811115620006175762000616620012ea565b5b145b156200063857620006328383836200081860201b60201c565b62000813565b6000600b60009054906101000a900473ffffffffffffffffffffffffffffffffffffffff1673ffffffffffffffffffffffffffffffffffffffff168373ffffffffffffffffffffffffffffffffffffffff1603620006f6576103e8600a5483620006a3919062000e15565b620006af919062001274565b90507f4021301da943ce70706f02c0638c48f65e27cd0642ffd0550536995af05e70cc84838342604051620006e8949392919062001319565b60405180910390a1620007ae565b600b60009054906101000a900473ffffffffffffffffffffffffffffffffffffffff1673ffffffffffffffffffffffffffffffffffffffff168473ffffffffffffffffffffffffffffffffffffffff1603620007ad576103e8600954836200075f919062000e15565b6200076b919062001274565b90507f4cb653ef0afb6a8ec8b4b9286771cadc8e586225744651cd05b4b475ab88127283838342604051620007a4949392919062001319565b60405180910390a15b5b6000811115620007fe57620007ed84600660009054906101000a900473ffffffffffffffffffffffffffffffffffffffff16836200081860201b60201c565b8082620007fb919062001366565b91505b620008118484846200081860201b60201c565b505b505050565b6200082b838383620008da60201b60201c565b600073ffffffffffffffffffffffffffffffffffffffff168373ffffffffffffffffffffffffffffffffffffffff1603620008d557600062000872620004ff60201b60201c565b905060006200088662000b0a60201b60201c565b905081811115620008d25780826040517f9e79f854000000000000000000000000000000000000000000000000000000008152600401620008c9929190620013a1565b60405180910390fd5b50505b505050565b600073ffffffffffffffffffffffffffffffffffffffff168373ffffffffffffffffffffffffffffffffffffffff160362000930578060026000828254620009239190620013ce565b9250508190555062000a06565b60008060008573ffffffffffffffffffffffffffffffffffffffff1673ffffffffffffffffffffffffffffffffffffffff16815260200190815260200160002054905081811015620009bf578381836040517fe450d38c000000000000000000000000000000000000000000000000000000008152600401620009b69392919062001409565b60405180910390fd5b8181036000808673ffffffffffffffffffffffffffffffffffffffff1673ffffffffffffffffffffffffffffffffffffffff16815260200190815260200160002081905550505b600073ffffffffffffffffffffffffffffffffffffffff168273ffffffffffffffffffffffffffffffffffffffff160362000a51578060026000828254039250508190555062000a9e565b806000808473ffffffffffffffffffffffffffffffffffffffff1673ffffffffffffffffffffffffffffffffffffffff168152602001908152602001600020600082825401925050819055505b8173ffffffffffffffffffffffffffffffffffffffff168373ffffffffffffffffffffffffffffffffffffffff167fddf252ad1be2c89b69c2b068fc378daa952ba7f163c4a11628f55a4df523b3ef8360405162000afd919062001446565b60405180910390a3505050565b6000600254905090565b600080fd5b6000819050919050565b62000b2e8162000b19565b811462000b3a57600080fd5b50565b60008151905062000b4e8162000b23565b92915050565b600073ffffffffffffffffffffffffffffffffffffffff82169050919050565b600062000b818262000b54565b9050919050565b62000b938162000b74565b811462000b9f57600080fd5b50565b60008151905062000bb38162000b88565b92915050565b600080600080600060a0868803121562000bd85762000bd762000b14565b5b600062000be88882890162000b3d565b955050602062000bfb8882890162000ba2565b945050604062000c0e8882890162000ba2565b935050606062000c218882890162000ba2565b925050608062000c348882890162000ba2565b9150509295509295909350565b7f4e487b7100000000000000000000000000000000000000000000000000000000600052601160045260246000fd5b60008160011c9050919050565b6000808291508390505b600185111562000ccf5780860481111562000ca75762000ca662000c41565b5b600185161562000cb75780820291505b808102905062000cc78562000c70565b945062000c87565b94509492505050565b60008262000cea576001905062000dbd565b8162000cfa576000905062000dbd565b816001811462000d13576002811462000d1e5762000d54565b600191505062000dbd565b60ff84111562000d335762000d3262000c41565b5b8360020a91508482111562000d4d5762000d4c62000c41565b5b5062000dbd565b5060208310610133831016604e8410600b841016171562000d8e5782820a90508381111562000d885762000d8762000c41565b5b62000dbd565b62000d9d848484600162000c7d565b9250905081840481111562000db75762000db662000c41565b5b81810290505b9392505050565b600062000dd18262000b19565b915062000dde8362000b19565b925062000e0d7fffffffffffffffffffffffffffffffffffffffffffffffffffffffffffffffff848462000cd8565b905092915050565b600062000e228262000b19565b915062000e2f8362000b19565b925082820262000e3f8162000b19565b9150828204841483151762000e595762000e5862000c41565b5b5092915050565b600081519050919050565b7f4e487b7100000000000000000000000000000000000000000000000000000000600052604160045260246000fd5b7f4e487b7100000000000000000000000000000000000000000000000000000000600052602260045260246000fd5b6000600282049050600182168062000ee257607f821691505b60208210810362000ef85762000ef762000e9a565b5b50919050565b60008190508160005260206000209050919050565b60006020601f8301049050919050565b600082821b905092915050565b60006008830262000f627fffffffffffffffffffffffffffffffffffffffffffffffffffffffffffffffff8262000f23565b62000f6e868362000f23565b95508019841693508086168417925050509392505050565b6000819050919050565b600062000fb162000fab62000fa58462000b19565b62000f86565b62000b19565b9050919050565b6000819050919050565b62000fcd8362000f90565b62000fe562000fdc8262000fb8565b84845462000f30565b825550505050565b600090565b62000ffc62000fed565b6200100981848462000fc2565b505050565b5b8181101562001031576200102560008262000ff2565b6001810190506200100f565b5050565b601f82111562001080576200104a8162000efe565b620010558462000f13565b8101602085101562001065578190505b6200107d620010748562000f13565b8301826200100e565b50505b505050565b600082821c905092915050565b6000620010a56000198460080262001085565b1980831691505092915050565b6000620010c0838362001092565b9150826002028217905092915050565b620010db8262000e60565b67ffffffffffffffff811115620010f757620010f662000e6b565b5b62001103825462000ec9565b6200111082828562001035565b600060209050601f83116001811462001148576000841562001133578287015190505b6200113f8582620010b2565b865550620011af565b601f198416620011588662000efe565b60005b8281101562001182578489015182556001820191506020850194506020810190506200115b565b86831015620011a257848901516200119e601f89168262001092565b8355505b6001600288020188555050505b505050505050565b6000819050919050565b6000620011e2620011dc620011d684620011b7565b62000f86565b62000b19565b9050919050565b620011f481620011c1565b82525050565b6000602082019050620012116000830184620011e9565b92915050565b620012228162000b74565b82525050565b60006020820190506200123f600083018462001217565b92915050565b7f4e487b7100000000000000000000000000000000000000000000000000000000600052601260045260246000fd5b6000620012818262000b19565b91506200128e8362000b19565b925082620012a157620012a062001245565b5b828204905092915050565b620012b78162000b19565b82525050565b6000604082019050620012d4600083018562001217565b620012e36020830184620012ac565b9392505050565b7f4e487b7100000000000000000000000000000000000000000000000000000000600052602160045260246000fd5b600060808201905062001330600083018762001217565b6200133f6020830186620012ac565b6200134e6040830185620012ac565b6200135d6060830184620012ac565b95945050505050565b6000620013738262000b19565b9150620013808362000b19565b92508282039050818111156200139b576200139a62000c41565b5b92915050565b6000604082019050620013b86000830185620012ac565b620013c76020830184620012ac565b9392505050565b6000620013db8262000b19565b9150620013e88362000b19565b925082820190508082111562001403576200140262000c41565b5b92915050565b600060608201905062001420600083018662001217565b6200142f6020830185620012ac565b6200143e6040830184620012ac565b949350505050565b60006020820190506200145d6000830184620012ac565b92915050565b6080516127696200147f60003960006108fa01526127696000f3fe6080604052600436106101ba5760003560e01c806363cae94f116100ec578063a9059cbb1161008a578063e90dd9e211610064578063e90dd9e2146105ef578063eaff1cbc1461061a578063f2fde38b14610631578063fccc28131461065a576101c1565b8063a9059cbb1461055e578063d962eccc1461059b578063dd62ed3e146105b2576101c1565b8063715018a6116100c6578063715018a6146104c657806385df1d1c146104dd5780638da5cb5b1461050857806395d89b4114610533576101c1565b806363cae94f14610433578063691f224f1461045e57806370a0823114610489576101c1565b806324024efd11610159578063355274ea11610133578063355274ea146103965780635265ee55146103c157806352cd2388146103ec5780635ecf7a6714610417576101c1565b806324024efd146103155780632b653d4414610340578063313ce5671461036b576101c1565b80631694505e116101955780631694505e1461025757806318160ddd1461028257806318821400146102ad57806323b872dd146102d8576101c1565b8062d0a17d146101c657806306fdde03146101ef578063095ea7b31461021a576101c1565b366101c157005b600080fd5b3480156101d257600080fd5b506101ed60048036038101906101e89190611e51565b610685565b005b3480156101fb57600080fd5b50610204610774565b6040516102119190611f0e565b60405180910390f35b34801561022657600080fd5b50610241600480360381019061023c9190611f66565b610806565b60405161024e9190611fc1565b60405180910390f35b34801561026357600080fd5b5061026c610829565b604051610279919061203b565b60405180910390f35b34801561028e57600080fd5b5061029761084f565b6040516102a49190612065565b60405180910390f35b3480156102b957600080fd5b506102c2610859565b6040516102cf9190611f0e565b60405180910390f35b3480156102e457600080fd5b506102ff60048036038101906102fa9190612080565b610892565b60405161030c9190611fc1565b60405180910390f35b34801561032157600080fd5b5061032a6108c1565b6040516103379190612065565b60405180910390f35b34801561034c57600080fd5b506103556108c7565b60405161036291906120e2565b60405180910390f35b34801561037757600080fd5b506103806108ed565b60405161038d9190612119565b60405180910390f35b3480156103a257600080fd5b506103ab6108f6565b6040516103b89190612065565b60405180910390f35b3480156103cd57600080fd5b506103d661091e565b6040516103e39190611f0e565b60405180910390f35b3480156103f857600080fd5b50610401610957565b60405161040e91906120e2565b60405180910390f35b610431600480360381019061042c9190611e51565b61097d565b005b34801561043f57600080fd5b50610448610e42565b60405161045591906120e2565b60405180910390f35b34801561046a57600080fd5b50610473610e68565b6040516104809190612065565b60405180910390f35b34801561049557600080fd5b506104b060048036038101906104ab9190611e51565b610e6e565b6040516104bd9190612065565b60405180910390f35b3480156104d257600080fd5b506104db610eb6565b005b3480156104e957600080fd5b506104f2610fad565b6040516104ff91906120e2565b60405180910390f35b34801561051457600080fd5b5061051d610fd3565b60405161052a91906120e2565b60405180910390f35b34801561053f57600080fd5b50610548610ffd565b6040516105559190611f0e565b60405180910390f35b34801561056a57600080fd5b5061058560048036038101906105809190611f66565b61108f565b6040516105929190611fc1565b60405180910390f35b3480156105a757600080fd5b506105b06110b2565b005b3480156105be57600080fd5b506105d960048036038101906105d49190612134565b61115d565b6040516105e69190612065565b60405180910390f35b3480156105fb57600080fd5b506106046111e4565b60405161061191906121eb565b60405180910390f35b34801561062657600080fd5b5061062f6111f7565b005b34801561063d57600080fd5b5061065860048036038101906106539190611e51565b6112f3565b005b34801561066657600080fd5b5061066f611379565b60405161067c91906120e2565b60405180910390f35b61068d61137e565b60018060048111156106a2576106a1612174565b5b600560149054906101000a900460ff1660048111156106c4576106c3612174565b5b14610704576040517f08c379a00000000000000000000000000000000000000000000000000000000081526004016106fb90612278565b60405180910390fd5b81600b60006101000a81548173ffffffffffffffffffffffffffffffffffffffff021916908373ffffffffffffffffffffffffffffffffffffffff1602179055506002600560146101000a81548160ff0219169083600481111561076b5761076a612174565b5b02179055505050565b606060038054610783906122c7565b80601f01602080910402602001604051908101604052809291908181526020018280546107af906122c7565b80156107fc5780601f106107d1576101008083540402835291602001916107fc565b820191906000526020600020905b8154815290600101906020018083116107df57829003601f168201915b5050505050905090565b600080610811611405565b905061081e81858561140d565b600191505092915050565b600c60009054906101000a900473ffffffffffffffffffffffffffffffffffffffff1681565b6000600254905090565b6040518060400160405280600b81526020017f4261736564205768616c6500000000000000000000000000000000000000000081525081565b60008061089d611405565b90506108aa85828561141f565b6108b58585856114b3565b60019150509392505050565b600a5481565b600b60009054906101000a900473ffffffffffffffffffffffffffffffffffffffff1681565b60006012905090565b60007f0000000000000000000000000000000000000000000000000000000000000000905090565b6040518060400160405280600581526020017f5748414c4500000000000000000000000000000000000000000000000000000081525081565b600860009054906101000a900473ffffffffffffffffffffffffffffffffffffffff1681565b61098561137e565b600180600481111561099a57610999612174565b5b600560149054906101000a900460ff1660048111156109bc576109bb612174565b5b146109fc576040517f08c379a00000000000000000000000000000000000000000000000000000000081526004016109f390612278565b60405180910390fd5b81600c60006101000a81548173ffffffffffffffffffffffffffffffffffffffff021916908373ffffffffffffffffffffffffffffffffffffffff160217905550600c60009054906101000a900473ffffffffffffffffffffffffffffffffffffffff1673ffffffffffffffffffffffffffffffffffffffff1663c45a01556040518163ffffffff1660e01b8152600401602060405180830381865afa158015610aaa573d6000803e3d6000fd5b505050506040513d601f19601f82011682018060405250810190610ace919061230d565b73ffffffffffffffffffffffffffffffffffffffff1663c9c6539630600c60009054906101000a900473ffffffffffffffffffffffffffffffffffffffff1673ffffffffffffffffffffffffffffffffffffffff1663ad5c46486040518163ffffffff1660e01b8152600401602060405180830381865afa158015610b57573d6000803e3d6000fd5b505050506040513d601f19601f82011682018060405250810190610b7b919061230d565b6040518363ffffffff1660e01b8152600401610b9892919061233a565b6020604051808303816000875af1158015610bb7573d6000803e3d6000fd5b505050506040513d601f19601f82011682018060405250810190610bdb919061230d565b600b60006101000a81548173ffffffffffffffffffffffffffffffffffffffff021916908373ffffffffffffffffffffffffffffffffffffffff160217905550600060646055610c296108f6565b610c339190612392565b610c3d9190612403565b9050610c4930826115a7565b610c5430848361140d565b6000429050600080600c60009054906101000a900473ffffffffffffffffffffffffffffffffffffffff1673ffffffffffffffffffffffffffffffffffffffff1663f305d71934308760008060008a6040518863ffffffff1660e01b8152600401610cc49695949392919061246f565b60606040518083038185885af1158015610ce2573d6000803e3d6000fd5b50505050506040513d601f19601f82011682018060405250810190610d0791906124e5565b50915091506000600b60009054906101000a900473ffffffffffffffffffffffffffffffffffffffff1690507ff07f8699eb5a7d3c6903aba7ffc0b932e8e123129924f6aa4e3e95b04ba25179600b60009054906101000a900473ffffffffffffffffffffffffffffffffffffffff1684848473ffffffffffffffffffffffffffffffffffffffff166370a0823160006040518263ffffffff1660e01b8152600401610db391906120e2565b602060405180830381865afa158015610dd0573d6000803e3d6000fd5b505050506040513d601f19601f82011682018060405250810190610df49190612538565b88604051610e06959493929190612565565b60405180910390a16002600560146101000a81548160ff02191690836004811115610e3457610e33612174565b5b021790555050505050505050565b600660009054906101000a900473ffffffffffffffffffffffffffffffffffffffff1681565b60095481565b60008060008373ffffffffffffffffffffffffffffffffffffffff1673ffffffffffffffffffffffffffffffffffffffff168152602001908152602001600020549050919050565b610ebe61137e565b6003806004811115610ed357610ed2612174565b5b600560149054906101000a900460ff166004811115610ef557610ef4612174565b5b14610f35576040517f08c379a0000000000000000000000000000000000000000000000000000000008152600401610f2c90612278565b60405180910390fd5b7fbc3fa950185893c8ddfff1dafec540ffc8d7e576295fea983a515e9a8e03acd733610f5f610fd3565b42604051610f6f939291906125b8565b60405180910390a16004600560146101000a81548160ff02191690836004811115610f9d57610f9c612174565b5b0217905550610faa611629565b50565b600760009054906101000a900473ffffffffffffffffffffffffffffffffffffffff1681565b6000600560009054906101000a900473ffffffffffffffffffffffffffffffffffffffff16905090565b60606004805461100c906122c7565b80601f0160208091040260200160405190810160405280929190818152602001828054611038906122c7565b80156110855780601f1061105a57610100808354040283529160200191611085565b820191906000526020600020905b81548152906001019060200180831161106857829003601f168201915b5050505050905090565b60008061109a611405565b90506110a78185856114b3565b600191505092915050565b6110ba61137e565b60018060048111156110cf576110ce612174565b5b600560149054906101000a900460ff1660048111156110f1576110f0612174565b5b14611131576040517f08c379a000000000000000000000000000000000000000000000000000000000815260040161112890612278565b60405180910390fd5b600061113b61084f565b6111436108f6565b61114d91906125ef565b905061115933826115a7565b5050565b6000600160008473ffffffffffffffffffffffffffffffffffffffff1673ffffffffffffffffffffffffffffffffffffffff16815260200190815260200160002060008373ffffffffffffffffffffffffffffffffffffffff1673ffffffffffffffffffffffffffffffffffffffff16815260200190815260200160002054905092915050565b600560149054906101000a900460ff1681565b6111ff61137e565b600280600481111561121457611213612174565b5b600560149054906101000a900460ff16600481111561123657611235612174565b5b14611276576040517f08c379a000000000000000000000000000000000000000000000000000000000815260040161126d90612278565b60405180910390fd5b60006009819055506000600a819055507fc4c7c69f1eeef4dcf5449fcee968e149b2646d141f0d9bb3d1de12de99d77f7e600954600a54426040516112bd93929190612623565b60405180910390a16003600560146101000a81548160ff021916908360048111156112eb576112ea612174565b5b021790555050565b6112fb61137e565b600073ffffffffffffffffffffffffffffffffffffffff168173ffffffffffffffffffffffffffffffffffffffff160361136d5760006040517f1e4fbdf700000000000000000000000000000000000000000000000000000000815260040161136491906120e2565b60405180910390fd5b6113768161163d565b50565b600081565b611386611405565b73ffffffffffffffffffffffffffffffffffffffff166113a4610fd3565b73ffffffffffffffffffffffffffffffffffffffff1614611403576113c7611405565b6040517f118cdaa70000000000000000000000000000000000000000000000000000000081526004016113fa91906120e2565b60405180910390fd5b565b600033905090565b61141a8383836001611703565b505050565b600061142b848461115d565b90507fffffffffffffffffffffffffffffffffffffffffffffffffffffffffffffffff81146114ad578181101561149d578281836040517ffb8f41b20000000000000000000000000000000000000000000000000000000081526004016114949392919061265a565b60405180910390fd5b6114ac84848484036000611703565b5b50505050565b600073ffffffffffffffffffffffffffffffffffffffff168373ffffffffffffffffffffffffffffffffffffffff16036115255760006040517f96c6fd1e00000000000000000000000000000000000000000000000000000000815260040161151c91906120e2565b60405180910390fd5b600073ffffffffffffffffffffffffffffffffffffffff168273ffffffffffffffffffffffffffffffffffffffff16036115975760006040517fec442f0500000000000000000000000000000000000000000000000000000000815260040161158e91906120e2565b60405180910390fd5b6115a28383836118da565b505050565b600073ffffffffffffffffffffffffffffffffffffffff168273ffffffffffffffffffffffffffffffffffffffff16036116195760006040517fec442f0500000000000000000000000000000000000000000000000000000000815260040161161091906120e2565b60405180910390fd5b611625600083836118da565b5050565b61163161137e565b61163b600061163d565b565b6000600560009054906101000a900473ffffffffffffffffffffffffffffffffffffffff16905081600560006101000a81548173ffffffffffffffffffffffffffffffffffffffff021916908373ffffffffffffffffffffffffffffffffffffffff1602179055508173ffffffffffffffffffffffffffffffffffffffff168173ffffffffffffffffffffffffffffffffffffffff167f8be0079c531659141344cd1fd0a4f28419497f9722a3daafe3b4186f6b6457e060405160405180910390a35050565b600073ffffffffffffffffffffffffffffffffffffffff168473ffffffffffffffffffffffffffffffffffffffff16036117755760006040517fe602df0500000000000000000000000000000000000000000000000000000000815260040161176c91906120e2565b60405180910390fd5b600073ffffffffffffffffffffffffffffffffffffffff168373ffffffffffffffffffffffffffffffffffffffff16036117e75760006040517f94280d620000000000000000000000000000000000000000000000000000000081526004016117de91906120e2565b60405180910390fd5b81600160008673ffffffffffffffffffffffffffffffffffffffff1673ffffffffffffffffffffffffffffffffffffffff16815260200190815260200160002060008573ffffffffffffffffffffffffffffffffffffffff1673ffffffffffffffffffffffffffffffffffffffff1681526020019081526020016000208190555080156118d4578273ffffffffffffffffffffffffffffffffffffffff168473ffffffffffffffffffffffffffffffffffffffff167f8c5be1e5ebec7d5bd14f71427d1e84f3dd0314c0f7b2291e5b200ac8c7c3b925846040516118cb9190612065565b60405180910390a35b50505050565b600260048111156118ee576118ed612174565b5b600560149054906101000a900460ff1660048111156119105761190f612174565b5b14158061195057506003600481111561192c5761192b612174565b5b600560149054906101000a900460ff16600481111561194e5761194d612174565b5b145b1561196557611960838383611b23565b611b1e565b6000600b60009054906101000a900473ffffffffffffffffffffffffffffffffffffffff1673ffffffffffffffffffffffffffffffffffffffff168373ffffffffffffffffffffffffffffffffffffffff1603611a1b576103e8600a54836119cd9190612392565b6119d79190612403565b90507f4021301da943ce70706f02c0638c48f65e27cd0642ffd0550536995af05e70cc84838342604051611a0e9493929190612691565b60405180910390a1611acc565b600b60009054906101000a900473ffffffffffffffffffffffffffffffffffffffff1673ffffffffffffffffffffffffffffffffffffffff168473ffffffffffffffffffffffffffffffffffffffff1603611acb576103e860095483611a819190612392565b611a8b9190612403565b90507f4cb653ef0afb6a8ec8b4b9286771cadc8e586225744651cd05b4b475ab88127283838342604051611ac29493929190612691565b60405180910390a15b5b6000811115611b1157611b0284600660009054906101000a900473ffffffffffffffffffffffffffffffffffffffff1683611b23565b8082611b0e91906125ef565b91505b611b1c848484611b23565b505b505050565b611b2e838383611bc9565b600073ffffffffffffffffffffffffffffffffffffffff168373ffffffffffffffffffffffffffffffffffffffff1603611bc4576000611b6c6108f6565b90506000611b7861084f565b905081811115611bc15780826040517f9e79f854000000000000000000000000000000000000000000000000000000008152600401611bb89291906126d6565b60405180910390fd5b50505b505050565b600073ffffffffffffffffffffffffffffffffffffffff168373ffffffffffffffffffffffffffffffffffffffff1603611c1b578060026000828254611c0f91906126ff565b92505081905550611cee565b60008060008573ffffffffffffffffffffffffffffffffffffffff1673ffffffffffffffffffffffffffffffffffffffff16815260200190815260200160002054905081811015611ca7578381836040517fe450d38c000000000000000000000000000000000000000000000000000000008152600401611c9e9392919061265a565b60405180910390fd5b8181036000808673ffffffffffffffffffffffffffffffffffffffff1673ffffffffffffffffffffffffffffffffffffffff16815260200190815260200160002081905550505b600073ffffffffffffffffffffffffffffffffffffffff168273ffffffffffffffffffffffffffffffffffffffff1603611d375780600260008282540392505081905550611d84565b806000808473ffffffffffffffffffffffffffffffffffffffff1673ffffffffffffffffffffffffffffffffffffffff168152602001908152602001600020600082825401925050819055505b8173ffffffffffffffffffffffffffffffffffffffff168373ffffffffffffffffffffffffffffffffffffffff167fddf252ad1be2c89b69c2b068fc378daa952ba7f163c4a11628f55a4df523b3ef83604051611de19190612065565b60405180910390a3505050565b600080fd5b600073ffffffffffffffffffffffffffffffffffffffff82169050919050565b6000611e1e82611df3565b9050919050565b611e2e81611e13565b8114611e3957600080fd5b50565b600081359050611e4b81611e25565b92915050565b600060208284031215611e6757611e66611dee565b5b6000611e7584828501611e3c565b91505092915050565b600081519050919050565b600082825260208201905092915050565b60005b83811015611eb8578082015181840152602081019050611e9d565b60008484015250505050565b6000601f19601f8301169050919050565b6000611ee082611e7e565b611eea8185611e89565b9350611efa818560208601611e9a565b611f0381611ec4565b840191505092915050565b60006020820190508181036000830152611f288184611ed5565b905092915050565b6000819050919050565b611f4381611f30565b8114611f4e57600080fd5b50565b600081359050611f6081611f3a565b92915050565b60008060408385031215611f7d57611f7c611dee565b5b6000611f8b85828601611e3c565b9250506020611f9c85828601611f51565b9150509250929050565b60008115159050919050565b611fbb81611fa6565b82525050565b6000602082019050611fd66000830184611fb2565b92915050565b6000819050919050565b6000612001611ffc611ff784611df3565b611fdc565b611df3565b9050919050565b600061201382611fe6565b9050919050565b600061202582612008565b9050919050565b6120358161201a565b82525050565b6000602082019050612050600083018461202c565b92915050565b61205f81611f30565b82525050565b600060208201905061207a6000830184612056565b92915050565b60008060006060848603121561209957612098611dee565b5b60006120a786828701611e3c565b93505060206120b886828701611e3c565b92505060406120c986828701611f51565b9150509250925092565b6120dc81611e13565b82525050565b60006020820190506120f760008301846120d3565b92915050565b600060ff82169050919050565b612113816120fd565b82525050565b600060208201905061212e600083018461210a565b92915050565b6000806040838503121561214b5761214a611dee565b5b600061215985828601611e3c565b925050602061216a85828601611e3c565b9150509250929050565b7f4e487b7100000000000000000000000000000000000000000000000000000000600052602160045260246000fd5b600581106121b4576121b3612174565b5b50565b60008190506121c5826121a3565b919050565b60006121d5826121b7565b9050919050565b6121e5816121ca565b82525050565b600060208201905061220060008301846121dc565b92915050565b7f46756e6374696f6e2063616e6e6f742062652063616c6c656420696e2074686960008201527f7320737461746500000000000000000000000000000000000000000000000000602082015250565b6000612262602783611e89565b915061226d82612206565b604082019050919050565b6000602082019050818103600083015261229181612255565b9050919050565b7f4e487b7100000000000000000000000000000000000000000000000000000000600052602260045260246000fd5b600060028204905060018216806122df57607f821691505b6020821081036122f2576122f1612298565b5b50919050565b60008151905061230781611e25565b92915050565b60006020828403121561232357612322611dee565b5b6000612331848285016122f8565b91505092915050565b600060408201905061234f60008301856120d3565b61235c60208301846120d3565b9392505050565b7f4e487b7100000000000000000000000000000000000000000000000000000000600052601160045260246000fd5b600061239d82611f30565b91506123a883611f30565b92508282026123b681611f30565b915082820484148315176123cd576123cc612363565b5b5092915050565b7f4e487b7100000000000000000000000000000000000000000000000000000000600052601260045260246000fd5b600061240e82611f30565b915061241983611f30565b925082612429576124286123d4565b5b828204905092915050565b6000819050919050565b600061245961245461244f84612434565b611fdc565b611f30565b9050919050565b6124698161243e565b82525050565b600060c08201905061248460008301896120d3565b6124916020830188612056565b61249e6040830187612460565b6124ab6060830186612460565b6124b860808301856120d3565b6124c560a0830184612056565b979650505050505050565b6000815190506124df81611f3a565b92915050565b6000806000606084860312156124fe576124fd611dee565b5b600061250c868287016124d0565b935050602061251d868287016124d0565b925050604061252e868287016124d0565b9150509250925092565b60006020828403121561254e5761254d611dee565b5b600061255c848285016124d0565b91505092915050565b600060a08201905061257a60008301886120d3565b6125876020830187612056565b6125946040830186612056565b6125a16060830185612056565b6125ae6080830184612056565b9695505050505050565b60006060820190506125cd60008301866120d3565b6125da60208301856120d3565b6125e76040830184612056565b949350505050565b60006125fa82611f30565b915061260583611f30565b925082820390508181111561261d5761261c612363565b5b92915050565b60006060820190506126386000830186612056565b6126456020830185612056565b6126526040830184612056565b949350505050565b600060608201905061266f60008301866120d3565b61267c6020830185612056565b6126896040830184612056565b949350505050565b60006080820190506126a660008301876120d3565b6126b36020830186612056565b6126c06040830185612056565b6126cd6060830184612056565b95945050505050565b60006040820190506126eb6000830185612056565b6126f86020830184612056565b9392505050565b600061270a82611f30565b915061271583611f30565b925082820190508082111561272d5761272c612363565b5b9291505056fea2646970667358221220ad981c6c024d5d2b7a2414d0a2fd419eb25bc19e76ba154faeb0360db99ed1c564736f6c63430008180033",
  "linkReferences": {},
  "deployedLinkReferences": {}
}