{
  "contracts/BasedWhale.sol": {
    "BasedWhale": {
      "abi": [
        {
          "inputs": [
            {
              "internalType": "uint256",
              "name": "cap_",
              "type": "uint256"
            },
            {
              "internalType": "address",
              "name": "_owner",
              "type": "address"
            },
            {
              "internalType": "address",
              "name": "_marketingMultiSig",
              "type": "address"
            },
            {
              "internalType": "address",
              "name": "_exchangeMultiSig1",
              "type": "address"
            },
            {
              "internalType": "address",
              "name": "_exchangeMultiSig2",
              "type": "address"
            }
          ],
          "stateMutability": "nonpayable",
          "type": "constructor"
        },
        {
          "inputs": [
            {
              "internalType": "uint256",
              "name": "increasedSupply",
              "type": "uint256"
            },
            {
              "internalType": "uint256",
              "name": "cap",
              "type": "uint256"
            }
          ],
          "name": "ERC20ExceededCap",
          "type": "error"
        },
        {
          "inputs": [
            {
              "internalType": "address",
              "name": "spender",
              "type": "address"
            },
            {
              "internalType": "uint256",
              "name": "allowance",
              "type": "uint256"
            },
            {
              "internalType": "uint256",
              "name": "needed",
              "type": "uint256"
            }
          ],
          "name": "ERC20InsufficientAllowance",
          "type": "error"
        },
        {
          "inputs": [
            {
              "internalType": "address",
              "name": "sender",
              "type": "address"
            },
            {
              "internalType": "uint256",
              "name": "balance",
              "type": "uint256"
            },
            {
              "internalType": "uint256",
              "name": "needed",
              "type": "uint256"
            }
          ],
          "name": "ERC20InsufficientBalance",
          "type": "error"
        },
        {
          "inputs": [
            {
              "internalType": "address",
              "name": "approver",
              "type": "address"
            }
          ],
          "name": "ERC20InvalidApprover",
          "type": "error"
        },
        {
          "inputs": [
            {
              "internalType": "uint256",
              "name": "cap",
              "type": "uint256"
            }
          ],
          "name": "ERC20InvalidCap",
          "type": "error"
        },
        {
          "inputs": [
            {
              "internalType": "address",
              "name": "receiver",
              "type": "address"
            }
          ],
          "name": "ERC20InvalidReceiver",
          "type": "error"
        },
        {
          "inputs": [
            {
              "internalType": "address",
              "name": "sender",
              "type": "address"
            }
          ],
          "name": "ERC20InvalidSender",
          "type": "error"
        },
        {
          "inputs": [
            {
              "internalType": "address",
              "name": "spender",
              "type": "address"
            }
          ],
          "name": "ERC20InvalidSpender",
          "type": "error"
        },
        {
          "inputs": [
            {
              "internalType": "address",
              "name": "owner",
              "type": "address"
            }
          ],
          "name": "OwnableInvalidOwner",
          "type": "error"
        },
        {
          "inputs": [
            {
              "internalType": "address",
              "name": "account",
              "type": "address"
            }
          ],
          "name": "OwnableUnauthorizedAccount",
          "type": "error"
        },
        {
          "anonymous": false,
          "inputs": [
            {
              "indexed": true,
              "internalType": "address",
              "name": "owner",
              "type": "address"
            },
            {
              "indexed": true,
              "internalType": "address",
              "name": "spender",
              "type": "address"
            },
            {
              "indexed": false,
              "internalType": "uint256",
              "name": "value",
              "type": "uint256"
            }
          ],
          "name": "Approval",
          "type": "event"
        },
        {
          "anonymous": false,
          "inputs": [
            {
              "indexed": false,
              "internalType": "address",
              "name": "buyerAddress",
              "type": "address"
            },
            {
              "indexed": false,
              "internalType": "uint256",
              "name": "amountOfTokens",
              "type": "uint256"
            },
            {
              "indexed": false,
              "internalType": "uint256",
              "name": "taxAmount",
              "type": "uint256"
            },
            {
              "indexed": false,
              "internalType": "uint256",
              "name": "timestamp",
              "type": "uint256"
            }
          ],
          "name": "BuyTaxed",
          "type": "event"
        },
        {
          "anonymous": false,
          "inputs": [
            {
              "indexed": false,
              "internalType": "address",
              "name": "launcherAddress",
              "type": "address"
            },
            {
              "indexed": false,
              "internalType": "uint256",
              "name": "timestamp",
              "type": "uint256"
            }
          ],
          "name": "Launched",
          "type": "event"
        },
        {
          "anonymous": false,
          "inputs": [
            {
              "indexed": false,
              "internalType": "address",
              "name": "liquidityPairAddress",
              "type": "address"
            },
            {
              "indexed": false,
              "internalType": "uint256",
              "name": "amountOfTokens",
              "type": "uint256"
            },
            {
              "indexed": false,
              "internalType": "uint256",
              "name": "amountOfETH",
              "type": "uint256"
            },
            {
              "indexed": false,
              "internalType": "uint256",
              "name": "amountOfLiquidityTokensBurned",
              "type": "uint256"
            },
            {
              "indexed": false,
              "internalType": "uint256",
              "name": "timestamp",
              "type": "uint256"
            }
          ],
          "name": "LiquidityLocked",
          "type": "event"
        },
        {
          "anonymous": false,
          "inputs": [
            {
              "indexed": false,
              "internalType": "address",
              "name": "renouncerAddress",
              "type": "address"
            },
            {
              "indexed": false,
              "internalType": "address",
              "name": "nullAddressOwner",
              "type": "address"
            },
            {
              "indexed": false,
              "internalType": "uint256",
              "name": "timestamp",
              "type": "uint256"
            }
          ],
          "name": "OwnershipRenounced",
          "type": "event"
        },
        {
          "anonymous": false,
          "inputs": [
            {
              "indexed": true,
              "internalType": "address",
              "name": "previousOwner",
              "type": "address"
            },
            {
              "indexed": true,
              "internalType": "address",
              "name": "newOwner",
              "type": "address"
            }
          ],
          "name": "OwnershipTransferred",
          "type": "event"
        },
        {
          "anonymous": false,
          "inputs": [
            {
              "indexed": false,
              "internalType": "address",
              "name": "sellerAddress",
              "type": "address"
            },
            {
              "indexed": false,
              "internalType": "uint256",
              "name": "amountOfTokens",
              "type": "uint256"
            },
            {
              "indexed": false,
              "internalType": "uint256",
              "name": "taxAmount",
              "type": "uint256"
            },
            {
              "indexed": false,
              "internalType": "uint256",
              "name": "timestamp",
              "type": "uint256"
            }
          ],
          "name": "SellTaxed",
          "type": "event"
        },
        {
          "anonymous": false,
          "inputs": [
            {
              "indexed": false,
              "internalType": "uint256",
              "name": "zeroedBuyTaxRate",
              "type": "uint256"
            },
            {
              "indexed": false,
              "internalType": "uint256",
              "name": "zeroedSellTaxRate",
              "type": "uint256"
            },
            {
              "indexed": false,
              "internalType": "uint256",
              "name": "timestamp",
              "type": "uint256"
            }
          ],
          "name": "TaxRatesSetToZero",
          "type": "event"
        },
        {
          "anonymous": false,
          "inputs": [
            {
              "indexed": true,
              "internalType": "address",
              "name": "from",
              "type": "address"
            },
            {
              "indexed": true,
              "internalType": "address",
              "name": "to",
              "type": "address"
            },
            {
              "indexed": false,
              "internalType": "uint256",
              "name": "value",
              "type": "uint256"
            }
          ],
          "name": "Transfer",
          "type": "event"
        },
        {
          "inputs": [],
          "name": "BURN_ADDRESS",
          "outputs": [
            {
              "internalType": "address",
              "name": "",
              "type": "address"
            }
          ],
          "stateMutability": "view",
          "type": "function"
        },
        {
          "inputs": [],
          "name": "TOKEN_NAME",
          "outputs": [
            {
              "internalType": "string",
              "name": "",
              "type": "string"
            }
          ],
          "stateMutability": "view",
          "type": "function"
        },
        {
          "inputs": [],
          "name": "TOKEN_TICKER_SYMBOL",
          "outputs": [
            {
              "internalType": "string",
              "name": "",
              "type": "string"
            }
          ],
          "stateMutability": "view",
          "type": "function"
        },
        {
          "inputs": [
            {
              "internalType": "address",
              "name": "owner",
              "type": "address"
            },
            {
              "internalType": "address",
              "name": "spender",
              "type": "address"
            }
          ],
          "name": "allowance",
          "outputs": [
            {
              "internalType": "uint256",
              "name": "",
              "type": "uint256"
            }
          ],
          "stateMutability": "view",
          "type": "function"
        },
        {
          "inputs": [
            {
              "internalType": "address",
              "name": "spender",
              "type": "address"
            },
            {
              "internalType": "uint256",
              "name": "value",
              "type": "uint256"
            }
          ],
          "name": "approve",
          "outputs": [
            {
              "internalType": "bool",
              "name": "",
              "type": "bool"
            }
          ],
          "stateMutability": "nonpayable",
          "type": "function"
        },
        {
          "inputs": [
            {
              "internalType": "address",
              "name": "account",
              "type": "address"
            }
          ],
          "name": "balanceOf",
          "outputs": [
            {
              "internalType": "uint256",
              "name": "",
              "type": "uint256"
            }
          ],
          "stateMutability": "view",
          "type": "function"
        },
        {
          "inputs": [],
          "name": "buyTaxRate",
          "outputs": [
            {
              "internalType": "uint256",
              "name": "",
              "type": "uint256"
            }
          ],
          "stateMutability": "view",
          "type": "function"
        },
        {
          "inputs": [],
          "name": "cap",
          "outputs": [
            {
              "internalType": "uint256",
              "name": "",
              "type": "uint256"
            }
          ],
          "stateMutability": "view",
          "type": "function"
        },
        {
          "inputs": [],
          "name": "decimals",
          "outputs": [
            {
              "internalType": "uint8",
              "name": "",
              "type": "uint8"
            }
          ],
          "stateMutability": "view",
          "type": "function"
        },
        {
          "inputs": [],
          "name": "exchangeMultiSig1",
          "outputs": [
            {
              "internalType": "address",
              "name": "",
              "type": "address"
            }
          ],
          "stateMutability": "view",
          "type": "function"
        },
        {
          "inputs": [],
          "name": "exchangeMultiSig2",
          "outputs": [
            {
              "internalType": "address",
              "name": "",
              "type": "address"
            }
          ],
          "stateMutability": "view",
          "type": "function"
        },
        {
          "inputs": [
            {
              "internalType": "address",
              "name": "_uniswapV2Router",
              "type": "address"
            }
          ],
          "name": "initializeUniswapLiquidity",
          "outputs": [],
          "stateMutability": "payable",
          "type": "function"
        },
        {
          "inputs": [],
          "name": "marketingMultiSig",
          "outputs": [
            {
              "internalType": "address",
              "name": "",
              "type": "address"
            }
          ],
          "stateMutability": "view",
          "type": "function"
        },
        {
          "inputs": [
            {
              "internalType": "address",
              "name": "_uniswapV2PairAddress",
              "type": "address"
            }
          ],
          "name": "mintRemainingSupplyForManualLiquidityProvisioning",
          "outputs": [],
          "stateMutability": "nonpayable",
          "type": "function"
        },
        {
          "inputs": [],
          "name": "name",
          "outputs": [
            {
              "internalType": "string",
              "name": "",
              "type": "string"
            }
          ],
          "stateMutability": "view",
          "type": "function"
        },
        {
          "inputs": [],
          "name": "owner",
          "outputs": [
            {
              "internalType": "address",
              "name": "",
              "type": "address"
            }
          ],
          "stateMutability": "view",
          "type": "function"
        },
        {
          "inputs": [],
          "name": "renounceOwnership",
          "outputs": [],
          "stateMutability": "nonpayable",
          "type": "function"
        },
        {
          "inputs": [],
          "name": "sellTaxRate",
          "outputs": [
            {
              "internalType": "uint256",
              "name": "",
              "type": "uint256"
            }
          ],
          "stateMutability": "view",
          "type": "function"
        },
        {
          "inputs": [],
          "name": "setTaxRatesToZero",
          "outputs": [],
          "stateMutability": "nonpayable",
          "type": "function"
        },
        {
          "inputs": [],
          "name": "symbol",
          "outputs": [
            {
              "internalType": "string",
              "name": "",
              "type": "string"
            }
          ],
          "stateMutability": "view",
          "type": "function"
        },
        {
          "inputs": [],
          "name": "tokenState",
          "outputs": [
            {
              "internalType": "enum BasedWhale.TokenState",
              "name": "",
              "type": "uint8"
            }
          ],
          "stateMutability": "view",
          "type": "function"
        },
        {
          "inputs": [],
          "name": "totalSupply",
          "outputs": [
            {
              "internalType": "uint256",
              "name": "",
              "type": "uint256"
            }
          ],
          "stateMutability": "view",
          "type": "function"
        },
        {
          "inputs": [
            {
              "internalType": "address",
              "name": "to",
              "type": "address"
            },
            {
              "internalType": "uint256",
              "name": "value",
              "type": "uint256"
            }
          ],
          "name": "transfer",
          "outputs": [
            {
              "internalType": "bool",
              "name": "",
              "type": "bool"
            }
          ],
          "stateMutability": "nonpayable",
          "type": "function"
        },
        {
          "inputs": [
            {
              "internalType": "address",
              "name": "from",
              "type": "address"
            },
            {
              "internalType": "address",
              "name": "to",
              "type": "address"
            },
            {
              "internalType": "uint256",
              "name": "value",
              "type": "uint256"
            }
          ],
          "name": "transferFrom",
          "outputs": [
            {
              "internalType": "bool",
              "name": "",
              "type": "bool"
            }
          ],
          "stateMutability": "nonpayable",
          "type": "function"
        },
        {
          "inputs": [
            {
              "internalType": "address",
              "name": "newOwner",
              "type": "address"
            }
          ],
          "name": "transferOwnership",
          "outputs": [],
          "stateMutability": "nonpayable",
          "type": "function"
        },
        {
          "inputs": [],
          "name": "uniswapV2PairAddress",
          "outputs": [
            {
              "internalType": "address",
              "name": "",
              "type": "address"
            }
          ],
          "stateMutability": "view",
          "type": "function"
        },
        {
          "inputs": [],
          "name": "uniswapV2Router",
          "outputs": [
            {
              "internalType": "contract IUniswapV2Router02",
              "name": "",
              "type": "address"
            }
          ],
          "stateMutability": "view",
          "type": "function"
        },
        {
          "stateMutability": "payable",
          "type": "receive"
        }
      ],
      "evm": {
        "bytecode": {
          "linkReferences": {},
          "object": "60a0604052606460095561012c600a553480156200001c57600080fd5b5060405162003b3538038062003b35833981810160405281019062000042919062000bb9565b83620000536200043060201b60201c565b60ff16600a62000064919062000dc4565b8662000071919062000e15565b6040518060400160405280600b81526020017f4261736564205768616c650000000000000000000000000000000000000000008152506040518060400160405280600581526020017f5748414c450000000000000000000000000000000000000000000000000000008152508160039081620000ee9190620010d0565b508060049081620001009190620010d0565b505050600081036200014c5760006040517f392e1e27000000000000000000000000000000000000000000000000000000008152600401620001439190620011fa565b60405180910390fd5b806080818152505050600073ffffffffffffffffffffffffffffffffffffffff168173ffffffffffffffffffffffffffffffffffffffff1603620001ca5760006040517f1e4fbdf7000000000000000000000000000000000000000000000000000000008152600401620001c1919062001228565b60405180910390fd5b620001db816200043960201b60201c565b5082600660006101000a81548173ffffffffffffffffffffffffffffffffffffffff021916908373ffffffffffffffffffffffffffffffffffffffff16021790555081600760006101000a81548173ffffffffffffffffffffffffffffffffffffffff021916908373ffffffffffffffffffffffffffffffffffffffff16021790555080600860006101000a81548173ffffffffffffffffffffffffffffffffffffffff021916908373ffffffffffffffffffffffffffffffffffffffff160217905550620002fe600660009054906101000a900473ffffffffffffffffffffffffffffffffffffffff1660646005620002da620004ff60201b60201c565b620002e6919062000e15565b620002f2919062001274565b6200050960201b60201c565b6200035d600760009054906101000a900473ffffffffffffffffffffffffffffffffffffffff166064600562000339620004ff60201b60201c565b62000345919062000e15565b62000351919062001274565b6200050960201b60201c565b620003bc600860009054906101000a900473ffffffffffffffffffffffffffffffffffffffff166064600562000398620004ff60201b60201c565b620003a4919062000e15565b620003b0919062001274565b6200050960201b60201c565b7f8ad1ba2dbd33c6313fa50cd4016351a36437d7dcd0e0800a3a0b191d22095d933342604051620003ef929190620012bd565b60405180910390a16001600560146101000a81548160ff0219169083600481111562000420576200041f620012ea565b5b0217905550505050505062001463565b60006012905090565b6000600560009054906101000a900473ffffffffffffffffffffffffffffffffffffffff16905081600560006101000a81548173ffffffffffffffffffffffffffffffffffffffff021916908373ffffffffffffffffffffffffffffffffffffffff1602179055508173ffffffffffffffffffffffffffffffffffffffff168173ffffffffffffffffffffffffffffffffffffffff167f8be0079c531659141344cd1fd0a4f28419497f9722a3daafe3b4186f6b6457e060405160405180910390a35050565b6000608051905090565b600073ffffffffffffffffffffffffffffffffffffffff168273ffffffffffffffffffffffffffffffffffffffff16036200057e5760006040517fec442f0500000000000000000000000000000000000000000000000000000000815260040162000575919062001228565b60405180910390fd5b62000592600083836200059660201b60201c565b5050565b60026004811115620005ad57620005ac620012ea565b5b600560149054906101000a900460ff166004811115620005d257620005d1620012ea565b5b14158062000619575060036004811115620005f257620005f1620012ea565b5b600560149054906101000a900460ff166004811115620006175762000616620012ea565b5b145b156200063857620006328383836200081860201b60201c565b62000813565b6000600b60009054906101000a900473ffffffffffffffffffffffffffffffffffffffff1673ffffffffffffffffffffffffffffffffffffffff168373ffffffffffffffffffffffffffffffffffffffff1603620006f6576103e8600a5483620006a3919062000e15565b620006af919062001274565b90507f4021301da943ce70706f02c0638c48f65e27cd0642ffd0550536995af05e70cc84838342604051620006e8949392919062001319565b60405180910390a1620007ae565b600b60009054906101000a900473ffffffffffffffffffffffffffffffffffffffff1673ffffffffffffffffffffffffffffffffffffffff168473ffffffffffffffffffffffffffffffffffffffff1603620007ad576103e8600954836200075f919062000e15565b6200076b919062001274565b90507f4cb653ef0afb6a8ec8b4b9286771cadc8e586225744651cd05b4b475ab88127283838342604051620007a4949392919062001319565b60405180910390a15b5b6000811115620007fe57620007ed84600660009054906101000a900473ffffffffffffffffffffffffffffffffffffffff16836200081860201b60201c565b8082620007fb919062001366565b91505b620008118484846200081860201b60201c565b505b505050565b6200082b838383620008da60201b60201c565b600073ffffffffffffffffffffffffffffffffffffffff168373ffffffffffffffffffffffffffffffffffffffff1603620008d557600062000872620004ff60201b60201c565b905060006200088662000b0a60201b60201c565b905081811115620008d25780826040517f9e79f854000000000000000000000000000000000000000000000000000000008152600401620008c9929190620013a1565b60405180910390fd5b50505b505050565b600073ffffffffffffffffffffffffffffffffffffffff168373ffffffffffffffffffffffffffffffffffffffff160362000930578060026000828254620009239190620013ce565b9250508190555062000a06565b60008060008573ffffffffffffffffffffffffffffffffffffffff1673ffffffffffffffffffffffffffffffffffffffff16815260200190815260200160002054905081811015620009bf578381836040517fe450d38c000000000000000000000000000000000000000000000000000000008152600401620009b69392919062001409565b60405180910390fd5b8181036000808673ffffffffffffffffffffffffffffffffffffffff1673ffffffffffffffffffffffffffffffffffffffff16815260200190815260200160002081905550505b600073ffffffffffffffffffffffffffffffffffffffff168273ffffffffffffffffffffffffffffffffffffffff160362000a51578060026000828254039250508190555062000a9e565b806000808473ffffffffffffffffffffffffffffffffffffffff1673ffffffffffffffffffffffffffffffffffffffff168152602001908152602001600020600082825401925050819055505b8173ffffffffffffffffffffffffffffffffffffffff168373ffffffffffffffffffffffffffffffffffffffff167fddf252ad1be2c89b69c2b068fc378daa952ba7f163c4a11628f55a4df523b3ef8360405162000afd919062001446565b60405180910390a3505050565b6000600254905090565b600080fd5b6000819050919050565b62000b2e8162000b19565b811462000b3a57600080fd5b50565b60008151905062000b4e8162000b23565b92915050565b600073ffffffffffffffffffffffffffffffffffffffff82169050919050565b600062000b818262000b54565b9050919050565b62000b938162000b74565b811462000b9f57600080fd5b50565b60008151905062000bb38162000b88565b92915050565b600080600080600060a0868803121562000bd85762000bd762000b14565b5b600062000be88882890162000b3d565b955050602062000bfb8882890162000ba2565b945050604062000c0e8882890162000ba2565b935050606062000c218882890162000ba2565b925050608062000c348882890162000ba2565b9150509295509295909350565b7f4e487b7100000000000000000000000000000000000000000000000000000000600052601160045260246000fd5b60008160011c9050919050565b6000808291508390505b600185111562000ccf5780860481111562000ca75762000ca662000c41565b5b600185161562000cb75780820291505b808102905062000cc78562000c70565b945062000c87565b94509492505050565b60008262000cea576001905062000dbd565b8162000cfa576000905062000dbd565b816001811462000d13576002811462000d1e5762000d54565b600191505062000dbd565b60ff84111562000d335762000d3262000c41565b5b8360020a91508482111562000d4d5762000d4c62000c41565b5b5062000dbd565b5060208310610133831016604e8410600b841016171562000d8e5782820a90508381111562000d885762000d8762000c41565b5b62000dbd565b62000d9d848484600162000c7d565b9250905081840481111562000db75762000db662000c41565b5b81810290505b9392505050565b600062000dd18262000b19565b915062000dde8362000b19565b925062000e0d7fffffffffffffffffffffffffffffffffffffffffffffffffffffffffffffffff848462000cd8565b905092915050565b600062000e228262000b19565b915062000e2f8362000b19565b925082820262000e3f8162000b19565b9150828204841483151762000e595762000e5862000c41565b5b5092915050565b600081519050919050565b7f4e487b7100000000000000000000000000000000000000000000000000000000600052604160045260246000fd5b7f4e487b7100000000000000000000000000000000000000000000000000000000600052602260045260246000fd5b6000600282049050600182168062000ee257607f821691505b60208210810362000ef85762000ef762000e9a565b5b50919050565b60008190508160005260206000209050919050565b60006020601f8301049050919050565b600082821b905092915050565b60006008830262000f627fffffffffffffffffffffffffffffffffffffffffffffffffffffffffffffffff8262000f23565b62000f6e868362000f23565b95508019841693508086168417925050509392505050565b6000819050919050565b600062000fb162000fab62000fa58462000b19565b62000f86565b62000b19565b9050919050565b6000819050919050565b62000fcd8362000f90565b62000fe562000fdc8262000fb8565b84845462000f30565b825550505050565b600090565b62000ffc62000fed565b6200100981848462000fc2565b505050565b5b8181101562001031576200102560008262000ff2565b6001810190506200100f565b5050565b601f82111562001080576200104a8162000efe565b620010558462000f13565b8101602085101562001065578190505b6200107d620010748562000f13565b8301826200100e565b50505b505050565b600082821c905092915050565b6000620010a56000198460080262001085565b1980831691505092915050565b6000620010c0838362001092565b9150826002028217905092915050565b620010db8262000e60565b67ffffffffffffffff811115620010f757620010f662000e6b565b5b62001103825462000ec9565b6200111082828562001035565b600060209050601f83116001811462001148576000841562001133578287015190505b6200113f8582620010b2565b865550620011af565b601f198416620011588662000efe565b60005b8281101562001182578489015182556001820191506020850194506020810190506200115b565b86831015620011a257848901516200119e601f89168262001092565b8355505b6001600288020188555050505b505050505050565b6000819050919050565b6000620011e2620011dc620011d684620011b7565b62000f86565b62000b19565b9050919050565b620011f481620011c1565b82525050565b6000602082019050620012116000830184620011e9565b92915050565b620012228162000b74565b82525050565b60006020820190506200123f600083018462001217565b92915050565b7f4e487b7100000000000000000000000000000000000000000000000000000000600052601260045260246000fd5b6000620012818262000b19565b91506200128e8362000b19565b925082620012a157620012a062001245565b5b828204905092915050565b620012b78162000b19565b82525050565b6000604082019050620012d4600083018562001217565b620012e36020830184620012ac565b9392505050565b7f4e487b7100000000000000000000000000000000000000000000000000000000600052602160045260246000fd5b600060808201905062001330600083018762001217565b6200133f6020830186620012ac565b6200134e6040830185620012ac565b6200135d6060830184620012ac565b95945050505050565b6000620013738262000b19565b9150620013808362000b19565b92508282039050818111156200139b576200139a62000c41565b5b92915050565b6000604082019050620013b86000830185620012ac565b620013c76020830184620012ac565b9392505050565b6000620013db8262000b19565b9150620013e88362000b19565b925082820190508082111562001403576200140262000c41565b5b92915050565b600060608201905062001420600083018662001217565b6200142f6020830185620012ac565b6200143e6040830184620012ac565b949350505050565b60006020820190506200145d6000830184620012ac565b92915050565b6080516126b66200147f60003960006108f201526126b66000f3fe6080604052600436106101a05760003560e01c80635ecf7a67116100ec57806395d89b411161008a578063e90dd9e211610064578063e90dd9e2146105be578063eaff1cbc146105e9578063f2fde38b14610600578063fccc281314610629576101a7565b806395d89b4114610519578063a9059cbb14610544578063dd62ed3e14610581576101a7565b806370a08231116100c657806370a082311461046f578063715018a6146104ac57806385df1d1c146104c35780638da5cb5b146104ee576101a7565b80635ecf7a67146103fd57806363cae94f14610419578063691f224f14610444576101a7565b806323b872dd11610159578063313ce56711610133578063313ce56714610351578063355274ea1461037c5780635265ee55146103a757806352cd2388146103d2576101a7565b806323b872dd146102be57806324024efd146102fb5780632b653d4414610326576101a7565b806306fdde03146101ac578063095ea7b3146101d75780630f84acec146102145780631694505e1461023d57806318160ddd146102685780631882140014610293576101a7565b366101a757005b600080fd5b3480156101b857600080fd5b506101c1610654565b6040516101ce9190611dcb565b60405180910390f35b3480156101e357600080fd5b506101fe60048036038101906101f99190611e86565b6106e6565b60405161020b9190611ee1565b60405180910390f35b34801561022057600080fd5b5061023b60048036038101906102369190611efc565b610709565b005b34801561024957600080fd5b50610252610821565b60405161025f9190611f88565b60405180910390f35b34801561027457600080fd5b5061027d610847565b60405161028a9190611fb2565b60405180910390f35b34801561029f57600080fd5b506102a8610851565b6040516102b59190611dcb565b60405180910390f35b3480156102ca57600080fd5b506102e560048036038101906102e09190611fcd565b61088a565b6040516102f29190611ee1565b60405180910390f35b34801561030757600080fd5b506103106108b9565b60405161031d9190611fb2565b60405180910390f35b34801561033257600080fd5b5061033b6108bf565b604051610348919061202f565b60405180910390f35b34801561035d57600080fd5b506103666108e5565b6040516103739190612066565b60405180910390f35b34801561038857600080fd5b506103916108ee565b60405161039e9190611fb2565b60405180910390f35b3480156103b357600080fd5b506103bc610916565b6040516103c99190611dcb565b60405180910390f35b3480156103de57600080fd5b506103e761094f565b6040516103f4919061202f565b60405180910390f35b61041760048036038101906104129190611efc565b610975565b005b34801561042557600080fd5b5061042e610e3a565b60405161043b919061202f565b60405180910390f35b34801561045057600080fd5b50610459610e60565b6040516104669190611fb2565b60405180910390f35b34801561047b57600080fd5b5061049660048036038101906104919190611efc565b610e66565b6040516104a39190611fb2565b60405180910390f35b3480156104b857600080fd5b506104c1610eae565b005b3480156104cf57600080fd5b506104d8610fa5565b6040516104e5919061202f565b60405180910390f35b3480156104fa57600080fd5b50610503610fcb565b604051610510919061202f565b60405180910390f35b34801561052557600080fd5b5061052e610ff5565b60405161053b9190611dcb565b60405180910390f35b34801561055057600080fd5b5061056b60048036038101906105669190611e86565b611087565b6040516105789190611ee1565b60405180910390f35b34801561058d57600080fd5b506105a860048036038101906105a39190612081565b6110aa565b6040516105b59190611fb2565b60405180910390f35b3480156105ca57600080fd5b506105d3611131565b6040516105e09190612138565b60405180910390f35b3480156105f557600080fd5b506105fe611144565b005b34801561060c57600080fd5b5061062760048036038101906106229190611efc565b611240565b005b34801561063557600080fd5b5061063e6112c6565b60405161064b919061202f565b60405180910390f35b60606003805461066390612182565b80601f016020809104026020016040519081016040528092919081815260200182805461068f90612182565b80156106dc5780601f106106b1576101008083540402835291602001916106dc565b820191906000526020600020905b8154815290600101906020018083116106bf57829003601f168201915b5050505050905090565b6000806106f16112cb565b90506106fe8185856112d3565b600191505092915050565b6107116112e5565b6001806004811115610726576107256120c1565b5b600560149054906101000a900460ff166004811115610748576107476120c1565b5b14610788576040517f08c379a000000000000000000000000000000000000000000000000000000000815260040161077f90612225565b60405180910390fd5b81600b60006101000a81548173ffffffffffffffffffffffffffffffffffffffff021916908373ffffffffffffffffffffffffffffffffffffffff16021790555060006107d3610847565b6107db6108ee565b6107e59190612274565b90506107f1338261136c565b6002600560146101000a81548160ff02191690836004811115610817576108166120c1565b5b0217905550505050565b600c60009054906101000a900473ffffffffffffffffffffffffffffffffffffffff1681565b6000600254905090565b6040518060400160405280600b81526020017f4261736564205768616c6500000000000000000000000000000000000000000081525081565b6000806108956112cb565b90506108a28582856113ee565b6108ad858585611482565b60019150509392505050565b600a5481565b600b60009054906101000a900473ffffffffffffffffffffffffffffffffffffffff1681565b60006012905090565b60007f0000000000000000000000000000000000000000000000000000000000000000905090565b6040518060400160405280600581526020017f5748414c4500000000000000000000000000000000000000000000000000000081525081565b600860009054906101000a900473ffffffffffffffffffffffffffffffffffffffff1681565b61097d6112e5565b6001806004811115610992576109916120c1565b5b600560149054906101000a900460ff1660048111156109b4576109b36120c1565b5b146109f4576040517f08c379a00000000000000000000000000000000000000000000000000000000081526004016109eb90612225565b60405180910390fd5b81600c60006101000a81548173ffffffffffffffffffffffffffffffffffffffff021916908373ffffffffffffffffffffffffffffffffffffffff160217905550600c60009054906101000a900473ffffffffffffffffffffffffffffffffffffffff1673ffffffffffffffffffffffffffffffffffffffff1663c45a01556040518163ffffffff1660e01b8152600401602060405180830381865afa158015610aa2573d6000803e3d6000fd5b505050506040513d601f19601f82011682018060405250810190610ac691906122bd565b73ffffffffffffffffffffffffffffffffffffffff1663c9c6539630600c60009054906101000a900473ffffffffffffffffffffffffffffffffffffffff1673ffffffffffffffffffffffffffffffffffffffff1663ad5c46486040518163ffffffff1660e01b8152600401602060405180830381865afa158015610b4f573d6000803e3d6000fd5b505050506040513d601f19601f82011682018060405250810190610b7391906122bd565b6040518363ffffffff1660e01b8152600401610b909291906122ea565b6020604051808303816000875af1158015610baf573d6000803e3d6000fd5b505050506040513d601f19601f82011682018060405250810190610bd391906122bd565b600b60006101000a81548173ffffffffffffffffffffffffffffffffffffffff021916908373ffffffffffffffffffffffffffffffffffffffff160217905550600060646055610c216108ee565b610c2b9190612313565b610c359190612384565b9050610c41308261136c565b610c4c3084836112d3565b6000429050600080600c60009054906101000a900473ffffffffffffffffffffffffffffffffffffffff1673ffffffffffffffffffffffffffffffffffffffff1663f305d71934308760008060008a6040518863ffffffff1660e01b8152600401610cbc969594939291906123f0565b60606040518083038185885af1158015610cda573d6000803e3d6000fd5b50505050506040513d601f19601f82011682018060405250810190610cff9190612466565b50915091506000600b60009054906101000a900473ffffffffffffffffffffffffffffffffffffffff1690507ff07f8699eb5a7d3c6903aba7ffc0b932e8e123129924f6aa4e3e95b04ba25179600b60009054906101000a900473ffffffffffffffffffffffffffffffffffffffff1684848473ffffffffffffffffffffffffffffffffffffffff166370a0823160006040518263ffffffff1660e01b8152600401610dab919061202f565b602060405180830381865afa158015610dc8573d6000803e3d6000fd5b505050506040513d601f19601f82011682018060405250810190610dec91906124b9565b88604051610dfe9594939291906124e6565b60405180910390a16002600560146101000a81548160ff02191690836004811115610e2c57610e2b6120c1565b5b021790555050505050505050565b600660009054906101000a900473ffffffffffffffffffffffffffffffffffffffff1681565b60095481565b60008060008373ffffffffffffffffffffffffffffffffffffffff1673ffffffffffffffffffffffffffffffffffffffff168152602001908152602001600020549050919050565b610eb66112e5565b6003806004811115610ecb57610eca6120c1565b5b600560149054906101000a900460ff166004811115610eed57610eec6120c1565b5b14610f2d576040517f08c379a0000000000000000000000000000000000000000000000000000000008152600401610f2490612225565b60405180910390fd5b7fbc3fa950185893c8ddfff1dafec540ffc8d7e576295fea983a515e9a8e03acd733610f57610fcb565b42604051610f6793929190612539565b60405180910390a16004600560146101000a81548160ff02191690836004811115610f9557610f946120c1565b5b0217905550610fa2611576565b50565b600760009054906101000a900473ffffffffffffffffffffffffffffffffffffffff1681565b6000600560009054906101000a900473ffffffffffffffffffffffffffffffffffffffff16905090565b60606004805461100490612182565b80601f016020809104026020016040519081016040528092919081815260200182805461103090612182565b801561107d5780601f106110525761010080835404028352916020019161107d565b820191906000526020600020905b81548152906001019060200180831161106057829003601f168201915b5050505050905090565b6000806110926112cb565b905061109f818585611482565b600191505092915050565b6000600160008473ffffffffffffffffffffffffffffffffffffffff1673ffffffffffffffffffffffffffffffffffffffff16815260200190815260200160002060008373ffffffffffffffffffffffffffffffffffffffff1673ffffffffffffffffffffffffffffffffffffffff16815260200190815260200160002054905092915050565b600560149054906101000a900460ff1681565b61114c6112e5565b6002806004811115611161576111606120c1565b5b600560149054906101000a900460ff166004811115611183576111826120c1565b5b146111c3576040517f08c379a00000000000000000000000000000000000000000000000000000000081526004016111ba90612225565b60405180910390fd5b60006009819055506000600a819055507fc4c7c69f1eeef4dcf5449fcee968e149b2646d141f0d9bb3d1de12de99d77f7e600954600a544260405161120a93929190612570565b60405180910390a16003600560146101000a81548160ff02191690836004811115611238576112376120c1565b5b021790555050565b6112486112e5565b600073ffffffffffffffffffffffffffffffffffffffff168173ffffffffffffffffffffffffffffffffffffffff16036112ba5760006040517f1e4fbdf70000000000000000000000000000000000000000000000000000000081526004016112b1919061202f565b60405180910390fd5b6112c38161158a565b50565b600081565b600033905090565b6112e08383836001611650565b505050565b6112ed6112cb565b73ffffffffffffffffffffffffffffffffffffffff1661130b610fcb565b73ffffffffffffffffffffffffffffffffffffffff161461136a5761132e6112cb565b6040517f118cdaa7000000000000000000000000000000000000000000000000000000008152600401611361919061202f565b60405180910390fd5b565b600073ffffffffffffffffffffffffffffffffffffffff168273ffffffffffffffffffffffffffffffffffffffff16036113de5760006040517fec442f050000000000000000000000000000000000000000000000000000000081526004016113d5919061202f565b60405180910390fd5b6113ea60008383611827565b5050565b60006113fa84846110aa565b90507fffffffffffffffffffffffffffffffffffffffffffffffffffffffffffffffff811461147c578181101561146c578281836040517ffb8f41b2000000000000000000000000000000000000000000000000000000008152600401611463939291906125a7565b60405180910390fd5b61147b84848484036000611650565b5b50505050565b600073ffffffffffffffffffffffffffffffffffffffff168373ffffffffffffffffffffffffffffffffffffffff16036114f45760006040517f96c6fd1e0000000000000000000000000000000000000000000000000000000081526004016114eb919061202f565b60405180910390fd5b600073ffffffffffffffffffffffffffffffffffffffff168273ffffffffffffffffffffffffffffffffffffffff16036115665760006040517fec442f0500000000000000000000000000000000000000000000000000000000815260040161155d919061202f565b60405180910390fd5b611571838383611827565b505050565b61157e6112e5565b611588600061158a565b565b6000600560009054906101000a900473ffffffffffffffffffffffffffffffffffffffff16905081600560006101000a81548173ffffffffffffffffffffffffffffffffffffffff021916908373ffffffffffffffffffffffffffffffffffffffff1602179055508173ffffffffffffffffffffffffffffffffffffffff168173ffffffffffffffffffffffffffffffffffffffff167f8be0079c531659141344cd1fd0a4f28419497f9722a3daafe3b4186f6b6457e060405160405180910390a35050565b600073ffffffffffffffffffffffffffffffffffffffff168473ffffffffffffffffffffffffffffffffffffffff16036116c25760006040517fe602df050000000000000000000000000000000000000000000000000000000081526004016116b9919061202f565b60405180910390fd5b600073ffffffffffffffffffffffffffffffffffffffff168373ffffffffffffffffffffffffffffffffffffffff16036117345760006040517f94280d6200000000000000000000000000000000000000000000000000000000815260040161172b919061202f565b60405180910390fd5b81600160008673ffffffffffffffffffffffffffffffffffffffff1673ffffffffffffffffffffffffffffffffffffffff16815260200190815260200160002060008573ffffffffffffffffffffffffffffffffffffffff1673ffffffffffffffffffffffffffffffffffffffff168152602001908152602001600020819055508015611821578273ffffffffffffffffffffffffffffffffffffffff168473ffffffffffffffffffffffffffffffffffffffff167f8c5be1e5ebec7d5bd14f71427d1e84f3dd0314c0f7b2291e5b200ac8c7c3b925846040516118189190611fb2565b60405180910390a35b50505050565b6002600481111561183b5761183a6120c1565b5b600560149054906101000a900460ff16600481111561185d5761185c6120c1565b5b14158061189d575060036004811115611879576118786120c1565b5b600560149054906101000a900460ff16600481111561189b5761189a6120c1565b5b145b156118b2576118ad838383611a70565b611a6b565b6000600b60009054906101000a900473ffffffffffffffffffffffffffffffffffffffff1673ffffffffffffffffffffffffffffffffffffffff168373ffffffffffffffffffffffffffffffffffffffff1603611968576103e8600a548361191a9190612313565b6119249190612384565b90507f4021301da943ce70706f02c0638c48f65e27cd0642ffd0550536995af05e70cc8483834260405161195b94939291906125de565b60405180910390a1611a19565b600b60009054906101000a900473ffffffffffffffffffffffffffffffffffffffff1673ffffffffffffffffffffffffffffffffffffffff168473ffffffffffffffffffffffffffffffffffffffff1603611a18576103e8600954836119ce9190612313565b6119d89190612384565b90507f4cb653ef0afb6a8ec8b4b9286771cadc8e586225744651cd05b4b475ab88127283838342604051611a0f94939291906125de565b60405180910390a15b5b6000811115611a5e57611a4f84600660009054906101000a900473ffffffffffffffffffffffffffffffffffffffff1683611a70565b8082611a5b9190612274565b91505b611a69848484611a70565b505b505050565b611a7b838383611b16565b600073ffffffffffffffffffffffffffffffffffffffff168373ffffffffffffffffffffffffffffffffffffffff1603611b11576000611ab96108ee565b90506000611ac5610847565b905081811115611b0e5780826040517f9e79f854000000000000000000000000000000000000000000000000000000008152600401611b05929190612623565b60405180910390fd5b50505b505050565b600073ffffffffffffffffffffffffffffffffffffffff168373ffffffffffffffffffffffffffffffffffffffff1603611b68578060026000828254611b5c919061264c565b92505081905550611c3b565b60008060008573ffffffffffffffffffffffffffffffffffffffff1673ffffffffffffffffffffffffffffffffffffffff16815260200190815260200160002054905081811015611bf4578381836040517fe450d38c000000000000000000000000000000000000000000000000000000008152600401611beb939291906125a7565b60405180910390fd5b8181036000808673ffffffffffffffffffffffffffffffffffffffff1673ffffffffffffffffffffffffffffffffffffffff16815260200190815260200160002081905550505b600073ffffffffffffffffffffffffffffffffffffffff168273ffffffffffffffffffffffffffffffffffffffff1603611c845780600260008282540392505081905550611cd1565b806000808473ffffffffffffffffffffffffffffffffffffffff1673ffffffffffffffffffffffffffffffffffffffff168152602001908152602001600020600082825401925050819055505b8173ffffffffffffffffffffffffffffffffffffffff168373ffffffffffffffffffffffffffffffffffffffff167fddf252ad1be2c89b69c2b068fc378daa952ba7f163c4a11628f55a4df523b3ef83604051611d2e9190611fb2565b60405180910390a3505050565b600081519050919050565b600082825260208201905092915050565b60005b83811015611d75578082015181840152602081019050611d5a565b60008484015250505050565b6000601f19601f8301169050919050565b6000611d9d82611d3b565b611da78185611d46565b9350611db7818560208601611d57565b611dc081611d81565b840191505092915050565b60006020820190508181036000830152611de58184611d92565b905092915050565b600080fd5b600073ffffffffffffffffffffffffffffffffffffffff82169050919050565b6000611e1d82611df2565b9050919050565b611e2d81611e12565b8114611e3857600080fd5b50565b600081359050611e4a81611e24565b92915050565b6000819050919050565b611e6381611e50565b8114611e6e57600080fd5b50565b600081359050611e8081611e5a565b92915050565b60008060408385031215611e9d57611e9c611ded565b5b6000611eab85828601611e3b565b9250506020611ebc85828601611e71565b9150509250929050565b60008115159050919050565b611edb81611ec6565b82525050565b6000602082019050611ef66000830184611ed2565b92915050565b600060208284031215611f1257611f11611ded565b5b6000611f2084828501611e3b565b91505092915050565b6000819050919050565b6000611f4e611f49611f4484611df2565b611f29565b611df2565b9050919050565b6000611f6082611f33565b9050919050565b6000611f7282611f55565b9050919050565b611f8281611f67565b82525050565b6000602082019050611f9d6000830184611f79565b92915050565b611fac81611e50565b82525050565b6000602082019050611fc76000830184611fa3565b92915050565b600080600060608486031215611fe657611fe5611ded565b5b6000611ff486828701611e3b565b935050602061200586828701611e3b565b925050604061201686828701611e71565b9150509250925092565b61202981611e12565b82525050565b60006020820190506120446000830184612020565b92915050565b600060ff82169050919050565b6120608161204a565b82525050565b600060208201905061207b6000830184612057565b92915050565b6000806040838503121561209857612097611ded565b5b60006120a685828601611e3b565b92505060206120b785828601611e3b565b9150509250929050565b7f4e487b7100000000000000000000000000000000000000000000000000000000600052602160045260246000fd5b60058110612101576121006120c1565b5b50565b6000819050612112826120f0565b919050565b600061212282612104565b9050919050565b61213281612117565b82525050565b600060208201905061214d6000830184612129565b92915050565b7f4e487b7100000000000000000000000000000000000000000000000000000000600052602260045260246000fd5b6000600282049050600182168061219a57607f821691505b6020821081036121ad576121ac612153565b5b50919050565b7f46756e6374696f6e2063616e6e6f742062652063616c6c656420696e2074686960008201527f7320737461746500000000000000000000000000000000000000000000000000602082015250565b600061220f602783611d46565b915061221a826121b3565b604082019050919050565b6000602082019050818103600083015261223e81612202565b9050919050565b7f4e487b7100000000000000000000000000000000000000000000000000000000600052601160045260246000fd5b600061227f82611e50565b915061228a83611e50565b92508282039050818111156122a2576122a1612245565b5b92915050565b6000815190506122b781611e24565b92915050565b6000602082840312156122d3576122d2611ded565b5b60006122e1848285016122a8565b91505092915050565b60006040820190506122ff6000830185612020565b61230c6020830184612020565b9392505050565b600061231e82611e50565b915061232983611e50565b925082820261233781611e50565b9150828204841483151761234e5761234d612245565b5b5092915050565b7f4e487b7100000000000000000000000000000000000000000000000000000000600052601260045260246000fd5b600061238f82611e50565b915061239a83611e50565b9250826123aa576123a9612355565b5b828204905092915050565b6000819050919050565b60006123da6123d56123d0846123b5565b611f29565b611e50565b9050919050565b6123ea816123bf565b82525050565b600060c0820190506124056000830189612020565b6124126020830188611fa3565b61241f60408301876123e1565b61242c60608301866123e1565b6124396080830185612020565b61244660a0830184611fa3565b979650505050505050565b60008151905061246081611e5a565b92915050565b60008060006060848603121561247f5761247e611ded565b5b600061248d86828701612451565b935050602061249e86828701612451565b92505060406124af86828701612451565b9150509250925092565b6000602082840312156124cf576124ce611ded565b5b60006124dd84828501612451565b91505092915050565b600060a0820190506124fb6000830188612020565b6125086020830187611fa3565b6125156040830186611fa3565b6125226060830185611fa3565b61252f6080830184611fa3565b9695505050505050565b600060608201905061254e6000830186612020565b61255b6020830185612020565b6125686040830184611fa3565b949350505050565b60006060820190506125856000830186611fa3565b6125926020830185611fa3565b61259f6040830184611fa3565b949350505050565b60006060820190506125bc6000830186612020565b6125c96020830185611fa3565b6125d66040830184611fa3565b949350505050565b60006080820190506125f36000830187612020565b6126006020830186611fa3565b61260d6040830185611fa3565b61261a6060830184611fa3565b95945050505050565b60006040820190506126386000830185611fa3565b6126456020830184611fa3565b9392505050565b600061265782611e50565b915061266283611e50565b925082820190508082111561267a57612679612245565b5b9291505056fea26469706673582212203d3096f2c91bffa4b29918e238ca52a8f6c9de5d9cd6f8a5f02fef2b1fc5109564736f6c63430008180033",
          "opcodes": "PUSH1 0xA0 PUSH1 0x40 MSTORE PUSH1 0x64 PUSH1 0x9 SSTORE PUSH2 0x12C PUSH1 0xA SSTORE CALLVALUE DUP1 ISZERO PUSH3 0x1C JUMPI PUSH1 0x0 DUP1 REVERT JUMPDEST POP PUSH1 0x40 MLOAD PUSH3 0x3B35 CODESIZE SUB DUP1 PUSH3 0x3B35 DUP4 CODECOPY DUP2 DUP2 ADD PUSH1 0x40 MSTORE DUP2 ADD SWAP1 PUSH3 0x42 SWAP2 SWAP1 PUSH3 0xBB9 JUMP JUMPDEST DUP4 PUSH3 0x53 PUSH3 0x430 PUSH1 0x20 SHL PUSH1 0x20 SHR JUMP JUMPDEST PUSH1 0xFF AND PUSH1 0xA PUSH3 0x64 SWAP2 SWAP1 PUSH3 0xDC4 JUMP JUMPDEST DUP7 PUSH3 0x71 SWAP2 SWAP1 PUSH3 0xE15 JUMP JUMPDEST PUSH1 0x40 MLOAD DUP1 PUSH1 0x40 ADD PUSH1 0x40 MSTORE DUP1 PUSH1 0xB DUP2 MSTORE PUSH1 0x20 ADD PUSH32 0x4261736564205768616C65000000000000000000000000000000000000000000 DUP2 MSTORE POP PUSH1 0x40 MLOAD DUP1 PUSH1 0x40 ADD PUSH1 0x40 MSTORE DUP1 PUSH1 0x5 DUP2 MSTORE PUSH1 0x20 ADD PUSH32 0x5748414C45000000000000000000000000000000000000000000000000000000 DUP2 MSTORE POP DUP2 PUSH1 0x3 SWAP1 DUP2 PUSH3 0xEE SWAP2 SWAP1 PUSH3 0x10D0 JUMP JUMPDEST POP DUP1 PUSH1 0x4 SWAP1 DUP2 PUSH3 0x100 SWAP2 SWAP1 PUSH3 0x10D0 JUMP JUMPDEST POP POP POP PUSH1 0x0 DUP2 SUB PUSH3 0x14C JUMPI PUSH1 0x0 PUSH1 0x40 MLOAD PUSH32 0x392E1E2700000000000000000000000000000000000000000000000000000000 DUP2 MSTORE PUSH1 0x4 ADD PUSH3 0x143 SWAP2 SWAP1 PUSH3 0x11FA JUMP JUMPDEST PUSH1 0x40 MLOAD DUP1 SWAP2 SUB SWAP1 REVERT JUMPDEST DUP1 PUSH1 0x80 DUP2 DUP2 MSTORE POP POP POP PUSH1 0x0 PUSH20 0xFFFFFFFFFFFFFFFFFFFFFFFFFFFFFFFFFFFFFFFF AND DUP2 PUSH20 0xFFFFFFFFFFFFFFFFFFFFFFFFFFFFFFFFFFFFFFFF AND SUB PUSH3 0x1CA JUMPI PUSH1 0x0 PUSH1 0x40 MLOAD PUSH32 0x1E4FBDF700000000000000000000000000000000000000000000000000000000 DUP2 MSTORE PUSH1 0x4 ADD PUSH3 0x1C1 SWAP2 SWAP1 PUSH3 0x1228 JUMP JUMPDEST PUSH1 0x40 MLOAD DUP1 SWAP2 SUB SWAP1 REVERT JUMPDEST PUSH3 0x1DB DUP2 PUSH3 0x439 PUSH1 0x20 SHL PUSH1 0x20 SHR JUMP JUMPDEST POP DUP3 PUSH1 0x6 PUSH1 0x0 PUSH2 0x100 EXP DUP2 SLOAD DUP2 PUSH20 0xFFFFFFFFFFFFFFFFFFFFFFFFFFFFFFFFFFFFFFFF MUL NOT AND SWAP1 DUP4 PUSH20 0xFFFFFFFFFFFFFFFFFFFFFFFFFFFFFFFFFFFFFFFF AND MUL OR SWAP1 SSTORE POP DUP2 PUSH1 0x7 PUSH1 0x0 PUSH2 0x100 EXP DUP2 SLOAD DUP2 PUSH20 0xFFFFFFFFFFFFFFFFFFFFFFFFFFFFFFFFFFFFFFFF MUL NOT AND SWAP1 DUP4 PUSH20 0xFFFFFFFFFFFFFFFFFFFFFFFFFFFFFFFFFFFFFFFF AND MUL OR SWAP1 SSTORE POP DUP1 PUSH1 0x8 PUSH1 0x0 PUSH2 0x100 EXP DUP2 SLOAD DUP2 PUSH20 0xFFFFFFFFFFFFFFFFFFFFFFFFFFFFFFFFFFFFFFFF MUL NOT AND SWAP1 DUP4 PUSH20 0xFFFFFFFFFFFFFFFFFFFFFFFFFFFFFFFFFFFFFFFF AND MUL OR SWAP1 SSTORE POP PUSH3 0x2FE PUSH1 0x6 PUSH1 0x0 SWAP1 SLOAD SWAP1 PUSH2 0x100 EXP SWAP1 DIV PUSH20 0xFFFFFFFFFFFFFFFFFFFFFFFFFFFFFFFFFFFFFFFF AND PUSH1 0x64 PUSH1 0x5 PUSH3 0x2DA PUSH3 0x4FF PUSH1 0x20 SHL PUSH1 0x20 SHR JUMP JUMPDEST PUSH3 0x2E6 SWAP2 SWAP1 PUSH3 0xE15 JUMP JUMPDEST PUSH3 0x2F2 SWAP2 SWAP1 PUSH3 0x1274 JUMP JUMPDEST PUSH3 0x509 PUSH1 0x20 SHL PUSH1 0x20 SHR JUMP JUMPDEST PUSH3 0x35D PUSH1 0x7 PUSH1 0x0 SWAP1 SLOAD SWAP1 PUSH2 0x100 EXP SWAP1 DIV PUSH20 0xFFFFFFFFFFFFFFFFFFFFFFFFFFFFFFFFFFFFFFFF AND PUSH1 0x64 PUSH1 0x5 PUSH3 0x339 PUSH3 0x4FF PUSH1 0x20 SHL PUSH1 0x20 SHR JUMP JUMPDEST PUSH3 0x345 SWAP2 SWAP1 PUSH3 0xE15 JUMP JUMPDEST PUSH3 0x351 SWAP2 SWAP1 PUSH3 0x1274 JUMP JUMPDEST PUSH3 0x509 PUSH1 0x20 SHL PUSH1 0x20 SHR JUMP JUMPDEST PUSH3 0x3BC PUSH1 0x8 PUSH1 0x0 SWAP1 SLOAD SWAP1 PUSH2 0x100 EXP SWAP1 DIV PUSH20 0xFFFFFFFFFFFFFFFFFFFFFFFFFFFFFFFFFFFFFFFF AND PUSH1 0x64 PUSH1 0x5 PUSH3 0x398 PUSH3 0x4FF PUSH1 0x20 SHL PUSH1 0x20 SHR JUMP JUMPDEST PUSH3 0x3A4 SWAP2 SWAP1 PUSH3 0xE15 JUMP JUMPDEST PUSH3 0x3B0 SWAP2 SWAP1 PUSH3 0x1274 JUMP JUMPDEST PUSH3 0x509 PUSH1 0x20 SHL PUSH1 0x20 SHR JUMP JUMPDEST PUSH32 0x8AD1BA2DBD33C6313FA50CD4016351A36437D7DCD0E0800A3A0B191D22095D93 CALLER TIMESTAMP PUSH1 0x40 MLOAD PUSH3 0x3EF SWAP3 SWAP2 SWAP1 PUSH3 0x12BD JUMP JUMPDEST PUSH1 0x40 MLOAD DUP1 SWAP2 SUB SWAP1 LOG1 PUSH1 0x1 PUSH1 0x5 PUSH1 0x14 PUSH2 0x100 EXP DUP2 SLOAD DUP2 PUSH1 0xFF MUL NOT AND SWAP1 DUP4 PUSH1 0x4 DUP2 GT ISZERO PUSH3 0x420 JUMPI PUSH3 0x41F PUSH3 0x12EA JUMP JUMPDEST JUMPDEST MUL OR SWAP1 SSTORE POP POP POP POP POP POP PUSH3 0x1463 JUMP JUMPDEST PUSH1 0x0 PUSH1 0x12 SWAP1 POP SWAP1 JUMP JUMPDEST PUSH1 0x0 PUSH1 0x5 PUSH1 0x0 SWAP1 SLOAD SWAP1 PUSH2 0x100 EXP SWAP1 DIV PUSH20 0xFFFFFFFFFFFFFFFFFFFFFFFFFFFFFFFFFFFFFFFF AND SWAP1 POP DUP2 PUSH1 0x5 PUSH1 0x0 PUSH2 0x100 EXP DUP2 SLOAD DUP2 PUSH20 0xFFFFFFFFFFFFFFFFFFFFFFFFFFFFFFFFFFFFFFFF MUL NOT AND SWAP1 DUP4 PUSH20 0xFFFFFFFFFFFFFFFFFFFFFFFFFFFFFFFFFFFFFFFF AND MUL OR SWAP1 SSTORE POP DUP2 PUSH20 0xFFFFFFFFFFFFFFFFFFFFFFFFFFFFFFFFFFFFFFFF AND DUP2 PUSH20 0xFFFFFFFFFFFFFFFFFFFFFFFFFFFFFFFFFFFFFFFF AND PUSH32 0x8BE0079C531659141344CD1FD0A4F28419497F9722A3DAAFE3B4186F6B6457E0 PUSH1 0x40 MLOAD PUSH1 0x40 MLOAD DUP1 SWAP2 SUB SWAP1 LOG3 POP POP JUMP JUMPDEST PUSH1 0x0 PUSH1 0x80 MLOAD SWAP1 POP SWAP1 JUMP JUMPDEST PUSH1 0x0 PUSH20 0xFFFFFFFFFFFFFFFFFFFFFFFFFFFFFFFFFFFFFFFF AND DUP3 PUSH20 0xFFFFFFFFFFFFFFFFFFFFFFFFFFFFFFFFFFFFFFFF AND SUB PUSH3 0x57E JUMPI PUSH1 0x0 PUSH1 0x40 MLOAD PUSH32 0xEC442F0500000000000000000000000000000000000000000000000000000000 DUP2 MSTORE PUSH1 0x4 ADD PUSH3 0x575 SWAP2 SWAP1 PUSH3 0x1228 JUMP JUMPDEST PUSH1 0x40 MLOAD DUP1 SWAP2 SUB SWAP1 REVERT JUMPDEST PUSH3 0x592 PUSH1 0x0 DUP4 DUP4 PUSH3 0x596 PUSH1 0x20 SHL PUSH1 0x20 SHR JUMP JUMPDEST POP POP JUMP JUMPDEST PUSH1 0x2 PUSH1 0x4 DUP2 GT ISZERO PUSH3 0x5AD JUMPI PUSH3 0x5AC PUSH3 0x12EA JUMP JUMPDEST JUMPDEST PUSH1 0x5 PUSH1 0x14 SWAP1 SLOAD SWAP1 PUSH2 0x100 EXP SWAP1 DIV PUSH1 0xFF AND PUSH1 0x4 DUP2 GT ISZERO PUSH3 0x5D2 JUMPI PUSH3 0x5D1 PUSH3 0x12EA JUMP JUMPDEST JUMPDEST EQ ISZERO DUP1 PUSH3 0x619 JUMPI POP PUSH1 0x3 PUSH1 0x4 DUP2 GT ISZERO PUSH3 0x5F2 JUMPI PUSH3 0x5F1 PUSH3 0x12EA JUMP JUMPDEST JUMPDEST PUSH1 0x5 PUSH1 0x14 SWAP1 SLOAD SWAP1 PUSH2 0x100 EXP SWAP1 DIV PUSH1 0xFF AND PUSH1 0x4 DUP2 GT ISZERO PUSH3 0x617 JUMPI PUSH3 0x616 PUSH3 0x12EA JUMP JUMPDEST JUMPDEST EQ JUMPDEST ISZERO PUSH3 0x638 JUMPI PUSH3 0x632 DUP4 DUP4 DUP4 PUSH3 0x818 PUSH1 0x20 SHL PUSH1 0x20 SHR JUMP JUMPDEST PUSH3 0x813 JUMP JUMPDEST PUSH1 0x0 PUSH1 0xB PUSH1 0x0 SWAP1 SLOAD SWAP1 PUSH2 0x100 EXP SWAP1 DIV PUSH20 0xFFFFFFFFFFFFFFFFFFFFFFFFFFFFFFFFFFFFFFFF AND PUSH20 0xFFFFFFFFFFFFFFFFFFFFFFFFFFFFFFFFFFFFFFFF AND DUP4 PUSH20 0xFFFFFFFFFFFFFFFFFFFFFFFFFFFFFFFFFFFFFFFF AND SUB PUSH3 0x6F6 JUMPI PUSH2 0x3E8 PUSH1 0xA SLOAD DUP4 PUSH3 0x6A3 SWAP2 SWAP1 PUSH3 0xE15 JUMP JUMPDEST PUSH3 0x6AF SWAP2 SWAP1 PUSH3 0x1274 JUMP JUMPDEST SWAP1 POP PUSH32 0x4021301DA943CE70706F02C0638C48F65E27CD0642FFD0550536995AF05E70CC DUP5 DUP4 DUP4 TIMESTAMP PUSH1 0x40 MLOAD PUSH3 0x6E8 SWAP5 SWAP4 SWAP3 SWAP2 SWAP1 PUSH3 0x1319 JUMP JUMPDEST PUSH1 0x40 MLOAD DUP1 SWAP2 SUB SWAP1 LOG1 PUSH3 0x7AE JUMP JUMPDEST PUSH1 0xB PUSH1 0x0 SWAP1 SLOAD SWAP1 PUSH2 0x100 EXP SWAP1 DIV PUSH20 0xFFFFFFFFFFFFFFFFFFFFFFFFFFFFFFFFFFFFFFFF AND PUSH20 0xFFFFFFFFFFFFFFFFFFFFFFFFFFFFFFFFFFFFFFFF AND DUP5 PUSH20 0xFFFFFFFFFFFFFFFFFFFFFFFFFFFFFFFFFFFFFFFF AND SUB PUSH3 0x7AD JUMPI PUSH2 0x3E8 PUSH1 0x9 SLOAD DUP4 PUSH3 0x75F SWAP2 SWAP1 PUSH3 0xE15 JUMP JUMPDEST PUSH3 0x76B SWAP2 SWAP1 PUSH3 0x1274 JUMP JUMPDEST SWAP1 POP PUSH32 0x4CB653EF0AFB6A8EC8B4B9286771CADC8E586225744651CD05B4B475AB881272 DUP4 DUP4 DUP4 TIMESTAMP PUSH1 0x40 MLOAD PUSH3 0x7A4 SWAP5 SWAP4 SWAP3 SWAP2 SWAP1 PUSH3 0x1319 JUMP JUMPDEST PUSH1 0x40 MLOAD DUP1 SWAP2 SUB SWAP1 LOG1 JUMPDEST JUMPDEST PUSH1 0x0 DUP2 GT ISZERO PUSH3 0x7FE JUMPI PUSH3 0x7ED DUP5 PUSH1 0x6 PUSH1 0x0 SWAP1 SLOAD SWAP1 PUSH2 0x100 EXP SWAP1 DIV PUSH20 0xFFFFFFFFFFFFFFFFFFFFFFFFFFFFFFFFFFFFFFFF AND DUP4 PUSH3 0x818 PUSH1 0x20 SHL PUSH1 0x20 SHR JUMP JUMPDEST DUP1 DUP3 PUSH3 0x7FB SWAP2 SWAP1 PUSH3 0x1366 JUMP JUMPDEST SWAP2 POP JUMPDEST PUSH3 0x811 DUP5 DUP5 DUP5 PUSH3 0x818 PUSH1 0x20 SHL PUSH1 0x20 SHR JUMP JUMPDEST POP JUMPDEST POP POP POP JUMP JUMPDEST PUSH3 0x82B DUP4 DUP4 DUP4 PUSH3 0x8DA PUSH1 0x20 SHL PUSH1 0x20 SHR JUMP JUMPDEST PUSH1 0x0 PUSH20 0xFFFFFFFFFFFFFFFFFFFFFFFFFFFFFFFFFFFFFFFF AND DUP4 PUSH20 0xFFFFFFFFFFFFFFFFFFFFFFFFFFFFFFFFFFFFFFFF AND SUB PUSH3 0x8D5 JUMPI PUSH1 0x0 PUSH3 0x872 PUSH3 0x4FF PUSH1 0x20 SHL PUSH1 0x20 SHR JUMP JUMPDEST SWAP1 POP PUSH1 0x0 PUSH3 0x886 PUSH3 0xB0A PUSH1 0x20 SHL PUSH1 0x20 SHR JUMP JUMPDEST SWAP1 POP DUP2 DUP2 GT ISZERO PUSH3 0x8D2 JUMPI DUP1 DUP3 PUSH1 0x40 MLOAD PUSH32 0x9E79F85400000000000000000000000000000000000000000000000000000000 DUP2 MSTORE PUSH1 0x4 ADD PUSH3 0x8C9 SWAP3 SWAP2 SWAP1 PUSH3 0x13A1 JUMP JUMPDEST PUSH1 0x40 MLOAD DUP1 SWAP2 SUB SWAP1 REVERT JUMPDEST POP POP JUMPDEST POP POP POP JUMP JUMPDEST PUSH1 0x0 PUSH20 0xFFFFFFFFFFFFFFFFFFFFFFFFFFFFFFFFFFFFFFFF AND DUP4 PUSH20 0xFFFFFFFFFFFFFFFFFFFFFFFFFFFFFFFFFFFFFFFF AND SUB PUSH3 0x930 JUMPI DUP1 PUSH1 0x2 PUSH1 0x0 DUP3 DUP3 SLOAD PUSH3 0x923 SWAP2 SWAP1 PUSH3 0x13CE JUMP JUMPDEST SWAP3 POP POP DUP2 SWAP1 SSTORE POP PUSH3 0xA06 JUMP JUMPDEST PUSH1 0x0 DUP1 PUSH1 0x0 DUP6 PUSH20 0xFFFFFFFFFFFFFFFFFFFFFFFFFFFFFFFFFFFFFFFF AND PUSH20 0xFFFFFFFFFFFFFFFFFFFFFFFFFFFFFFFFFFFFFFFF AND DUP2 MSTORE PUSH1 0x20 ADD SWAP1 DUP2 MSTORE PUSH1 0x20 ADD PUSH1 0x0 KECCAK256 SLOAD SWAP1 POP DUP2 DUP2 LT ISZERO PUSH3 0x9BF JUMPI DUP4 DUP2 DUP4 PUSH1 0x40 MLOAD PUSH32 0xE450D38C00000000000000000000000000000000000000000000000000000000 DUP2 MSTORE PUSH1 0x4 ADD PUSH3 0x9B6 SWAP4 SWAP3 SWAP2 SWAP1 PUSH3 0x1409 JUMP JUMPDEST PUSH1 0x40 MLOAD DUP1 SWAP2 SUB SWAP1 REVERT JUMPDEST DUP2 DUP2 SUB PUSH1 0x0 DUP1 DUP7 PUSH20 0xFFFFFFFFFFFFFFFFFFFFFFFFFFFFFFFFFFFFFFFF AND PUSH20 0xFFFFFFFFFFFFFFFFFFFFFFFFFFFFFFFFFFFFFFFF AND DUP2 MSTORE PUSH1 0x20 ADD SWAP1 DUP2 MSTORE PUSH1 0x20 ADD PUSH1 0x0 KECCAK256 DUP2 SWAP1 SSTORE POP POP JUMPDEST PUSH1 0x0 PUSH20 0xFFFFFFFFFFFFFFFFFFFFFFFFFFFFFFFFFFFFFFFF AND DUP3 PUSH20 0xFFFFFFFFFFFFFFFFFFFFFFFFFFFFFFFFFFFFFFFF AND SUB PUSH3 0xA51 JUMPI DUP1 PUSH1 0x2 PUSH1 0x0 DUP3 DUP3 SLOAD SUB SWAP3 POP POP DUP2 SWAP1 SSTORE POP PUSH3 0xA9E JUMP JUMPDEST DUP1 PUSH1 0x0 DUP1 DUP5 PUSH20 0xFFFFFFFFFFFFFFFFFFFFFFFFFFFFFFFFFFFFFFFF AND PUSH20 0xFFFFFFFFFFFFFFFFFFFFFFFFFFFFFFFFFFFFFFFF AND DUP2 MSTORE PUSH1 0x20 ADD SWAP1 DUP2 MSTORE PUSH1 0x20 ADD PUSH1 0x0 KECCAK256 PUSH1 0x0 DUP3 DUP3 SLOAD ADD SWAP3 POP POP DUP2 SWAP1 SSTORE POP JUMPDEST DUP2 PUSH20 0xFFFFFFFFFFFFFFFFFFFFFFFFFFFFFFFFFFFFFFFF AND DUP4 PUSH20 0xFFFFFFFFFFFFFFFFFFFFFFFFFFFFFFFFFFFFFFFF AND PUSH32 0xDDF252AD1BE2C89B69C2B068FC378DAA952BA7F163C4A11628F55A4DF523B3EF DUP4 PUSH1 0x40 MLOAD PUSH3 0xAFD SWAP2 SWAP1 PUSH3 0x1446 JUMP JUMPDEST PUSH1 0x40 MLOAD DUP1 SWAP2 SUB SWAP1 LOG3 POP POP POP JUMP JUMPDEST PUSH1 0x0 PUSH1 0x2 SLOAD SWAP1 POP SWAP1 JUMP JUMPDEST PUSH1 0x0 DUP1 REVERT JUMPDEST PUSH1 0x0 DUP2 SWAP1 POP SWAP2 SWAP1 POP JUMP JUMPDEST PUSH3 0xB2E DUP2 PUSH3 0xB19 JUMP JUMPDEST DUP2 EQ PUSH3 0xB3A JUMPI PUSH1 0x0 DUP1 REVERT JUMPDEST POP JUMP JUMPDEST PUSH1 0x0 DUP2 MLOAD SWAP1 POP PUSH3 0xB4E DUP2 PUSH3 0xB23 JUMP JUMPDEST SWAP3 SWAP2 POP POP JUMP JUMPDEST PUSH1 0x0 PUSH20 0xFFFFFFFFFFFFFFFFFFFFFFFFFFFFFFFFFFFFFFFF DUP3 AND SWAP1 POP SWAP2 SWAP1 POP JUMP JUMPDEST PUSH1 0x0 PUSH3 0xB81 DUP3 PUSH3 0xB54 JUMP JUMPDEST SWAP1 POP SWAP2 SWAP1 POP JUMP JUMPDEST PUSH3 0xB93 DUP2 PUSH3 0xB74 JUMP JUMPDEST DUP2 EQ PUSH3 0xB9F JUMPI PUSH1 0x0 DUP1 REVERT JUMPDEST POP JUMP JUMPDEST PUSH1 0x0 DUP2 MLOAD SWAP1 POP PUSH3 0xBB3 DUP2 PUSH3 0xB88 JUMP JUMPDEST SWAP3 SWAP2 POP POP JUMP JUMPDEST PUSH1 0x0 DUP1 PUSH1 0x0 DUP1 PUSH1 0x0 PUSH1 0xA0 DUP7 DUP9 SUB SLT ISZERO PUSH3 0xBD8 JUMPI PUSH3 0xBD7 PUSH3 0xB14 JUMP JUMPDEST JUMPDEST PUSH1 0x0 PUSH3 0xBE8 DUP9 DUP3 DUP10 ADD PUSH3 0xB3D JUMP JUMPDEST SWAP6 POP POP PUSH1 0x20 PUSH3 0xBFB DUP9 DUP3 DUP10 ADD PUSH3 0xBA2 JUMP JUMPDEST SWAP5 POP POP PUSH1 0x40 PUSH3 0xC0E DUP9 DUP3 DUP10 ADD PUSH3 0xBA2 JUMP JUMPDEST SWAP4 POP POP PUSH1 0x60 PUSH3 0xC21 DUP9 DUP3 DUP10 ADD PUSH3 0xBA2 JUMP JUMPDEST SWAP3 POP POP PUSH1 0x80 PUSH3 0xC34 DUP9 DUP3 DUP10 ADD PUSH3 0xBA2 JUMP JUMPDEST SWAP2 POP POP SWAP3 SWAP6 POP SWAP3 SWAP6 SWAP1 SWAP4 POP JUMP JUMPDEST PUSH32 0x4E487B7100000000000000000000000000000000000000000000000000000000 PUSH1 0x0 MSTORE PUSH1 0x11 PUSH1 0x4 MSTORE PUSH1 0x24 PUSH1 0x0 REVERT JUMPDEST PUSH1 0x0 DUP2 PUSH1 0x1 SHR SWAP1 POP SWAP2 SWAP1 POP JUMP JUMPDEST PUSH1 0x0 DUP1 DUP3 SWAP2 POP DUP4 SWAP1 POP JUMPDEST PUSH1 0x1 DUP6 GT ISZERO PUSH3 0xCCF JUMPI DUP1 DUP7 DIV DUP2 GT ISZERO PUSH3 0xCA7 JUMPI PUSH3 0xCA6 PUSH3 0xC41 JUMP JUMPDEST JUMPDEST PUSH1 0x1 DUP6 AND ISZERO PUSH3 0xCB7 JUMPI DUP1 DUP3 MUL SWAP2 POP JUMPDEST DUP1 DUP2 MUL SWAP1 POP PUSH3 0xCC7 DUP6 PUSH3 0xC70 JUMP JUMPDEST SWAP5 POP PUSH3 0xC87 JUMP JUMPDEST SWAP5 POP SWAP5 SWAP3 POP POP POP JUMP JUMPDEST PUSH1 0x0 DUP3 PUSH3 0xCEA JUMPI PUSH1 0x1 SWAP1 POP PUSH3 0xDBD JUMP JUMPDEST DUP2 PUSH3 0xCFA JUMPI PUSH1 0x0 SWAP1 POP PUSH3 0xDBD JUMP JUMPDEST DUP2 PUSH1 0x1 DUP2 EQ PUSH3 0xD13 JUMPI PUSH1 0x2 DUP2 EQ PUSH3 0xD1E JUMPI PUSH3 0xD54 JUMP JUMPDEST PUSH1 0x1 SWAP2 POP POP PUSH3 0xDBD JUMP JUMPDEST PUSH1 0xFF DUP5 GT ISZERO PUSH3 0xD33 JUMPI PUSH3 0xD32 PUSH3 0xC41 JUMP JUMPDEST JUMPDEST DUP4 PUSH1 0x2 EXP SWAP2 POP DUP5 DUP3 GT ISZERO PUSH3 0xD4D JUMPI PUSH3 0xD4C PUSH3 0xC41 JUMP JUMPDEST JUMPDEST POP PUSH3 0xDBD JUMP JUMPDEST POP PUSH1 0x20 DUP4 LT PUSH2 0x133 DUP4 LT AND PUSH1 0x4E DUP5 LT PUSH1 0xB DUP5 LT AND OR ISZERO PUSH3 0xD8E JUMPI DUP3 DUP3 EXP SWAP1 POP DUP4 DUP2 GT ISZERO PUSH3 0xD88 JUMPI PUSH3 0xD87 PUSH3 0xC41 JUMP JUMPDEST JUMPDEST PUSH3 0xDBD JUMP JUMPDEST PUSH3 0xD9D DUP5 DUP5 DUP5 PUSH1 0x1 PUSH3 0xC7D JUMP JUMPDEST SWAP3 POP SWAP1 POP DUP2 DUP5 DIV DUP2 GT ISZERO PUSH3 0xDB7 JUMPI PUSH3 0xDB6 PUSH3 0xC41 JUMP JUMPDEST JUMPDEST DUP2 DUP2 MUL SWAP1 POP JUMPDEST SWAP4 SWAP3 POP POP POP JUMP JUMPDEST PUSH1 0x0 PUSH3 0xDD1 DUP3 PUSH3 0xB19 JUMP JUMPDEST SWAP2 POP PUSH3 0xDDE DUP4 PUSH3 0xB19 JUMP JUMPDEST SWAP3 POP PUSH3 0xE0D PUSH32 0xFFFFFFFFFFFFFFFFFFFFFFFFFFFFFFFFFFFFFFFFFFFFFFFFFFFFFFFFFFFFFFFF DUP5 DUP5 PUSH3 0xCD8 JUMP JUMPDEST SWAP1 POP SWAP3 SWAP2 POP POP JUMP JUMPDEST PUSH1 0x0 PUSH3 0xE22 DUP3 PUSH3 0xB19 JUMP JUMPDEST SWAP2 POP PUSH3 0xE2F DUP4 PUSH3 0xB19 JUMP JUMPDEST SWAP3 POP DUP3 DUP3 MUL PUSH3 0xE3F DUP2 PUSH3 0xB19 JUMP JUMPDEST SWAP2 POP DUP3 DUP3 DIV DUP5 EQ DUP4 ISZERO OR PUSH3 0xE59 JUMPI PUSH3 0xE58 PUSH3 0xC41 JUMP JUMPDEST JUMPDEST POP SWAP3 SWAP2 POP POP JUMP JUMPDEST PUSH1 0x0 DUP2 MLOAD SWAP1 POP SWAP2 SWAP1 POP JUMP JUMPDEST PUSH32 0x4E487B7100000000000000000000000000000000000000000000000000000000 PUSH1 0x0 MSTORE PUSH1 0x41 PUSH1 0x4 MSTORE PUSH1 0x24 PUSH1 0x0 REVERT JUMPDEST PUSH32 0x4E487B7100000000000000000000000000000000000000000000000000000000 PUSH1 0x0 MSTORE PUSH1 0x22 PUSH1 0x4 MSTORE PUSH1 0x24 PUSH1 0x0 REVERT JUMPDEST PUSH1 0x0 PUSH1 0x2 DUP3 DIV SWAP1 POP PUSH1 0x1 DUP3 AND DUP1 PUSH3 0xEE2 JUMPI PUSH1 0x7F DUP3 AND SWAP2 POP JUMPDEST PUSH1 0x20 DUP3 LT DUP2 SUB PUSH3 0xEF8 JUMPI PUSH3 0xEF7 PUSH3 0xE9A JUMP JUMPDEST JUMPDEST POP SWAP2 SWAP1 POP JUMP JUMPDEST PUSH1 0x0 DUP2 SWAP1 POP DUP2 PUSH1 0x0 MSTORE PUSH1 0x20 PUSH1 0x0 KECCAK256 SWAP1 POP SWAP2 SWAP1 POP JUMP JUMPDEST PUSH1 0x0 PUSH1 0x20 PUSH1 0x1F DUP4 ADD DIV SWAP1 POP SWAP2 SWAP1 POP JUMP JUMPDEST PUSH1 0x0 DUP3 DUP3 SHL SWAP1 POP SWAP3 SWAP2 POP POP JUMP JUMPDEST PUSH1 0x0 PUSH1 0x8 DUP4 MUL PUSH3 0xF62 PUSH32 0xFFFFFFFFFFFFFFFFFFFFFFFFFFFFFFFFFFFFFFFFFFFFFFFFFFFFFFFFFFFFFFFF DUP3 PUSH3 0xF23 JUMP JUMPDEST PUSH3 0xF6E DUP7 DUP4 PUSH3 0xF23 JUMP JUMPDEST SWAP6 POP DUP1 NOT DUP5 AND SWAP4 POP DUP1 DUP7 AND DUP5 OR SWAP3 POP POP POP SWAP4 SWAP3 POP POP POP JUMP JUMPDEST PUSH1 0x0 DUP2 SWAP1 POP SWAP2 SWAP1 POP JUMP JUMPDEST PUSH1 0x0 PUSH3 0xFB1 PUSH3 0xFAB PUSH3 0xFA5 DUP5 PUSH3 0xB19 JUMP JUMPDEST PUSH3 0xF86 JUMP JUMPDEST PUSH3 0xB19 JUMP JUMPDEST SWAP1 POP SWAP2 SWAP1 POP JUMP JUMPDEST PUSH1 0x0 DUP2 SWAP1 POP SWAP2 SWAP1 POP JUMP JUMPDEST PUSH3 0xFCD DUP4 PUSH3 0xF90 JUMP JUMPDEST PUSH3 0xFE5 PUSH3 0xFDC DUP3 PUSH3 0xFB8 JUMP JUMPDEST DUP5 DUP5 SLOAD PUSH3 0xF30 JUMP JUMPDEST DUP3 SSTORE POP POP POP POP JUMP JUMPDEST PUSH1 0x0 SWAP1 JUMP JUMPDEST PUSH3 0xFFC PUSH3 0xFED JUMP JUMPDEST PUSH3 0x1009 DUP2 DUP5 DUP5 PUSH3 0xFC2 JUMP JUMPDEST POP POP POP JUMP JUMPDEST JUMPDEST DUP2 DUP2 LT ISZERO PUSH3 0x1031 JUMPI PUSH3 0x1025 PUSH1 0x0 DUP3 PUSH3 0xFF2 JUMP JUMPDEST PUSH1 0x1 DUP2 ADD SWAP1 POP PUSH3 0x100F JUMP JUMPDEST POP POP JUMP JUMPDEST PUSH1 0x1F DUP3 GT ISZERO PUSH3 0x1080 JUMPI PUSH3 0x104A DUP2 PUSH3 0xEFE JUMP JUMPDEST PUSH3 0x1055 DUP5 PUSH3 0xF13 JUMP JUMPDEST DUP2 ADD PUSH1 0x20 DUP6 LT ISZERO PUSH3 0x1065 JUMPI DUP2 SWAP1 POP JUMPDEST PUSH3 0x107D PUSH3 0x1074 DUP6 PUSH3 0xF13 JUMP JUMPDEST DUP4 ADD DUP3 PUSH3 0x100E JUMP JUMPDEST POP POP JUMPDEST POP POP POP JUMP JUMPDEST PUSH1 0x0 DUP3 DUP3 SHR SWAP1 POP SWAP3 SWAP2 POP POP JUMP JUMPDEST PUSH1 0x0 PUSH3 0x10A5 PUSH1 0x0 NOT DUP5 PUSH1 0x8 MUL PUSH3 0x1085 JUMP JUMPDEST NOT DUP1 DUP4 AND SWAP2 POP POP SWAP3 SWAP2 POP POP JUMP JUMPDEST PUSH1 0x0 PUSH3 0x10C0 DUP4 DUP4 PUSH3 0x1092 JUMP JUMPDEST SWAP2 POP DUP3 PUSH1 0x2 MUL DUP3 OR SWAP1 POP SWAP3 SWAP2 POP POP JUMP JUMPDEST PUSH3 0x10DB DUP3 PUSH3 0xE60 JUMP JUMPDEST PUSH8 0xFFFFFFFFFFFFFFFF DUP2 GT ISZERO PUSH3 0x10F7 JUMPI PUSH3 0x10F6 PUSH3 0xE6B JUMP JUMPDEST JUMPDEST PUSH3 0x1103 DUP3 SLOAD PUSH3 0xEC9 JUMP JUMPDEST PUSH3 0x1110 DUP3 DUP3 DUP6 PUSH3 0x1035 JUMP JUMPDEST PUSH1 0x0 PUSH1 0x20 SWAP1 POP PUSH1 0x1F DUP4 GT PUSH1 0x1 DUP2 EQ PUSH3 0x1148 JUMPI PUSH1 0x0 DUP5 ISZERO PUSH3 0x1133 JUMPI DUP3 DUP8 ADD MLOAD SWAP1 POP JUMPDEST PUSH3 0x113F DUP6 DUP3 PUSH3 0x10B2 JUMP JUMPDEST DUP7 SSTORE POP PUSH3 0x11AF JUMP JUMPDEST PUSH1 0x1F NOT DUP5 AND PUSH3 0x1158 DUP7 PUSH3 0xEFE JUMP JUMPDEST PUSH1 0x0 JUMPDEST DUP3 DUP2 LT ISZERO PUSH3 0x1182 JUMPI DUP5 DUP10 ADD MLOAD DUP3 SSTORE PUSH1 0x1 DUP3 ADD SWAP2 POP PUSH1 0x20 DUP6 ADD SWAP5 POP PUSH1 0x20 DUP2 ADD SWAP1 POP PUSH3 0x115B JUMP JUMPDEST DUP7 DUP4 LT ISZERO PUSH3 0x11A2 JUMPI DUP5 DUP10 ADD MLOAD PUSH3 0x119E PUSH1 0x1F DUP10 AND DUP3 PUSH3 0x1092 JUMP JUMPDEST DUP4 SSTORE POP JUMPDEST PUSH1 0x1 PUSH1 0x2 DUP9 MUL ADD DUP9 SSTORE POP POP POP JUMPDEST POP POP POP POP POP POP JUMP JUMPDEST PUSH1 0x0 DUP2 SWAP1 POP SWAP2 SWAP1 POP JUMP JUMPDEST PUSH1 0x0 PUSH3 0x11E2 PUSH3 0x11DC PUSH3 0x11D6 DUP5 PUSH3 0x11B7 JUMP JUMPDEST PUSH3 0xF86 JUMP JUMPDEST PUSH3 0xB19 JUMP JUMPDEST SWAP1 POP SWAP2 SWAP1 POP JUMP JUMPDEST PUSH3 0x11F4 DUP2 PUSH3 0x11C1 JUMP JUMPDEST DUP3 MSTORE POP POP JUMP JUMPDEST PUSH1 0x0 PUSH1 0x20 DUP3 ADD SWAP1 POP PUSH3 0x1211 PUSH1 0x0 DUP4 ADD DUP5 PUSH3 0x11E9 JUMP JUMPDEST SWAP3 SWAP2 POP POP JUMP JUMPDEST PUSH3 0x1222 DUP2 PUSH3 0xB74 JUMP JUMPDEST DUP3 MSTORE POP POP JUMP JUMPDEST PUSH1 0x0 PUSH1 0x20 DUP3 ADD SWAP1 POP PUSH3 0x123F PUSH1 0x0 DUP4 ADD DUP5 PUSH3 0x1217 JUMP JUMPDEST SWAP3 SWAP2 POP POP JUMP JUMPDEST PUSH32 0x4E487B7100000000000000000000000000000000000000000000000000000000 PUSH1 0x0 MSTORE PUSH1 0x12 PUSH1 0x4 MSTORE PUSH1 0x24 PUSH1 0x0 REVERT JUMPDEST PUSH1 0x0 PUSH3 0x1281 DUP3 PUSH3 0xB19 JUMP JUMPDEST SWAP2 POP PUSH3 0x128E DUP4 PUSH3 0xB19 JUMP JUMPDEST SWAP3 POP DUP3 PUSH3 0x12A1 JUMPI PUSH3 0x12A0 PUSH3 0x1245 JUMP JUMPDEST JUMPDEST DUP3 DUP3 DIV SWAP1 POP SWAP3 SWAP2 POP POP JUMP JUMPDEST PUSH3 0x12B7 DUP2 PUSH3 0xB19 JUMP JUMPDEST DUP3 MSTORE POP POP JUMP JUMPDEST PUSH1 0x0 PUSH1 0x40 DUP3 ADD SWAP1 POP PUSH3 0x12D4 PUSH1 0x0 DUP4 ADD DUP6 PUSH3 0x1217 JUMP JUMPDEST PUSH3 0x12E3 PUSH1 0x20 DUP4 ADD DUP5 PUSH3 0x12AC JUMP JUMPDEST SWAP4 SWAP3 POP POP POP JUMP JUMPDEST PUSH32 0x4E487B7100000000000000000000000000000000000000000000000000000000 PUSH1 0x0 MSTORE PUSH1 0x21 PUSH1 0x4 MSTORE PUSH1 0x24 PUSH1 0x0 REVERT JUMPDEST PUSH1 0x0 PUSH1 0x80 DUP3 ADD SWAP1 POP PUSH3 0x1330 PUSH1 0x0 DUP4 ADD DUP8 PUSH3 0x1217 JUMP JUMPDEST PUSH3 0x133F PUSH1 0x20 DUP4 ADD DUP7 PUSH3 0x12AC JUMP JUMPDEST PUSH3 0x134E PUSH1 0x40 DUP4 ADD DUP6 PUSH3 0x12AC JUMP JUMPDEST PUSH3 0x135D PUSH1 0x60 DUP4 ADD DUP5 PUSH3 0x12AC JUMP JUMPDEST SWAP6 SWAP5 POP POP POP POP POP JUMP JUMPDEST PUSH1 0x0 PUSH3 0x1373 DUP3 PUSH3 0xB19 JUMP JUMPDEST SWAP2 POP PUSH3 0x1380 DUP4 PUSH3 0xB19 JUMP JUMPDEST SWAP3 POP DUP3 DUP3 SUB SWAP1 POP DUP2 DUP2 GT ISZERO PUSH3 0x139B JUMPI PUSH3 0x139A PUSH3 0xC41 JUMP JUMPDEST JUMPDEST SWAP3 SWAP2 POP POP JUMP JUMPDEST PUSH1 0x0 PUSH1 0x40 DUP3 ADD SWAP1 POP PUSH3 0x13B8 PUSH1 0x0 DUP4 ADD DUP6 PUSH3 0x12AC JUMP JUMPDEST PUSH3 0x13C7 PUSH1 0x20 DUP4 ADD DUP5 PUSH3 0x12AC JUMP JUMPDEST SWAP4 SWAP3 POP POP POP JUMP JUMPDEST PUSH1 0x0 PUSH3 0x13DB DUP3 PUSH3 0xB19 JUMP JUMPDEST SWAP2 POP PUSH3 0x13E8 DUP4 PUSH3 0xB19 JUMP JUMPDEST SWAP3 POP DUP3 DUP3 ADD SWAP1 POP DUP1 DUP3 GT ISZERO PUSH3 0x1403 JUMPI PUSH3 0x1402 PUSH3 0xC41 JUMP JUMPDEST JUMPDEST SWAP3 SWAP2 POP POP JUMP JUMPDEST PUSH1 0x0 PUSH1 0x60 DUP3 ADD SWAP1 POP PUSH3 0x1420 PUSH1 0x0 DUP4 ADD DUP7 PUSH3 0x1217 JUMP JUMPDEST PUSH3 0x142F PUSH1 0x20 DUP4 ADD DUP6 PUSH3 0x12AC JUMP JUMPDEST PUSH3 0x143E PUSH1 0x40 DUP4 ADD DUP5 PUSH3 0x12AC JUMP JUMPDEST SWAP5 SWAP4 POP POP POP POP JUMP JUMPDEST PUSH1 0x0 PUSH1 0x20 DUP3 ADD SWAP1 POP PUSH3 0x145D PUSH1 0x0 DUP4 ADD DUP5 PUSH3 0x12AC JUMP JUMPDEST SWAP3 SWAP2 POP POP JUMP JUMPDEST PUSH1 0x80 MLOAD PUSH2 0x26B6 PUSH3 0x147F PUSH1 0x0 CODECOPY PUSH1 0x0 PUSH2 0x8F2 ADD MSTORE PUSH2 0x26B6 PUSH1 0x0 RETURN INVALID PUSH1 0x80 PUSH1 0x40 MSTORE PUSH1 0x4 CALLDATASIZE LT PUSH2 0x1A0 JUMPI PUSH1 0x0 CALLDATALOAD PUSH1 0xE0 SHR DUP1 PUSH4 0x5ECF7A67 GT PUSH2 0xEC JUMPI DUP1 PUSH4 0x95D89B41 GT PUSH2 0x8A JUMPI DUP1 PUSH4 0xE90DD9E2 GT PUSH2 0x64 JUMPI DUP1 PUSH4 0xE90DD9E2 EQ PUSH2 0x5BE JUMPI DUP1 PUSH4 0xEAFF1CBC EQ PUSH2 0x5E9 JUMPI DUP1 PUSH4 0xF2FDE38B EQ PUSH2 0x600 JUMPI DUP1 PUSH4 0xFCCC2813 EQ PUSH2 0x629 JUMPI PUSH2 0x1A7 JUMP JUMPDEST DUP1 PUSH4 0x95D89B41 EQ PUSH2 0x519 JUMPI DUP1 PUSH4 0xA9059CBB EQ PUSH2 0x544 JUMPI DUP1 PUSH4 0xDD62ED3E EQ PUSH2 0x581 JUMPI PUSH2 0x1A7 JUMP JUMPDEST DUP1 PUSH4 0x70A08231 GT PUSH2 0xC6 JUMPI DUP1 PUSH4 0x70A08231 EQ PUSH2 0x46F JUMPI DUP1 PUSH4 0x715018A6 EQ PUSH2 0x4AC JUMPI DUP1 PUSH4 0x85DF1D1C EQ PUSH2 0x4C3 JUMPI DUP1 PUSH4 0x8DA5CB5B EQ PUSH2 0x4EE JUMPI PUSH2 0x1A7 JUMP JUMPDEST DUP1 PUSH4 0x5ECF7A67 EQ PUSH2 0x3FD JUMPI DUP1 PUSH4 0x63CAE94F EQ PUSH2 0x419 JUMPI DUP1 PUSH4 0x691F224F EQ PUSH2 0x444 JUMPI PUSH2 0x1A7 JUMP JUMPDEST DUP1 PUSH4 0x23B872DD GT PUSH2 0x159 JUMPI DUP1 PUSH4 0x313CE567 GT PUSH2 0x133 JUMPI DUP1 PUSH4 0x313CE567 EQ PUSH2 0x351 JUMPI DUP1 PUSH4 0x355274EA EQ PUSH2 0x37C JUMPI DUP1 PUSH4 0x5265EE55 EQ PUSH2 0x3A7 JUMPI DUP1 PUSH4 0x52CD2388 EQ PUSH2 0x3D2 JUMPI PUSH2 0x1A7 JUMP JUMPDEST DUP1 PUSH4 0x23B872DD EQ PUSH2 0x2BE JUMPI DUP1 PUSH4 0x24024EFD EQ PUSH2 0x2FB JUMPI DUP1 PUSH4 0x2B653D44 EQ PUSH2 0x326 JUMPI PUSH2 0x1A7 JUMP JUMPDEST DUP1 PUSH4 0x6FDDE03 EQ PUSH2 0x1AC JUMPI DUP1 PUSH4 0x95EA7B3 EQ PUSH2 0x1D7 JUMPI DUP1 PUSH4 0xF84ACEC EQ PUSH2 0x214 JUMPI DUP1 PUSH4 0x1694505E EQ PUSH2 0x23D JUMPI DUP1 PUSH4 0x18160DDD EQ PUSH2 0x268 JUMPI DUP1 PUSH4 0x18821400 EQ PUSH2 0x293 JUMPI PUSH2 0x1A7 JUMP JUMPDEST CALLDATASIZE PUSH2 0x1A7 JUMPI STOP JUMPDEST PUSH1 0x0 DUP1 REVERT JUMPDEST CALLVALUE DUP1 ISZERO PUSH2 0x1B8 JUMPI PUSH1 0x0 DUP1 REVERT JUMPDEST POP PUSH2 0x1C1 PUSH2 0x654 JUMP JUMPDEST PUSH1 0x40 MLOAD PUSH2 0x1CE SWAP2 SWAP1 PUSH2 0x1DCB JUMP JUMPDEST PUSH1 0x40 MLOAD DUP1 SWAP2 SUB SWAP1 RETURN JUMPDEST CALLVALUE DUP1 ISZERO PUSH2 0x1E3 JUMPI PUSH1 0x0 DUP1 REVERT JUMPDEST POP PUSH2 0x1FE PUSH1 0x4 DUP1 CALLDATASIZE SUB DUP2 ADD SWAP1 PUSH2 0x1F9 SWAP2 SWAP1 PUSH2 0x1E86 JUMP JUMPDEST PUSH2 0x6E6 JUMP JUMPDEST PUSH1 0x40 MLOAD PUSH2 0x20B SWAP2 SWAP1 PUSH2 0x1EE1 JUMP JUMPDEST PUSH1 0x40 MLOAD DUP1 SWAP2 SUB SWAP1 RETURN JUMPDEST CALLVALUE DUP1 ISZERO PUSH2 0x220 JUMPI PUSH1 0x0 DUP1 REVERT JUMPDEST POP PUSH2 0x23B PUSH1 0x4 DUP1 CALLDATASIZE SUB DUP2 ADD SWAP1 PUSH2 0x236 SWAP2 SWAP1 PUSH2 0x1EFC JUMP JUMPDEST PUSH2 0x709 JUMP JUMPDEST STOP JUMPDEST CALLVALUE DUP1 ISZERO PUSH2 0x249 JUMPI PUSH1 0x0 DUP1 REVERT JUMPDEST POP PUSH2 0x252 PUSH2 0x821 JUMP JUMPDEST PUSH1 0x40 MLOAD PUSH2 0x25F SWAP2 SWAP1 PUSH2 0x1F88 JUMP JUMPDEST PUSH1 0x40 MLOAD DUP1 SWAP2 SUB SWAP1 RETURN JUMPDEST CALLVALUE DUP1 ISZERO PUSH2 0x274 JUMPI PUSH1 0x0 DUP1 REVERT JUMPDEST POP PUSH2 0x27D PUSH2 0x847 JUMP JUMPDEST PUSH1 0x40 MLOAD PUSH2 0x28A SWAP2 SWAP1 PUSH2 0x1FB2 JUMP JUMPDEST PUSH1 0x40 MLOAD DUP1 SWAP2 SUB SWAP1 RETURN JUMPDEST CALLVALUE DUP1 ISZERO PUSH2 0x29F JUMPI PUSH1 0x0 DUP1 REVERT JUMPDEST POP PUSH2 0x2A8 PUSH2 0x851 JUMP JUMPDEST PUSH1 0x40 MLOAD PUSH2 0x2B5 SWAP2 SWAP1 PUSH2 0x1DCB JUMP JUMPDEST PUSH1 0x40 MLOAD DUP1 SWAP2 SUB SWAP1 RETURN JUMPDEST CALLVALUE DUP1 ISZERO PUSH2 0x2CA JUMPI PUSH1 0x0 DUP1 REVERT JUMPDEST POP PUSH2 0x2E5 PUSH1 0x4 DUP1 CALLDATASIZE SUB DUP2 ADD SWAP1 PUSH2 0x2E0 SWAP2 SWAP1 PUSH2 0x1FCD JUMP JUMPDEST PUSH2 0x88A JUMP JUMPDEST PUSH1 0x40 MLOAD PUSH2 0x2F2 SWAP2 SWAP1 PUSH2 0x1EE1 JUMP JUMPDEST PUSH1 0x40 MLOAD DUP1 SWAP2 SUB SWAP1 RETURN JUMPDEST CALLVALUE DUP1 ISZERO PUSH2 0x307 JUMPI PUSH1 0x0 DUP1 REVERT JUMPDEST POP PUSH2 0x310 PUSH2 0x8B9 JUMP JUMPDEST PUSH1 0x40 MLOAD PUSH2 0x31D SWAP2 SWAP1 PUSH2 0x1FB2 JUMP JUMPDEST PUSH1 0x40 MLOAD DUP1 SWAP2 SUB SWAP1 RETURN JUMPDEST CALLVALUE DUP1 ISZERO PUSH2 0x332 JUMPI PUSH1 0x0 DUP1 REVERT JUMPDEST POP PUSH2 0x33B PUSH2 0x8BF JUMP JUMPDEST PUSH1 0x40 MLOAD PUSH2 0x348 SWAP2 SWAP1 PUSH2 0x202F JUMP JUMPDEST PUSH1 0x40 MLOAD DUP1 SWAP2 SUB SWAP1 RETURN JUMPDEST CALLVALUE DUP1 ISZERO PUSH2 0x35D JUMPI PUSH1 0x0 DUP1 REVERT JUMPDEST POP PUSH2 0x366 PUSH2 0x8E5 JUMP JUMPDEST PUSH1 0x40 MLOAD PUSH2 0x373 SWAP2 SWAP1 PUSH2 0x2066 JUMP JUMPDEST PUSH1 0x40 MLOAD DUP1 SWAP2 SUB SWAP1 RETURN JUMPDEST CALLVALUE DUP1 ISZERO PUSH2 0x388 JUMPI PUSH1 0x0 DUP1 REVERT JUMPDEST POP PUSH2 0x391 PUSH2 0x8EE JUMP JUMPDEST PUSH1 0x40 MLOAD PUSH2 0x39E SWAP2 SWAP1 PUSH2 0x1FB2 JUMP JUMPDEST PUSH1 0x40 MLOAD DUP1 SWAP2 SUB SWAP1 RETURN JUMPDEST CALLVALUE DUP1 ISZERO PUSH2 0x3B3 JUMPI PUSH1 0x0 DUP1 REVERT JUMPDEST POP PUSH2 0x3BC PUSH2 0x916 JUMP JUMPDEST PUSH1 0x40 MLOAD PUSH2 0x3C9 SWAP2 SWAP1 PUSH2 0x1DCB JUMP JUMPDEST PUSH1 0x40 MLOAD DUP1 SWAP2 SUB SWAP1 RETURN JUMPDEST CALLVALUE DUP1 ISZERO PUSH2 0x3DE JUMPI PUSH1 0x0 DUP1 REVERT JUMPDEST POP PUSH2 0x3E7 PUSH2 0x94F JUMP JUMPDEST PUSH1 0x40 MLOAD PUSH2 0x3F4 SWAP2 SWAP1 PUSH2 0x202F JUMP JUMPDEST PUSH1 0x40 MLOAD DUP1 SWAP2 SUB SWAP1 RETURN JUMPDEST PUSH2 0x417 PUSH1 0x4 DUP1 CALLDATASIZE SUB DUP2 ADD SWAP1 PUSH2 0x412 SWAP2 SWAP1 PUSH2 0x1EFC JUMP JUMPDEST PUSH2 0x975 JUMP JUMPDEST STOP JUMPDEST CALLVALUE DUP1 ISZERO PUSH2 0x425 JUMPI PUSH1 0x0 DUP1 REVERT JUMPDEST POP PUSH2 0x42E PUSH2 0xE3A JUMP JUMPDEST PUSH1 0x40 MLOAD PUSH2 0x43B SWAP2 SWAP1 PUSH2 0x202F JUMP JUMPDEST PUSH1 0x40 MLOAD DUP1 SWAP2 SUB SWAP1 RETURN JUMPDEST CALLVALUE DUP1 ISZERO PUSH2 0x450 JUMPI PUSH1 0x0 DUP1 REVERT JUMPDEST POP PUSH2 0x459 PUSH2 0xE60 JUMP JUMPDEST PUSH1 0x40 MLOAD PUSH2 0x466 SWAP2 SWAP1 PUSH2 0x1FB2 JUMP JUMPDEST PUSH1 0x40 MLOAD DUP1 SWAP2 SUB SWAP1 RETURN JUMPDEST CALLVALUE DUP1 ISZERO PUSH2 0x47B JUMPI PUSH1 0x0 DUP1 REVERT JUMPDEST POP PUSH2 0x496 PUSH1 0x4 DUP1 CALLDATASIZE SUB DUP2 ADD SWAP1 PUSH2 0x491 SWAP2 SWAP1 PUSH2 0x1EFC JUMP JUMPDEST PUSH2 0xE66 JUMP JUMPDEST PUSH1 0x40 MLOAD PUSH2 0x4A3 SWAP2 SWAP1 PUSH2 0x1FB2 JUMP JUMPDEST PUSH1 0x40 MLOAD DUP1 SWAP2 SUB SWAP1 RETURN JUMPDEST CALLVALUE DUP1 ISZERO PUSH2 0x4B8 JUMPI PUSH1 0x0 DUP1 REVERT JUMPDEST POP PUSH2 0x4C1 PUSH2 0xEAE JUMP JUMPDEST STOP JUMPDEST CALLVALUE DUP1 ISZERO PUSH2 0x4CF JUMPI PUSH1 0x0 DUP1 REVERT JUMPDEST POP PUSH2 0x4D8 PUSH2 0xFA5 JUMP JUMPDEST PUSH1 0x40 MLOAD PUSH2 0x4E5 SWAP2 SWAP1 PUSH2 0x202F JUMP JUMPDEST PUSH1 0x40 MLOAD DUP1 SWAP2 SUB SWAP1 RETURN JUMPDEST CALLVALUE DUP1 ISZERO PUSH2 0x4FA JUMPI PUSH1 0x0 DUP1 REVERT JUMPDEST POP PUSH2 0x503 PUSH2 0xFCB JUMP JUMPDEST PUSH1 0x40 MLOAD PUSH2 0x510 SWAP2 SWAP1 PUSH2 0x202F JUMP JUMPDEST PUSH1 0x40 MLOAD DUP1 SWAP2 SUB SWAP1 RETURN JUMPDEST CALLVALUE DUP1 ISZERO PUSH2 0x525 JUMPI PUSH1 0x0 DUP1 REVERT JUMPDEST POP PUSH2 0x52E PUSH2 0xFF5 JUMP JUMPDEST PUSH1 0x40 MLOAD PUSH2 0x53B SWAP2 SWAP1 PUSH2 0x1DCB JUMP JUMPDEST PUSH1 0x40 MLOAD DUP1 SWAP2 SUB SWAP1 RETURN JUMPDEST CALLVALUE DUP1 ISZERO PUSH2 0x550 JUMPI PUSH1 0x0 DUP1 REVERT JUMPDEST POP PUSH2 0x56B PUSH1 0x4 DUP1 CALLDATASIZE SUB DUP2 ADD SWAP1 PUSH2 0x566 SWAP2 SWAP1 PUSH2 0x1E86 JUMP JUMPDEST PUSH2 0x1087 JUMP JUMPDEST PUSH1 0x40 MLOAD PUSH2 0x578 SWAP2 SWAP1 PUSH2 0x1EE1 JUMP JUMPDEST PUSH1 0x40 MLOAD DUP1 SWAP2 SUB SWAP1 RETURN JUMPDEST CALLVALUE DUP1 ISZERO PUSH2 0x58D JUMPI PUSH1 0x0 DUP1 REVERT JUMPDEST POP PUSH2 0x5A8 PUSH1 0x4 DUP1 CALLDATASIZE SUB DUP2 ADD SWAP1 PUSH2 0x5A3 SWAP2 SWAP1 PUSH2 0x2081 JUMP JUMPDEST PUSH2 0x10AA JUMP JUMPDEST PUSH1 0x40 MLOAD PUSH2 0x5B5 SWAP2 SWAP1 PUSH2 0x1FB2 JUMP JUMPDEST PUSH1 0x40 MLOAD DUP1 SWAP2 SUB SWAP1 RETURN JUMPDEST CALLVALUE DUP1 ISZERO PUSH2 0x5CA JUMPI PUSH1 0x0 DUP1 REVERT JUMPDEST POP PUSH2 0x5D3 PUSH2 0x1131 JUMP JUMPDEST PUSH1 0x40 MLOAD PUSH2 0x5E0 SWAP2 SWAP1 PUSH2 0x2138 JUMP JUMPDEST PUSH1 0x40 MLOAD DUP1 SWAP2 SUB SWAP1 RETURN JUMPDEST CALLVALUE DUP1 ISZERO PUSH2 0x5F5 JUMPI PUSH1 0x0 DUP1 REVERT JUMPDEST POP PUSH2 0x5FE PUSH2 0x1144 JUMP JUMPDEST STOP JUMPDEST CALLVALUE DUP1 ISZERO PUSH2 0x60C JUMPI PUSH1 0x0 DUP1 REVERT JUMPDEST POP PUSH2 0x627 PUSH1 0x4 DUP1 CALLDATASIZE SUB DUP2 ADD SWAP1 PUSH2 0x622 SWAP2 SWAP1 PUSH2 0x1EFC JUMP JUMPDEST PUSH2 0x1240 JUMP JUMPDEST STOP JUMPDEST CALLVALUE DUP1 ISZERO PUSH2 0x635 JUMPI PUSH1 0x0 DUP1 REVERT JUMPDEST POP PUSH2 0x63E PUSH2 0x12C6 JUMP JUMPDEST PUSH1 0x40 MLOAD PUSH2 0x64B SWAP2 SWAP1 PUSH2 0x202F JUMP JUMPDEST PUSH1 0x40 MLOAD DUP1 SWAP2 SUB SWAP1 RETURN JUMPDEST PUSH1 0x60 PUSH1 0x3 DUP1 SLOAD PUSH2 0x663 SWAP1 PUSH2 0x2182 JUMP JUMPDEST DUP1 PUSH1 0x1F ADD PUSH1 0x20 DUP1 SWAP2 DIV MUL PUSH1 0x20 ADD PUSH1 0x40 MLOAD SWAP1 DUP2 ADD PUSH1 0x40 MSTORE DUP1 SWAP3 SWAP2 SWAP1 DUP2 DUP2 MSTORE PUSH1 0x20 ADD DUP3 DUP1 SLOAD PUSH2 0x68F SWAP1 PUSH2 0x2182 JUMP JUMPDEST DUP1 ISZERO PUSH2 0x6DC JUMPI DUP1 PUSH1 0x1F LT PUSH2 0x6B1 JUMPI PUSH2 0x100 DUP1 DUP4 SLOAD DIV MUL DUP4 MSTORE SWAP2 PUSH1 0x20 ADD SWAP2 PUSH2 0x6DC JUMP JUMPDEST DUP3 ADD SWAP2 SWAP1 PUSH1 0x0 MSTORE PUSH1 0x20 PUSH1 0x0 KECCAK256 SWAP1 JUMPDEST DUP2 SLOAD DUP2 MSTORE SWAP1 PUSH1 0x1 ADD SWAP1 PUSH1 0x20 ADD DUP1 DUP4 GT PUSH2 0x6BF JUMPI DUP3 SWAP1 SUB PUSH1 0x1F AND DUP3 ADD SWAP2 JUMPDEST POP POP POP POP POP SWAP1 POP SWAP1 JUMP JUMPDEST PUSH1 0x0 DUP1 PUSH2 0x6F1 PUSH2 0x12CB JUMP JUMPDEST SWAP1 POP PUSH2 0x6FE DUP2 DUP6 DUP6 PUSH2 0x12D3 JUMP JUMPDEST PUSH1 0x1 SWAP2 POP POP SWAP3 SWAP2 POP POP JUMP JUMPDEST PUSH2 0x711 PUSH2 0x12E5 JUMP JUMPDEST PUSH1 0x1 DUP1 PUSH1 0x4 DUP2 GT ISZERO PUSH2 0x726 JUMPI PUSH2 0x725 PUSH2 0x20C1 JUMP JUMPDEST JUMPDEST PUSH1 0x5 PUSH1 0x14 SWAP1 SLOAD SWAP1 PUSH2 0x100 EXP SWAP1 DIV PUSH1 0xFF AND PUSH1 0x4 DUP2 GT ISZERO PUSH2 0x748 JUMPI PUSH2 0x747 PUSH2 0x20C1 JUMP JUMPDEST JUMPDEST EQ PUSH2 0x788 JUMPI PUSH1 0x40 MLOAD PUSH32 0x8C379A000000000000000000000000000000000000000000000000000000000 DUP2 MSTORE PUSH1 0x4 ADD PUSH2 0x77F SWAP1 PUSH2 0x2225 JUMP JUMPDEST PUSH1 0x40 MLOAD DUP1 SWAP2 SUB SWAP1 REVERT JUMPDEST DUP2 PUSH1 0xB PUSH1 0x0 PUSH2 0x100 EXP DUP2 SLOAD DUP2 PUSH20 0xFFFFFFFFFFFFFFFFFFFFFFFFFFFFFFFFFFFFFFFF MUL NOT AND SWAP1 DUP4 PUSH20 0xFFFFFFFFFFFFFFFFFFFFFFFFFFFFFFFFFFFFFFFF AND MUL OR SWAP1 SSTORE POP PUSH1 0x0 PUSH2 0x7D3 PUSH2 0x847 JUMP JUMPDEST PUSH2 0x7DB PUSH2 0x8EE JUMP JUMPDEST PUSH2 0x7E5 SWAP2 SWAP1 PUSH2 0x2274 JUMP JUMPDEST SWAP1 POP PUSH2 0x7F1 CALLER DUP3 PUSH2 0x136C JUMP JUMPDEST PUSH1 0x2 PUSH1 0x5 PUSH1 0x14 PUSH2 0x100 EXP DUP2 SLOAD DUP2 PUSH1 0xFF MUL NOT AND SWAP1 DUP4 PUSH1 0x4 DUP2 GT ISZERO PUSH2 0x817 JUMPI PUSH2 0x816 PUSH2 0x20C1 JUMP JUMPDEST JUMPDEST MUL OR SWAP1 SSTORE POP POP POP POP JUMP JUMPDEST PUSH1 0xC PUSH1 0x0 SWAP1 SLOAD SWAP1 PUSH2 0x100 EXP SWAP1 DIV PUSH20 0xFFFFFFFFFFFFFFFFFFFFFFFFFFFFFFFFFFFFFFFF AND DUP2 JUMP JUMPDEST PUSH1 0x0 PUSH1 0x2 SLOAD SWAP1 POP SWAP1 JUMP JUMPDEST PUSH1 0x40 MLOAD DUP1 PUSH1 0x40 ADD PUSH1 0x40 MSTORE DUP1 PUSH1 0xB DUP2 MSTORE PUSH1 0x20 ADD PUSH32 0x4261736564205768616C65000000000000000000000000000000000000000000 DUP2 MSTORE POP DUP2 JUMP JUMPDEST PUSH1 0x0 DUP1 PUSH2 0x895 PUSH2 0x12CB JUMP JUMPDEST SWAP1 POP PUSH2 0x8A2 DUP6 DUP3 DUP6 PUSH2 0x13EE JUMP JUMPDEST PUSH2 0x8AD DUP6 DUP6 DUP6 PUSH2 0x1482 JUMP JUMPDEST PUSH1 0x1 SWAP2 POP POP SWAP4 SWAP3 POP POP POP JUMP JUMPDEST PUSH1 0xA SLOAD DUP2 JUMP JUMPDEST PUSH1 0xB PUSH1 0x0 SWAP1 SLOAD SWAP1 PUSH2 0x100 EXP SWAP1 DIV PUSH20 0xFFFFFFFFFFFFFFFFFFFFFFFFFFFFFFFFFFFFFFFF AND DUP2 JUMP JUMPDEST PUSH1 0x0 PUSH1 0x12 SWAP1 POP SWAP1 JUMP JUMPDEST PUSH1 0x0 PUSH32 0x0 SWAP1 POP SWAP1 JUMP JUMPDEST PUSH1 0x40 MLOAD DUP1 PUSH1 0x40 ADD PUSH1 0x40 MSTORE DUP1 PUSH1 0x5 DUP2 MSTORE PUSH1 0x20 ADD PUSH32 0x5748414C45000000000000000000000000000000000000000000000000000000 DUP2 MSTORE POP DUP2 JUMP JUMPDEST PUSH1 0x8 PUSH1 0x0 SWAP1 SLOAD SWAP1 PUSH2 0x100 EXP SWAP1 DIV PUSH20 0xFFFFFFFFFFFFFFFFFFFFFFFFFFFFFFFFFFFFFFFF AND DUP2 JUMP JUMPDEST PUSH2 0x97D PUSH2 0x12E5 JUMP JUMPDEST PUSH1 0x1 DUP1 PUSH1 0x4 DUP2 GT ISZERO PUSH2 0x992 JUMPI PUSH2 0x991 PUSH2 0x20C1 JUMP JUMPDEST JUMPDEST PUSH1 0x5 PUSH1 0x14 SWAP1 SLOAD SWAP1 PUSH2 0x100 EXP SWAP1 DIV PUSH1 0xFF AND PUSH1 0x4 DUP2 GT ISZERO PUSH2 0x9B4 JUMPI PUSH2 0x9B3 PUSH2 0x20C1 JUMP JUMPDEST JUMPDEST EQ PUSH2 0x9F4 JUMPI PUSH1 0x40 MLOAD PUSH32 0x8C379A000000000000000000000000000000000000000000000000000000000 DUP2 MSTORE PUSH1 0x4 ADD PUSH2 0x9EB SWAP1 PUSH2 0x2225 JUMP JUMPDEST PUSH1 0x40 MLOAD DUP1 SWAP2 SUB SWAP1 REVERT JUMPDEST DUP2 PUSH1 0xC PUSH1 0x0 PUSH2 0x100 EXP DUP2 SLOAD DUP2 PUSH20 0xFFFFFFFFFFFFFFFFFFFFFFFFFFFFFFFFFFFFFFFF MUL NOT AND SWAP1 DUP4 PUSH20 0xFFFFFFFFFFFFFFFFFFFFFFFFFFFFFFFFFFFFFFFF AND MUL OR SWAP1 SSTORE POP PUSH1 0xC PUSH1 0x0 SWAP1 SLOAD SWAP1 PUSH2 0x100 EXP SWAP1 DIV PUSH20 0xFFFFFFFFFFFFFFFFFFFFFFFFFFFFFFFFFFFFFFFF AND PUSH20 0xFFFFFFFFFFFFFFFFFFFFFFFFFFFFFFFFFFFFFFFF AND PUSH4 0xC45A0155 PUSH1 0x40 MLOAD DUP2 PUSH4 0xFFFFFFFF AND PUSH1 0xE0 SHL DUP2 MSTORE PUSH1 0x4 ADD PUSH1 0x20 PUSH1 0x40 MLOAD DUP1 DUP4 SUB DUP2 DUP7 GAS STATICCALL ISZERO DUP1 ISZERO PUSH2 0xAA2 JUMPI RETURNDATASIZE PUSH1 0x0 DUP1 RETURNDATACOPY RETURNDATASIZE PUSH1 0x0 REVERT JUMPDEST POP POP POP POP PUSH1 0x40 MLOAD RETURNDATASIZE PUSH1 0x1F NOT PUSH1 0x1F DUP3 ADD AND DUP3 ADD DUP1 PUSH1 0x40 MSTORE POP DUP2 ADD SWAP1 PUSH2 0xAC6 SWAP2 SWAP1 PUSH2 0x22BD JUMP JUMPDEST PUSH20 0xFFFFFFFFFFFFFFFFFFFFFFFFFFFFFFFFFFFFFFFF AND PUSH4 0xC9C65396 ADDRESS PUSH1 0xC PUSH1 0x0 SWAP1 SLOAD SWAP1 PUSH2 0x100 EXP SWAP1 DIV PUSH20 0xFFFFFFFFFFFFFFFFFFFFFFFFFFFFFFFFFFFFFFFF AND PUSH20 0xFFFFFFFFFFFFFFFFFFFFFFFFFFFFFFFFFFFFFFFF AND PUSH4 0xAD5C4648 PUSH1 0x40 MLOAD DUP2 PUSH4 0xFFFFFFFF AND PUSH1 0xE0 SHL DUP2 MSTORE PUSH1 0x4 ADD PUSH1 0x20 PUSH1 0x40 MLOAD DUP1 DUP4 SUB DUP2 DUP7 GAS STATICCALL ISZERO DUP1 ISZERO PUSH2 0xB4F JUMPI RETURNDATASIZE PUSH1 0x0 DUP1 RETURNDATACOPY RETURNDATASIZE PUSH1 0x0 REVERT JUMPDEST POP POP POP POP PUSH1 0x40 MLOAD RETURNDATASIZE PUSH1 0x1F NOT PUSH1 0x1F DUP3 ADD AND DUP3 ADD DUP1 PUSH1 0x40 MSTORE POP DUP2 ADD SWAP1 PUSH2 0xB73 SWAP2 SWAP1 PUSH2 0x22BD JUMP JUMPDEST PUSH1 0x40 MLOAD DUP4 PUSH4 0xFFFFFFFF AND PUSH1 0xE0 SHL DUP2 MSTORE PUSH1 0x4 ADD PUSH2 0xB90 SWAP3 SWAP2 SWAP1 PUSH2 0x22EA JUMP JUMPDEST PUSH1 0x20 PUSH1 0x40 MLOAD DUP1 DUP4 SUB DUP2 PUSH1 0x0 DUP8 GAS CALL ISZERO DUP1 ISZERO PUSH2 0xBAF JUMPI RETURNDATASIZE PUSH1 0x0 DUP1 RETURNDATACOPY RETURNDATASIZE PUSH1 0x0 REVERT JUMPDEST POP POP POP POP PUSH1 0x40 MLOAD RETURNDATASIZE PUSH1 0x1F NOT PUSH1 0x1F DUP3 ADD AND DUP3 ADD DUP1 PUSH1 0x40 MSTORE POP DUP2 ADD SWAP1 PUSH2 0xBD3 SWAP2 SWAP1 PUSH2 0x22BD JUMP JUMPDEST PUSH1 0xB PUSH1 0x0 PUSH2 0x100 EXP DUP2 SLOAD DUP2 PUSH20 0xFFFFFFFFFFFFFFFFFFFFFFFFFFFFFFFFFFFFFFFF MUL NOT AND SWAP1 DUP4 PUSH20 0xFFFFFFFFFFFFFFFFFFFFFFFFFFFFFFFFFFFFFFFF AND MUL OR SWAP1 SSTORE POP PUSH1 0x0 PUSH1 0x64 PUSH1 0x55 PUSH2 0xC21 PUSH2 0x8EE JUMP JUMPDEST PUSH2 0xC2B SWAP2 SWAP1 PUSH2 0x2313 JUMP JUMPDEST PUSH2 0xC35 SWAP2 SWAP1 PUSH2 0x2384 JUMP JUMPDEST SWAP1 POP PUSH2 0xC41 ADDRESS DUP3 PUSH2 0x136C JUMP JUMPDEST PUSH2 0xC4C ADDRESS DUP5 DUP4 PUSH2 0x12D3 JUMP JUMPDEST PUSH1 0x0 TIMESTAMP SWAP1 POP PUSH1 0x0 DUP1 PUSH1 0xC PUSH1 0x0 SWAP1 SLOAD SWAP1 PUSH2 0x100 EXP SWAP1 DIV PUSH20 0xFFFFFFFFFFFFFFFFFFFFFFFFFFFFFFFFFFFFFFFF AND PUSH20 0xFFFFFFFFFFFFFFFFFFFFFFFFFFFFFFFFFFFFFFFF AND PUSH4 0xF305D719 CALLVALUE ADDRESS DUP8 PUSH1 0x0 DUP1 PUSH1 0x0 DUP11 PUSH1 0x40 MLOAD DUP9 PUSH4 0xFFFFFFFF AND PUSH1 0xE0 SHL DUP2 MSTORE PUSH1 0x4 ADD PUSH2 0xCBC SWAP7 SWAP6 SWAP5 SWAP4 SWAP3 SWAP2 SWAP1 PUSH2 0x23F0 JUMP JUMPDEST PUSH1 0x60 PUSH1 0x40 MLOAD DUP1 DUP4 SUB DUP2 DUP6 DUP9 GAS CALL ISZERO DUP1 ISZERO PUSH2 0xCDA JUMPI RETURNDATASIZE PUSH1 0x0 DUP1 RETURNDATACOPY RETURNDATASIZE PUSH1 0x0 REVERT JUMPDEST POP POP POP POP POP PUSH1 0x40 MLOAD RETURNDATASIZE PUSH1 0x1F NOT PUSH1 0x1F DUP3 ADD AND DUP3 ADD DUP1 PUSH1 0x40 MSTORE POP DUP2 ADD SWAP1 PUSH2 0xCFF SWAP2 SWAP1 PUSH2 0x2466 JUMP JUMPDEST POP SWAP2 POP SWAP2 POP PUSH1 0x0 PUSH1 0xB PUSH1 0x0 SWAP1 SLOAD SWAP1 PUSH2 0x100 EXP SWAP1 DIV PUSH20 0xFFFFFFFFFFFFFFFFFFFFFFFFFFFFFFFFFFFFFFFF AND SWAP1 POP PUSH32 0xF07F8699EB5A7D3C6903ABA7FFC0B932E8E123129924F6AA4E3E95B04BA25179 PUSH1 0xB PUSH1 0x0 SWAP1 SLOAD SWAP1 PUSH2 0x100 EXP SWAP1 DIV PUSH20 0xFFFFFFFFFFFFFFFFFFFFFFFFFFFFFFFFFFFFFFFF AND DUP5 DUP5 DUP5 PUSH20 0xFFFFFFFFFFFFFFFFFFFFFFFFFFFFFFFFFFFFFFFF AND PUSH4 0x70A08231 PUSH1 0x0 PUSH1 0x40 MLOAD DUP3 PUSH4 0xFFFFFFFF AND PUSH1 0xE0 SHL DUP2 MSTORE PUSH1 0x4 ADD PUSH2 0xDAB SWAP2 SWAP1 PUSH2 0x202F JUMP JUMPDEST PUSH1 0x20 PUSH1 0x40 MLOAD DUP1 DUP4 SUB DUP2 DUP7 GAS STATICCALL ISZERO DUP1 ISZERO PUSH2 0xDC8 JUMPI RETURNDATASIZE PUSH1 0x0 DUP1 RETURNDATACOPY RETURNDATASIZE PUSH1 0x0 REVERT JUMPDEST POP POP POP POP PUSH1 0x40 MLOAD RETURNDATASIZE PUSH1 0x1F NOT PUSH1 0x1F DUP3 ADD AND DUP3 ADD DUP1 PUSH1 0x40 MSTORE POP DUP2 ADD SWAP1 PUSH2 0xDEC SWAP2 SWAP1 PUSH2 0x24B9 JUMP JUMPDEST DUP9 PUSH1 0x40 MLOAD PUSH2 0xDFE SWAP6 SWAP5 SWAP4 SWAP3 SWAP2 SWAP1 PUSH2 0x24E6 JUMP JUMPDEST PUSH1 0x40 MLOAD DUP1 SWAP2 SUB SWAP1 LOG1 PUSH1 0x2 PUSH1 0x5 PUSH1 0x14 PUSH2 0x100 EXP DUP2 SLOAD DUP2 PUSH1 0xFF MUL NOT AND SWAP1 DUP4 PUSH1 0x4 DUP2 GT ISZERO PUSH2 0xE2C JUMPI PUSH2 0xE2B PUSH2 0x20C1 JUMP JUMPDEST JUMPDEST MUL OR SWAP1 SSTORE POP POP POP POP POP POP POP POP JUMP JUMPDEST PUSH1 0x6 PUSH1 0x0 SWAP1 SLOAD SWAP1 PUSH2 0x100 EXP SWAP1 DIV PUSH20 0xFFFFFFFFFFFFFFFFFFFFFFFFFFFFFFFFFFFFFFFF AND DUP2 JUMP JUMPDEST PUSH1 0x9 SLOAD DUP2 JUMP JUMPDEST PUSH1 0x0 DUP1 PUSH1 0x0 DUP4 PUSH20 0xFFFFFFFFFFFFFFFFFFFFFFFFFFFFFFFFFFFFFFFF AND PUSH20 0xFFFFFFFFFFFFFFFFFFFFFFFFFFFFFFFFFFFFFFFF AND DUP2 MSTORE PUSH1 0x20 ADD SWAP1 DUP2 MSTORE PUSH1 0x20 ADD PUSH1 0x0 KECCAK256 SLOAD SWAP1 POP SWAP2 SWAP1 POP JUMP JUMPDEST PUSH2 0xEB6 PUSH2 0x12E5 JUMP JUMPDEST PUSH1 0x3 DUP1 PUSH1 0x4 DUP2 GT ISZERO PUSH2 0xECB JUMPI PUSH2 0xECA PUSH2 0x20C1 JUMP JUMPDEST JUMPDEST PUSH1 0x5 PUSH1 0x14 SWAP1 SLOAD SWAP1 PUSH2 0x100 EXP SWAP1 DIV PUSH1 0xFF AND PUSH1 0x4 DUP2 GT ISZERO PUSH2 0xEED JUMPI PUSH2 0xEEC PUSH2 0x20C1 JUMP JUMPDEST JUMPDEST EQ PUSH2 0xF2D JUMPI PUSH1 0x40 MLOAD PUSH32 0x8C379A000000000000000000000000000000000000000000000000000000000 DUP2 MSTORE PUSH1 0x4 ADD PUSH2 0xF24 SWAP1 PUSH2 0x2225 JUMP JUMPDEST PUSH1 0x40 MLOAD DUP1 SWAP2 SUB SWAP1 REVERT JUMPDEST PUSH32 0xBC3FA950185893C8DDFFF1DAFEC540FFC8D7E576295FEA983A515E9A8E03ACD7 CALLER PUSH2 0xF57 PUSH2 0xFCB JUMP JUMPDEST TIMESTAMP PUSH1 0x40 MLOAD PUSH2 0xF67 SWAP4 SWAP3 SWAP2 SWAP1 PUSH2 0x2539 JUMP JUMPDEST PUSH1 0x40 MLOAD DUP1 SWAP2 SUB SWAP1 LOG1 PUSH1 0x4 PUSH1 0x5 PUSH1 0x14 PUSH2 0x100 EXP DUP2 SLOAD DUP2 PUSH1 0xFF MUL NOT AND SWAP1 DUP4 PUSH1 0x4 DUP2 GT ISZERO PUSH2 0xF95 JUMPI PUSH2 0xF94 PUSH2 0x20C1 JUMP JUMPDEST JUMPDEST MUL OR SWAP1 SSTORE POP PUSH2 0xFA2 PUSH2 0x1576 JUMP JUMPDEST POP JUMP JUMPDEST PUSH1 0x7 PUSH1 0x0 SWAP1 SLOAD SWAP1 PUSH2 0x100 EXP SWAP1 DIV PUSH20 0xFFFFFFFFFFFFFFFFFFFFFFFFFFFFFFFFFFFFFFFF AND DUP2 JUMP JUMPDEST PUSH1 0x0 PUSH1 0x5 PUSH1 0x0 SWAP1 SLOAD SWAP1 PUSH2 0x100 EXP SWAP1 DIV PUSH20 0xFFFFFFFFFFFFFFFFFFFFFFFFFFFFFFFFFFFFFFFF AND SWAP1 POP SWAP1 JUMP JUMPDEST PUSH1 0x60 PUSH1 0x4 DUP1 SLOAD PUSH2 0x1004 SWAP1 PUSH2 0x2182 JUMP JUMPDEST DUP1 PUSH1 0x1F ADD PUSH1 0x20 DUP1 SWAP2 DIV MUL PUSH1 0x20 ADD PUSH1 0x40 MLOAD SWAP1 DUP2 ADD PUSH1 0x40 MSTORE DUP1 SWAP3 SWAP2 SWAP1 DUP2 DUP2 MSTORE PUSH1 0x20 ADD DUP3 DUP1 SLOAD PUSH2 0x1030 SWAP1 PUSH2 0x2182 JUMP JUMPDEST DUP1 ISZERO PUSH2 0x107D JUMPI DUP1 PUSH1 0x1F LT PUSH2 0x1052 JUMPI PUSH2 0x100 DUP1 DUP4 SLOAD DIV MUL DUP4 MSTORE SWAP2 PUSH1 0x20 ADD SWAP2 PUSH2 0x107D JUMP JUMPDEST DUP3 ADD SWAP2 SWAP1 PUSH1 0x0 MSTORE PUSH1 0x20 PUSH1 0x0 KECCAK256 SWAP1 JUMPDEST DUP2 SLOAD DUP2 MSTORE SWAP1 PUSH1 0x1 ADD SWAP1 PUSH1 0x20 ADD DUP1 DUP4 GT PUSH2 0x1060 JUMPI DUP3 SWAP1 SUB PUSH1 0x1F AND DUP3 ADD SWAP2 JUMPDEST POP POP POP POP POP SWAP1 POP SWAP1 JUMP JUMPDEST PUSH1 0x0 DUP1 PUSH2 0x1092 PUSH2 0x12CB JUMP JUMPDEST SWAP1 POP PUSH2 0x109F DUP2 DUP6 DUP6 PUSH2 0x1482 JUMP JUMPDEST PUSH1 0x1 SWAP2 POP POP SWAP3 SWAP2 POP POP JUMP JUMPDEST PUSH1 0x0 PUSH1 0x1 PUSH1 0x0 DUP5 PUSH20 0xFFFFFFFFFFFFFFFFFFFFFFFFFFFFFFFFFFFFFFFF AND PUSH20 0xFFFFFFFFFFFFFFFFFFFFFFFFFFFFFFFFFFFFFFFF AND DUP2 MSTORE PUSH1 0x20 ADD SWAP1 DUP2 MSTORE PUSH1 0x20 ADD PUSH1 0x0 KECCAK256 PUSH1 0x0 DUP4 PUSH20 0xFFFFFFFFFFFFFFFFFFFFFFFFFFFFFFFFFFFFFFFF AND PUSH20 0xFFFFFFFFFFFFFFFFFFFFFFFFFFFFFFFFFFFFFFFF AND DUP2 MSTORE PUSH1 0x20 ADD SWAP1 DUP2 MSTORE PUSH1 0x20 ADD PUSH1 0x0 KECCAK256 SLOAD SWAP1 POP SWAP3 SWAP2 POP POP JUMP JUMPDEST PUSH1 0x5 PUSH1 0x14 SWAP1 SLOAD SWAP1 PUSH2 0x100 EXP SWAP1 DIV PUSH1 0xFF AND DUP2 JUMP JUMPDEST PUSH2 0x114C PUSH2 0x12E5 JUMP JUMPDEST PUSH1 0x2 DUP1 PUSH1 0x4 DUP2 GT ISZERO PUSH2 0x1161 JUMPI PUSH2 0x1160 PUSH2 0x20C1 JUMP JUMPDEST JUMPDEST PUSH1 0x5 PUSH1 0x14 SWAP1 SLOAD SWAP1 PUSH2 0x100 EXP SWAP1 DIV PUSH1 0xFF AND PUSH1 0x4 DUP2 GT ISZERO PUSH2 0x1183 JUMPI PUSH2 0x1182 PUSH2 0x20C1 JUMP JUMPDEST JUMPDEST EQ PUSH2 0x11C3 JUMPI PUSH1 0x40 MLOAD PUSH32 0x8C379A000000000000000000000000000000000000000000000000000000000 DUP2 MSTORE PUSH1 0x4 ADD PUSH2 0x11BA SWAP1 PUSH2 0x2225 JUMP JUMPDEST PUSH1 0x40 MLOAD DUP1 SWAP2 SUB SWAP1 REVERT JUMPDEST PUSH1 0x0 PUSH1 0x9 DUP2 SWAP1 SSTORE POP PUSH1 0x0 PUSH1 0xA DUP2 SWAP1 SSTORE POP PUSH32 0xC4C7C69F1EEEF4DCF5449FCEE968E149B2646D141F0D9BB3D1DE12DE99D77F7E PUSH1 0x9 SLOAD PUSH1 0xA SLOAD TIMESTAMP PUSH1 0x40 MLOAD PUSH2 0x120A SWAP4 SWAP3 SWAP2 SWAP1 PUSH2 0x2570 JUMP JUMPDEST PUSH1 0x40 MLOAD DUP1 SWAP2 SUB SWAP1 LOG1 PUSH1 0x3 PUSH1 0x5 PUSH1 0x14 PUSH2 0x100 EXP DUP2 SLOAD DUP2 PUSH1 0xFF MUL NOT AND SWAP1 DUP4 PUSH1 0x4 DUP2 GT ISZERO PUSH2 0x1238 JUMPI PUSH2 0x1237 PUSH2 0x20C1 JUMP JUMPDEST JUMPDEST MUL OR SWAP1 SSTORE POP POP JUMP JUMPDEST PUSH2 0x1248 PUSH2 0x12E5 JUMP JUMPDEST PUSH1 0x0 PUSH20 0xFFFFFFFFFFFFFFFFFFFFFFFFFFFFFFFFFFFFFFFF AND DUP2 PUSH20 0xFFFFFFFFFFFFFFFFFFFFFFFFFFFFFFFFFFFFFFFF AND SUB PUSH2 0x12BA JUMPI PUSH1 0x0 PUSH1 0x40 MLOAD PUSH32 0x1E4FBDF700000000000000000000000000000000000000000000000000000000 DUP2 MSTORE PUSH1 0x4 ADD PUSH2 0x12B1 SWAP2 SWAP1 PUSH2 0x202F JUMP JUMPDEST PUSH1 0x40 MLOAD DUP1 SWAP2 SUB SWAP1 REVERT JUMPDEST PUSH2 0x12C3 DUP2 PUSH2 0x158A JUMP JUMPDEST POP JUMP JUMPDEST PUSH1 0x0 DUP2 JUMP JUMPDEST PUSH1 0x0 CALLER SWAP1 POP SWAP1 JUMP JUMPDEST PUSH2 0x12E0 DUP4 DUP4 DUP4 PUSH1 0x1 PUSH2 0x1650 JUMP JUMPDEST POP POP POP JUMP JUMPDEST PUSH2 0x12ED PUSH2 0x12CB JUMP JUMPDEST PUSH20 0xFFFFFFFFFFFFFFFFFFFFFFFFFFFFFFFFFFFFFFFF AND PUSH2 0x130B PUSH2 0xFCB JUMP JUMPDEST PUSH20 0xFFFFFFFFFFFFFFFFFFFFFFFFFFFFFFFFFFFFFFFF AND EQ PUSH2 0x136A JUMPI PUSH2 0x132E PUSH2 0x12CB JUMP JUMPDEST PUSH1 0x40 MLOAD PUSH32 0x118CDAA700000000000000000000000000000000000000000000000000000000 DUP2 MSTORE PUSH1 0x4 ADD PUSH2 0x1361 SWAP2 SWAP1 PUSH2 0x202F JUMP JUMPDEST PUSH1 0x40 MLOAD DUP1 SWAP2 SUB SWAP1 REVERT JUMPDEST JUMP JUMPDEST PUSH1 0x0 PUSH20 0xFFFFFFFFFFFFFFFFFFFFFFFFFFFFFFFFFFFFFFFF AND DUP3 PUSH20 0xFFFFFFFFFFFFFFFFFFFFFFFFFFFFFFFFFFFFFFFF AND SUB PUSH2 0x13DE JUMPI PUSH1 0x0 PUSH1 0x40 MLOAD PUSH32 0xEC442F0500000000000000000000000000000000000000000000000000000000 DUP2 MSTORE PUSH1 0x4 ADD PUSH2 0x13D5 SWAP2 SWAP1 PUSH2 0x202F JUMP JUMPDEST PUSH1 0x40 MLOAD DUP1 SWAP2 SUB SWAP1 REVERT JUMPDEST PUSH2 0x13EA PUSH1 0x0 DUP4 DUP4 PUSH2 0x1827 JUMP JUMPDEST POP POP JUMP JUMPDEST PUSH1 0x0 PUSH2 0x13FA DUP5 DUP5 PUSH2 0x10AA JUMP JUMPDEST SWAP1 POP PUSH32 0xFFFFFFFFFFFFFFFFFFFFFFFFFFFFFFFFFFFFFFFFFFFFFFFFFFFFFFFFFFFFFFFF DUP2 EQ PUSH2 0x147C JUMPI DUP2 DUP2 LT ISZERO PUSH2 0x146C JUMPI DUP3 DUP2 DUP4 PUSH1 0x40 MLOAD PUSH32 0xFB8F41B200000000000000000000000000000000000000000000000000000000 DUP2 MSTORE PUSH1 0x4 ADD PUSH2 0x1463 SWAP4 SWAP3 SWAP2 SWAP1 PUSH2 0x25A7 JUMP JUMPDEST PUSH1 0x40 MLOAD DUP1 SWAP2 SUB SWAP1 REVERT JUMPDEST PUSH2 0x147B DUP5 DUP5 DUP5 DUP5 SUB PUSH1 0x0 PUSH2 0x1650 JUMP JUMPDEST JUMPDEST POP POP POP POP JUMP JUMPDEST PUSH1 0x0 PUSH20 0xFFFFFFFFFFFFFFFFFFFFFFFFFFFFFFFFFFFFFFFF AND DUP4 PUSH20 0xFFFFFFFFFFFFFFFFFFFFFFFFFFFFFFFFFFFFFFFF AND SUB PUSH2 0x14F4 JUMPI PUSH1 0x0 PUSH1 0x40 MLOAD PUSH32 0x96C6FD1E00000000000000000000000000000000000000000000000000000000 DUP2 MSTORE PUSH1 0x4 ADD PUSH2 0x14EB SWAP2 SWAP1 PUSH2 0x202F JUMP JUMPDEST PUSH1 0x40 MLOAD DUP1 SWAP2 SUB SWAP1 REVERT JUMPDEST PUSH1 0x0 PUSH20 0xFFFFFFFFFFFFFFFFFFFFFFFFFFFFFFFFFFFFFFFF AND DUP3 PUSH20 0xFFFFFFFFFFFFFFFFFFFFFFFFFFFFFFFFFFFFFFFF AND SUB PUSH2 0x1566 JUMPI PUSH1 0x0 PUSH1 0x40 MLOAD PUSH32 0xEC442F0500000000000000000000000000000000000000000000000000000000 DUP2 MSTORE PUSH1 0x4 ADD PUSH2 0x155D SWAP2 SWAP1 PUSH2 0x202F JUMP JUMPDEST PUSH1 0x40 MLOAD DUP1 SWAP2 SUB SWAP1 REVERT JUMPDEST PUSH2 0x1571 DUP4 DUP4 DUP4 PUSH2 0x1827 JUMP JUMPDEST POP POP POP JUMP JUMPDEST PUSH2 0x157E PUSH2 0x12E5 JUMP JUMPDEST PUSH2 0x1588 PUSH1 0x0 PUSH2 0x158A JUMP JUMPDEST JUMP JUMPDEST PUSH1 0x0 PUSH1 0x5 PUSH1 0x0 SWAP1 SLOAD SWAP1 PUSH2 0x100 EXP SWAP1 DIV PUSH20 0xFFFFFFFFFFFFFFFFFFFFFFFFFFFFFFFFFFFFFFFF AND SWAP1 POP DUP2 PUSH1 0x5 PUSH1 0x0 PUSH2 0x100 EXP DUP2 SLOAD DUP2 PUSH20 0xFFFFFFFFFFFFFFFFFFFFFFFFFFFFFFFFFFFFFFFF MUL NOT AND SWAP1 DUP4 PUSH20 0xFFFFFFFFFFFFFFFFFFFFFFFFFFFFFFFFFFFFFFFF AND MUL OR SWAP1 SSTORE POP DUP2 PUSH20 0xFFFFFFFFFFFFFFFFFFFFFFFFFFFFFFFFFFFFFFFF AND DUP2 PUSH20 0xFFFFFFFFFFFFFFFFFFFFFFFFFFFFFFFFFFFFFFFF AND PUSH32 0x8BE0079C531659141344CD1FD0A4F28419497F9722A3DAAFE3B4186F6B6457E0 PUSH1 0x40 MLOAD PUSH1 0x40 MLOAD DUP1 SWAP2 SUB SWAP1 LOG3 POP POP JUMP JUMPDEST PUSH1 0x0 PUSH20 0xFFFFFFFFFFFFFFFFFFFFFFFFFFFFFFFFFFFFFFFF AND DUP5 PUSH20 0xFFFFFFFFFFFFFFFFFFFFFFFFFFFFFFFFFFFFFFFF AND SUB PUSH2 0x16C2 JUMPI PUSH1 0x0 PUSH1 0x40 MLOAD PUSH32 0xE602DF0500000000000000000000000000000000000000000000000000000000 DUP2 MSTORE PUSH1 0x4 ADD PUSH2 0x16B9 SWAP2 SWAP1 PUSH2 0x202F JUMP JUMPDEST PUSH1 0x40 MLOAD DUP1 SWAP2 SUB SWAP1 REVERT JUMPDEST PUSH1 0x0 PUSH20 0xFFFFFFFFFFFFFFFFFFFFFFFFFFFFFFFFFFFFFFFF AND DUP4 PUSH20 0xFFFFFFFFFFFFFFFFFFFFFFFFFFFFFFFFFFFFFFFF AND SUB PUSH2 0x1734 JUMPI PUSH1 0x0 PUSH1 0x40 MLOAD PUSH32 0x94280D6200000000000000000000000000000000000000000000000000000000 DUP2 MSTORE PUSH1 0x4 ADD PUSH2 0x172B SWAP2 SWAP1 PUSH2 0x202F JUMP JUMPDEST PUSH1 0x40 MLOAD DUP1 SWAP2 SUB SWAP1 REVERT JUMPDEST DUP2 PUSH1 0x1 PUSH1 0x0 DUP7 PUSH20 0xFFFFFFFFFFFFFFFFFFFFFFFFFFFFFFFFFFFFFFFF AND PUSH20 0xFFFFFFFFFFFFFFFFFFFFFFFFFFFFFFFFFFFFFFFF AND DUP2 MSTORE PUSH1 0x20 ADD SWAP1 DUP2 MSTORE PUSH1 0x20 ADD PUSH1 0x0 KECCAK256 PUSH1 0x0 DUP6 PUSH20 0xFFFFFFFFFFFFFFFFFFFFFFFFFFFFFFFFFFFFFFFF AND PUSH20 0xFFFFFFFFFFFFFFFFFFFFFFFFFFFFFFFFFFFFFFFF AND DUP2 MSTORE PUSH1 0x20 ADD SWAP1 DUP2 MSTORE PUSH1 0x20 ADD PUSH1 0x0 KECCAK256 DUP2 SWAP1 SSTORE POP DUP1 ISZERO PUSH2 0x1821 JUMPI DUP3 PUSH20 0xFFFFFFFFFFFFFFFFFFFFFFFFFFFFFFFFFFFFFFFF AND DUP5 PUSH20 0xFFFFFFFFFFFFFFFFFFFFFFFFFFFFFFFFFFFFFFFF AND PUSH32 0x8C5BE1E5EBEC7D5BD14F71427D1E84F3DD0314C0F7B2291E5B200AC8C7C3B925 DUP5 PUSH1 0x40 MLOAD PUSH2 0x1818 SWAP2 SWAP1 PUSH2 0x1FB2 JUMP JUMPDEST PUSH1 0x40 MLOAD DUP1 SWAP2 SUB SWAP1 LOG3 JUMPDEST POP POP POP POP JUMP JUMPDEST PUSH1 0x2 PUSH1 0x4 DUP2 GT ISZERO PUSH2 0x183B JUMPI PUSH2 0x183A PUSH2 0x20C1 JUMP JUMPDEST JUMPDEST PUSH1 0x5 PUSH1 0x14 SWAP1 SLOAD SWAP1 PUSH2 0x100 EXP SWAP1 DIV PUSH1 0xFF AND PUSH1 0x4 DUP2 GT ISZERO PUSH2 0x185D JUMPI PUSH2 0x185C PUSH2 0x20C1 JUMP JUMPDEST JUMPDEST EQ ISZERO DUP1 PUSH2 0x189D JUMPI POP PUSH1 0x3 PUSH1 0x4 DUP2 GT ISZERO PUSH2 0x1879 JUMPI PUSH2 0x1878 PUSH2 0x20C1 JUMP JUMPDEST JUMPDEST PUSH1 0x5 PUSH1 0x14 SWAP1 SLOAD SWAP1 PUSH2 0x100 EXP SWAP1 DIV PUSH1 0xFF AND PUSH1 0x4 DUP2 GT ISZERO PUSH2 0x189B JUMPI PUSH2 0x189A PUSH2 0x20C1 JUMP JUMPDEST JUMPDEST EQ JUMPDEST ISZERO PUSH2 0x18B2 JUMPI PUSH2 0x18AD DUP4 DUP4 DUP4 PUSH2 0x1A70 JUMP JUMPDEST PUSH2 0x1A6B JUMP JUMPDEST PUSH1 0x0 PUSH1 0xB PUSH1 0x0 SWAP1 SLOAD SWAP1 PUSH2 0x100 EXP SWAP1 DIV PUSH20 0xFFFFFFFFFFFFFFFFFFFFFFFFFFFFFFFFFFFFFFFF AND PUSH20 0xFFFFFFFFFFFFFFFFFFFFFFFFFFFFFFFFFFFFFFFF AND DUP4 PUSH20 0xFFFFFFFFFFFFFFFFFFFFFFFFFFFFFFFFFFFFFFFF AND SUB PUSH2 0x1968 JUMPI PUSH2 0x3E8 PUSH1 0xA SLOAD DUP4 PUSH2 0x191A SWAP2 SWAP1 PUSH2 0x2313 JUMP JUMPDEST PUSH2 0x1924 SWAP2 SWAP1 PUSH2 0x2384 JUMP JUMPDEST SWAP1 POP PUSH32 0x4021301DA943CE70706F02C0638C48F65E27CD0642FFD0550536995AF05E70CC DUP5 DUP4 DUP4 TIMESTAMP PUSH1 0x40 MLOAD PUSH2 0x195B SWAP5 SWAP4 SWAP3 SWAP2 SWAP1 PUSH2 0x25DE JUMP JUMPDEST PUSH1 0x40 MLOAD DUP1 SWAP2 SUB SWAP1 LOG1 PUSH2 0x1A19 JUMP JUMPDEST PUSH1 0xB PUSH1 0x0 SWAP1 SLOAD SWAP1 PUSH2 0x100 EXP SWAP1 DIV PUSH20 0xFFFFFFFFFFFFFFFFFFFFFFFFFFFFFFFFFFFFFFFF AND PUSH20 0xFFFFFFFFFFFFFFFFFFFFFFFFFFFFFFFFFFFFFFFF AND DUP5 PUSH20 0xFFFFFFFFFFFFFFFFFFFFFFFFFFFFFFFFFFFFFFFF AND SUB PUSH2 0x1A18 JUMPI PUSH2 0x3E8 PUSH1 0x9 SLOAD DUP4 PUSH2 0x19CE SWAP2 SWAP1 PUSH2 0x2313 JUMP JUMPDEST PUSH2 0x19D8 SWAP2 SWAP1 PUSH2 0x2384 JUMP JUMPDEST SWAP1 POP PUSH32 0x4CB653EF0AFB6A8EC8B4B9286771CADC8E586225744651CD05B4B475AB881272 DUP4 DUP4 DUP4 TIMESTAMP PUSH1 0x40 MLOAD PUSH2 0x1A0F SWAP5 SWAP4 SWAP3 SWAP2 SWAP1 PUSH2 0x25DE JUMP JUMPDEST PUSH1 0x40 MLOAD DUP1 SWAP2 SUB SWAP1 LOG1 JUMPDEST JUMPDEST PUSH1 0x0 DUP2 GT ISZERO PUSH2 0x1A5E JUMPI PUSH2 0x1A4F DUP5 PUSH1 0x6 PUSH1 0x0 SWAP1 SLOAD SWAP1 PUSH2 0x100 EXP SWAP1 DIV PUSH20 0xFFFFFFFFFFFFFFFFFFFFFFFFFFFFFFFFFFFFFFFF AND DUP4 PUSH2 0x1A70 JUMP JUMPDEST DUP1 DUP3 PUSH2 0x1A5B SWAP2 SWAP1 PUSH2 0x2274 JUMP JUMPDEST SWAP2 POP JUMPDEST PUSH2 0x1A69 DUP5 DUP5 DUP5 PUSH2 0x1A70 JUMP JUMPDEST POP JUMPDEST POP POP POP JUMP JUMPDEST PUSH2 0x1A7B DUP4 DUP4 DUP4 PUSH2 0x1B16 JUMP JUMPDEST PUSH1 0x0 PUSH20 0xFFFFFFFFFFFFFFFFFFFFFFFFFFFFFFFFFFFFFFFF AND DUP4 PUSH20 0xFFFFFFFFFFFFFFFFFFFFFFFFFFFFFFFFFFFFFFFF AND SUB PUSH2 0x1B11 JUMPI PUSH1 0x0 PUSH2 0x1AB9 PUSH2 0x8EE JUMP JUMPDEST SWAP1 POP PUSH1 0x0 PUSH2 0x1AC5 PUSH2 0x847 JUMP JUMPDEST SWAP1 POP DUP2 DUP2 GT ISZERO PUSH2 0x1B0E JUMPI DUP1 DUP3 PUSH1 0x40 MLOAD PUSH32 0x9E79F85400000000000000000000000000000000000000000000000000000000 DUP2 MSTORE PUSH1 0x4 ADD PUSH2 0x1B05 SWAP3 SWAP2 SWAP1 PUSH2 0x2623 JUMP JUMPDEST PUSH1 0x40 MLOAD DUP1 SWAP2 SUB SWAP1 REVERT JUMPDEST POP POP JUMPDEST POP POP POP JUMP JUMPDEST PUSH1 0x0 PUSH20 0xFFFFFFFFFFFFFFFFFFFFFFFFFFFFFFFFFFFFFFFF AND DUP4 PUSH20 0xFFFFFFFFFFFFFFFFFFFFFFFFFFFFFFFFFFFFFFFF AND SUB PUSH2 0x1B68 JUMPI DUP1 PUSH1 0x2 PUSH1 0x0 DUP3 DUP3 SLOAD PUSH2 0x1B5C SWAP2 SWAP1 PUSH2 0x264C JUMP JUMPDEST SWAP3 POP POP DUP2 SWAP1 SSTORE POP PUSH2 0x1C3B JUMP JUMPDEST PUSH1 0x0 DUP1 PUSH1 0x0 DUP6 PUSH20 0xFFFFFFFFFFFFFFFFFFFFFFFFFFFFFFFFFFFFFFFF AND PUSH20 0xFFFFFFFFFFFFFFFFFFFFFFFFFFFFFFFFFFFFFFFF AND DUP2 MSTORE PUSH1 0x20 ADD SWAP1 DUP2 MSTORE PUSH1 0x20 ADD PUSH1 0x0 KECCAK256 SLOAD SWAP1 POP DUP2 DUP2 LT ISZERO PUSH2 0x1BF4 JUMPI DUP4 DUP2 DUP4 PUSH1 0x40 MLOAD PUSH32 0xE450D38C00000000000000000000000000000000000000000000000000000000 DUP2 MSTORE PUSH1 0x4 ADD PUSH2 0x1BEB SWAP4 SWAP3 SWAP2 SWAP1 PUSH2 0x25A7 JUMP JUMPDEST PUSH1 0x40 MLOAD DUP1 SWAP2 SUB SWAP1 REVERT JUMPDEST DUP2 DUP2 SUB PUSH1 0x0 DUP1 DUP7 PUSH20 0xFFFFFFFFFFFFFFFFFFFFFFFFFFFFFFFFFFFFFFFF AND PUSH20 0xFFFFFFFFFFFFFFFFFFFFFFFFFFFFFFFFFFFFFFFF AND DUP2 MSTORE PUSH1 0x20 ADD SWAP1 DUP2 MSTORE PUSH1 0x20 ADD PUSH1 0x0 KECCAK256 DUP2 SWAP1 SSTORE POP POP JUMPDEST PUSH1 0x0 PUSH20 0xFFFFFFFFFFFFFFFFFFFFFFFFFFFFFFFFFFFFFFFF AND DUP3 PUSH20 0xFFFFFFFFFFFFFFFFFFFFFFFFFFFFFFFFFFFFFFFF AND SUB PUSH2 0x1C84 JUMPI DUP1 PUSH1 0x2 PUSH1 0x0 DUP3 DUP3 SLOAD SUB SWAP3 POP POP DUP2 SWAP1 SSTORE POP PUSH2 0x1CD1 JUMP JUMPDEST DUP1 PUSH1 0x0 DUP1 DUP5 PUSH20 0xFFFFFFFFFFFFFFFFFFFFFFFFFFFFFFFFFFFFFFFF AND PUSH20 0xFFFFFFFFFFFFFFFFFFFFFFFFFFFFFFFFFFFFFFFF AND DUP2 MSTORE PUSH1 0x20 ADD SWAP1 DUP2 MSTORE PUSH1 0x20 ADD PUSH1 0x0 KECCAK256 PUSH1 0x0 DUP3 DUP3 SLOAD ADD SWAP3 POP POP DUP2 SWAP1 SSTORE POP JUMPDEST DUP2 PUSH20 0xFFFFFFFFFFFFFFFFFFFFFFFFFFFFFFFFFFFFFFFF AND DUP4 PUSH20 0xFFFFFFFFFFFFFFFFFFFFFFFFFFFFFFFFFFFFFFFF AND PUSH32 0xDDF252AD1BE2C89B69C2B068FC378DAA952BA7F163C4A11628F55A4DF523B3EF DUP4 PUSH1 0x40 MLOAD PUSH2 0x1D2E SWAP2 SWAP1 PUSH2 0x1FB2 JUMP JUMPDEST PUSH1 0x40 MLOAD DUP1 SWAP2 SUB SWAP1 LOG3 POP POP POP JUMP JUMPDEST PUSH1 0x0 DUP2 MLOAD SWAP1 POP SWAP2 SWAP1 POP JUMP JUMPDEST PUSH1 0x0 DUP3 DUP3 MSTORE PUSH1 0x20 DUP3 ADD SWAP1 POP SWAP3 SWAP2 POP POP JUMP JUMPDEST PUSH1 0x0 JUMPDEST DUP4 DUP2 LT ISZERO PUSH2 0x1D75 JUMPI DUP1 DUP3 ADD MLOAD DUP2 DUP5 ADD MSTORE PUSH1 0x20 DUP2 ADD SWAP1 POP PUSH2 0x1D5A JUMP JUMPDEST PUSH1 0x0 DUP5 DUP5 ADD MSTORE POP POP POP POP JUMP JUMPDEST PUSH1 0x0 PUSH1 0x1F NOT PUSH1 0x1F DUP4 ADD AND SWAP1 POP SWAP2 SWAP1 POP JUMP JUMPDEST PUSH1 0x0 PUSH2 0x1D9D DUP3 PUSH2 0x1D3B JUMP JUMPDEST PUSH2 0x1DA7 DUP2 DUP6 PUSH2 0x1D46 JUMP JUMPDEST SWAP4 POP PUSH2 0x1DB7 DUP2 DUP6 PUSH1 0x20 DUP7 ADD PUSH2 0x1D57 JUMP JUMPDEST PUSH2 0x1DC0 DUP2 PUSH2 0x1D81 JUMP JUMPDEST DUP5 ADD SWAP2 POP POP SWAP3 SWAP2 POP POP JUMP JUMPDEST PUSH1 0x0 PUSH1 0x20 DUP3 ADD SWAP1 POP DUP2 DUP2 SUB PUSH1 0x0 DUP4 ADD MSTORE PUSH2 0x1DE5 DUP2 DUP5 PUSH2 0x1D92 JUMP JUMPDEST SWAP1 POP SWAP3 SWAP2 POP POP JUMP JUMPDEST PUSH1 0x0 DUP1 REVERT JUMPDEST PUSH1 0x0 PUSH20 0xFFFFFFFFFFFFFFFFFFFFFFFFFFFFFFFFFFFFFFFF DUP3 AND SWAP1 POP SWAP2 SWAP1 POP JUMP JUMPDEST PUSH1 0x0 PUSH2 0x1E1D DUP3 PUSH2 0x1DF2 JUMP JUMPDEST SWAP1 POP SWAP2 SWAP1 POP JUMP JUMPDEST PUSH2 0x1E2D DUP2 PUSH2 0x1E12 JUMP JUMPDEST DUP2 EQ PUSH2 0x1E38 JUMPI PUSH1 0x0 DUP1 REVERT JUMPDEST POP JUMP JUMPDEST PUSH1 0x0 DUP2 CALLDATALOAD SWAP1 POP PUSH2 0x1E4A DUP2 PUSH2 0x1E24 JUMP JUMPDEST SWAP3 SWAP2 POP POP JUMP JUMPDEST PUSH1 0x0 DUP2 SWAP1 POP SWAP2 SWAP1 POP JUMP JUMPDEST PUSH2 0x1E63 DUP2 PUSH2 0x1E50 JUMP JUMPDEST DUP2 EQ PUSH2 0x1E6E JUMPI PUSH1 0x0 DUP1 REVERT JUMPDEST POP JUMP JUMPDEST PUSH1 0x0 DUP2 CALLDATALOAD SWAP1 POP PUSH2 0x1E80 DUP2 PUSH2 0x1E5A JUMP JUMPDEST SWAP3 SWAP2 POP POP JUMP JUMPDEST PUSH1 0x0 DUP1 PUSH1 0x40 DUP4 DUP6 SUB SLT ISZERO PUSH2 0x1E9D JUMPI PUSH2 0x1E9C PUSH2 0x1DED JUMP JUMPDEST JUMPDEST PUSH1 0x0 PUSH2 0x1EAB DUP6 DUP3 DUP7 ADD PUSH2 0x1E3B JUMP JUMPDEST SWAP3 POP POP PUSH1 0x20 PUSH2 0x1EBC DUP6 DUP3 DUP7 ADD PUSH2 0x1E71 JUMP JUMPDEST SWAP2 POP POP SWAP3 POP SWAP3 SWAP1 POP JUMP JUMPDEST PUSH1 0x0 DUP2 ISZERO ISZERO SWAP1 POP SWAP2 SWAP1 POP JUMP JUMPDEST PUSH2 0x1EDB DUP2 PUSH2 0x1EC6 JUMP JUMPDEST DUP3 MSTORE POP POP JUMP JUMPDEST PUSH1 0x0 PUSH1 0x20 DUP3 ADD SWAP1 POP PUSH2 0x1EF6 PUSH1 0x0 DUP4 ADD DUP5 PUSH2 0x1ED2 JUMP JUMPDEST SWAP3 SWAP2 POP POP JUMP JUMPDEST PUSH1 0x0 PUSH1 0x20 DUP3 DUP5 SUB SLT ISZERO PUSH2 0x1F12 JUMPI PUSH2 0x1F11 PUSH2 0x1DED JUMP JUMPDEST JUMPDEST PUSH1 0x0 PUSH2 0x1F20 DUP5 DUP3 DUP6 ADD PUSH2 0x1E3B JUMP JUMPDEST SWAP2 POP POP SWAP3 SWAP2 POP POP JUMP JUMPDEST PUSH1 0x0 DUP2 SWAP1 POP SWAP2 SWAP1 POP JUMP JUMPDEST PUSH1 0x0 PUSH2 0x1F4E PUSH2 0x1F49 PUSH2 0x1F44 DUP5 PUSH2 0x1DF2 JUMP JUMPDEST PUSH2 0x1F29 JUMP JUMPDEST PUSH2 0x1DF2 JUMP JUMPDEST SWAP1 POP SWAP2 SWAP1 POP JUMP JUMPDEST PUSH1 0x0 PUSH2 0x1F60 DUP3 PUSH2 0x1F33 JUMP JUMPDEST SWAP1 POP SWAP2 SWAP1 POP JUMP JUMPDEST PUSH1 0x0 PUSH2 0x1F72 DUP3 PUSH2 0x1F55 JUMP JUMPDEST SWAP1 POP SWAP2 SWAP1 POP JUMP JUMPDEST PUSH2 0x1F82 DUP2 PUSH2 0x1F67 JUMP JUMPDEST DUP3 MSTORE POP POP JUMP JUMPDEST PUSH1 0x0 PUSH1 0x20 DUP3 ADD SWAP1 POP PUSH2 0x1F9D PUSH1 0x0 DUP4 ADD DUP5 PUSH2 0x1F79 JUMP JUMPDEST SWAP3 SWAP2 POP POP JUMP JUMPDEST PUSH2 0x1FAC DUP2 PUSH2 0x1E50 JUMP JUMPDEST DUP3 MSTORE POP POP JUMP JUMPDEST PUSH1 0x0 PUSH1 0x20 DUP3 ADD SWAP1 POP PUSH2 0x1FC7 PUSH1 0x0 DUP4 ADD DUP5 PUSH2 0x1FA3 JUMP JUMPDEST SWAP3 SWAP2 POP POP JUMP JUMPDEST PUSH1 0x0 DUP1 PUSH1 0x0 PUSH1 0x60 DUP5 DUP7 SUB SLT ISZERO PUSH2 0x1FE6 JUMPI PUSH2 0x1FE5 PUSH2 0x1DED JUMP JUMPDEST JUMPDEST PUSH1 0x0 PUSH2 0x1FF4 DUP7 DUP3 DUP8 ADD PUSH2 0x1E3B JUMP JUMPDEST SWAP4 POP POP PUSH1 0x20 PUSH2 0x2005 DUP7 DUP3 DUP8 ADD PUSH2 0x1E3B JUMP JUMPDEST SWAP3 POP POP PUSH1 0x40 PUSH2 0x2016 DUP7 DUP3 DUP8 ADD PUSH2 0x1E71 JUMP JUMPDEST SWAP2 POP POP SWAP3 POP SWAP3 POP SWAP3 JUMP JUMPDEST PUSH2 0x2029 DUP2 PUSH2 0x1E12 JUMP JUMPDEST DUP3 MSTORE POP POP JUMP JUMPDEST PUSH1 0x0 PUSH1 0x20 DUP3 ADD SWAP1 POP PUSH2 0x2044 PUSH1 0x0 DUP4 ADD DUP5 PUSH2 0x2020 JUMP JUMPDEST SWAP3 SWAP2 POP POP JUMP JUMPDEST PUSH1 0x0 PUSH1 0xFF DUP3 AND SWAP1 POP SWAP2 SWAP1 POP JUMP JUMPDEST PUSH2 0x2060 DUP2 PUSH2 0x204A JUMP JUMPDEST DUP3 MSTORE POP POP JUMP JUMPDEST PUSH1 0x0 PUSH1 0x20 DUP3 ADD SWAP1 POP PUSH2 0x207B PUSH1 0x0 DUP4 ADD DUP5 PUSH2 0x2057 JUMP JUMPDEST SWAP3 SWAP2 POP POP JUMP JUMPDEST PUSH1 0x0 DUP1 PUSH1 0x40 DUP4 DUP6 SUB SLT ISZERO PUSH2 0x2098 JUMPI PUSH2 0x2097 PUSH2 0x1DED JUMP JUMPDEST JUMPDEST PUSH1 0x0 PUSH2 0x20A6 DUP6 DUP3 DUP7 ADD PUSH2 0x1E3B JUMP JUMPDEST SWAP3 POP POP PUSH1 0x20 PUSH2 0x20B7 DUP6 DUP3 DUP7 ADD PUSH2 0x1E3B JUMP JUMPDEST SWAP2 POP POP SWAP3 POP SWAP3 SWAP1 POP JUMP JUMPDEST PUSH32 0x4E487B7100000000000000000000000000000000000000000000000000000000 PUSH1 0x0 MSTORE PUSH1 0x21 PUSH1 0x4 MSTORE PUSH1 0x24 PUSH1 0x0 REVERT JUMPDEST PUSH1 0x5 DUP2 LT PUSH2 0x2101 JUMPI PUSH2 0x2100 PUSH2 0x20C1 JUMP JUMPDEST JUMPDEST POP JUMP JUMPDEST PUSH1 0x0 DUP2 SWAP1 POP PUSH2 0x2112 DUP3 PUSH2 0x20F0 JUMP JUMPDEST SWAP2 SWAP1 POP JUMP JUMPDEST PUSH1 0x0 PUSH2 0x2122 DUP3 PUSH2 0x2104 JUMP JUMPDEST SWAP1 POP SWAP2 SWAP1 POP JUMP JUMPDEST PUSH2 0x2132 DUP2 PUSH2 0x2117 JUMP JUMPDEST DUP3 MSTORE POP POP JUMP JUMPDEST PUSH1 0x0 PUSH1 0x20 DUP3 ADD SWAP1 POP PUSH2 0x214D PUSH1 0x0 DUP4 ADD DUP5 PUSH2 0x2129 JUMP JUMPDEST SWAP3 SWAP2 POP POP JUMP JUMPDEST PUSH32 0x4E487B7100000000000000000000000000000000000000000000000000000000 PUSH1 0x0 MSTORE PUSH1 0x22 PUSH1 0x4 MSTORE PUSH1 0x24 PUSH1 0x0 REVERT JUMPDEST PUSH1 0x0 PUSH1 0x2 DUP3 DIV SWAP1 POP PUSH1 0x1 DUP3 AND DUP1 PUSH2 0x219A JUMPI PUSH1 0x7F DUP3 AND SWAP2 POP JUMPDEST PUSH1 0x20 DUP3 LT DUP2 SUB PUSH2 0x21AD JUMPI PUSH2 0x21AC PUSH2 0x2153 JUMP JUMPDEST JUMPDEST POP SWAP2 SWAP1 POP JUMP JUMPDEST PUSH32 0x46756E6374696F6E2063616E6E6F742062652063616C6C656420696E20746869 PUSH1 0x0 DUP3 ADD MSTORE PUSH32 0x7320737461746500000000000000000000000000000000000000000000000000 PUSH1 0x20 DUP3 ADD MSTORE POP JUMP JUMPDEST PUSH1 0x0 PUSH2 0x220F PUSH1 0x27 DUP4 PUSH2 0x1D46 JUMP JUMPDEST SWAP2 POP PUSH2 0x221A DUP3 PUSH2 0x21B3 JUMP JUMPDEST PUSH1 0x40 DUP3 ADD SWAP1 POP SWAP2 SWAP1 POP JUMP JUMPDEST PUSH1 0x0 PUSH1 0x20 DUP3 ADD SWAP1 POP DUP2 DUP2 SUB PUSH1 0x0 DUP4 ADD MSTORE PUSH2 0x223E DUP2 PUSH2 0x2202 JUMP JUMPDEST SWAP1 POP SWAP2 SWAP1 POP JUMP JUMPDEST PUSH32 0x4E487B7100000000000000000000000000000000000000000000000000000000 PUSH1 0x0 MSTORE PUSH1 0x11 PUSH1 0x4 MSTORE PUSH1 0x24 PUSH1 0x0 REVERT JUMPDEST PUSH1 0x0 PUSH2 0x227F DUP3 PUSH2 0x1E50 JUMP JUMPDEST SWAP2 POP PUSH2 0x228A DUP4 PUSH2 0x1E50 JUMP JUMPDEST SWAP3 POP DUP3 DUP3 SUB SWAP1 POP DUP2 DUP2 GT ISZERO PUSH2 0x22A2 JUMPI PUSH2 0x22A1 PUSH2 0x2245 JUMP JUMPDEST JUMPDEST SWAP3 SWAP2 POP POP JUMP JUMPDEST PUSH1 0x0 DUP2 MLOAD SWAP1 POP PUSH2 0x22B7 DUP2 PUSH2 0x1E24 JUMP JUMPDEST SWAP3 SWAP2 POP POP JUMP JUMPDEST PUSH1 0x0 PUSH1 0x20 DUP3 DUP5 SUB SLT ISZERO PUSH2 0x22D3 JUMPI PUSH2 0x22D2 PUSH2 0x1DED JUMP JUMPDEST JUMPDEST PUSH1 0x0 PUSH2 0x22E1 DUP5 DUP3 DUP6 ADD PUSH2 0x22A8 JUMP JUMPDEST SWAP2 POP POP SWAP3 SWAP2 POP POP JUMP JUMPDEST PUSH1 0x0 PUSH1 0x40 DUP3 ADD SWAP1 POP PUSH2 0x22FF PUSH1 0x0 DUP4 ADD DUP6 PUSH2 0x2020 JUMP JUMPDEST PUSH2 0x230C PUSH1 0x20 DUP4 ADD DUP5 PUSH2 0x2020 JUMP JUMPDEST SWAP4 SWAP3 POP POP POP JUMP JUMPDEST PUSH1 0x0 PUSH2 0x231E DUP3 PUSH2 0x1E50 JUMP JUMPDEST SWAP2 POP PUSH2 0x2329 DUP4 PUSH2 0x1E50 JUMP JUMPDEST SWAP3 POP DUP3 DUP3 MUL PUSH2 0x2337 DUP2 PUSH2 0x1E50 JUMP JUMPDEST SWAP2 POP DUP3 DUP3 DIV DUP5 EQ DUP4 ISZERO OR PUSH2 0x234E JUMPI PUSH2 0x234D PUSH2 0x2245 JUMP JUMPDEST JUMPDEST POP SWAP3 SWAP2 POP POP JUMP JUMPDEST PUSH32 0x4E487B7100000000000000000000000000000000000000000000000000000000 PUSH1 0x0 MSTORE PUSH1 0x12 PUSH1 0x4 MSTORE PUSH1 0x24 PUSH1 0x0 REVERT JUMPDEST PUSH1 0x0 PUSH2 0x238F DUP3 PUSH2 0x1E50 JUMP JUMPDEST SWAP2 POP PUSH2 0x239A DUP4 PUSH2 0x1E50 JUMP JUMPDEST SWAP3 POP DUP3 PUSH2 0x23AA JUMPI PUSH2 0x23A9 PUSH2 0x2355 JUMP JUMPDEST JUMPDEST DUP3 DUP3 DIV SWAP1 POP SWAP3 SWAP2 POP POP JUMP JUMPDEST PUSH1 0x0 DUP2 SWAP1 POP SWAP2 SWAP1 POP JUMP JUMPDEST PUSH1 0x0 PUSH2 0x23DA PUSH2 0x23D5 PUSH2 0x23D0 DUP5 PUSH2 0x23B5 JUMP JUMPDEST PUSH2 0x1F29 JUMP JUMPDEST PUSH2 0x1E50 JUMP JUMPDEST SWAP1 POP SWAP2 SWAP1 POP JUMP JUMPDEST PUSH2 0x23EA DUP2 PUSH2 0x23BF JUMP JUMPDEST DUP3 MSTORE POP POP JUMP JUMPDEST PUSH1 0x0 PUSH1 0xC0 DUP3 ADD SWAP1 POP PUSH2 0x2405 PUSH1 0x0 DUP4 ADD DUP10 PUSH2 0x2020 JUMP JUMPDEST PUSH2 0x2412 PUSH1 0x20 DUP4 ADD DUP9 PUSH2 0x1FA3 JUMP JUMPDEST PUSH2 0x241F PUSH1 0x40 DUP4 ADD DUP8 PUSH2 0x23E1 JUMP JUMPDEST PUSH2 0x242C PUSH1 0x60 DUP4 ADD DUP7 PUSH2 0x23E1 JUMP JUMPDEST PUSH2 0x2439 PUSH1 0x80 DUP4 ADD DUP6 PUSH2 0x2020 JUMP JUMPDEST PUSH2 0x2446 PUSH1 0xA0 DUP4 ADD DUP5 PUSH2 0x1FA3 JUMP JUMPDEST SWAP8 SWAP7 POP POP POP POP POP POP POP JUMP JUMPDEST PUSH1 0x0 DUP2 MLOAD SWAP1 POP PUSH2 0x2460 DUP2 PUSH2 0x1E5A JUMP JUMPDEST SWAP3 SWAP2 POP POP JUMP JUMPDEST PUSH1 0x0 DUP1 PUSH1 0x0 PUSH1 0x60 DUP5 DUP7 SUB SLT ISZERO PUSH2 0x247F JUMPI PUSH2 0x247E PUSH2 0x1DED JUMP JUMPDEST JUMPDEST PUSH1 0x0 PUSH2 0x248D DUP7 DUP3 DUP8 ADD PUSH2 0x2451 JUMP JUMPDEST SWAP4 POP POP PUSH1 0x20 PUSH2 0x249E DUP7 DUP3 DUP8 ADD PUSH2 0x2451 JUMP JUMPDEST SWAP3 POP POP PUSH1 0x40 PUSH2 0x24AF DUP7 DUP3 DUP8 ADD PUSH2 0x2451 JUMP JUMPDEST SWAP2 POP POP SWAP3 POP SWAP3 POP SWAP3 JUMP JUMPDEST PUSH1 0x0 PUSH1 0x20 DUP3 DUP5 SUB SLT ISZERO PUSH2 0x24CF JUMPI PUSH2 0x24CE PUSH2 0x1DED JUMP JUMPDEST JUMPDEST PUSH1 0x0 PUSH2 0x24DD DUP5 DUP3 DUP6 ADD PUSH2 0x2451 JUMP JUMPDEST SWAP2 POP POP SWAP3 SWAP2 POP POP JUMP JUMPDEST PUSH1 0x0 PUSH1 0xA0 DUP3 ADD SWAP1 POP PUSH2 0x24FB PUSH1 0x0 DUP4 ADD DUP9 PUSH2 0x2020 JUMP JUMPDEST PUSH2 0x2508 PUSH1 0x20 DUP4 ADD DUP8 PUSH2 0x1FA3 JUMP JUMPDEST PUSH2 0x2515 PUSH1 0x40 DUP4 ADD DUP7 PUSH2 0x1FA3 JUMP JUMPDEST PUSH2 0x2522 PUSH1 0x60 DUP4 ADD DUP6 PUSH2 0x1FA3 JUMP JUMPDEST PUSH2 0x252F PUSH1 0x80 DUP4 ADD DUP5 PUSH2 0x1FA3 JUMP JUMPDEST SWAP7 SWAP6 POP POP POP POP POP POP JUMP JUMPDEST PUSH1 0x0 PUSH1 0x60 DUP3 ADD SWAP1 POP PUSH2 0x254E PUSH1 0x0 DUP4 ADD DUP7 PUSH2 0x2020 JUMP JUMPDEST PUSH2 0x255B PUSH1 0x20 DUP4 ADD DUP6 PUSH2 0x2020 JUMP JUMPDEST PUSH2 0x2568 PUSH1 0x40 DUP4 ADD DUP5 PUSH2 0x1FA3 JUMP JUMPDEST SWAP5 SWAP4 POP POP POP POP JUMP JUMPDEST PUSH1 0x0 PUSH1 0x60 DUP3 ADD SWAP1 POP PUSH2 0x2585 PUSH1 0x0 DUP4 ADD DUP7 PUSH2 0x1FA3 JUMP JUMPDEST PUSH2 0x2592 PUSH1 0x20 DUP4 ADD DUP6 PUSH2 0x1FA3 JUMP JUMPDEST PUSH2 0x259F PUSH1 0x40 DUP4 ADD DUP5 PUSH2 0x1FA3 JUMP JUMPDEST SWAP5 SWAP4 POP POP POP POP JUMP JUMPDEST PUSH1 0x0 PUSH1 0x60 DUP3 ADD SWAP1 POP PUSH2 0x25BC PUSH1 0x0 DUP4 ADD DUP7 PUSH2 0x2020 JUMP JUMPDEST PUSH2 0x25C9 PUSH1 0x20 DUP4 ADD DUP6 PUSH2 0x1FA3 JUMP JUMPDEST PUSH2 0x25D6 PUSH1 0x40 DUP4 ADD DUP5 PUSH2 0x1FA3 JUMP JUMPDEST SWAP5 SWAP4 POP POP POP POP JUMP JUMPDEST PUSH1 0x0 PUSH1 0x80 DUP3 ADD SWAP1 POP PUSH2 0x25F3 PUSH1 0x0 DUP4 ADD DUP8 PUSH2 0x2020 JUMP JUMPDEST PUSH2 0x2600 PUSH1 0x20 DUP4 ADD DUP7 PUSH2 0x1FA3 JUMP JUMPDEST PUSH2 0x260D PUSH1 0x40 DUP4 ADD DUP6 PUSH2 0x1FA3 JUMP JUMPDEST PUSH2 0x261A PUSH1 0x60 DUP4 ADD DUP5 PUSH2 0x1FA3 JUMP JUMPDEST SWAP6 SWAP5 POP POP POP POP POP JUMP JUMPDEST PUSH1 0x0 PUSH1 0x40 DUP3 ADD SWAP1 POP PUSH2 0x2638 PUSH1 0x0 DUP4 ADD DUP6 PUSH2 0x1FA3 JUMP JUMPDEST PUSH2 0x2645 PUSH1 0x20 DUP4 ADD DUP5 PUSH2 0x1FA3 JUMP JUMPDEST SWAP4 SWAP3 POP POP POP JUMP JUMPDEST PUSH1 0x0 PUSH2 0x2657 DUP3 PUSH2 0x1E50 JUMP JUMPDEST SWAP2 POP PUSH2 0x2662 DUP4 PUSH2 0x1E50 JUMP JUMPDEST SWAP3 POP DUP3 DUP3 ADD SWAP1 POP DUP1 DUP3 GT ISZERO PUSH2 0x267A JUMPI PUSH2 0x2679 PUSH2 0x2245 JUMP JUMPDEST JUMPDEST SWAP3 SWAP2 POP POP JUMP INVALID LOG2 PUSH5 0x6970667358 0x22 SLT KECCAK256 RETURNDATASIZE ADDRESS SWAP7 CALLCODE 0xC9 SHL SELFDESTRUCT LOG4 0xB2 SWAP10 XOR 0xE2 CODESIZE 0xCA MSTORE 0xA8 0xF6 0xC9 0xDE TSTORE SWAP13 0xD6 0xF8 0xA5 CREATE 0x2F 0xEF 0x2B 0x1F 0xC5 LT SWAP6 PUSH5 0x736F6C6343 STOP ADDMOD XOR STOP CALLER "
        },
        "methodIdentifiers": {
          "BURN_ADDRESS()": "fccc2813",
          "TOKEN_NAME()": "18821400",
          "TOKEN_TICKER_SYMBOL()": "5265ee55",
          "allowance(address,address)": "dd62ed3e",
          "approve(address,uint256)": "095ea7b3",
          "balanceOf(address)": "70a08231",
          "buyTaxRate()": "691f224f",
          "cap()": "355274ea",
          "decimals()": "313ce567",
          "exchangeMultiSig1()": "85df1d1c",
          "exchangeMultiSig2()": "52cd2388",
          "initializeUniswapLiquidity(address)": "5ecf7a67",
          "marketingMultiSig()": "63cae94f",
          "mintRemainingSupplyForManualLiquidityProvisioning(address)": "0f84acec",
          "name()": "06fdde03",
          "owner()": "8da5cb5b",
          "renounceOwnership()": "715018a6",
          "sellTaxRate()": "24024efd",
          "setTaxRatesToZero()": "eaff1cbc",
          "symbol()": "95d89b41",
          "tokenState()": "e90dd9e2",
          "totalSupply()": "18160ddd",
          "transfer(address,uint256)": "a9059cbb",
          "transferFrom(address,address,uint256)": "23b872dd",
          "transferOwnership(address)": "f2fde38b",
          "uniswapV2PairAddress()": "2b653d44",
          "uniswapV2Router()": "1694505e"
        }
      }
    }
  }
}